:100000000C94460018950000189500001895000003
:10001000189500001895000018950000189500002C
:10002000189500001895000018950000189500001C
:10003000189500001895000018950000189500000C
:100040000C94F422189500000C9479321895000055
:1000500018950000189500001895000018950000EC
:1000600018950000189500001895000018950000DC
:1000700018950000189500000C94AB3218950000FC
:100080001895000018950000189500008FEF8DBF9F
:10009000C0E8E8E14E2E80E18EBFD0E1F0E15F2EB6
:1000A000A89584B7082E877F84BF88E1992781BDF2
:1000B00091BDEEEFFFE0A0E0B1E088278D9331978E
:1000C000E9F787E489B980E08093900088E18AB9F4
:1000D000662485E089B980E080939000599888E192
:1000E0008AB986E080939500579A8BE080939900B7
:1000F00080E08093980070919B007D7F70939B00BF
:1001000086E080939D0088E180939A0070919A0028
:10011000706870939A00BD9ABE9ABF9A89EA8FBDA3
:1001200082E08EBD82E08EBD80E090E09BBD8ABD06
:1001300080E090E099BD88BD80E090E090937900E8
:100140008093780087E083BF84E982BF77B77160CE
:1001500077BF87E083BF86E886B980E487B9139AC2
:10016000149A159AD198D99AD298DA9A8C981798A5
:100170001F9AA798A29AA39AA19AA09AA49AA59A1C
:1001800070E0709371007AE0709370000E94B62363
:10019000A3E4B3E0E4E1FEE60E94C43182E090E033
:1001A000AFE1B3E08D939C9384EF91E0A5E1B3E0E0
:1001B0008D939C9380E08093170380E080931803D5
:1001C00078940E94C30682E593E0A3E1B3E08D93A7
:1001D0009C9383E18093E70282E380930E03A8E877
:1001E000B3E08C9199279BBD8ABDAFE9B3E08C91B8
:1001F000992799BD88BDA6EBB3E08C919927909380
:100200007900809378000E9482010E943D0F0E9435
:10021000A7110E9410120E9475140E9496150E9448
:10022000ED020E945C030E9440050E94A6050E9408
:100230005E06ADEBB1E00D911C91043650E0150760
:1002400018F011F00C9426010C94610180E090E00C
:10025000ADEBB1E08D939C93A0ECB1E08C918F5FFE
:100260008C930E94940AAEE0B3E08C918F5F8C93E4
:10027000A7EEB2E08C918F5F8C93A5EEB2E00E9466
:100280003123ABE1B3E00D911C91003050E0150734
:1002900018F011F00C944E010C945201ABE1B3E054
:1002A0000E943823A5EEB2E00D911C910C3350E072
:1002B000150718F011F00C945F010C9461010E9475
:1002C000E1160091C001033018F011F00C946A019E
:1002D0000C946F0180E08093C0010E94D40C0091C7
:1002E0004703013011F00C9477010C940110009138
:1002F000B703013011F00C947F010E9489131B9801
:100300000C9403010091C101013011F00C94D10251
:1003100080E08093C101E4ECF1E004E0A9EBB3E0FC
:100320000E949F33A4ECB1E00E94ED33EA2FFB2F33
:1003300037970FEFAFEBB3E00E949F33A9EBB3E029
:10034000ECE6FEE60E94F33311F00C94B501E2E70F
:10035000FEE60E944E230E945523E1E0F0E00E9459
:1003600075230E9489130C94AD02A9EBB3E0E8E871
:10037000FEE60E94F33311F00C94EA01AFEBB3E018
:100380000E94F835EDE0F0E0A9E2B3E00E9492337C
:10039000E5E0F0E0A9E2B3E094E07BE70E94B0334F
:1003A000EEE8FEE60E944E23A0E0B0E1E9E2F3E0D1
:1003B000552744E00E946C240E944623E2EAFEE6B0
:1003C0000E944E230E945523E3E0F0E00E94752333
:1003D0000C94AD02A9EBB3E0E6EAFEE60E94F3332B
:1003E00011F00C941F02AFEBB3E00E94F835EDE082
:1003F000F0E0A1E3B3E00E949233EDE0F0E0A1E38E
:10040000B3E094E07BE70E94B033ECEAFEE60E94A2
:100410004E23A0E0B0E1E1E3F3E0552744E00E9481
:100420006C240E944623E2EAFEE60E944E230E94CC
:100430005523E3E0F0E00E9475230C94AD02A9EB94
:10044000B3E0EAEBFEE60E94F33311F00C942C02C9
:100450000E9401100C94AD02A9EBB3E0E0ECFEE6C3
:100460000E94F33311F00C9437020C94AD02A9EB07
:10047000B3E0E6ECFEE60E94F33311F00C949E022A
:10048000ECECFEE60E944E23A0E0B0E1E6EDFEE6D5
:100490000E94AD310E9446230E9455230E9455239D
:1004A000EEEDFEE60E944E230E945523E2EFFEE6AB
:1004B0000E944E230E9455230E945523E0E1FFE64F
:1004C0000E944E230E945523ECE1FFE60E944E233A
:1004D0000E9455230E945523E2E4FFE60E944E232A
:1004E0000E945523E2E5FFE60E944E230E94552319
:1004F000E4E8FFE60E944E230E945523ECEBFFE662
:100500000E944E230E9455230E945523E2EEFFE6EF
:100510000E944E230E945523E2EFFFE60E944E23E5
:100520000E945523EAE0F0E70E944E230E945523E3
:10053000E5E0F0E00E9475230C94AD02A9EBB3E076
:10054000E2E2F0E70E94F33311F00C94AD020E9456
:10055000D40CE5E0F0E00E947523A4ECB1E088271C
:100560008C9381E08093DA010091DA01043118F074
:1005700011F00C94D10280E0AAEDB1E0AD90BB2463
:10058000A3ECB1E0AA0DBB1D8C93A2E3B1E00E94E5
:10059000DF32AAEDB1E08C918F5F8C9310F40C9454
:1005A000B402A2ECB1E00E943123A2ECB1E00D91C3
:1005B0001C91023350E0150718F011F00C94E20280
:1005C0000C94EC0280E090E0A2ECB1E08D939C935F
:1005D000A2E3B1E00E94DF320895ABE1B3E00D91F8
:1005E0001C91003050E0150781E009F080E08F9306
:1005F000A5E3B0E00C9102FB81E00EF080E09F915A
:100600008923882311F40C940F03A3E3B2E0E8E2FA
:10061000F0E70E94AD310E946116AA98AB98ABE159
:10062000B3E00D911C91003050E0150780E010F010
:1006300009F081E08F93A5E3B0E00C9102FB81E02B
:100640000EF480E09F9189238F93A5E3B0E00C9195
:1006500003FB81E00EF480E09F918923882311F44D
:100660000C945B030091B803003011F00C943A0332
:100670000C945B030091B803013011F00C944B0310
:10068000A3E3B2E0E8E3F0E70E94AD310E94611617
:10069000AA9A0C945B030091B803023011F00C94F9
:1006A0005B03A3E3B2E0E8E4F0E70E94AD310E940F
:1006B0006116AA9AAB9A0895E5E7F3E0A4EBB1E0DE
:1006C0000E94F53311F00C94680381E0809372036B
:1006D000EEE7F3E0A4EBB1E00E94F53311F00C94E7
:1006E000740380E080937203ECE8F3E0A4EBB1E0E4
:1006F0000E94F53311F00C94800381E0809389030C
:10070000E5E9F3E0A4EBB1E00E94F53311F00C94BD
:100710008C0380E080938903E3EAF3E0A4EBB1E08B
:100720000E94F53311F00C94980381E08093A003AC
:10073000ECEAF3E0A4EBB1E00E94F53311F00C9485
:10074000A40380E08093A00300917203013081E054
:1007500009F080E08F93A7E8B3E04D915527AAE414
:10076000B0E00D911C910417150781E008F080E0BE
:100770009F918923882311F40C94E803ACE6B3E03D
:100780004D915C91A3E7B3E00D911C9104171507FF
:1007900010F00C94D103A3E7B3E00E9431230C9432
:1007A000E803ACE6B3E04D915C91A3E7B3E00D91B3
:1007B0001C910417150710F40C94E803AAE4B0E0A8
:1007C0000E94312380E090E0A3E7B3E08D939C93F7
:1007D00000917203003081E009F080E08F93A8E877
:1007E000B3E04D915527AAE4B0E00D911C91041798
:1007F000150780E010F009F081E09F91892388239C
:1008000011F40C942D04ACE6B3E04D915C91A3E798
:10081000B3E00D911C910417150710F00C94160409
:10082000A3E7B3E00E9431230C942D04ACE6B3E0BF
:100830004D915C91A3E7B3E00D911C91041715074E
:1008400010F40C942D04AAE4B0E00E94382380E058
:1008500090E0A3E7B3E08D939C930091890301306E
:1008600081E009F080E08F93AEE9B3E04D91552728
:10087000A8E4B0E00D911C910417150781E008F081
:1008800080E09F918923882311F40C947104AEE6D3
:10089000B3E04D915C91AAE8B3E00D911C9104176F
:1008A000150710F00C945A04AAE8B3E00E94312313
:1008B0000C947104AEE6B3E04D915C91AAE8B3E00C
:1008C0000D911C910417150710F40C947104A8E401
:1008D000B0E00E94312380E090E0AAE8B3E08D937D
:1008E0009C9300918903003081E009F080E08F93B0
:1008F000AFE9B3E04D915527A8E4B0E00D911C910C
:100900000417150780E010F009F081E09F9189231A
:10091000882311F40C94B604AEE6B3E04D915C91DB
:10092000AAE8B3E00D911C910417150710F00C9480
:100930009F04AAE8B3E00E9431230C94B604AEE60B
:10094000B3E04D915C91AAE8B3E00D911C910417BE
:10095000150710F40C94B604A8E4B0E00E94382304
:1009600080E090E0AAE8B3E08D939C930091A0030F
:10097000013081E009F080E08F93A5EBB3E04D9169
:100980005527A8E7B0E00D911C910417150781E0E9
:1009900008F080E09F918923882311F40C94FA04D5
:1009A000A0E7B3E04D915C91A1EAB3E00D911C91F9
:1009B0000417150710F00C94E304A1EAB3E00E94B9
:1009C00031230C94FA04A0E7B3E04D915C91A1EAC5
:1009D000B3E00D911C910417150710F40C94FA0460
:1009E000A8E7B0E00E94312380E090E0A1EAB3E004
:1009F0008D939C930091A003003081E009F080E08A
:100A00008F93A6EBB3E04D915527A8E7B0E00D9189
:100A10001C910417150780E010F009F081E09F9108
:100A20008923882311F40C943F05A0E7B3E04D918E
:100A30005C91A1EAB3E00D911C910417150710F029
:100A40000C942805A1EAB3E00E9431230C943F05E1
:100A5000A0E7B3E04D915C91A1EAB3E00D911C9148
:100A60000417150710F40C943F05A8E7B0E00E94A6
:100A7000382380E090E0A1EAB3E08D939C93089541
:100A8000ADE1B3E00D911C91AFE1B3E04D915C910C
:100A9000041B150BA1E2B3E00D931C93ADE1B3E091
:100AA0000D911C91AFE1B3E04D915C91040F151FC6
:100AB000A3E2B3E00D931C93A1E2B3E04D915C91EE
:100AC000A3E1B3E00D911C910417150781E014F028
:100AD00009F080E08F93A5E3B0E00C9101FB81E089
:100AE0000EF480E09F918923882311F40C948105F2
:100AF000A99AA3E3B2E0ECE5F0E70E94AD310E94D1
:100B00006116A3E2B3E04D915C91A3E1B3E00D91D6
:100B10001C910417150780E00CF081E08F93A5E38A
:100B2000B0E00C9101FB81E00EF080E09F91892301
:100B3000882311F40C94A505A998A3E3B2E0ECE690
:100B4000F0E70E94AD310E9461160895E3E4F3E0FE
:100B50000E944334E7E3F3E00E943E340E949D3557
:100B6000EDE0F0E0ABE3B3E00E949233E3E4F3E0C6
:100B70000E944334E7E3F3E00E943E340E948E3546
:100B8000EDE0F0E0AFE3B3E00E949233E5E2F3E0A2
:100B90000E943E34EBE3F3E00E9443340E9425348C
:100BA00080E010F009F081E08F93A5E3B0E00C91B4
:100BB00004FB81E00EF480E09F9189238F93E5E2AE
:100BC000F3E00E943E34E8E1FEE60E94EB350E942D
:100BD000253480E010F009F081E09F9189238F9304
:100BE000E5E2F3E00E943E34ECE1FEE60E94EB35E4
:100BF0000E94253481E008F080E09F9189238823BA
:100C000011F40C940C06AC9AA3E3B2E0EEE7F0E723
:100C10000E94AD310E946116E5E2F3E00E943E348D
:100C2000EFE3F3E00E9443340E94253481E008F0B2
:100C300080E08F93A5E3B0E00C9104FB81E00EF01F
:100C400080E09F918923882311F40C943006AC989E
:100C5000A3E3B2E0ECE8F0E70E94AD310E94611638
:100C6000E5E2F3E00E943E34E8E1FEE60E94EB3567
:100C70000E94253481E008F080E08F93E5E2F3E004
:100C80000E943E34ECE1FEE60E94EB350E942534E2
:100C900080E010F009F081E09F91892B8F93A5E30C
:100CA000B0E00C9104FB81E00EF080E09F9189237D
:100CB000882311F40C945D06AC980895E8E4F3E001
:100CC000A4EBB1E00E94F53381E009F080E08F935E
:100CD000A5E3B0E00C9100FB81E00EF480E09F9171
:100CE0008923882311F40C947E06A89AA3E3B2E02A
:100CF000EAE9F0E70E94AD310E946116E1E5F3E018
:100D0000A4EBB1E00E94F53381E009F080E08F931D
:100D1000A5E3B0E00C9100FB81E00EF080E09F9134
:100D20008923882311F40C949E06A898A3E3B2E0CB
:100D3000ECEAF0E70E94AD310E946116EAE5F3E0CB
:100D4000A4EBB1E00E94F53311F00C94B006A89A20
:100D5000A3E3B2E0EAE9F0E70E94AD310E94611638
:100D6000E3E6F3E0A4EBB1E00E94F53311F00C945C
:100D7000C206A898A3E3B2E0ECEAF0E70E94AD3126
:100D80000E94611608951C9AA5E1B3E08D919C9193
:100D90000E94A7231C981B9AA5E1B3E08D919C911A
:100DA0000E94A7231B981D9AA5E1B3E08D919C9109
:100DB0000E94A7231D9880E090E09BBD8ABD80E043
:100DC00090E099BD88BD80E090E090937900809399
:100DD00078008CE10E946E230E946B2384E690E0F1
:100DE0000E94A723EEEBF0E70E946423A0E0B0E1AD
:100DF000E6EDFEE60E94AD310E945C230E946B236B
:100E0000EEEBF0E70E944E23A0E0B0E1E6EDFEE657
:100E10000E94AD310E9446230E945523E0E0F0E09D
:100E2000AFEBB1E00E94C9330091BF01013081E016
:100E300009F480E08F9300911703003081E009F0FE
:100E400080E09F918923882311F40C948307F89400
:100E50001D9AE4EDF0E70E9464230E946B2384E274
:100E60000E94582384E20E94582384E20E9458235F
:100E7000E1E0F0E00E947523EEEDF0E70E946423CC
:100E80000E946B23E4EEF0E70E944E230E9455235C
:100E9000E1E0F0E00E947523EAEEF0E70E946423AF
:100EA0000E946B23EAEEF0E70E944E230E94552336
:100EB000E1E0F0E00E947523E6EFF0E70E94642392
:100EC0000E946B23EEEFF0E70E944E238AE00E941F
:100ED0005823E1E0F0E00E9475231D987894A2E386
:100EE000B1E00E94DF32A3E5B1E00E94DF3281E091
:100EF0008093BF01E0E0F0E0AFEBB1E07BE70E9460
:100F0000AD330C9489070091BF01013011F00C94AE
:100F100089070E949615ADE2B3E0E9E0F0E094E0C5
:100F20000E94CC33EDE2F3E00E943E34E0E2FEE6C4
:100F30000E94EB350E94253481E008F080E08F9319
:100F4000EDE2F3E00E943E34E4E2FEE60E94EB357F
:100F50000E94253480E010F009F081E09F91892BF8
:100F60008F93EDE2F3E00E943E34E8E2FEE60E9459
:100F7000EB350E94253481E009F080E09F91892BB8
:100F8000882311F40C94D207ADE2B3E0ECE2FEE664
:100F90000E94C431E9E0F0E0ADE2B3E094E07BE729
:100FA0000E94B033A9E2B3E0E5E0F0E094E00E94F3
:100FB000CC33E9E2F3E00E943E34E0E2FEE60E9438
:100FC000EB350E94253481E008F080E08F93E9E260
:100FD000F3E00E943E34E4E2FEE60E94EB350E941C
:100FE000253480E010F009F081E09F91892B8F93E8
:100FF000E9E2F3E00E943E34E8E2FEE60E94EB35CF
:101000000E94253481E009F080E09F91892B88239C
:1010100011F40C941908A9E2B3E0E0E3FEE60E94A3
:10102000C431E5E0F0E0A9E2B3E094E07BE70E94A0
:10103000B033A1E3B3E0EDE0F0E094E00E94CC3304
:10104000E1E3F3E00E943E34E4E3FEE60E94EB3588
:101050000E94253481E008F080E08F93E1E3F3E023
:101060000E943E34E8E3FEE60E94EB350E94253400
:1010700080E010F009F081E09F91892B8F93E1E3EC
:10108000F3E00E943E34E8E2FEE60E94EB350E9467
:10109000253481E009F080E09F91892B882311F4A9
:1010A0000C946008A1E3B3E0ECE3FEE60E94C431D7
:1010B000EDE0F0E0A1E3B3E094E07BE70E94B03321
:1010C000A7E3B3E0E2E1F0E094E00E94CC33E7E391
:1010D000F3E00E943E34E0E4FEE60E94EB350E941D
:1010E000253480E010F009F081E08F93E7E3F3E02E
:1010F0000E943E34E4E4FEE60E94EB350E94253473
:1011000081E008F080E09F91892B882311F40C94F2
:101110009708A7E3B3E0E8E4FEE60E94C431E2E109
:10112000F0E0A7E3B3E094E07BE70E94B0330091E6
:101130001803003081E009F080E08F93A1E2B0E075
:101140000C9107FB81E00EF480E09F9189238823B6
:1011500011F40C94AF080E942C160E9457180091AD
:101160001803013081E009F080E08F93A1E2B0E044
:101170000C9107FB81E00EF080E09F91892B882382
:1011800011F40C94920AE3E0F0E0ADE1B3E00E94C8
:10119000CB33ADE1B3E00D911C91003951E015075F
:1011A00080E014F009F081E08F93ADE1B3E00D91A0
:1011B0001C91043650E0150780E00CF481E09F910B
:1011C000892B882311F40C94F2088AEF90E0ADE1AA
:1011D000B3E08D939C93E3E0F0E0ADE1B3E07BE717
:1011E0000E94AF33E6E1F0E0A8E4B3E098E00E94AB
:1011F000D333EFE1F0E0A1E5B3E098E00E94D33310
:10120000E8E2F0E0AAE5B3E098E00E94D333E1E33E
:10121000F0E0A3E6B3E098E00E94D333E1E0F0E031
:10122000A9E1B3E00E94CB33A9E1B3E00D911C9199
:10123000043853E0150718F011F00C9421090C94B0
:101240002E098CE291E0A9E1B3E08D939C93E1E05B
:10125000F0E0A9E1B3E07BE70E94AF33ECE7F0E018
:10126000A8EBB3E00E94C9330091B803023018F034
:1012700011F00C943D090C94470980E08093B80369
:10128000ECE7F0E0A8EBB3E07BE70E94AD33EAE3E4
:10129000F0E0ACE6B3E00E94CB33ACE6B3E00D91F6
:1012A0001C91043C59E0150780E010F009F081E042
:1012B0008F93ACE6B3E00D911C91043650E0150716
:1012C00081E008F080E09F91892B882311F40C9431
:1012D000760988EE93E0ACE6B3E08D939C93EAE365
:1012E000F0E0ACE6B3E07BE70E94AF33ECE3F0E084
:1012F000AEE6B3E00E94CB33AEE6B3E00D911C91B5
:10130000043C59E0150780E010F009F081E08F936C
:10131000AEE6B3E00D911C91043650E0150781E074
:1013200008F080E09F91892B882311F40C94A50983
:1013300088EE93E0AEE6B3E08D939C93ECE3F0E0AF
:10134000AEE6B3E07BE70E94AF33EEE3F0E0A0E768
:10135000B3E00E94CB33A0E7B3E00D911C91043CB5
:1013600059E0150780E010F009F081E08F93A0E7C5
:10137000B3E00D911C91043650E0150781E008F0B0
:1013800080E09F91892B882311F40C94D40988EE76
:1013900093E0A0E7B3E08D939C93EEE3F0E0A0E749
:1013A000B3E07BE70E94AF33E0E4F0E0A5E7B3E011
:1013B00098E00E94D333E9E4F0E0AEE7B3E098E0D0
:1013C0000E94D333E2E5F0E0A7E8B3E00E94C9331E
:1013D000E3E5F0E0A8E8B3E00E94C9330091880398
:1013E000043618F011F00C94F7090C94010A80E00F
:1013F00080938803E3E5F0E0A8E8B3E07BE70E9490
:10140000AD33E4E5F0E0ACE8B3E098E00E94D3331C
:10141000EDE5F0E0A5E9B3E098E00E94D333E6E61D
:10142000F0E0AEE9B3E00E94C933E7E6F0E0AFE9EF
:10143000B3E00E94C93300919F03043618F011F005
:101440000C94240A0C942E0A80E080939F03E7E614
:10145000F0E0AFE9B3E07BE70E94AD33E8E6F0E00F
:10146000A3EAB3E098E00E94D333E1E7F0E0ACEA0E
:10147000B3E098E00E94D333EAE7F0E0A5EBB3E0F5
:101480000E94C933EBE7F0E0A6EBB3E00E94C9335A
:101490000091B603043618F011F00C94510A0C9424
:1014A0005B0A80E08093B603EBE7F0E0A6EBB3E0E5
:1014B0007BE70E94AD33A7E3B3E0E2E1F0E094E024
:1014C0000E94CC33E7E3F3E00E943E34E8E1FEE61D
:1014D0000E94EB350E94253481E008F080E08F9374
:1014E000E7E3F3E00E943E34E0E4FEE60E94EB35E1
:1014F0000E94253480E010F009F081E09F91892B53
:10150000882311F40C94920AA7E3B3E0E8E4FEE622
:101510000E94C431E2E1F0E0A7E3B3E094E07BE7AE
:101520000E94B033089508958CE10E946E230E94BA
:101530006B2384E690E00E94A7230E940924ACE577
:10154000B1E00E945E23E2E0F1E70E9464230E9482
:101550000924A5E6B1E00E945E23A0E0B0E1E6ED3B
:10156000FEE60E94AD310E945C230E946B23E4E002
:10157000F1E70E946423A5E3B0E08C9182FBA0E038
:10158000B0E10E94DC318D9388278C930E945C230C
:10159000E0E1F1E70E946423A0E0B0E1EBE1F3E0D9
:1015A0000E9405330E945C23E4E1F1E70E9464237A
:1015B0000E946B23E6E1F1E70E946423A5E3B0E01B
:1015C0008C9183FBA0E0B0E10E94DC318D938827F1
:1015D0008C930E945C23E0E1F1E70E946423A0E089
:1015E000B0E1EBE1F3E00E9405330E945C23E4E10B
:1015F000F1E70E9464230E946B23E2E2F1E70E947C
:101600006423A5E3B0E08C9181FBA0E0B0E10E94EF
:10161000DC318D9388278C930E945C23EAE2F1E70A
:101620000E946423A0E0B0E1E1E2F3E00E940E3307
:101630000E945C23ECE2F1E70E946423A0E0B0E1A9
:10164000E3E2F3E00E940E330E945C23E4E1F1E761
:101650000E9464230E946B23EEE2F1E70E94642360
:10166000A5E3B0E08C9180FBA0E0B0E10E94DC310A
:101670008D9388278C930E945C23E2E0F1E70E941F
:101680006423A8E4B3E00E945E23ECE2F1E70E9449
:101690006423A1E5B3E00E945E23E8E3F1E70E9442
:1016A0006423AAE5B3E00E945E23ECE2F1E70E9426
:1016B0006423A3E6B3E00E945E230E946B23ECE365
:1016C000F1E70E946423A5E3B0E08C9184FBA0E0E5
:1016D000B0E10E94DC318D9388278C930E945C23BB
:1016E000EAE2F1E70E946423A0E0B0E1E7E3F3E07F
:1016F000552744E00E946C240E945C23E4E1F1E75A
:101700000E9464230E946B23E8E4F1E70E946423B3
:10171000A5E3B0E08C9185FBA0E0B0E10E94DC3154
:101720008D9388278C930E945C230E946B23EEE4A8
:10173000F1E70E946423A0E0B0E1EAE4F0E00E9457
:1017400005330E945C23E4E5F1E70E946423A0E0F6
:10175000B0E1E7E8F3E00E9415330E945C23ECE57A
:10176000F1E70E946423A5E7B3E00E945E23ECE268
:10177000F1E70E946423A0E0B0E1E8E8F3E00E9412
:1017800015330E945C23ECE5F1E70E946423AEE789
:10179000B3E00E945E230E946B23EEE5F1E70E9416
:1017A0006423A0E0B0E1E8E4F0E00E9405330E9489
:1017B0005C23E4E5F1E70E946423A0E0B0E1EEE9F8
:1017C000F3E00E9415330E945C23ECE5F1E70E94F0
:1017D0006423ACE8B3E00E945E23ECE2F1E70E94F0
:1017E0006423A0E0B0E1EFE9F3E00E9415330E942A
:1017F0005C23ECE5F1E70E946423A5E9B3E00E94D5
:101800005E230E946B23E4E6F1E70E946423A0E0DC
:10181000B0E1E8E7F0E00E9405330E945C23E4E5D4
:10182000F1E70E946423A0E0B0E1E5EBF3E00E9461
:1018300015330E945C23ECE5F1E70E946423A3EAE0
:10184000B3E00E945E23ECE2F1E70E946423A0E093
:10185000B0E1E6EBF3E00E9415330E945C23ECE577
:10186000F1E70E946423ACEAB3E00E945E230E9489
:101870006B23EAE6F1E70E9464230E946B23ECE607
:10188000F1E70E946423A0E0B0E1E5E2F3E0552730
:1018900044E00E946C240E945C23E2E7F1E70E948E
:1018A0006423A0E0B0E1E8EEF2E0552744E00E94B6
:1018B0006C240E945C23E6E7F1E70E9464230E9407
:1018C0006B23EAE7F1E70E946423A0E0B0E1E3E1E3
:1018D000F3E00E940E330E945C23E2E8F1E70E94ED
:1018E00064230E946B23E6E8F1E70E946423A0E0F2
:1018F000B0E1E3E0F3E00E9415330E945C23009125
:101900000303003011F00C948B0CEEE8F1E70E9419
:1019100064230E946B2300910303013011F00C94A7
:10192000970CEAE6F1E70E944E230E945523E2E974
:10193000F1E70E946423A0E0B0E1E1E0F3E00E945F
:1019400015330E945C23EAE2F1E70E946423A0E0E1
:10195000B0E1E9E1F3E00E9405330E945C23ECE989
:10196000F1E70E9464230E946B23E0EAF1E70E9402
:101970006423A0E0B0E1E2E0F3E00E9415330E94AE
:101980005C23ECEAF1E70E946423A0E0B0E1ECE61E
:10199000F3E00E9405330E945C23E4E1F1E70E943A
:1019A00064230E946B230895EAE6F1E70E944E2328
:1019B0000E9455230E940924ACE5B1E00E9448230F
:1019C000E2E0F1E70E944E230E940924A5E6B1E07F
:1019D0000E944823E4EBF1E70E944E23A0E0B0E12F
:1019E000E6EDFEE60E94AD310E9446230E9455239B
:1019F000E4E0F1E70E944E23A5E3B0E08C9182FB86
:101A0000A0E0B0E10E94DC318D9388278C930E9486
:101A10004623E0E1F1E70E944E23A0E0B0E1EBE1D4
:101A2000F3E00E9405330E944623E4E1F1E70E94BF
:101A30004E230E945523E6E1F1E70E944E23A5E3E1
:101A4000B0E08C9183FBA0E0B0E10E94DC318D938B
:101A500088278C930E944623E0E1F1E70E944E2301
:101A6000A0E0B0E1EBE1F3E00E9405330E944623E1
:101A7000E4E1F1E70E944E230E945523E2E2F1E700
:101A80000E944E23A5E3B0E08C9181FBA0E0B0E181
:101A90000E94DC318D9388278C930E944623EAE2D2
:101AA000F1E70E944E23A0E0B0E1E1E2F3E00E9402
:101AB0000E330E944623ECE2F1E70E944E23A0E0A1
:101AC000B0E1E3E2F3E00E940E330E944623E4E13A
:101AD000F1E70E944E230E945523EEE2F1E70E94B7
:101AE0004E23A5E3B0E08C9180FBA0E0B0E10E9422
:101AF000DC318D9388278C930E944623E2E0F1E746
:101B00000E944E23A8E4B3E00E944823ECE2F1E7F0
:101B10000E944E23A1E5B3E00E944823E8E3F1E7E9
:101B20000E944E23AAE5B3E00E944823ECE2F1E7CD
:101B30000E944E23A3E6B3E00E9448230E9455234F
:101B4000ECE3F1E70E944E23A5E3B0E08C9184FB27
:101B5000A0E0B0E10E94DC318D9388278C930E9435
:101B60004623EAE2F1E70E944E23A0E0B0E1E7E37A
:101B7000F3E0552744E00E946C240E944623E4E1F0
:101B8000F1E70E944E230E945523E8E4F1E70E940A
:101B90004E23A5E3B0E08C9185FBA0E0B0E10E946C
:101BA000DC318D9388278C930E9446230E94552315
:101BB000EEE4F1E70E944E23A0E0B0E1EAE4F0E0B9
:101BC0000E9405330E944623E4E5F1E70E944E237C
:101BD000A0E0B0E1E7E8F3E00E9415330E9446235D
:101BE000ECE5F1E70E944E23A5E7B3E00E9448230D
:101BF000ECE2F1E70E944E23A0E0B0E1E8E8F3E078
:101C00000E9415330E944623ECE5F1E70E944E2323
:101C1000AEE7B3E00E9448230E945523EEE5F1E7CA
:101C20000E944E23A0E0B0E1E8E4F0E00E9405331A
:101C30000E944623E4E5F1E70E944E23A0E0B0E1D4
:101C4000EEE9F3E00E9415330E944623ECE5F1E74C
:101C50000E944E23ACE8B3E00E944823ECE2F1E797
:101C60000E944E23A0E0B0E1EFE9F3E00E941533BB
:101C70000E944623ECE5F1E70E944E23A5E9B3E07C
:101C80000E9448230E945523E4E6F1E70E944E2378
:101C9000A0E0B0E1E8E7F0E00E9405330E944623AF
:101CA000E4E5F1E70E944E23A0E0B0E1E5EBF3E0CC
:101CB0000E9415330E944623ECE5F1E70E944E2373
:101CC000A3EAB3E00E944823ECE2F1E70E944E232E
:101CD000A0E0B0E1E6EBF3E00E9415330E9446235A
:101CE000ECE5F1E70E944E23ACEAB3E00E94482302
:101CF0000E945523EAE6F1E70E944E230E945523F5
:101D0000ECE6F1E70E944E23A0E0B0E1E5E2F3E06B
:101D1000552744E00E946C240E944623E2E7F1E745
:101D20000E944E23A0E0B0E1E8EEF2E0552744E047
:101D30000E946C240E944623E6E7F1E70E944E23AE
:101D40000E945523EAE7F1E70E944E23A0E0B0E1AC
:101D5000E3E1F3E00E940E330E944623E2E8F1E75C
:101D60000E944E230E945523E6E8F1E70E944E238D
:101D7000A0E0B0E1E3E0F3E00E9415330E944623C7
:101D800000910303003011F00C94CC0EEEE8F1E763
:101D90000E944E230E94552300910303013011F04D
:101DA0000C94D80EEAE6F1E70E944E230E945523D8
:101DB000E2E9F1E70E944E23A0E0B0E1E1E0F3E0C8
:101DC0000E9415330E944623EAE2F1E70E944E2367
:101DD000A0E0B0E1E9E1F3E00E9405330E94462370
:101DE000ECE9F1E70E944E230E945523E0EAF1E777
:101DF0000E944E23A0E0B0E1E2E0F3E00E94153340
:101E00000E944623ECEAF1E70E944E23A0E0B0E1F5
:101E1000ECE6F3E00E9405330E944623E4E1F1E79B
:101E20000E944E230E945523ECEBF1E70E944E23C3
:101E3000A0E0B0E1E9E2F3E0552744E00E946C2421
:101E40000E944623E4ECF1E70E944E230E945523B2
:101E5000E8ECF1E70E944E23A0E0B0E1E1E3F3E01B
:101E6000552744E00E946C240E944623E4ECF1E7ED
:101E70000E944E230E94552308950091E7020A30E4
:101E800018F011F00C94460F0C94001080E0809331
:101E9000F602A8EEB2E0E8E2FEE60E94C43180E07D
:101EA0008093E702F8940E94BE2310E90E94D42395
:101EB0001CE90E94D4230E94CE2381E08093F50286
:101EC0000091F5020A3F18F011F00C94920F0E9455
:101ED000BE2311E90E94D4230E94F123A2EFB2E0B5
:101EE0001C930E94F123A3EFB2E01C930E94F12304
:101EF000A4EFB2E01C930E94CE23A4EFB2E00C91B9
:101F000007FB16F40C94860F0C94920F81E090E07E
:101F10000E94A723A5EFB2E08C918F5F8C9310F401
:101F20000C94600F0E94BE2311E90E94D4230E94EA
:101F3000F123A2EFB2E01C930E94F123A3EFB2E0E1
:101F40001C930E94F123A4EFB2E01C930E94CE23C5
:101F500078949091F2028091F302A0EFB2E08D9319
:101F60009C93ECE4FEE60E94EB35E0EFF2E0D190CA
:101F7000E080FF2400270E94A6340E94F634EDE0A2
:101F8000F0E0ACEEB2E00E949233E0E5FEE60E94A3
:101F9000EB35ECEEF2E00E943E340E944F35EDE06E
:101FA000F0E0ACEEB2E00E949233ECEEF2E00E9480
:101FB0004334E8EEF2E00E943E340E949D35EDE0AD
:101FC000F0E0A8EEB2E00E949233A6EFB2E08C916E
:101FD0008F5F8C930091F602053011F00C944F0F37
:101FE000E4E5FEE60E94EB35E8EEF2E00E943E34C6
:101FF0000E94F634EDE0F0E0A8EEB2E00E949233E9
:1020000008951C9A1D9A1B98E2EDF1E70E944E2359
:102010000E9455238CE380933503E2E0F2E70E94AF
:102020004E23A0E0B0E1E5E3F3E00E9415330E9407
:102030004623EAE2F2E70E944E230E945523809154
:102040003503815080933503E1E0F0E00E94752371
:1020500000913503003011F00C940D10A9E2B3E0AB
:10206000E8E2FEE60E94C43180E08093350384E11B
:102070008093E7020E943D0F8AE090E00E94A72330
:10208000E8EEF2E00E944334E9E2F3E00E943E34DD
:102090000E949D35EDE0F0E0A9E2B3E00E949233AA
:1020A000A5E3B3E08C918F5F8C93009135030A30E8
:1020B00011F00C943A10E0E4FEE60E94EB35E9E200
:1020C000F3E00E943E340E94F634EDE0F0E0A9E235
:1020D000B3E00E949233E5E0F0E0A9E2B3E094E0DF
:1020E0007BE70E94B033E0E3F2E70E944E23A0E0DA
:1020F000B0E1E9E2F3E0552744E00E946C240E943D
:102100004623E2E4F2E70E944E230E945523E5E0D5
:10211000F0E00E947523E4E4F2E70E944E230E945F
:10212000552384E1809335038CE10E9458230E945B
:10213000552384E690E00E94A723E2E6F2E70E949E
:102140004E23A0E0B0E1E5E3F3E00E9415330E94E6
:102150004623EAE2F2E70E944E230E945523809133
:102160003503815080933503E1E0F0E00E94752350
:1021700000913503003011F00C949410E0E8F2E780
:102180000E944E230E9455238CE3809335038CE1FB
:102190000E9458230E94552384E690E00E94A723C2
:1021A000E0EBF2E70E944E23A0E0B0E1E5E3F3E0CC
:1021B0000E9415330E944623EAE2F2E70E944E2372
:1021C0000E94552380913503815080933503E1E0CF
:1021D000F0E00E94752300913503003011F00C945B
:1021E000C710ADE2B3E0E8E2FEE60E94C43180E051
:1021F0008093350384E18093E7020E943D0F8AE0DB
:1022000090E00E94A723E8EEF2E00E944334EDE262
:10221000F3E00E943E340E949D35EDE0F0E0ADE237
:10222000B3E00E949233A5E3B3E08C918F5F8C936F
:10223000009135030A3011F00C94FD10E0E4FEE645
:102240000E94EB35EDE2F3E00E943E340E94F6344A
:10225000EDE0F0E0ADE2B3E00E949233E9E0F0E0BF
:10226000ADE2B3E094E07BE70E94B033E9E2F3E053
:102270000E944334EDE2F3E00E943E340E948E352A
:10228000EDE0F0E0A1E3B3E00E949233E8E1FEE686
:102290000E94EB35E1E3F3E00E943E340E94F63405
:1022A000EDE0F0E0A1E3B3E00E949233E8EDF2E765
:1022B0000E944E23A0E0B0E1EDE2F3E0552744E0B8
:1022C0000E946C240E944623E2E4F2E70E944E231F
:1022D0000E945523EAEEF2E70E944E23A0E0B0E10F
:1022E000E1E3F3E0552744E00E946C240E9446237A
:1022F000E2E4F2E70E944E230E94552381E080939E
:102300003603E1E1F0E0A6E3B3E07BE70E94AD3302
:10231000E5E0F0E00E9475238CE10E9458230E94C2
:10232000552384E690E00E94A723EEEFF2E70E9497
:102330004E230E945523E5E0F0E00E94752380E0E3
:10234000809347031C981D981B980C94E300E9E2C6
:10235000F3E00E944334E8EEF2E00E943E340E9433
:102360008E35EDE0F0E0A5E2B3E00E949233E1E3C8
:10237000F3E00E944334E5E2F3E00E943E340E9421
:10238000F634EDE0F0E0A5E2B3E00E949233E4E33E
:10239000FEE60E94EB35E5E2F3E00E943E340E9447
:1023A0004F35EDE0F0E0A5E2B3E00E949233E8E5BE
:1023B000FEE60E94EB35E5E2F3E00E943E340E9427
:1023C0009D35EDE0F0E0A5E2B3E00E949233E5E256
:1023D000F3E00E943E34ECE5FEE60E94EB350E94FD
:1023E000253481E008F080E08F93E5E2F3E00E947D
:1023F0003E34E0E6FEE60E94EB350E94253480E0A4
:1024000010F009F081E09F91892B882311F40C943E
:102410000F12A5E2B3E0E4E6FEE60E94C43108959F
:1024200007B1007E07B90E94B331A7EFB2E08D93E8
:102430009C9307B1007E016007B90E94B331A9EFF8
:10244000B2E08D939C9307B1007E026007B90E94B1
:10245000B331ABEFB2E08D939C9307B1007E036084
:1024600007B90E94B331ADEFB2E08D939C9307B1F1
:10247000007E046007B90E94B331AFEFB2E08D93E4
:102480009C93CA990C94471281E080930103CA9BE4
:102490000C944D1280E08093010300910103013000
:1024A00011F00C946312A9E1B3E08D919C91ABE122
:1024B000B3E08D939C931C9A1D9AE2E0F0E00E9499
:1024C00075231C981D98C9990C94691281E080931A
:1024D0000203C99B0C946F1280E080930203009169
:1024E0000203013011F00C9461130091720300306B
:1024F00011F00C94E31281E080937203A7E8B3E03B
:102500004D915527AAE4B0E00D911C9104171507D1
:1025100010F00C948F12AAE4B0E00E94312381E005
:1025200080938903AEE9B3E04D915527A8E4B0E06C
:102530000D911C910417150710F00C94A312A8E438
:10254000B0E00E94312381E08093A003A5EBB3E0CB
:102550004D915527A8E7B0E00D911C910417150780
:1025600010F00C94B712A8E7B0E00E94312382E388
:1025700090E00E94A72383B198E0892783B9A7E858
:10258000B3E04D915527AAE4B0E00D911C910417DA
:10259000150711F00C947B12A7E8B3E08C919927F2
:1025A0009BBD8ABDAEE9B3E08C91992799BD88BDEA
:1025B000A5EBB3E08C9199279093790080937800F4
:1025C0001B980C945D1300917203013011F00C9470
:1025D0005D1380E080937203A8E8B3E04D91552726
:1025E000AAE4B0E00D911C910417150718F011F042
:1025F0000C94FC120C940013AAE4B0E00E9438235F
:1026000080E080938903AFE9B3E04D915527A8E4BA
:10261000B0E00D911C910417150718F011F00C94FF
:1026200013130C941713A8E4B0E00E94382380E041
:102630008093A003A6EBB3E04D915527A8E7B0E047
:102640000D911C910417150718F011F00C942A1322
:102650000C942E13A8E7B0E00E94382383B198E0D1
:10266000892783B983B190E1892783B982E390E018
:102670000E94A723A8E8B3E04D915527AAE4B0E053
:102680000D911C910417150711F00C94E9121B9879
:102690001C98A8E8B3E08C9199279BBD8ABDAFE94F
:1026A000B3E08C91992799BD88BDA6EBB3E08C91DE
:1026B000992790937900809378008AEF90E00E94A8
:1026C000A7239F9B0C947113009104030A3F10F001
:1026D0000C946F13A4E0B3E08C918F5F8C930C94F7
:1026E00077139F990C94771380E0809304030091F3
:1026F00004030A3018F011F00C9480130C94851325
:1027000080E0809303030C94881381E0809303039B
:10271000089500917203003011F00C94F71381E0DA
:1027200080937203A7E8B3E04D915527AAE4B0E087
:102730000D911C910417150710F00C94A313AAE433
:10274000B0E00E94312381E080938903AEE9B3E0D9
:102750004D915527A8E4B0E00D911C910417150781
:1027600010F00C94B713A8E4B0E00E94312381E08C
:102770008093A003A5EBB3E04D915527A8E7B0E007
:102780000D911C910417150710F00C94CB13A8E7BA
:10279000B0E00E94312382E390E00E94A72383B13E
:1027A00098E0892783B9A7E8B3E04D915527AAE4BB
:1027B000B0E00D911C910417150711F00C948F13C4
:1027C000A7E8B3E08C9199279BBD8ABDAEE9B3E041
:1027D0008C91992799BD88BDA5EBB3E08C91992781
:1027E00090937900809378001B980C947114009159
:1027F0007203013011F00C94711480E08093720325
:10280000A8E8B3E04D915527AAE4B0E00D911C91E2
:102810000417150718F011F00C9410140C941414EC
:10282000AAE4B0E00E94382380E080938903AFE9F6
:10283000B3E04D915527A8E4B0E00D911C91041729
:10284000150718F011F00C9427140C942B14A8E41D
:10285000B0E00E94382380E08093A003A6EBB3E0B1
:102860004D915527A8E7B0E00D911C91041715076D
:1028700018F011F00C943E140C944214A8E7B0E048
:102880000E94382383B198E0892783B983B190E10E
:10289000892783B982E390E00E94A723A8E8B3E0E8
:1028A0004D915527AAE4B0E00D911C91041715072E
:1028B00011F00C94FD131B981C98A8E8B3E08C91C0
:1028C00099279BBD8ABDAFE9B3E08C91992799BD4B
:1028D00088BDA6EBB3E08C91992790937900809303
:1028E000780080E08093B703089500910E030A30CA
:1028F00018F011F00C947E140C940F1580E0809366
:102900000E03A3EBB1E08C9186FB16F40C949C149F
:102910001D9AF89482E0E1E20E94EF315CEC82E0E3
:10292000E1E20E94173254E482E0E1E20E941732B1
:1029300078941D980C9402151D9AF894AFE0B3E0BA
:10294000E8E2FEE60E94C43182E0E1E20E94EF315B
:102950005CEC82E0E1E20E9417325EEB82E0E1E2B1
:102960000E94173282E0A5E0B3E0E1E229E02A9379
:102970000E943F3282E0E1E20E94EF31789488E0E9
:10298000E5E0F3E00E940734402F00910D030417A7
:1029900011F00C940115E8E6FEE60E94EB35E5E047
:1029A000F3E0D190E0808FEFE7FE8827F82E082F24
:1029B0000E94BE340E94F634EDE0F0E0AFE0B3E0F8
:1029C0000E949233E0E4FEE60E94EB35EFE0F3E094
:1029D0000E943E340E944F35EDE0F0E0AFE0B3E0FE
:1029E0000E949233EFE0F3E00E94CA36EDE0F0E09F
:1029F0000E944E34A3E1B3E0EE0C000FE794DD92A9
:102A0000EC921D98A3EBB1E08C9186FB882780F9AE
:102A1000809580FBA3EBB1E08C9186F98C930895AF
:102A2000809156010E948623AEEAB1E08C9380919A
:102A300057010E948623ADEAB1E08C938091580142
:102A40000E948623ACEAB1E08C93809159010E94E8
:102A50008623AFEAB1E08C9380915A010E948623CD
:102A6000A0EBB1E08C9380915B010E948623A1EBE7
:102A7000B1E08C93AEEAB1E08C9180688C930E94B7
:102A8000BE231EED0E94D42310E00E94D423109197
:102A9000AE010E94D4231091AD010E94D423109165
:102AA000AC010E94D4230E94CE230E94BE231EEDBF
:102AB0000E94D42313E00E94D42319E00E94D4235F
:102AC0001091AF010E94D4231091B0010E94D42331
:102AD0001091B1010E94D4230E94CE230E94BE23F4
:102AE0001EED0E94D42317E00E94D42310E40E941C
:102AF000D4230E94CE23E8E2F3E70E9464230E94DD
:102B00000924A5E6B1E00E945E23E2E0F1E70E941D
:102B100064230E940924ACE5B1E00E945E230E9478
:102B20006B23E1E0F0E00E94752308950E94BE232C
:102B30001EED0E94D42310E00E94D4230E94CE23D5
:102B40000E94BE231FED0E94D4230E94F123AEEA0F
:102B5000B1E01C930E94F123ADEAB1E01C930E9406
:102B6000EF23ACEAB1E01C930E94CE230E94BE2367
:102B70001EED0E94D42313E00E94D4230E94CE2392
:102B80000E94BE231FED0E94D4230E94F123A2EBDA
:102B9000B1E01C930E94F123AFEAB1E01C930E94C4
:102BA000F123A0EBB1E01C930E94EF23A1EBB1E075
:102BB0001C930E94CE237091B3017F777093B30171
:102BC000A2EBB1E00C9105FB16F00C94201670916D
:102BD000B30170687093B301AEEAB1E08C918F7766
:102BE0008C93A0EBB1E08C918F7D8C939091AE0192
:102BF0000E948D23A6E5B1E08C939091AD010E94D7
:102C00008D23A7E5B1E08C939091AC010E948D23B8
:102C1000A8E5B1E08C939091AF010E948D23A9E5C6
:102C2000B1E08C939091B0010E948D23AAE5B1E0B0
:102C30008C939091B1010E948D23ABE5B1E08C9310
:102C40000E940924E5E6F1E0A4EBB1E00E948D3397
:102C500008950895089508951C9AA1E2B0E00C919A
:102C600007FB81E00EF480E08F93009118030030A1
:102C700081E009F080E09F918923882311F40C946E
:102C80005F16F894B89AC09AB89AC09AC39A0E94EC
:102C900097230E945A26A7ECB3E09C9381E00E9400
:102CA0007328ABEDB1E09C937894E2E3F3E70E94E4
:102CB00064230E946B2384EF91E00E94A7231C9859
:102CC0000895A1E2B0E00C9107FB81E00EF480E0F2
:102CD0008F9300911803003081E009F080E09F910C
:102CE0008923882311F40C94E0161C9AA0E0B0E12B
:102CF000EAE3F3E70E94AD31A0E0B0E10E9484294D
:102D00000E94302EA8EEB1E08C93A9EEB1E0EEE384
:102D1000F3E70E94AD318091E801A9EEB1E00E9495
:102D2000DA29AFE7B2E088278C930E940924ECE50A
:102D3000F1E0AFE7B2E00E948D33AFE7B2E00E946E
:102D40003F23E8E4F3E70E94AD310E940924E5E661
:102D5000F1E0AFE7B2E00E943F230E948D33AFE77E
:102D6000B2E00E943F23E8E4F3E70E94AD31E3E3E1
:102D7000F2E0AFE7B2E00E943F230E948D338091E2
:102D8000E801AFE7B2E00E940B2AA3E3B2E0882794
:102D90008C93AFE7B2E088278C93A0E0B0E1EAE43F
:102DA000F3E70E94AD31A0E0B0E10E948429809158
:102DB000E8010E94492A8091E8010E94372A1C9864
:102DC000089580E090E0A5EEB2E08D939C93A1E29F
:102DD000B0E00C9107FB81E00EF480E08F9300914E
:102DE0001803003081E009F080E09F918923882357
:102DF00011F40C9456181C9AA0E0B0E1EAE3F3E752
:102E00000E94AD31A0E0B0E10E9484290E94302EE2
:102E1000A8EEB1E08C93A9EEB1E0ECE4F3E70E94F8
:102E2000AD318091E801A9EEB1E00E94DA29AFE767
:102E3000B2E088278C930E940924ECE5F1E0AFE72B
:102E4000B2E00E948D33AFE7B2E00E943F23E8E496
:102E5000F3E70E94AD310E940924E5E6F1E0AFE717
:102E6000B2E00E943F230E948D33AFE7B2E00E94A0
:102E70003F23E8E4F3E70E94AD31A5E3B0E08C9195
:102E800082FBAFE7B2E00E943F230E94DC318D93CA
:102E900088278C93AFE7B2E00E943F23E8E4F3E792
:102EA0000E94AD31A5E3B0E08C9183FBAFE7B2E0C7
:102EB0000E943F230E94DC318D9388278C93AFE7DB
:102EC000B2E00E943F23E8E4F3E70E94AD31A5E3BE
:102ED000B0E08C9181FBAFE7B2E00E943F230E94FB
:102EE000DC318D9388278C93AFE7B2E00E943F23BB
:102EF000E8E4F3E70E94AD31A5E3B0E08C9180FBFC
:102F0000AFE7B2E00E943F230E94DC318D93882717
:102F10008C93AFE7B2E00E943F23E8E4F3E70E941E
:102F2000AD31A5E3B0E08C9184FBAFE7B2E00E9445
:102F30003F230E94DC318D9388278C93AFE7B2E06A
:102F40000E943F23E8E4F3E70E94AD31A5E3B0E03F
:102F50008C9185FBAFE7B2E00E943F230E94DC31F9
:102F60008D9388278C93AFE7B2E00E943F23E8E47B
:102F7000F3E70E94AD31AFE7B2E00E943F23EAE4FD
:102F8000F0E00E940533AFE7B2E00E943F23E8E49F
:102F9000F3E70E94AD31AFE7B2E00E943F23E8E4DF
:102FA000F0E00E940533AFE7B2E00E943F23E8E47F
:102FB000F3E70E94AD31AFE7B2E00E943F23E8E4BF
:102FC000F0E00E940533AFE7B2E00E943F23E8E45F
:102FD000F3E70E94AD31AFE7B2E00E943F23E5E2A4
:102FE000F3E0552744E00E946C24AFE7B2E00E9472
:102FF0003F23E8E4F3E70E94AD31AFE7B2E00E947F
:103000003F23E3E1F3E00E940E33AFE7B2E00E941A
:103010003F23E8E4F3E70E94AD31AFE7B2E00E945E
:103020003F23E3E0F3E00E941533AFE7B2E00E94F4
:103030003F23E8E4F3E70E94AD31AFE7B2E00E943E
:103040003F23E1E0F3E00E941533AFE7B2E00E94D6
:103050003F23E8E4F3E70E94AD31AFE7B2E00E941E
:103060003F23E2E0F3E00E9415338091E801AFE7EF
:10307000B2E00E940B2AA3E3B2E088278C93AFE76B
:10308000B2E088278C93A0E0B0E1EAE4F3E70E9485
:10309000AD31A0E0B0E10E9484298091E8010E9456
:1030A000492A8091E8010E94372A1C980895F894D3
:1030B000A1E2B0E00C9107FB81E00EF480E08F9379
:1030C00000911803003081E009F080E09F9189238E
:1030D000882311F40C94DB1F1C9AE4E5F3E70E94AB
:1030E00064230E946B2384EF91E00E94A723A0E059
:1030F000B0E1EAE3F3E70E94AD31A0E0B0E10E9465
:103100004829A0E0B0E1EEE5F3E70E94AD31A0E090
:10311000B0E10E944829A0E0B0E1E6E6F3E70E94B2
:10312000AD31A0E0B0E1E4EFF1E00E94542AA4EF59
:10313000B1E08C91803011F40C940B19E0E7F3E7C7
:103140000E9464230E946B230E94302EA8EEB1E0FF
:103150008C93A0E0B0E1E6E6F3E70E94AD31809108
:10316000E801A0E0B0E10E94CD298091E80194E15E
:10317000A2E8B1E00E94182A8091E80194E1A7E951
:10318000B1E00E94182A8091E8010E94372AA2E843
:10319000B1E00E94ED33082F083081E009F080E0B3
:1031A0008F93A7E9B1E00E94ED33082F083081E04A
:1031B00009F080E09F918923882311F40C940B1966
:1031C000E2E8F1E0A5E6B1E00E948D330E941C2404
:1031D000E7E9F1E0ACE5B1E00E948D330E941424F0
:1031E0000E94101584E690E00E94A7230E94961585
:1031F000A3EBB1E08C9187FB16F00C940B19A0E0C7
:10320000B0E1E6E6F3E70E94AD31A0E0B0E10E9454
:103210007E2D0E94DF2EA0E0B0E1EAE4F3E70E94F9
:10322000AD31A0E0B0E10E9484290E94302EA8EECA
:10323000B1E08C93A9EEB1E0ECE7F3E70E94AD3189
:103240008091E801A9EEB1E00E94F9298091E8019E
:103250000E941E2E08F409C0FA93EA93E6E8F3E709
:103260000E94DA300E94D43022968091E8010E94B8
:10327000372AA0E0B0E1EAE3F3E70E94AD31A0E035
:10328000B0E10E9484290E94302EA8EEB1E08C9318
:10329000A9EEB1E0EEE3F3E70E94AD318091E801E1
:1032A000A9EEB1E00E94DA29A3E3B2E088278C936B
:1032B000A3E3B2E0E6EDFEE60E94AD31A3E3B2E0A7
:1032C0000E943F23E8E3F1E70E94AD310E94092408
:1032D000ECE5F1E0A3E3B2E00E943F230E948D33CE
:1032E000A3E3B2E00E943F23E8E3F1E70E94AD319F
:1032F0000E940924E5E6F1E0A3E3B2E00E943F2347
:103300000E948D338091E8010E941E2E08F409C0AE
:10331000FA93EA93EAE6F1E70E94DA300E94D430A9
:1033200022968091E8010E941E2E08F40DC0FA93A7
:10333000EA93EEEBF0E70E94DA30A3E3B2E00E94FA
:10334000C7300E94D4302296A3E3B2E088278C9342
:103350008091E8010E94372AA0E0B0E1EAE4F3E7B7
:103360000E94AD31A0E0B0E10E948429A0E0B0E16C
:10337000EEE5F3E70E94AD31A0E0B0E10E948429C0
:10338000A0E0B0E1E6E9F3E70E94AD31A0E0B0E1F2
:10339000E4EFF1E00E94542AA4EFB1E00E94ED3383
:1033A000A4EEB2E08C930091E402003011F00C9492
:1033B000741C0E94302EA8EEB1E08C93A9EEB1E00F
:1033C000E2EAF3E70E94AD318091E801A9EEB1E0B5
:1033D0000E94F9298091E8010E941E2E08F409C07C
:1033E000FA93EA93EEEAF3E70E94DA300E94D430CF
:1033F00022968091E8010E941E2E08F409C0FA93DB
:10340000EA93E6ECF3E70E94DA300E94D430229689
:103410008091E8010E941E2E08F409C0FA93EA93F5
:10342000EAE6F1E70E94DA300E94D43022968091D9
:10343000E8010E941E2E08F409C0FA93EA93EEEE0A
:10344000F3E70E94DA300E94D43022968091E8019E
:103450000E941E2E08F409C0FA93EA93E8E0F4E70C
:103460000E94DA300E94D43022968091E8010E94B6
:103470001E2E08F409C0FA93EA93E2E2F4E70E94F0
:10348000DA300E94D43022968091E8010E941E2EEC
:1034900008F409C0FA93EA93ECE3F4E70E94DA3007
:1034A0000E94D43022968091E8010E941E2E08F4DA
:1034B00009C0FA93EA93E0E5F4E70E94DA300E944B
:1034C000D43022968091E8010E941E2E08F409C093
:1034D000FA93EA93E4E6F4E70E94DA300E94D430EB
:1034E00022968091E8010E941E2E08F409C0FA93EA
:1034F000EA93E6E8F4E70E94DA300E94D43022969C
:103500008091E8010E941E2E08F409C0FA93EA9304
:10351000E8E0F4E70E94DA300E94D43022968091ED
:10352000E8010E941E2E08F409C0FA93EA93E2E231
:10353000F4E70E94DA300E94D43022968091E801AC
:103540000E941E2E08F409C0FA93EA93E0EAF4E719
:103550000E94DA300E94D43022968091E8010E94C5
:103560001E2E08F409C0FA93EA93E4EBF4E70E94F4
:10357000DA300E94D43022968091E8010E941E2EFB
:1035800008F409C0FA93EA93E8ECF4E70E94DA3011
:103590000E94D43022968091E8010E941E2E08F4E9
:1035A00009C0FA93EA93EAEEF4E70E94DA300E9447
:1035B000D43022968091E8010E941E2E08F409C0A2
:1035C000FA93EA93E8E0F4E70E94DA300E94D430FC
:1035D00022968091E8010E941E2E08F409C0FA93F9
:1035E000EA93E2E2F4E70E94DA300E94D4302296B5
:1035F0008091E8010E941E2E08F409C0FA93EA9314
:10360000E4E0F5E70E94DA300E94D43022968091FF
:10361000E8010E941E2E08F409C0FA93EA93E8E13B
:10362000F5E70E94DA300E94D43022968091E801BA
:103630000E941E2E08F409C0FA93EA93ECE2F5E723
:103640000E94DA300E94D43022968091E8010E94D4
:103650001E2E08F409C0FA93EA93EAE6F1E70E9405
:10366000DA300E94D43022968091E8010E941E2E0A
:1036700008F409C0FA93EA93EEE4F5E70E94DA3021
:103680000E94D43022968091E8010E941E2E08F4F8
:1036900009C0FA93EA93E8E6F5E70E94DA300E945F
:1036A000D43022968091E8010E941E2E08F409C0B1
:1036B000FA93EA93EAE6F1E70E94DA300E94D43006
:1036C00022968091E8010E941E2E08F409C0FA9308
:1036D000EA93ECE8F5E70E94DA300E94D4302296B3
:1036E0008091E8010E941E2E08F409C0FA93EA9323
:1036F000E6EAF5E70E94DA300E94D4302296809103
:10370000E8010E941E2E08F409C0FA93EA93ECEB3C
:10371000F5E70E94DA300E94D43022968091E801C9
:103720000E941E2E08F409C0FA93EA93E2EDF5E731
:103730000E94DA300E94D43022968091E8010E94E3
:103740001E2E08F409C0FA93EA93E8EEF5E70E940A
:10375000DA300E94D43022968091E8010E941E2E19
:1037600008F409C0FA93EA93EAE6F1E70E94DA3036
:103770000E94D43022968091E8010E941E2E08F407
:1037800009C0FA93EA93EEEFF5E70E94DA300E945F
:10379000D43022968091E8010E941E2E08F409C0C0
:1037A000FA93EA93E8E1F6E70E94DA300E94D43017
:1037B00022968091E8010E941E2E08F409C0FA9317
:1037C000EA93EAE6F1E70E94DA300E94D4302296CA
:1037D0008091E8010E941E2E08F409C0FA93EA9332
:1037E000E0E3F6E70E94DA300E94D430229680911E
:1037F000E8010E941E2E08F409C0FA93EA93EAE455
:10380000F6E70E94DA300E94D43022968091E801D7
:103810000E941E2E08F409C0FA93EA93E6E6F6E742
:103820000E94DA300E94D43022968091E8010E94F2
:103830001E2E08F409C0FA93EA93EAE6F1E70E9423
:10384000DA300E94D43022968091E8010E941E2E28
:1038500008F409C0FA93EA93E2E8F6E70E94DA3046
:103860000E94D43022968091E8010E941E2E08F416
:1038700009C0FA93EA93EEE9F6E70E94DA300E9473
:10388000D43022968091E8010E941E2E08F409C0CF
:10389000FA93EA93E4EBF6E70E94DA300E94D43020
:1038A00022968091E8010E941E2E08F409C0FA9326
:1038B000EA93EAECF6E70E94DA300E94D4302296CE
:1038C000A0E0B0E1EAE4F3E70E94AD31A0E0B0E1AE
:1038D0000E9484298091E8010E94492A8091E80190
:1038E0000E94372A0C949E1F0091E402003011F4CC
:1038F0000C949E1F0E94302EA8EEB1E08C93A9EE8E
:10390000B1E0E2EAF3E70E94AD318091E801A9EE6F
:10391000B1E00E94CD298091E80198E2A9E0B2E0EF
:103920000E94182A8091E80198E2A9E0B2E00E9482
:10393000182A8091E80198E2A9E0B2E00E94182AD2
:103940008091E80198E2A9E0B2E00E94182AA9E07B
:10395000B2E088278C938091E80198E2A9E0B2E078
:103960000E94182AE9E0F2E003E0A9E0B2E00E9438
:103970009F33A9E0B2E00E945B33A7E8B3E00C9369
:10398000E2E5F0E0A7E8B3E07BE70E94AD33809189
:10399000E80198E2A9E0B2E00E94182AE9E0F2E02A
:1039A00003E0A9E0B2E00E949F33A9E0B2E00E94E8
:1039B0005B33A8E8B3E00C93E3E5F0E0A8E8B3E0FC
:1039C0007BE70E94AD338091E80198E2A9E0B2E084
:1039D0000E94182AE9E0F2E008E0A9E0B2E00E94C3
:1039E0009F33E9E0F2E0A5E7B3E00E948D33E0E425
:1039F000F0E0A5E7B3E07BE70E94BE338091E801E9
:103A000098E2A9E0B2E00E94182AE9E0F2E008E0BA
:103A1000A9E0B2E00E949F33E9E0F2E0AEE7B3E054
:103A20000E948D33E9E4F0E0AEE7B3E07BE70E946B
:103A3000BE338091E80198E2A9E0B2E00E94182A22
:103A4000E9E0F2E004E0A9E0B2E00E949F33A9E0DF
:103A5000B2E00E945B33ACE6B3E00D931C93EAE363
:103A6000F0E0ACE6B3E07BE70E94AF338091E80181
:103A700098E2A9E0B2E00E94182AA9E0B2E0882703
:103A80008C938091E80198E2A9E0B2E00E94182AA4
:103A9000E9E0F2E003E0A9E0B2E00E949F33A9E090
:103AA000B2E00E945B33AEE9B3E00C93E6E6F0E0EF
:103AB000AEE9B3E07BE70E94AD338091E80198E284
:103AC000A9E0B2E00E94182AE9E0F2E003E0A9E0F0
:103AD000B2E00E949F33A9E0B2E00E945B33AFE9FD
:103AE000B3E00C93E7E6F0E0AFE9B3E07BE70E94D8
:103AF000AD338091E80198E2A9E0B2E00E94182A73
:103B0000E9E0F2E008E0A9E0B2E00E949F33E9E0DA
:103B1000F2E0ACE8B3E00E948D33E4E5F0E0ACE81D
:103B2000B3E07BE70E94BE338091E80198E2A9E010
:103B3000B2E00E94182AE9E0F2E008E0A9E0B2E071
:103B40000E949F33E9E0F2E0A5E9B3E00E948D33E3
:103B5000EDE5F0E0A5E9B3E07BE70E94BE3380919C
:103B6000E80198E2A9E0B2E00E94182AE9E0F2E058
:103B700004E0A9E0B2E00E949F33A9E0B2E00E9415
:103B80005B33AEE6B3E00D931C93ECE3F0E0AEE6FE
:103B9000B3E07BE70E94AF338091E80198E2A9E0AF
:103BA000B2E00E94182AA9E0B2E088278C938091A5
:103BB000E80198E2A9E0B2E00E94182AE9E0F2E008
:103BC00003E0A9E0B2E00E949F33A9E0B2E00E94C6
:103BD0005B33A5EBB3E00C93EAE7F0E0A5EBB3E0D1
:103BE0007BE70E94AD338091E80198E2A9E0B2E062
:103BF0000E94182AE9E0F2E003E0A9E0B2E00E94A6
:103C00009F33A9E0B2E00E945B33A6EBB3E00C93D4
:103C1000EBE7F0E0A6EBB3E07BE70E94AD338091E9
:103C2000E80198E2A9E0B2E00E94182AE9E0F2E097
:103C300008E0A9E0B2E00E949F33E9E0F2E0A3EAE5
:103C4000B3E00E948D33E8E6F0E0A3EAB3E07BE75F
:103C50000E94BE338091E80198E2A9E0B2E00E94A0
:103C6000182AE9E0F2E008E0A9E0B2E00E949F3300
:103C7000E9E0F2E0ACEAB3E00E948D33E1E7F0E086
:103C8000ACEAB3E07BE70E94BE338091E80198E2A2
:103C9000A9E0B2E00E94182AE9E0F2E004E0A9E01D
:103CA000B2E00E949F33A9E0B2E00E945B33A0E73C
:103CB000B3E00D931C93EEE3F0E0A0E7B3E07BE705
:103CC0000E94AF338091E80198E2A9E0B2E00E943F
:103CD000182A8091E80198E2A9E0B2E00E94182A2F
:103CE000A9E0B2E088278C938091E80198E2A9E0EE
:103CF000B2E00E94182AE9E0F2E003E0A9E0B2E0B5
:103D00000E949F33A9E0B2E00E945B33ADE1B3E0D3
:103D10000D931C93E3E0F0E0ADE1B3E07BE70E949C
:103D2000AF338091E80198E2A9E0B2E00E94182A3E
:103D30008091E80198E2A9E0B2E00E94182AA9E087
:103D4000B2E088278C938091E80198E2A9E0B2E084
:103D50000E94182AE9E0F2E008E0A9E0B2E00E943F
:103D60009F33E9E0F2E0A8E4B3E00E948D33E6E19E
:103D7000F0E0A8E4B3E07BE70E94BE338091E80165
:103D800098E2A9E0B2E00E94182AE9E0F2E008E037
:103D9000A9E0B2E00E949F33E9E0F2E0A1E5B3E0E0
:103DA0000E948D33EFE1F0E0A1E5B3E07BE70E94F4
:103DB000BE338091E80198E2A9E0B2E00E94182A9F
:103DC000E9E0F2E008E0A9E0B2E00E949F33E9E018
:103DD000F2E0AAE5B3E00E948D33E8E2F0E0AAE564
:103DE000B3E07BE70E94BE338091E80198E2A9E04E
:103DF000B2E00E94182AE9E0F2E008E0A9E0B2E0AF
:103E00000E949F33E9E0F2E0A3E6B3E00E948D3325
:103E1000E1E3F0E0A3E6B3E07BE70E94BE338091EC
:103E2000E80198E2A9E0B2E00E94182A8091E80136
:103E300098E2A9E0B2E00E94182AA9E0B2E088273F
:103E40008C938091E80198E2A9E0B2E00E94182AE0
:103E5000E9E0F2E004E0A9E0B2E00E949F33A9E0CB
:103E6000B2E00E94F835EDE0F0E0A7E3B3E00E9495
:103E70009233E2E1F0E0A7E3B3E094E07BE70E9455
:103E8000B0338091E80198E2A9E0B2E00E94182ADC
:103E90008091E80198E2A9E0B2E00E94182AA9E026
:103EA000B2E088278C938091E80198E2A9E0B2E023
:103EB0000E94182AE9E0F2E003E0A9E0B2E00E94E3
:103EC0009F33A9E0B2E00E945B33A9E1B3E00D9318
:103ED0001C93E1E0F0E0A9E1B3E07BE70E94AF339F
:103EE0008091E80198E2A9E0B2E00E94182AE9E096
:103EF000F2E001E0A9E0B2E00E949F33A9E0B2E065
:103F00000E945B33A8EBB3E00C93ECE7F0E0A8EB86
:103F1000B3E07BE70E94AD338091E8010E94492A1B
:103F20008091E8010E94372AA0E0B0E1EAE4F3E7DB
:103F30000E94AD31A0E0B0E10E9484290E9470315E
:103F4000A0EEB1E00D931D932D933D930E94673138
:103F5000A4EEB1E00D931D932D933D93A0EEB1E03F
:103F60000D911D912D913C91A4EEB1E04D915D918B
:103F70006D917C910E94ED32ACEDB1E00D931D93FB
:103F80002D933D93ECEDF6E70E946423A0E0B0E1B1
:103F9000ECEDF1E00E940B330E945C23E2EEF6E7C9
:103FA0000E9464230E946B2384EF91E00E94A72368
:103FB0001C980C94E41F0F9B0C94E41FE6EEF6E7AC
:103FC0000E9464230E946B23E0EFF6E70E946423C3
:103FD0000E946B23EEEFF6E70E946423A0E0B0E1BD
:103FE000E7E8F3E00E9415330E945C230E946B23F4
:103FF000E6E0F7E70E946423A0E0B0E1E8E8F3E040
:104000000E9415330E945C230E946B23E0E1F7E7D6
:104010000E946423A5E7B3E00E945E230E946B2305
:10402000E8E1F7E70E946423AEE7B3E00E945E2375
:104030000E946B23E0E2F7E70E946423A0E0B0E176
:10404000ECE6F3E00E9405330E945C230E946B23A0
:10405000EAE6F1E70E9464230E946B23E0E3F7E7BE
:104060000E946423A0E0B0E1EEE9F3E00E94153382
:104070000E945C230E946B23E8E3F7E70E9464231D
:10408000A0E0B0E1EFE9F3E00E9415330E945C2369
:104090000E946B23E2E4F7E70E946423ACE8B3E0FC
:1040A0000E945E230E946B23EAE4F7E70E946423E8
:1040B000A5E9B3E00E945E230E946B23E2E5F7E7E7
:1040C0000E946423A0E0B0E1EEE6F3E00E94053335
:1040D0000E945C230E946B23EAE6F1E70E946423BE
:1040E0000E946B23E2E6F7E70E946423A0E0B0E1C0
:1040F000E5EBF3E00E9415330E945C230E946B23E2
:10410000EAE6F7E70E946423A0E0B0E1E6EBF3E023
:104110000E9415330E945C230E946B23E4E7F7E7BB
:104120000E946423A3EAB3E00E945E230E946B23F3
:10413000ECE7F7E70E946423ACEAB3E00E945E2359
:104140000E946B23E4E8F7E70E946423A0E0B0E15B
:10415000E0E7F3E00E9405330E945C230E946B239A
:10416000EAE6F1E70E9464230E946B23E4E9F7E7A3
:104170000E946423A0E0B0E1EDE1F3E00E940E3381
:104180000E945C230E946B23EAE6F1E70E9464230D
:104190000E946B23EEE9F7E70E946423A8E4B3E0F2
:1041A0000E945E23ECE2F1E70E946423A1E5B3E004
:1041B0000E945E230E946B23E8EAF7E70E946423D3
:1041C000AAE5B3E00E945E23ECE2F1E70E946423DB
:1041D000A3E6B3E00E945E230E946B23EAE6F1E7C8
:1041E0000E9464230E946B23E2EBF7E70E946423A2
:1041F000A0E0B0E1E7E3F3E0552744E00E946C243F
:104200000E945C230E946B23EAE6F1E70E9464238C
:104210000E946B23E8EBF7E70E946423A0E0B0E183
:10422000E9E1F3E00E9405330E945C23E8E4F3E750
:104230000E946423A0E0B0E1E8EBF3E00E941533B4
:104240000E945C230E946B230E946B23EEEBF7E736
:104250000E946423A0E0B0E1EDE2F3E0552744E0E2
:104260000E946C240E945C230E946B23EEECF7E713
:104270000E946423A0E0B0E1E9E2F3E0552744E0C6
:104280000E946C240E945C230E946B23EEEDF7E7F2
:104290000E946423A0E0B0E1E1E3F3E0552744E0AD
:1042A0000E946C240E945C230E946B230E94D40C09
:1042B000E5E0F0E00E94752378940895A1E2B0E073
:1042C0000C9107FB81E00EF480E08F9300911803BE
:1042D000003081E009F080E09F918923882311F468
:1042E0000C94C7211C9AA0E0B0E1EAE3F3E70E9436
:1042F000AD31A0E0B0E10E9484290E94302EA8EEEA
:10430000B1E08C93A9EEB1E0E8EEF7E70E94AD31A1
:104310008091E801A9EEB1E00E94CD298091E801E9
:1043200098E2A9E0B2E00E94182AA9E0B2E00E9457
:1043300048230E945523A9E0B2E088278C938091FE
:10434000E8010E94402AA2E3B2E08C93009132027D
:10435000003011F40C948E21E2EFF7E70E944E2317
:104360000E9455238091E8010E94492A8091E8012A
:104370000E94372AA0E0B0E1EAE4F3E70E94AD3101
:10438000A0E0B0E10E9484291C980C94D0210F9BDE
:104390000C94D021E6EEF6E70E9464230E946B2382
:1043A0000895A1E2B0E00C9107FB81E00EF480E0FB
:1043B0008F9300911803003081E009F080E09F9115
:1043C0008923882311F40C941C221C9AA0E0B0E1EC
:1043D000EAE3F3E70E94AD31A0E0B0E10E94842956
:1043E0000E94302EA8EEB1E08C93A0E0B0E1E8EEA0
:1043F000F7E70E94AD31A0E0B0E10E947E2D0E945F
:10440000DF2E8091E8010E94492A8091E8010E94F4
:10441000372AA0E0B0E1EAE4F3E70E94AD31A0E082
:10442000B0E10E948429E8EFF7E70E944E230E9442
:1044300055231C980C9425220F9B0C942522E6EE04
:10444000F6E70E9464230E946B2308950F921F9247
:104450002F923F924F925F927F92AF92BF920F93B3
:104460001F932F933F934F935F936F937F938F93FC
:104470009F93AF93BF93CF93DF93EF93FF938FB748
:104480008F931B9AA4E3B1E0AD90BB24AEEFB0E0F4
:10449000AA0DBB1D0C910D3081E009F080E08F93D7
:1044A00000913401023080E010F009F081E09F912A
:1044B0008923882311F40C9497220091340142E05F
:1044C000041BA9EDB1E00C9381E08093DA014091E7
:1044D000D9010091DA01041718F011F00C948A2226
:1044E000AAEDB1E0AD90BB24AFEFB0E0AA0DBB1DCB
:1044F0008C91AAEDB1E0AD90BB24A3ECB1E0AA0D84
:10450000BB1D8C93AAEDB1E08C918F5F8C9310F45E
:104510000C94672281E08093C10180E090E0A2ECDE
:10452000B1E08D939C93A2E3B1E00E94DF328F91C2
:104530008FBFFF91EF91DF91CF91BF91AF919F918D
:104540008F917F916F915F914F913F912F911F912B
:104550000F91BF90AF907F905F904F903F902F90C2
:104560001F900F90A2E3B1E00E94DF320895F8940B
:104570000F921F922F923F924F925F927F92AF9233
:10458000BF920F931F932F933F934F935F936F931C
:104590007F938F939F93AF93BF93CF93DF93EF93CB
:1045A000FF938FB78F93A3E5B1E00E94DF328F9125
:1045B0008FBFFF91EF91DF91CF91BF91AF919F910D
:1045C0008F917F916F915F914F913F912F911F91AB
:1045D0000F91BF90AF907F905F904F903F902F9042
:1045E0001F900F90789408950F921F922F923F92F0
:1045F0004F925F927F92AF92BF920F931F932F9330
:104600003F934F935F936F937F938F939F93AF935A
:10461000BF93CF93DF93EF93FF938FB78F9384E98B
:1046200082BFADEBB1E00E9431238F918FBFFF912C
:10463000EF91DF91CF91BF91AF919F918F917F913A
:104640006F915F914F913F912F911F910F91BF906B
:10465000AF907F905F904F903F902F901F900F9062
:104660001895ED91FC91EF5FFF4FFC93EE93089549
:10467000ED91FC91E150F040FC93EE9308958F93FF
:104680008D918823E9F711978F910895A0E0B0E10B
:104690008D91882311F00CD0FBCF08950E94BC317E
:1046A000802D11F005D0FACF08958DE001D08AE079
:1046B0005D9BFECF8CB90895A0E0B0E18D91882379
:1046C00011F00CD0FBCF08950E94BC31802D11F069
:1046D00005D0FACF08958DE001D08AE000909B00CC
:1046E00005FEFCCF80939C00089588EE93E02FD0C8
:1046F0003197D9F70895982F82958F70805D8D93AB
:104700009F70905D9D9388278C9308954AE0082FB1
:104710000E94DD330295802B0895892F8F70905170
:1047200010F0865FFCCF08953197F1F70895B99A9C
:10473000BB98C39ABA9AB89A8CE58DB90895089532
:104740000895689462F80895E89462F80895EF93E4
:10475000FF93EE27E82BE92B31F0EDECFAE03197EF
:10476000F1F70197D1F7FF91EF9108958998889813
:104770009198909808958998889803D0899A01D043
:10478000889AEF93FF93EAE0F0E00E949423FF9170
:10479000EF9108958898809BFECF0895899AF1DF64
:1047A000F9DFEFDF8998EDCF0894111F01C0110FD9
:1047B00061F018F40000899802C0899A00C0E1DF16
:1047C000E9DFDFDF889ADDDFF2CF8998DADFE2DF29
:1047D000D8DFE8948199689462F8889AD2CF0894D7
:1047E00001C08894331F11E08998D4DF889481999F
:1047F0000894111F0FB6C5DF889AC3DF0FBEA8F754
:10480000379510F4899801C0899AC4DFBADF889A75
:10481000B8CF0E942916ACE5B1E0E9E5F1E00E94CD
:104820005C2433970C943824ECE5F1E0A9E5B1E081
:104830000E944A240C942A16E5E6F1E0A6E5B1E0D0
:104840000E9426240C942B16ADE0BB27868197810D
:104850000E946F320D93838194810E946F320D9379
:10486000808191810E946F320D930895EDE0FF27C2
:1048700082810E9464328AE38D9381810E94643236
:104880008AE38D9380810E94643288278C930895F7
:10489000ADE0BB27808191810E946F320D938381AF
:1048A00094810E946F320D93868197810E946F32AE
:1048B0000D930895EDE0FF2780810E9464328FE21E
:1048C0008D9381810E9464328FE28D9382810E9458
:1048D000643288278D9308950E943E340E94943458
:1048E00017FF03C08DE28D931127003821F4E6EB0A
:1048F000FBE40C94AD310F3741F4FF2019F4ECEADE
:10490000FBE4F7CFE8EAFBE4F4CF4A934A934A93F7
:104910005A93BA93AA93BB270F5F02F5BB27802F48
:104920000A950E949E348D3E90F4E6E0FCE4A3E0FC
:104930000E94EB350E942534BB1FB0FF06C0709764
:104940000E94EB350E944F353C96AA9589F7E2E02C
:10495000FCE40E94EB350E944F3522C0093058F12B
:10496000033178F10A3130F418E08BE192E9EAEB97
:10497000FBE42EC00A950E949E34EAEFFBE4BFEFF1
:10498000A3E00E94EB350E942534BB1FB0FD06C09A
:1049900038960E94EB350E944F353C97AA9589F7CF
:1049A000B095BB0F0E949434039513E08AEF99E011
:1049B000F816090740F413E08BE094E0EEECFBE41A
:1049C00007C016E001C0B39583E194E2E2ECFBE49A
:1049D0006A81BF3F19F4BB2711276260BD836A83D8
:1049E0001C83A881B98160E36D93A883B9836D931B
:1049F000081B0195AA24BB246A816A7F002339F031
:104A0000F694E794D794B794A7940A95F7CF19E052
:104A100000270E94EB35CC248FEF74E0AC14B20673
:104A2000D306E406F50630F0AC18B20AD30AE40A5D
:104A3000F50A21F1881F7A9531F0569547953795FB
:104A40002795C794EBCF809522D041F0969508F733
:104A5000FE2CED2CDB2CBA2CAA24DBCF25D05D81DB
:104A60003C812B8170D0277021F02BD06CD0E8F3E3
:104A700001C03CD04CD078D0269608958894881FE9
:104A80007A95E9F7809503D049F38827FCCF8063B6
:104A900060FD06C0803311F0616002C0039561FDC6
:104AA0008D9360FD1A95089599278E919C93853377
:104AB0008E9108F083958A3308F080E38C93C0F7D9
:104AC0000895732F720F61FF701B0AD012967850F1
:104AD00019F050F38E9380E38E937150EAF70895A6
:104AE000A881B981A70F8827B81F089579E061FDD3
:104AF000700FF6DF48E0431B400F8AF381F39927DC
:104B00004A9569F38E91803351F79C93F9CF732FB7
:104B100061FF701B7395A881B981EA2FFB2F119754
:104B20008191803361FF09F08D937A9511F48EE2C3
:104B30008D9381918823C1F7772311F480E38D93BE
:104B400088278C930895889462FD0895002359F472
:104B5000A881B9818C91803331F0552321F0539590
:104B600033506460089408955523E9F085E48D93EB
:104B70001AF48DE28D935195652F660F560F5A30BA
:104B800010F060E503D068E001D0DACF8FEF74E079
:104B9000561708F0561B881F7A9511F06695F8CFC6
:104BA000809580638D9308954E414E00496E6669ED
:104BB0006E6974790000302E300000404B4C0020AC
:104BC000A107000050C3000088130000F40100009A
:104BD00000320000000500008000CCCCCC0C14AEEC
:104BE00047019CC42000DC460300E3530000630837
:104BF0000000D7000000150000001CC25367A5D4B8
:104C000068530024744915BE9A17CCBC8C2BBD3751
:104C10008635689401C0E8948F939F9396E60000D0
:104C200000009A95E1F7989480915D0C90915E0C4C
:104C30001EF4019708F4019680935D0C90935E0C2E
:104C400059F080915B0C90915C0C019708F40196EF
:104C500080935B0C90935C0C9F918F91089500E47E
:104C600040E050E060E070E088C008E44AEA51E0CB
:104C7000F9CF09E482C00AE480C000E540E052E0D8
:104C8000F1CF01E57AC008E578C00AE7E9CF0DEC7D
:104C9000E7CF09EEE5CF09EE40E050E060E070E4D8
:104CA0006CC0C0D0702FBED0602FBCD0502FBAD0F7
:104CB000402FB8C00E94972300240ED100270093F4
:104CC000C603AED088EE93E0A6DF11F499EE16C1CC
:104CD0000197D1F70AE00F93A5D00F910A95D9F764
:104CE000BEDF013069F000E4A0D000279ED000278D
:104CF0009CD000279AD0002798D005E996D0DECF27
:104D0000B4DF013009F01FC0CCDF513011F44A3A52
:104D100011F09AEEF3C0BFDF003021F07CDFD9F74D
:104D20009BEEECC0B2DF003021F075DFD9F79CEECE
:104D3000E5C0B7DF84E08093C60376FF1DC08CE03A
:104D40008093C60319C0A5DF023028F081E080936C
:104D5000C60301E404C082E08093C60309EE0F930A
:104D60007FDF00230F9121F056DFC9F79DEEC6C00B
:104D700084DF002309F0A2CFBAC011E0003409F4A7
:104D800015E9083409F417E807FF14C00F931F93BF
:104D90004F935F936F937F9307E762DF7F916F91EC
:104DA0005F914F911F91802F0F910F77823010F0FC
:104DB000082F1EC035D02FDF31D01DD011F008EEE6
:104DC00017C033D0072F31D0062F2FD0052F2DD06D
:104DD000042F2BD0012F29D02F9324E623D0189411
:104DE00007FF05C018DF11F02A95C1F798942F919D
:104DF0000093C80308950F938F939F9380E197E2E8
:104E000080935D0C90935E0C0DD00F3F19F001DF85
:104E1000D9F798949F918F910F910895C098089514
:104E2000C09A08950FEF01C000270FB90EB1001FFF
:104E3000E8F70FB1089568D031F04ED03CD021DFB3
:104E4000002311F091EF5AC0EDDF0E3F21F0E3DEB9
:104E5000D9F792EF53C092E08827E4DF01930197DE
:104E6000E1F7E0DFDFDF43C04FD031F035D023D0B2
:104E70000ADF002311F095EF41C0BDDF11F096EF7E
:104E80003DC00EEFD2DF0D3F11F497EF37C092E037
:104E900088270191CADF0197E1F7C4DFC3DFC2DFD2
:104EA0000F710093C903053029F00093C8030695DC
:104EB000086F24C01CC04091C60343FD08C04427AE
:104EC0005D916D917D91550F661F771F08954D91EE
:104ED0005D916D917D9108958F939F9380E29EE403
:104EE00080935B0C90935C0C9F918F91089598DF59
:104EF00099DF992788949093C70308959F9390DF33
:104F000091DF9F910894F7CF9091C603992392EE79
:104F10000895EDCF91EEF2CF91EEF0CFF5DF29F0CD
:104F2000DBDFA7DE002319F096EE0C947E27E0E08D
:104F3000F0E178DF0E3F29F06EDEC9F797EE0C94B2
:104F40007E2790E080E16EDF01930197E1F76ADF51
:104F500069DFCDDFE0E0F0E19091C603913081F0B0
:104F60008081807C803461F437813F732085118596
:104F700000271F5F2F4F3F4F110F221F331F1AC0F3
:104F800033272681237017810085007C005C1F4F2A
:104F90002F4F818583709285990F881F11F011D052
:104FA000F1F785818F7086500CD0F1F7012F122F09
:104FB000232F3327E881F9810193119321933193B2
:104FC0000895000F111F221F331F8A9508959CDF3B
:104FD00029F082DF4EDE002319F096EE0C947E2736
:104FE000E881F9811FDF0E3F29F015DEC9F797EE42
:104FF0000C947E2790E080E115DF01930197E1F7A3
:1050000011DF10DF74CF80DF29F066DF34DE00238C
:1050100019F096EE0C947E27E881F98103DF0E3FAC
:1050200029F0F9DDC9F797EE0C947E2790E080E136
:10503000F9DE01930197E1F7F5DEF4DE58CF64DF86
:1050400029F04ADF22DE002319F096EE0C947E2729
:1050500028DEE881F981719361935193419347CFA1
:1050600053DF29F039DF13DE002319F096EE0C949C
:105070007E27E881F981D6DED5DE0E3F29F0CBDD33
:10508000C1F797EE0C947E2790E080E4CBDE01938D
:105090000197E1F7C7DEC6DE2ACFEEECF3E0ABE81E
:1050A000B8E0992791931197E9F70895E89484302F
:1050B00059F0863049F08E3039F068948B3021F009
:1050C0008C3011F093E19EC30090D00300F8009261
:1050D000D00388940895EEE1F6E018D345555A4A76
:1050E00009F408958FC38A93D8DFC9D3C0F091E142
:1050F000F2DFA8F088818823F9F0EEEDF5E08A95DB
:1051000011F07096FCCF80818F7721F434968081E6
:10511000CDDF38F48881823078F093E173C3219633
:1051200071C38093CF033496ABE1B4E00CD3A7D323
:1051300088F392E1D0DF98F38991EBE2F4E0E6D2D4
:105140004050524094E1F9F4AEE2B4E0DCD2ABE17D
:10515000B4E0AFD2A5D2A1EDB3E0BFD2A6E3B4E0F4
:10516000D0D24050504019F4A4E4B4E0ACD2E6ED03
:10517000F3E0BDD2809130048093D50396E188237B
:1051800011F0833008F03EC38DD281FD8BD2AAEDA1
:10519000B3E0A3D2A1E3B4E0B6D2AEEDB3E0B9D2AE
:1051A00084E0C7D27DD2A0EEB3E097D2ABE1B4E009
:1051B0008AD20E94ED32B3D2E3E3F4E09DD20050F4
:1051C000104019F4E0E4F4E079D20E94ED328091CD
:1051D0002D048093E40395E18823A9F28695F0F7E6
:1051E00091F6A3D157D2A5EEB3E077D20090D003C9
:1051F00000FA8091CF03882379F4E89486E00F5F6A
:10520000164F2040304010F068948BE88093CF0315
:10521000992790F99093D0033EF4ACE4B4E049D2DE
:1052200099D1AAEDB3E059D282E08093E903AAEDC7
:10523000B3E03FD2A1EFB3E050D2A7EFB3E04DD23D
:10524000E9C22497088319832A833B830895088140
:1052500019812A813B81089580E1FF93EF93806259
:105260008F93A4D58F918387028F138F248B358BD7
:10527000AE2FBF2FEDE0F4E08BE066D213960E94D4
:10528000423114960E944231EAD2EF91FF91089583
:1052900035D409F0BBC256D310F092E3B3C2ABD100
:1052A00050F18AD2CEDFAED318F1D1DFD5DFCFDF18
:1052B0000E94D62FADE0B4E08EE28D9380E29AE0BA
:1052C0008D939A95E9F7C3DFC7DFFF93EF9314D06F
:1052D00011F02BD101C0D9D18EE280930E04EF9151
:1052E000FF91B096B9DF0E94FD2F10F00E940E30A2
:1052F0008FB724968FBF0895A1EFB3E0DAD1AAED5E
:10530000B3E0E1D10C94F2328C918E32D1F4A1EF62
:10531000B3E0CFD1BDD2B09680818E3209F037C0D4
:105320000090D00300FA22273327028D138D16F444
:1053300024893589F9D119F4AAEDB3E01BC00AD14B
:105340001AC08C35C9F3DAD309F060C2FBD2F0F091
:1053500083858F7CF1F40090D00322273327028DC0
:10536000138D00FE02C024893589F4D091D270F0EB
:10537000ABE1B4E09ED1A1EFB3E0AFD1A7EFB3E0D2
:10538000ACD1A5EFB3E081D1C7D144C2089595E374
:1053900039C296E337C264D448F0B0D331F48F9366
:1053A00091E070D48F9110F035C230C288270895F3
:1053B00057D4D8F0A3D3D1F48F9398E063D48F91CE
:1053C00020F4923481F498E01FC0FA93EA93908D10
:1053D00095FD07C0D5D18F9398940E946E308F9120
:1053E00008F017C222968827089408950FC238D46F
:1053F00048F084D331F48F9392E0A3D48F9110F0CE
:1054000009C204C2882708958F9396D48F9108F01B
:1054100001C28827089512D450F0FA93EA930E94AB
:10542000C73020F00E94D43008F0F3C1F9C10895CC
:105430009F9304D49F91D0F0FA93EA939F93BF93E4
:10544000AF9349D4AF91BF919F9158F08D30B1F394
:105450008A3029F0992391F38D939A95EFCF889410
:10546000992780E08C938FB722968FBF0895E6D35B
:1054700030F0FA93EA93FDD308F0CBC1D1C108957F
:10548000DDD328F0808D827009F08FEFC3C18FEFDC
:105490000895D4D340F0FA93EA9381E0C7D15ED562
:1054A00008F0B7C1BDC10895FF93EF9327D34AD247
:1054B00058F0FF93EF93EDE0F4E0ABEFB3E08CE056
:1054C00043D1EF91FF918894AF91BF9130F4882739
:1054D0008C93923409F49EC1089540D30E9499336D
:1054E00011978EE28D9340D30E949933E9E1F4E065
:1054F000A7E0B4E086E028C1FF93EF93E6D2E4CFC3
:10550000802FC8D09091E003891B982F839589271D
:105510009091E403892311F488940895C5D005D0AF
:105520002ED008F4089516D0F7CFE0EEF3E0D0D0F7
:105530000E94ED3272F08091E40380FD06C0369542
:105540002795179507958695F8CF0E5F1F4F2F4F1C
:105550003F4F08958091E4030250104020403040B6
:1055600080FD06C0000F111F221F331F8695F8CF44
:10557000E0EEF3E0ADD00C94E8320ED1D6DFA1ED31
:10558000B3E0A1D00090D00300FE04C0000F111FB3
:10559000221F331F0F93012F122F232F33270E9417
:1055A000E83272D18F91E8F00090D00300FA992789
:1055B000880F991FE80FF91F2227332701911191B6
:1055C00036F4219131913F7032976FEF7FE032973F
:1055D00048EF5FEF0417150716F42607370710F09A
:1055E00091E210C117C151D002E0A02E44275527E7
:1055F0006627772704C0A9EEB3E05BD0AA243F93C7
:105600002F931F930F937F936F935F934F93AF925B
:10561000B6DFAF904F915F916F917F910F911F9186
:105620002F913F91A5EEB3E0CD90DD90ED90FD90F0
:1056300010F4913249F5C016D106E206F30618F1CE
:1056400099278191982B8191982B2EF48191982BF9
:1056500081918F70982B31F4A1FE0EC04F5F5F4F88
:105660006F4F7F4F802F912F15D09127969516F46D
:105670008027880F00F7C3CF32970EF43297A9EE38
:10568000B3E02BD0C7C092E2BDC00027112722276C
:10569000332708950F5F1F4F2F4F3F4F0895552712
:1056A000662777270C94E8320150104020403040A4
:1056B00008950D911D912D913D91089501911191A4
:1056C0002191319108954D915D916D917D91089554
:1056D000419151916191719108950D931D932D9375
:1056E0003D9308950193119321933193089541932C
:1056F000519361937193089522273327019111915A
:105700000895662777274D915D91089541915191B4
:1057100008954D935D9308950D931D930895402F23
:10572000512F622F732F08950050104020403040B9
:105730000895569547958A95E1F70895440F551FAA
:105740008A95E1F7089584E09F9391919D938A95BE
:10575000E1F79F910895E881F9810895A881B981C1
:1057600018960895E881F9813C960895E881F981B9
:105770003896B8CFE881F9813896A0CFF3DFB2CF61
:10578000F1DF9CCFEFDFA4CFA881B9811C960895EB
:10579000E881F98174960895FBDF90CFE881F98163
:1057A000808D0895E881F98170960895FBDF86CF9A
:1057B000F9DF8ECFF7DF96CF0090D00300FA8FEF9E
:1057C000819381931EF481938FE0819342C0009076
:1057D000D00300FA0193119316F42193319339C049
:1057E000E881F98179960895D3DF7CCFA881B981CA
:1057F000549608950F900F900F900F900F900F9068
:105800000895229608949093CE030895882799E4EA
:10581000F9CF2296889490E0F6CF22968894089546
:1058200022960894089580EA01C084E8E881F9810D
:105830009F93908D892B808F9F910895E881F981A6
:105840009F93908D80958923808F9F91089588E004
:10585000EDCF80912406886080932406089580917E
:105860001F04886080931F0408950E941B2708F07E
:10587000D1CFC8CF0E94342708F0CCCFC3CFABE143
:10588000B4E0E0E2F4E0F1CF80E1A0E2B6E006C0EF
:1058900080E0ABE1B4E002C0A9DF80E814DF0E9441
:1058A000F23231F4E8941196EA2FFB2F1597B6CF18
:1058B0009D91EA2FFB2F792F777E872B8E9314975C
:1058C00093FF18C00F931F932F933F939F93AF9312
:1058D000BF93D0DFBF91AF919F91A8F094FF06C016
:1058E000AF93BF93A5D3BF91AF9168F03F912F9134
:1058F0001F910F91F2DED7DFEF93FF93B6DFFF9199
:10590000EF916894089578CF49DF8670B1F44EDF47
:1059100000271E7F442752E0C3DE4CDF3FDF867046
:1059200061F43ADFEDDD20F061DFB6DF38F088C2E8
:10593000913221F47ADF91E265CF91E063CFDED03E
:1059400009F065CFFA93EA93A5D008F469CF83856F
:105950008F3099F0827C89F480818E3271F0853E9F
:1059600061F08030D1F0A881B9819C919F3311F012
:10597000981303C07BE0B5D0A1F0B09681E0480F4A
:1059800025F78827581F5F934F930FD008F080DFCB
:105990004F915F91D0F6903C08F492E4E991F9912F
:1059A00031CFA9E1B4E0B5DE34CF0090D00300FCE4
:1059B00019C0A1EFB3E07DDEAAEDB3E05F934F9392
:1059C00082DE0E94F2324F915F9161F4AEEDB3E05E
:1059D0006D917D914617570710F091E313CF0FD0CB
:1059E00059DE18CF0CD03F932F931F930F9388DD70
:1059F00008F002CF0F911F912F913F910895ABE1D5
:105A0000B4E057CE4FD008F43CC08081853E81F190
:105A1000803071F1B09681E0480FBDF78827581F9C
:105A20005F934F93C2DF08F033DF4F915F9168F7C8
:105A3000913239F55F934F9378DD3F932F931F9306
:105A40000F93D9DDF8F0B8DE6ADE0F911F912F9128
:105A50003F917F936F935F934F9391DD0F911F91D0
:105A60002F913F9180F4913281F4B1DE9FD2DDCF4E
:105A7000A9E1B4E04EDE1DDEA5EFB3E04ADE2DDE87
:105A8000C9CEC0CEB7CE93E2BDDEB8CEA881B98173
:105A900012960AC044275527A1EFB3E006C0A7E03D
:105AA000B4E002C0A5EFB3E02EDE03DE5A934A93C2
:105AB000EFDE50F048814F70552785E03FDEE40F60
:105AC000F51F49915991A6CEABCEA7E0B4E0ECDF2B
:105AD000FF93EF93EBEFF3E0FA93EA93EF91FF91EB
