:100000000C94460018950000189500001895000003
:10001000189500001895000018950000189500002C
:10002000189500001895000018950000189500001C
:10003000189500001895000018950000189500000C
:100040000C94E41F189500000C94692F189500007B
:1000500018950000189500001895000018950000EC
:1000600018950000189500001895000018950000DC
:1000700018950000189500000C949B2F189500000F
:100080001895000018950000189500008FEF8DBF9F
:10009000C0E8E8E14E2E80E18EBFD0E1F0E15F2EB6
:1000A000A89584B7082E877F84BF88E1992781BDF2
:1000B00091BDEEEFFFE0A0E0B1E088278D9331978E
:1000C000E9F787E489B980E08093900088E18AB9F4
:1000D000662485E089B980E080939000599888E192
:1000E0008AB986E080939500579A8BE080939900B7
:1000F00080E08093980070919B007D7F70939B00BF
:1001000086E080939D0088E180939A0070919A0028
:10011000706870939A00BD9ABE9ABF9A89EA8FBDA3
:1001200082E08EBD82E08EBD80E090E09BBD8ABD06
:1001300080E090E099BD88BD80E090E090937900E8
:100140008093780087E083BF84E982BF77B77160CE
:1001500077BF87E083BF86E886B980E487B9139AC2
:10016000149A159AD198D99AD298DA9A8C981798A5
:100170001F9AA798A29AA39AA19AA09AA49AA59A1C
:1001800070E0709371007AE0709370000E94A62076
:10019000A5E4B3E0E4EFF7E60E94B42E82E090E03D
:1001A000A1E2B3E08D939C9384EF91E0A7E1B3E0EB
:1001B0008D939C9381E08093190380E080931A03D0
:1001C00078940E944E0582E593E0A5E1B3E08D931B
:1001D0009C9383E18093EA0282E380931003AAE870
:1001E000B3E08C9199279BBD8ABDA1EAB3E08C91C5
:1001F000992799BD88BDA8EBB3E08C91992790937E
:100200007900809378000E94760D0E94E00F0E9492
:1002100021100E947F110E94A0120E9478010E946A
:10022000E7010E94CB030E9431040E94E904ADEB78
:10023000B1E00D911C91043650E0150718F011F053
:100240000C9424010C945F0180E090E0ADEBB1E0F0
:100250008D939C93A0ECB1E08C918F5F8C930E9466
:100260000309A0E1B3E08C918F5F8C93AAEEB2E01A
:100270008C918F5F8C93A8EEB2E00E942120ADE1BB
:10028000B3E00D911C91003050E0150718F011F00B
:100290000C944C010C945001ADE1B3E00E94282075
:1002A000A8EEB2E00D911C910C3350E0150718F048
:1002B00011F00C945D010C945F010E94EB1300910E
:1002C000C001033018F011F00C9468010C946D011A
:1002D00080E08093C0010E94410B009149030130EE
:1002E00011F00C9475010C943A0E1B980C940301B8
:1002F000ADE1B3E00D911C91003050E0150781E0B5
:1003000009F080E08F93A5E3B0E00C9102FB81E05F
:100310000EF080E09F918923882311F40C949A01B8
:10032000A6E3B2E0E0E4F8E60E949D2E0E946B1383
:10033000AA98AB98ADE1B3E00D911C91003050E06C
:10034000150780E010F009F081E08F93A5E3B0E09D
:100350000C9102FB81E00EF480E09F9189238F9342
:10036000A5E3B0E00C9103FB81E00EF480E09F91E7
:100370008923882311F40C94E6010091B90300301D
:1003800011F00C94C5010C94E6010091B903013001
:1003900011F00C94D601A6E3B2E0E0E5F8E60E9485
:1003A0009D2E0E946B13AA9A0C94E6010091B9034A
:1003B000023011F00C94E601A6E3B2E0E0E6F8E6C4
:1003C0000E949D2E0E946B13AA9AAB9A0895E7E7AC
:1003D000F3E0A4EBB1E00E94E53011F00C94F301DE
:1003E00081E080937403E0E8F3E0A4EBB1E00E94C5
:1003F000E53011F00C94FF0180E080937403EEE887
:10040000F3E0A4EBB1E00E94E53011F00C940B0294
:1004100081E080938B03E7E9F3E0A4EBB1E00E9475
:10042000E53011F00C94170280E080938B03E5EA2D
:10043000F3E0A4EBB1E00E94E53011F00C9423024C
:1004400081E08093A203EEEAF3E0A4EBB1E00E9426
:10045000E53011F00C942F0280E08093A20300910C
:100460007403013081E009F080E08F93A9E8B3E0E4
:100470004D915527AAE4B0E00D911C910417150782
:1004800081E008F080E09F918923882311F40C9487
:100490007302AEE6B3E04D915C91A5E7B3E00D9138
:1004A0001C910417150710F00C945C02A5E7B3E04B
:1004B0000E9421200C947302AEE6B3E04D915C9152
:1004C000A5E7B3E00D911C910417150710F40C94E7
:1004D0007302AAE4B0E00E94212080E090E0A5E74A
:1004E000B3E08D939C9300917403003081E009F098
:1004F00080E08F93AAE8B3E04D915527AAE4B0E0DD
:100500000D911C910417150780E010F009F081E0AF
:100510009F918923882311F40C94B802AEE6B3E0CE
:100520004D915C91A5E7B3E00D911C91041715075F
:1005300010F00C94A102A5E7B3E00E9421200C94D6
:10054000B802AEE6B3E04D915C91A5E7B3E00D9142
:100550001C910417150710F40C94B802AAE4B0E03B
:100560000E94282080E090E0A5E7B3E08D939C9363
:1005700000918B03013081E009F080E08F93A0EAC5
:10058000B3E04D915527A8E4B0E00D911C910417FC
:10059000150781E008F080E09F918923882311F4FA
:1005A0000C94FC02A0E7B3E04D915C91ACE8B3E0A1
:1005B0000D911C910417150710F00C94E502ACE89E
:1005C000B3E00E9421200C94FC02A0E7B3E04D911F
:1005D0005C91ACE8B3E00D911C910417150710F481
:1005E0000C94FC02A8E4B0E00E94212080E090E09E
:1005F000ACE8B3E08D939C9300918B03003081E0D5
:1006000009F080E08F93A1EAB3E04D915527A8E46B
:10061000B0E00D911C910417150780E010F009F06F
:1006200081E09F918923882311F40C944103A0E772
:10063000B3E04D915C91ACE8B3E00D911C910417CF
:10064000150710F00C942A03ACE8B3E00E942120B7
:100650000C944103A0E7B3E04D915C91ACE8B3E0AA
:100660000D911C910417150710F40C944103A8E494
:10067000B0E00E94282080E090E0ACE8B3E08D93E9
:100680009C930091A203013081E009F080E08F93F8
:10069000A7EBB3E04D915527A8E7B0E00D911C9171
:1006A0000417150781E008F080E09F9189238823D3
:1006B00011F40C948503A2E7B3E04D915C91A3EA99
:1006C000B3E00D911C910417150710F00C946E0304
:1006D000A3EAB3E00E9421200C948503A2E7B3E0D3
:1006E0004D915C91A3EAB3E00D911C91041715079D
:1006F00010F40C948503A8E7B0E00E94212080E06C
:1007000090E0A3EAB3E08D939C930091A2030030A4
:1007100081E009F080E08F93A8EBB3E04D9155277D
:10072000A8E7B0E00D911C910417150780E010F0C8
:1007300009F081E09F918923882311F40C94CA0366
:10074000A2E7B3E04D915C91A3EAB3E00D911C9157
:100750000417150710F00C94B303A3EAB3E00E944A
:1007600021200C94CA03A2E7B3E04D915C91A3EA67
:10077000B3E00D911C910417150710F40C94CA03F3
:10078000A8E7B0E00E94282080E090E0A3EAB3E070
:100790008D939C930895AFE1B3E00D911C91A1E27C
:1007A000B3E04D915C91041B150BA3E2B3E00D93F4
:1007B0001C93AFE1B3E00D911C91A1E2B3E04D9128
:1007C0005C91040F151FA5E2B3E00D931C93A3E207
:1007D000B3E04D915C91A5E1B3E00D911C9104173C
:1007E000150781E014F009F080E08F93A5E3B0E0F5
:1007F0000C9101FB81E00EF480E09F918923882316
:1008000011F40C940C04A99AA6E3B2E0E4E7F8E62C
:100810000E949D2E0E946B13A5E2B3E04D915C9166
:10082000A5E1B3E00D911C910417150780E00CF0D1
:1008300081E08F93A5E3B0E00C9101FB81E00EF025
:1008400080E09F918923882311F40C943004A998A7
:10085000A6E3B2E0E4E8F8E60E949D2E0E946B1346
:100860000895E5E4F3E00E943331E9E3F3E00E9408
:100870002E310E948D32EDE0F0E0ADE3B3E00E9456
:100880008230E5E4F3E00E943331E9E3F3E00E94D3
:100890002E310E947E32EDE0F0E0A1E4B3E00E9450
:1008A0008230E7E2F3E00E942E31EDE3F3E00E94B4
:1008B00033310E94153180E010F009F081E08F9310
:1008C000A5E3B0E00C9104FB81E00EF480E09F9181
:1008D00089238F93E7E2F3E00E942E31E8EFF7E6F9
:1008E0000E94DB320E94153180E010F009F081E0B7
:1008F0009F9189238F93E7E2F3E00E942E31ECEF82
:10090000F7E60E94DB320E94153181E008F080E0BA
:100910009F918923882311F40C949704AC9AA6E341
:10092000B2E0E6E9F8E60E949D2E0E946B13E7E232
:10093000F3E00E942E31E1E4F3E00E9433310E94A3
:10094000153181E008F080E08F93A5E3B0E00C91D1
:1009500004FB81E00EF080E09F918923882311F44D
:100960000C94BB04AC98A6E3B2E0E4EAF8E60E947B
:100970009D2E0E946B13E7E2F3E00E942E31E8EF18
:10098000F7E60E94DB320E94153181E008F080E03A
:100990008F93E7E2F3E00E942E31ECEFF7E60E943E
:1009A000DB320E94153180E010F009F081E09F9168
:1009B000892B8F93A5E3B0E00C9104FB81E00EF04E
:1009C00080E09F918923882311F40C94E804AC986B
:1009D0000895EAE4F3E0A4EBB1E00E94E53081E0A1
:1009E00009F080E08F93A5E3B0E00C9100FB81E07B
:1009F0000EF480E09F918923882311F40C9409055B
:100A0000A89AA6E3B2E0E2EBF8E60E949D2E0E94CF
:100A10006B13E3E5F3E0A4EBB1E00E94E53081E085
:100A200009F080E08F93A5E3B0E00C9100FB81E03A
:100A30000EF080E09F918923882311F40C942905FE
:100A4000A898A6E3B2E0E4ECF8E60E949D2E0E948E
:100A50006B13ECE5F3E0A4EBB1E00E94E53011F09C
:100A60000C943B05A89AA6E3B2E0E2EBF8E60E94FC
:100A70009D2E0E946B13E5E6F3E0A4EBB1E00E942B
:100A8000E53011F00C944D05A898A6E3B2E0E4EC33
:100A9000F8E60E949D2E0E946B1308951C9AA7E110
:100AA000B3E08D919C910E9497201C981B9AA7E11E
:100AB000B3E08D919C910E9497201B981D9AA7E10D
:100AC000B3E08D919C910E9497201D9880E090E06A
:100AD0009BBD8ABD80E090E099BD88BD80E090E03C
:100AE00090937900809378008CE10E945E200E94B0
:100AF0005B2084E690E00E949720E6EDF8E60E94F5
:100B00005420A0E0B0E1ECEEF8E60E949D2E0E9499
:100B10004C200E945B20E0E0F0E0AFEBB1E00E94EF
:100B2000B9300091BF01013081E009F480E08F937A
:100B300000911903003081E009F080E09F91892342
:100B4000882311F40C940006F8941D9AE4EFF8E65B
:100B50000E9454200E945B2084E20E94482084E28C
:100B60000E94482084E20E944820E1E0F0E00E94D8
:100B70006520EEEFF8E60E9454200E945B20E4E03E
:100B8000F9E60E943E200E944520E1E0F0E00E944C
:100B90006520EAE0F9E60E9454200E945B20EAE02A
:100BA000F9E60E943E200E944520E1E0F0E00E942C
:100BB0006520E6E1F9E60E9454200E945B20EEE108
:100BC000F9E60E943E208AE00E944820E1E0F0E041
:100BD0000E9465201D987894A2E3B1E00E94CF2F77
:100BE000A3E5B1E00E94CF2F81E08093BF01E0E058
:100BF000F0E0AFEBB1E07BE70E949D300C9406067D
:100C00000091BF01013011F00C9406060E94A01261
:100C1000AFE2B3E0E9E0F0E094E00E94BC30EFE244
:100C2000F3E00E942E31E0E0F8E60E94DB320E9401
:100C3000153181E008F080E08F93EFE2F3E00E944D
:100C40002E31E4E0F8E60E94DB320E94153180E0AC
:100C500010F009F081E09F91892B8F93EFE2F3E090
:100C60000E942E31E8E0F8E60E94DB320E94153146
:100C700081E009F080E09F91892B882311F40C9486
:100C80004F06AFE2B3E0ECE0F8E60E94B42EE9E0F4
:100C9000F0E0AFE2B3E094E07BE70E94A030ABE28B
:100CA000B3E0E5E0F0E094E00E94BC30EBE2F3E07A
:100CB0000E942E31E0E0F8E60E94DB320E941531FE
:100CC00081E008F080E08F93EBE2F3E00E942E31A8
:100CD000E4E0F8E60E94DB320E94153180E010F07B
:100CE00009F081E09F91892B8F93EBE2F3E00E9462
:100CF0002E31E8E0F8E60E94DB320E94153181E0F7
:100D000009F080E09F91892B882311F40C949606BA
:100D1000ABE2B3E0E0E1F8E60E94B42EE5E0F0E0FB
:100D2000ABE2B3E094E07BE70E94A030A3E3B3E042
:100D3000EDE0F0E094E00E94BC30E3E3F3E00E94D9
:100D40002E31E4E1F8E60E94DB320E94153181E0A9
:100D500008F080E08F93E3E3F3E00E942E31E8E1B6
:100D6000F8E60E94DB320E94153180E010F009F0B5
:100D700081E09F91892B8F93E3E3F3E00E942E3172
:100D8000E8E0F8E60E94DB320E94153181E009F0CC
:100D900080E09F91892B882311F40C94DD06A3E356
:100DA000B3E0ECE1F8E60E94B42EEDE0F0E0A3E35E
:100DB000B3E094E07BE70E94A030A9E3B3E0E2E176
:100DC000F0E094E00E94BC30E9E3F3E00E942E31B1
:100DD000E0E2F8E60E94DB320E94153180E010F07C
:100DE00009F081E08F93E9E3F3E00E942E31E4E221
:100DF000F8E60E94DB320E94153181E008F080E0C5
:100E00009F91892B882311F40C941407A9E3B3E074
:100E1000E8E2F8E60E94B42EE2E1F0E0A9E3B3E0F4
:100E200094E07BE70E94A03000911A03003011F09B
:100E30000C941E070E9436130E94611500911A033C
:100E4000013081E009F080E08F93A1E2B0E00C91E5
:100E500007FB81E00EF480E09F91892B882311F439
:100E60000C940109E3E0F0E0AFE1B3E00E94BB3095
:100E7000AFE1B3E00D911C91003951E0150780E01E
:100E800014F009F081E08F93AFE1B3E00D911C9174
:100E9000043650E0150780E00CF481E09F91892B27
:100EA000882311F40C9461078AEF90E0AFE1B3E07E
:100EB0008D939C93E3E0F0E0AFE1B3E07BE70E9429
:100EC0009F30E6E1F0E0AAE4B3E098E00E94C3308E
:100ED000EFE1F0E0A3E5B3E098E00E94C330E8E280
:100EE000F0E0ACE5B3E098E00E94C330E1E3F0E06D
:100EF000A5E6B3E098E00E94C330E1E0F0E0ABE1AA
:100F0000B3E00E94BB30ABE1B3E00D911C9104381B
:100F100053E0150718F011F00C9490070C949D07FE
:100F20008CE291E0ABE1B3E08D939C93E1E0F0E0E3
:100F3000ABE1B3E07BE70E949F30ECE7F0E0A9EB88
:100F4000B3E00E94B9300091B903023018F011F0FB
:100F50000C94AC070C94B60780E08093B903ECE7DF
:100F6000F0E0A9EBB3E07BE70E949D30EAE3F0E01C
:100F7000AEE6B3E00E94BB30AEE6B3E00D911C914B
:100F8000043C59E0150780E010F009F081E08F93F0
:100F9000AEE6B3E00D911C91043650E0150781E0F8
:100FA00008F080E09F91892B882311F40C94E507C9
:100FB00088EE93E0AEE6B3E08D939C93EAE3F0E035
:100FC000AEE6B3E07BE70E949F30ECE3F0E0A0E701
:100FD000B3E00E94BB30A0E7B3E00D911C91043C4C
:100FE00059E0150780E010F009F081E08F93A0E749
:100FF000B3E00D911C91043650E0150781E008F034
:1010000080E09F91892B882311F40C94140888EEBA
:1010100093E0A0E7B3E08D939C93ECE3F0E0A0E7CE
:10102000B3E07BE70E949F30EEE3F0E0A2E7B3E09D
:101030000E94BB30A2E7B3E00D911C91043C59E043
:10104000150780E010F009F081E08F93A2E7B3E08C
:101050000D911C91043650E0150781E008F080E006
:101060009F91892B882311F40C94430888EE93E018
:10107000A2E7B3E08D939C93EEE3F0E0A2E7B3E048
:101080007BE70E949F30E0E4F0E0A7E7B3E098E060
:101090000E94C330E9E4F0E0A0E8B3E098E00E94E9
:1010A000C330E2E5F0E0A9E8B3E00E94B930E3E53F
:1010B000F0E0AAE8B3E00E94B93000918A03043658
:1010C00018F011F00C9466080C94700880E080937E
:1010D0008A03E3E5F0E0AAE8B3E07BE70E949D30F5
:1010E000E4E5F0E0AEE8B3E098E00E94C330EDE55F
:1010F000F0E0A7E9B3E098E00E94C330E6E6F0E054
:10110000A0EAB3E00E94B930E7E6F0E0A1EAB3E07C
:101110000E94B9300091A103043618F011F00C942C
:1011200093080C949D0880E08093A103E7E6F0E02B
:10113000A1EAB3E07BE70E949D30E8E6F0E0A5EA93
:10114000B3E098E00E94C330E1E7F0E0AEEAB3E03C
:1011500098E00E94C330EAE7F0E0A7EBB3E00E941A
:10116000B930EBE7F0E0A8EBB3E00E94B9300091B2
:10117000B803043618F011F00C94C0080C94CA0897
:1011800080E08093B803EBE7F0E0A8EBB3E07BE707
:101190000E949D30A9E3B3E0E2E1F0E094E00E9418
:1011A000BC30E9E3F3E00E942E31E8EFF7E60E945D
:1011B000DB320E94153181E008F080E08F93E9E393
:1011C000F3E00E942E31E0E2F8E60E94DB320E945A
:1011D000153180E010F009F081E09F91892B882380
:1011E00011F40C940109A9E3B3E0E8E2F8E60E94E7
:1011F000B42EE2E1F0E0A9E3B3E094E07BE70E94E3
:10120000A030089508958CE10E945E200E945B202A
:1012100084E690E00E9497200E94F920ACE5B1E0BE
:101220000E944E20E2E2F9E60E9454200E94F9203A
:10123000A5E6B1E00E944E200E945B20E4E2F9E6C0
:101240000E9454200E945B20E6E2F9E60E945420AE
:10125000A5E3B0E08C9182FBA0E0B0E10E94CC2E2F
:101260008D9388278C930E944C20E2E3F9E60E943C
:101270005420A0E0B0E1EDE1F3E00E94F52F0E94E0
:101280004C20E6E3F9E60E9454200E945B20E8E34C
:10129000F9E60E945420A5E3B0E08C9183FBA0E026
:1012A000B0E10E94CC2E8D9388278C930E944C2015
:1012B000E2E3F9E60E945420A0E0B0E1EDE1F3E0C2
:1012C0000E94F52F0E944C20E6E3F9E60E9454208C
:1012D0000E945B20E4E4F9E60E945420A5E3B0E01C
:1012E0008C9181FBA0E0B0E10E94CC2E8D938827E9
:1012F0008C930E944C20ECE4F9E60E945420A0E07C
:10130000B0E1E3E2F3E00E94FE2F0E944C20EEE405
:10131000F9E60E945420A0E0B0E1E5E2F3E00E948B
:10132000FE2F0E944C20E6E3F9E60E9454200E9422
:101330005B20E0E5F9E60E945420A5E3B0E08C9143
:1013400080FBA0E0B0E10E94CC2E8D9388278C9387
:101350000E944C20E2E2F9E60E945420AAE4B3E0A5
:101360000E944E20EEE4F9E60E945420A3E5B3E08B
:101370000E944E20EAE5F9E60E945420ACE5B3E075
:101380000E944E20EEE4F9E60E945420A5E6B3E068
:101390000E944E200E945B20EEE5F9E60E94542058
:1013A000A5E3B0E08C9184FBA0E0B0E10E94CC2EDC
:1013B0008D9388278C930E944C20ECE4F9E60E94E0
:1013C0005420A0E0B0E1E9E3F3E0552744E00E94B7
:1013D0005C210E944C20E6E3F9E60E9454200E9422
:1013E0005B20EAE6F9E60E945420A5E3B0E08C9188
:1013F00085FBA0E0B0E10E94CC2E8D9388278C93D2
:101400000E944C200E945B20E0E7F9E60E945420F5
:10141000A0E0B0E1EAE4F0E00E94F52F0E944C2049
:10142000E6E7F9E60E945420A0E0B0E1E9E8F3E045
:101430000E9405300E944C20EEE7F9E60E945420FD
:10144000A7E7B3E00E944E20EEE4F9E60E945420A4
:10145000A0E0B0E1EAE8F3E00E9405300E944C20F1
:10146000EEE7F9E60E945420A0E8B3E00E944E2087
:101470000E945B20E0E8F9E60E945420A0E0B0E181
:10148000E8E4F0E00E94F52F0E944C20E6E7F9E640
:101490000E945420A0E0B0E1E0EAF3E00E940530B1
:1014A0000E944C20EEE7F9E60E945420AEE8B3E03B
:1014B0000E944E20EEE4F9E60E945420A0E0B0E144
:1014C000E1EAF3E00E9405300E944C20EEE7F9E6E5
:1014D0000E945420A7E9B3E00E944E200E945B20A6
:1014E000E6E8F9E60E945420A0E0B0E1E8E7F0E089
:1014F0000E94F52F0E944C20E6E7F9E60E94542056
:10150000A0E0B0E1E7EBF3E00E9405300E944C2040
:10151000EEE7F9E60E945420A5EAB3E00E944E20CF
:10152000EEE4F9E60E945420A0E0B0E1E8EBF3E03D
:101530000E9405300E944C20EEE7F9E60E945420FC
:10154000AEEAB3E00E944E200E945B20E4E2F9E69E
:101550000E9454200E945B20ECE8F9E60E9454208F
:10156000A0E0B0E1E7E2F3E0552744E00E945C210F
:101570000E944C20E2E9F9E60E945420A0E0B0E18C
:10158000EBEEF2E0552744E00E945C210E944C20E3
:10159000E6E9F9E60E9454200E945B20EAE9F9E6B8
:1015A0000E945420A0E0B0E1E5E1F3E00E94FE2FAC
:1015B0000E944C20E2EAF9E60E9454200E945B203F
:1015C000E6EAF9E60E945420A0E0B0E1E6E0F3E0AC
:1015D0000E9405300E944C2000910603003011F05B
:1015E0000C94F80AEEEAF9E60E9454200E945B206F
:1015F00000910603013011F00C94040BE4E2F9E6CB
:101600000E9454200E945B20E2EBF9E60E945420E5
:10161000A0E0B0E1E4E0F3E00E9405300E944C203D
:10162000ECE4F9E60E945420A0E0B0E1EBE1F3E045
:101630000E94F52F0E944C20ECEBF9E60E9454200A
:101640000E945B20E0ECF9E60E945420A0E0B0E1AB
:10165000E5E0F3E00E9405300E944C20ECECF9E656
:101660000E945420A0E0B0E1EEE6F3E00E94F52FE6
:101670000E944C20E6E3F9E60E9454200E945B2081
:101680000895E4E2F9E60E943E200E9445200E946F
:10169000F920ACE5B1E00E943820E2E2F9E60E94D0
:1016A0003E200E94F920A5E6B1E00E9438200E9469
:1016B0004520E6E2F9E60E943E20A5E3B0E08C91E9
:1016C00082FBA0E0B0E10E94CC2E8D9388278C9302
:1016D0000E943620E2E3F9E60E943E20A0E0B0E15D
:1016E000EDE1F3E00E94F52F0E943620E6E3F9E6F3
:1016F0000E943E200E944520E8E3F9E60E943E2039
:10170000A5E3B0E08C9183FBA0E0B0E10E94CC2E79
:101710008D9388278C930E943620E2E3F9E60E949D
:101720003E20A0E0B0E1EDE1F3E00E94F52F0E9441
:101730003620E6E3F9E60E943E200E944520E4E4DC
:10174000F9E60E943E20A5E3B0E08C9181FBA0E089
:10175000B0E10E94CC2E8D9388278C930E94362076
:10176000ECE4F9E60E943E20A0E0B0E1E3E2F3E021
:101770000E94FE2F0E943620EEE4F9E60E943E20F1
:10178000A0E0B0E1E5E2F3E00E94FE2F0E943620E7
:10179000E6E3F9E60E943E200E944520E0E5F9E6F6
:1017A0000E943E20A5E3B0E08C9180FBA0E0B0E178
:1017B0000E94CC2E8D9388278C930E943620E2E2E3
:1017C000F9E60E943E20AAE4B3E00E943820EEE44D
:1017D000F9E60E943E20A3E5B3E00E943820EAE546
:1017E000F9E60E943E20ACE5B3E00E943820EEE42A
:1017F000F9E60E943E20A5E6B3E00E9438200E9450
:101800004520EEE5F9E60E943E20A5E3B0E08C918C
:1018100084FBA0E0B0E10E94CC2E8D9388278C93AE
:101820000E943620ECE4F9E60E943E20A0E0B0E100
:10183000E9E3F3E0552744E00E945C210E94362052
:10184000E6E3F9E60E943E200E944520EAE6F9E63A
:101850000E943E20A5E3B0E08C9185FBA0E0B0E1C2
:101860000E94CC2E8D9388278C930E9436200E9454
:101870004520E0E7F9E60E943E20A0E0B0E1EAE47E
:10188000F0E00E94F52F0E943620E6E7F9E60E947C
:101890003E20A0E0B0E1E9E8F3E00E9405300E94BC
:1018A0003620EEE7F9E60E943E20A7E7B3E00E946B
:1018B0003820EEE4F9E60E943E20A0E0B0E1EAE83C
:1018C000F3E00E9405300E943620EEE7F9E60E9420
:1018D0003E20A0E8B3E00E9438200E944520E0E8C6
:1018E000F9E60E943E20A0E0B0E1E8E4F0E00E94CA
:1018F000F52F0E943620E6E7F9E60E943E20A0E0A0
:10190000B0E1E0EAF3E00E9405300E943620EEE705
:10191000F9E60E943E20AEE8B3E00E943820EEE4F3
:10192000F9E60E943E20A0E0B0E1E1EAF3E00E9487
:1019300005300E943620EEE7F9E60E943E20A7E936
:10194000B3E00E9438200E944520E6E8F9E60E94B4
:101950003E20A0E0B0E1E8E7F0E00E94F52F0E9411
:101960003620E6E7F9E60E943E20A0E0B0E1E7EB92
:10197000F3E00E9405300E943620EEE7F9E60E946F
:101980003E20A5EAB3E00E943820EEE4F9E60E948A
:101990003E20A0E0B0E1E8EBF3E00E9405300E94B9
:1019A0003620EEE7F9E60E943E20AEEAB3E00E9460
:1019B00038200E944520E4E2F9E60E943E200E9481
:1019C0004520ECE8F9E60E943E20A0E0B0E1E7E225
:1019D000F3E0552744E00E945C210E943620E2E9B2
:1019E000F9E60E943E20A0E0B0E1EBEEF2E05527E0
:1019F00044E00E945C210E943620E6E9F9E60E945C
:101A00003E200E944520EAE9F9E60E943E20A0E03F
:101A1000B0E1E5E1F3E00E94FE2F0E943620E2EA09
:101A2000F9E60E943E200E944520E6EAF9E60E947F
:101A30003E20A0E0B0E1E6E0F3E00E9405300E9425
:101A4000362000910603003011F00C942D0DEEEAC3
:101A5000F9E60E943E200E944520009106030130D5
:101A600011F00C94390DE4E2F9E60E943E200E9448
:101A70004520E2EBF9E60E943E20A0E0B0E1E4E080
:101A8000F3E00E9405300E943620ECE4F9E60E9463
:101A90003E20A0E0B0E1EBE1F3E00E94F52F0E94D0
:101AA0003620ECEBF9E60E943E200E944520E0EC57
:101AB000F9E60E943E20A0E0B0E1E5E0F3E00E94FC
:101AC00005300E943620ECECF9E60E943E20A0E0B2
:101AD000B0E1EEE6F3E00E94F52F0E943620E6E347
:101AE000F9E60E943E200E94452008950091EA02F6
:101AF0000A3018F011F00C947F0D0C94390E80E030
:101B00008093F902ABEEB2E0E8E0F8E60E94B42E72
:101B100080E08093EA02F8940E94AE2010E90E94CF
:101B2000C4201CE90E94C4200E94BE2081E0809352
:101B3000F8020091F8020A3F18F011F00C94CB0D56
:101B40000E94AE2011E90E94C4200E94E120A5EF6E
:101B5000B2E01C930E94E120A6EFB2E01C930E9429
:101B6000E120A7EFB2E01C930E94BE20A7EFB2E0F5
:101B70000C9107FB16F40C94BF0D0C94CB0D81E077
:101B800090E00E949720A8EFB2E08C918F5F8C9339
:101B900010F40C94990D0E94AE2011E90E94C4200B
:101BA0000E94E120A5EFB2E01C930E94E120A6EF85
:101BB000B2E01C930E94E120A7EFB2E01C930E94C8
:101BC000BE2078949091F5028091F602A3EFB2E0E6
:101BD0008D939C93ECE2F8E60E94DB32E3EFF2E0B7
:101BE000D190E080FF2400270E9496310E94E631C8
:101BF000EDE0F0E0AFEEB2E00E948230E0E3F8E624
:101C00000E94DB32EFEEF2E00E942E310E943F3262
:101C1000EDE0F0E0AFEEB2E00E948230EFEEF2E0F5
:101C20000E943331EBEEF2E00E942E310E948D32A1
:101C3000EDE0F0E0ABEEB2E00E948230A9EFB2E05E
:101C40008C918F5F8C930091F902053011F00C9408
:101C5000880DE4E3F8E60E94DB32EBEEF2E00E944E
:101C60002E310E94E631EDE0F0E0ABEEB2E00E94F2
:101C7000823008951C9A1D9A1B98E4EDF9E60E94A3
:101C80003E200E9445208CE380933703E4E0FAE68F
:101C90000E943E20A0E0B0E1E7E3F3E00E940530BF
:101CA0000E943620ECE2FAE60E943E200E94452087
:101CB00080913703815080933703E1E0F0E00E9488
:101CC000652000913703003011F00C94460EABE212
:101CD000B3E0E8E0F8E60E94B42E80E0809337039A
:101CE00084E18093EA020E94760D8AE090E00E94EF
:101CF0009720EBEEF2E00E943331EBE2F3E00E943A
:101D00002E310E948D32EDE0F0E0ABE2B3E00E94B4
:101D10008230A7E3B3E08C918F5F8C9300913703FF
:101D20000A3011F00C94730EE0E2F8E60E94DB3208
:101D3000EBE2F3E00E942E310E94E631EDE0F0E0AC
:101D4000ABE2B3E00E948230E5E0F0E0ABE2B3E06A
:101D500094E07BE70E94A030E2E3FAE60E943E2096
:101D6000A0E0B0E1EBE2F3E0552744E00E945C2103
:101D70000E943620E4E4FAE60E943E200E944520BC
:101D8000E5E0F0E00E946520E6E4FAE60E943E20ED
:101D90000E94452084E1809337038CE10E94482013
:101DA0000E94452084E690E00E949720E4E6FAE64F
:101DB0000E943E20A0E0B0E1E7E3F3E00E9405309E
:101DC0000E943620ECE2FAE60E943E200E94452066
:101DD00080913703815080933703E1E0F0E00E9467
:101DE000652000913703003011F00C94CD0EE2E82D
:101DF000FAE60E943E200E9445208CE38093370340
:101E00008CE10E9448200E94452084E690E00E94D8
:101E10009720E2EBFAE60E943E20A0E0B0E1E7E383
:101E2000F3E00E9405300E943620ECE2FAE60E94C0
:101E30003E200E94452080913703815080933703D4
:101E4000E1E0F0E00E94652000913703003011F0DE
:101E50000C94000FAFE2B3E0E8E0F8E60E94B42E85
:101E600080E08093370384E18093EA020E94760D3C
:101E70008AE090E00E949720EBEEF2E00E9433317E
:101E8000EFE2F3E00E942E310E948D32EDE0F0E0AF
:101E9000AFE2B3E00E948230A7E3B3E08C918F5FA2
:101EA0008C93009137030A3011F00C94360FE0E266
:101EB000F8E60E94DB32EFE2F3E00E942E310E944E
:101EC000E631EDE0F0E0AFE2B3E00E948230E9E01D
:101ED000F0E0AFE2B3E094E07BE70E94A030EBE2F9
:101EE000F3E00E943331EFE2F3E00E942E310E94D2
:101EF0007E32EDE0F0E0A3E3B3E00E948230E8EF51
:101F0000F7E60E94DB32E3E3F3E00E942E310E9409
:101F1000E631EDE0F0E0A3E3B3E00E948230EAEDC9
:101F2000FAE60E943E20A0E0B0E1EFE2F3E05527A0
:101F300044E00E945C210E943620E4E4FAE60E941C
:101F40003E200E944520ECEEFAE60E943E20A0E0F2
:101F5000B0E1E3E3F3E0552744E00E945C210E94F6
:101F60003620E4E4FAE60E943E200E94452081E00B
:101F700080933803E1E1F0E0A8E3B3E07BE70E945F
:101F80009D30E5E0F0E00E9465208CE10E94482051
:101F90000E94452084E690E00E949720E0E0FBE666
:101FA0000E943E200E944520E5E0F0E00E9465206E
:101FB00080E0809349031C981D981B980C94E300C3
:101FC000EBE2F3E00E943331EBEEF2E00E942E31BF
:101FD0000E947E32EDE0F0E0A7E2B3E00E948230A2
:101FE000E3E3F3E00E943331E7E2F3E00E942E31B5
:101FF0000E94E631EDE0F0E0A7E2B3E00E9482301B
:10200000E4E1F8E60E94DB32E7E2F3E00E942E31E1
:102010000E943F32EDE0F0E0A7E2B3E00E948230A0
:10202000E8E3F8E60E94DB32E7E2F3E00E942E31BB
:102030000E948D32EDE0F0E0A7E2B3E00E94823032
:10204000089507B1007E07B90E94A32EAAEFB2E05F
:102050008D939C9307B1007E016007B90E94A32E67
:10206000ACEFB2E08D939C9307B1007E026007B99C
:102070000E94A32EAEEFB2E08D939C9307B1007E39
:10208000036007B90E94A32EA0E0B3E08D939C9358
:1020900007B1007E046007B90E94A32EA2E0B3E05E
:1020A0008D939C93CA990C94581081E080930403FB
:1020B000CA9B0C945E1080E080930403009104039B
:1020C000013011F00C947410ABE1B3E08D919C9150
:1020D000ADE1B3E08D939C931C9A1D9AE2E0F0E091
:1020E0000E9465201C981D98C9990C947A1081E073
:1020F00080930503C99B0C94801080E080930503B6
:1021000000910503013011F00C94721100917403D9
:10211000003011F00C94F41081E080937403A9E86E
:10212000B3E04D915527AAE4B0E00D911C9104173E
:10213000150710F00C94A010AAE4B0E00E94212032
:1021400081E080938B03A0EAB3E04D915527A8E48A
:10215000B0E00D911C910417150710F00C94B41009
:10216000A8E4B0E00E94212081E08093A203A7EBC5
:10217000B3E04D915527A8E7B0E00D911C910417ED
:10218000150710F00C94C810A8E7B0E00E942120B9
:1021900082E390E00E94972083B198E0892783B979
:1021A000A9E8B3E04D915527AAE4B0E00D911C9148
:1021B0000417150711F00C948C10A9E8B3E08C916A
:1021C00099279BBD8ABDA0EAB3E08C91992799BD60
:1021D00088BDA7EBB3E08C91992790937900809309
:1021E00078001B980C946E1100917403013011F06B
:1021F0000C946E1180E080937403AAE8B3E04D91D3
:102200005527AAE4B0E00D911C910417150718F0AA
:1022100011F00C940D110C941111AAE4B0E00E947D
:10222000282080E080938B03A1EAB3E04D915527ED
:10223000A8E4B0E00D911C910417150718F011F0F7
:102240000C9424110C942811A8E4B0E00E942820DA
:1022500080E08093A203A8EBB3E04D915527A8E757
:10226000B0E00D911C910417150718F011F00C94B3
:102270003B110C943F11A8E7B0E00E94282083B1E5
:1022800098E0892783B983B190E1892783B982E3F4
:1022900090E00E949720AAE8B3E04D915527AAE468
:1022A000B0E00D911C910417150711F00C94FA1071
:1022B0001B981C98AAE8B3E08C9199279BBD8ABD16
:1022C000A1EAB3E08C91992799BD88BDA8EBB3E052
:1022D0008C91992790937900809378008AEF90E011
:1022E0000E9497209F9B0C94781180E080930603B6
:1022F0009F990C947E1181E08093060308950091CC
:1023000010030A3018F011F00C9488110C94191273
:1023100080E080931003A3EBB1E08C9185FB16F471
:102320000C94A6111D9AF89482E0E1E20E94DF2E3F
:102330005CEC82E0E1E20E94072F54E482E0E1E2FB
:102340000E94072F78941D980C940C121D9AF894F3
:10235000A1E1B3E0E8E0F8E60E94B42E82E0E1E219
:102360000E94DF2E5CEC82E0E1E20E94072F5EEB30
:1023700082E0E1E20E94072F82E0A7E0B3E0E1E221
:1023800029E02A930E942F2F82E0E1E20E94DF2EB3
:10239000789488E0E7E0F3E00E94F730402F009166
:1023A0000F03041711F00C940B12ECE3F8E60E94F3
:1023B000DB32E7E0F3E0D190E0808FEFE7FE8827A3
:1023C000F82E082F0E94AE310E94E631EDE0F0E0D9
:1023D000A1E1B3E00E948230E0E2F8E60E94DB3245
:1023E000E1E1F3E00E942E310E943F32EDE0F0E0A7
:1023F000A1E1B3E00E948230E1E1F3E00E94BA3350
:10240000EDE0F0E00E943E31A5E1B3E0EE0C000FFC
:10241000E794DD92EC921D98A3EBB1E08C9185FBE3
:10242000882780F9809580FBA3EBB1E08C9185F93A
:102430008C930895809156010E947620AEEAB1E017
:102440008C93809157010E947620ADEAB1E08C9385
:10245000809158010E947620ACEAB1E08C93809183
:1024600059010E947620AFEAB1E08C9380915A0125
:102470000E947620A0EBB1E08C9380915B010E94DA
:102480007620A1EBB1E08C93AEEAB1E08C9180684C
:102490008C930E94AE201EED0E94C42010E00E948A
:1024A000C4201091AE010E94C4201091AD010E9481
:1024B000C4201091AC010E94C4200E94BE200E9442
:1024C000AE201EED0E94C42013E00E94C42019E03B
:1024D0000E94C4201091AF010E94C4201091B0014D
:1024E0000E94C4201091B1010E94C4200E94BE200D
:1024F0000E94AE201EED0E94C42017E00E94C4205E
:1025000010E40E94C4200E94BE20EAE2FBE60E9482
:1025100054200E94F920A5E6B1E00E944E20E2E29C
:10252000F9E60E9454200E94F920ACE5B1E00E9437
:102530004E200E945B20E1E0F0E00E9465200895BB
:102540000E94AE201EED0E94C42010E00E94C42014
:102550000E94BE200E94AE201FED0E94C4200E9457
:10256000E120AEEAB1E01C930E94E120ADEAB1E0C7
:102570001C930E94DF20ACEAB1E01C930E94BE20B5
:102580000E94AE201EED0E94C42013E00E94C420D1
:102590000E94BE200E94AE201FED0E94C4200E9417
:1025A000E120A2EBB1E01C930E94E120AFEAB1E090
:1025B0001C930E94E120A0EBB1E01C930E94DF205D
:1025C000A1EBB1E01C930E94BE207091B3017F7714
:1025D0007093B301A2EBB1E00C9105FB16F00C94E3
:1025E0002A137091B30170687093B301AEEAB1E041
:1025F0008C918F778C93A0EBB1E08C918F7D8C9335
:102600009091AE010E947D20A6E5B1E08C9390915F
:10261000AD010E947D20A7E5B1E08C939091AC01C3
:102620000E947D20A8E5B1E08C939091AF010E94BB
:102630007D20A9E5B1E08C939091B0010E947D20AE
:10264000AAE5B1E08C939091B1010E947D20ABE5A9
:10265000B1E08C930E94F920E5E6F1E0A4EBB1E053
:102660000E947D3008950895089508951C9AA1E26E
:10267000B0E00C9107FB81E00EF480E08F930091B5
:102680001A03003081E009F080E09F9189238823BC
:1026900011F40C946913F894B89AC09AB89AC09A35
:1026A000C39A0E9487200E944A23ABEBB3E09C931D
:1026B00081E00E946325A1ECB1E09C937894E4E36F
:1026C000FBE60E9454200E945B2084EF91E00E9470
:1026D00097201C980895A1E2B0E00C9107FB81E0DF
:1026E0000EF480E08F9300911A03003081E009F02E
:1026F00080E09F918923882311F40C94EA131C9A9B
:10270000A0E0B0E1ECE3FBE60E949D2EA0E0B0E18A
:102710000E9474260E94202BAEECB1E08C93AFECAB
:10272000B1E0E0E4FBE60E949D2E8091CE01AFEC8B
:10273000B1E00E94CA26A2E8B2E088278C930E94EA
:10274000F920ECE5F1E0A2E8B2E00E947D30A2E8D9
:10275000B2E00E942F20EAE4FBE60E949D2E0E9438
:10276000F920E5E6F1E0A2E8B2E00E942F200E9405
:102770007D30A2E8B2E00E942F20EAE4FBE60E944E
:102780009D2EE6E3F2E0A2E8B2E00E942F200E9434
:102790007D308091CE01A2E8B2E00E94FB26A6E344
:1027A000B2E088278C93A2E8B2E088278C93A0E05F
:1027B000B0E1ECE4FBE60E949D2EA0E0B0E10E94B7
:1027C00074268091CE010E9439278091CE010E940B
:1027D00027271C98089580E090E0A8EEB2E08D9342
:1027E0009C93A1E2B0E00C9107FB81E00EF480E045
:1027F0008F9300911A03003081E009F080E09F91EF
:102800008923882311F40C9460151C9AA0E0B0E190
:10281000ECE3FBE60E949D2EA0E0B0E10E9474264E
:102820000E94202BAEECB1E08C93AFECB1E0EEE473
:10283000FBE60E949D2E8091CE01AFECB1E00E949C
:10284000CA26A2E8B2E088278C930E94F920ECE522
:10285000F1E0A2E8B2E00E947D30A2E8B2E00E947E
:102860002F20EAE4FBE60E949D2E0E94F920E5E677
:10287000F1E0A2E8B2E00E942F200E947D30A2E8A1
:10288000B2E00E942F20EAE4FBE60E949D2EA5E321
:10289000B0E08C9182FBA2E8B2E00E942F200E945F
:1028A000CC2E8D9388278C93A2E8B2E00E942F2033
:1028B000EAE4FBE60E949D2EA5E3B0E08C9183FB49
:1028C000A2E8B2E00E942F200E94CC2E8D93882790
:1028D0008C93A2E8B2E00E942F20EAE4FBE60E947B
:1028E0009D2EA5E3B0E08C9181FBA2E8B2E00E94AE
:1028F0002F200E94CC2E8D9388278C93A2E8B2E0E3
:102900000E942F20EAE4FBE60E949D2EA5E3B0E0A2
:102910008C9180FBA2E8B2E00E942F200E94CC2E76
:102920008D9388278C93A2E8B2E00E942F20EAE4DE
:10293000FBE60E949D2EA5E3B0E08C9184FBA2E80B
:10294000B2E00E942F200E94CC2E8D9388278C937A
:10295000A2E8B2E00E942F20EAE4FBE60E949D2E4E
:10296000A5E3B0E08C9185FBA2E8B2E00E942F20A5
:102970000E94CC2E8D9388278C93A2E8B2E00E940F
:102980002F20EAE4FBE60E949D2EA2E8B2E00E941E
:102990002F20EAE4F0E00E94F52FA2E8B2E00E94C6
:1029A0002F20EAE4FBE60E949D2EA2E8B2E00E94FE
:1029B0002F20E8E4F0E00E94F52FA2E8B2E00E94A8
:1029C0002F20EAE4FBE60E949D2EA2E8B2E00E94DE
:1029D0002F20E8E4F0E00E94F52FA2E8B2E00E9488
:1029E0002F20EAE4FBE60E949D2EA2E8B2E00E94BE
:1029F0002F20E7E2F3E0552744E00E945C21A2E8A3
:102A0000B2E00E942F20EAE4FBE60E949D2EA2E89D
:102A1000B2E00E942F20E5E1F3E00E94FE2FA2E841
:102A2000B2E00E942F20EAE4FBE60E949D2EA2E87D
:102A3000B2E00E942F20E6E0F3E00E940530A2E819
:102A4000B2E00E942F20EAE4FBE60E949D2EA2E85D
:102A5000B2E00E942F20E4E0F3E00E940530A2E8FB
:102A6000B2E00E942F20EAE4FBE60E949D2EA2E83D
:102A7000B2E00E942F20E5E0F3E00E940530809153
:102A8000CE01A2E8B2E00E94FB26A6E3B2E08827CE
:102A90008C93A2E8B2E088278C93A0E0B0E1ECE44C
:102AA000FBE60E949D2EA0E0B0E10E94742680917A
:102AB000CE010E9439278091CE010E9427271C98C1
:102AC0000895F894A1E2B0E00C9107FB81E00EF4C8
:102AD00080E08F9300911A03003081E009F080E0DC
:102AE0009F918923882311F40C94E51C1C9AE6E538
:102AF000FBE60E9454200E945B2084EF91E00E943C
:102B00009720A0E0B0E1ECE3FBE60E949D2EA0E060
:102B1000B0E10E943826A0E0B0E1E0E6FBE60E94CA
:102B20009D2EA0E0B0E10E943826A0E0B0E1E8E6EA
:102B3000FBE60E949D2EA0E0B0E1EAEDF1E00E94EC
:102B40004427AAEDB1E08C91803011F40C94151655
:102B5000E2E7FBE60E9454200E945B200E94202BAB
:102B6000AEECB1E08C93A0E0B0E1E8E6FBE60E94B9
:102B70009D2E8091CE01A0E0B0E10E94BD26809103
:102B8000CE0194E1A2E8B1E00E9408278091CE0135
:102B900094E1A7E9B1E00E9408278091CE010E944C
:102BA0002727A2E8B1E00E94DD30082F083081E03D
:102BB00009F080E08F93A7E9B1E00E94DD30082F93
:102BC000083081E009F080E09F918923882311F487
:102BD0000C941516E2E8F1E0A5E6B1E00E947D3024
:102BE0000E940C21E7E9F1E0ACE5B1E00E947D3004
:102BF0000E9404210E941A1284E690E00E9497200D
:102C00000E94A012A3EBB1E08C9187FB16F00C940C
:102C10001516A0E0B0E1E8E6FBE60E949D2EA0E0DC
:102C2000B0E10E946E2A0E94CF2BA0E0B0E1ECE45C
:102C3000FBE60E949D2EA0E0B0E10E9474260E9457
:102C4000202BAEECB1E08C93AFECB1E0EEE7FBE60D
:102C50000E949D2E8091CE01AFECB1E00E94E9264A
:102C60008091CE010E940E2B08F409C0FA93EA93DA
:102C7000E8E8FBE60E94CA2D0E94C42D22968091AE
:102C8000CE010E942727A0E0B0E1ECE3FBE60E9422
:102C90009D2EA0E0B0E10E9474260E94202BAEEC95
:102CA000B1E08C93AFECB1E0E0E4FBE60E949D2E36
:102CB0008091CE01AFECB1E00E94CA26A6E3B2E05B
:102CC00088278C93A6E3B2E0ECEEF8E60E949D2EF6
:102CD000A6E3B2E00E942F20EAE5F9E60E949D2ECD
:102CE0000E94F920ECE5F1E0A6E3B2E00E942F207B
:102CF0000E947D30A6E3B2E00E942F20EAE5F9E6CB
:102D00000E949D2E0E94F920E5E6F1E0A6E3B2E0E4
:102D10000E942F200E947D308091CE010E940E2BB8
:102D200008F409C0FA93EA93E4E2F9E60E94CA2D96
:102D30000E94C42D22968091CE010E940E2B08F491
:102D40000DC0FA93EA93E6EDF8E60E94CA2DA6E3D9
:102D5000B2E00E94B72D0E94C42D2296A6E3B2E0F5
:102D600088278C938091CE010E942727A0E0B0E1B4
:102D7000ECE4FBE60E949D2EA0E0B0E10E947426E8
:102D8000A0E0B0E1E0E6FBE60E949D2EA0E0B0E10D
:102D90000E947426A0E0B0E1E8E9FBE60E949D2EC7
:102DA000A0E0B0E1EAEDF1E00E944427AAEDB1E035
:102DB0000E94DD30A7EEB2E08C930091E702003074
:102DC00011F00C947E190E94202BAEECB1E08C9394
:102DD000AFECB1E0E4EAFBE60E949D2E8091CE01CB
:102DE000AFECB1E00E94E9268091CE010E940E2B4B
:102DF00008F409C0FA93EA93E0EBFBE60E94CA2DBF
:102E00000E94C42D22968091CE010E940E2B08F4C0
:102E100009C0FA93EA93E8ECFBE60E94CA2D0E94EF
:102E2000C42D22968091CE010E940E2B08F409C079
:102E3000FA93EA93E4E2F9E60E94CA2D0E94C42DB7
:102E400022968091CE010E940E2B08F409C0FA93BD
:102E5000EA93E0EFFBE60E94CA2D0E94C42D229661
:102E60008091CE010E940E2B08F409C0FA93EA93D8
:102E7000EAE0FCE60E94CA2D0E94C42D22968091B1
:102E8000CE010E940E2B08F409C0FA93EA93E4E203
:102E9000FCE60E94CA2D0E94C42D22968091CE018C
:102EA0000E940E2B08F409C0FA93EA93EEE3FCE6C5
:102EB0000E94CA2D0E94C42D22968091CE010E94AC
:102EC0000E2B08F409C0FA93EA93E2E5FCE60E94AF
:102ED000CA2D0E94C42D22968091CE010E940E2BF5
:102EE00008F409C0FA93EA93E6E6FCE60E94CA2DCC
:102EF0000E94C42D22968091CE010E940E2B08F4D0
:102F000009C0FA93EA93E8E8FCE60E94CA2D0E9401
:102F1000C42D22968091CE010E940E2B08F409C088
:102F2000FA93EA93EAE0FCE60E94CA2D0E94C42DBF
:102F300022968091CE010E940E2B08F409C0FA93CC
:102F4000EA93E4E2FCE60E94CA2D0E94C42D229678
:102F50008091CE010E940E2B08F409C0FA93EA93E7
:102F6000E2EAFCE60E94CA2D0E94C42D22968091BE
:102F7000CE010E940E2B08F409C0FA93EA93E6EB07
:102F8000FCE60E94CA2D0E94C42D22968091CE019B
:102F90000E940E2B08F409C0FA93EA93EAECFCE6CF
:102FA0000E94CA2D0E94C42D22968091CE010E94BB
:102FB0000E2B08F409C0FA93EA93ECEEFCE60E94AB
:102FC000CA2D0E94C42D22968091CE010E940E2B04
:102FD00008F409C0FA93EA93EAE0FCE60E94CA2DDD
:102FE0000E94C42D22968091CE010E940E2B08F4DF
:102FF00009C0FA93EA93E4E2FCE60E94CA2D0E941B
:10300000C42D22968091CE010E940E2B08F409C097
:10301000FA93EA93E6E0FDE60E94CA2D0E94C42DD1
:1030200022968091CE010E940E2B08F409C0FA93DB
:10303000EA93EAE1FDE60E94CA2D0E94C42D229681
:103040008091CE010E940E2B08F409C0FA93EA93F6
:10305000EEE2FDE60E94CA2D0E94C42D22968091C8
:10306000CE010E940E2B08F409C0FA93EA93E4E221
:10307000F9E60E94CA2D0E94C42D22968091CE01AD
:103080000E940E2B08F409C0FA93EA93E0E5FDE6EE
:103090000E94CA2D0E94C42D22968091CE010E94CA
:1030A0000E2B08F409C0FA93EA93EAE6FDE60E94C3
:1030B000CA2D0E94C42D22968091CE010E940E2B13
:1030C00008F409C0FA93EA93E4E2F9E60E94CA2DF3
:1030D0000E94C42D22968091CE010E940E2B08F4EE
:1030E00009C0FA93EA93EEE8FDE60E94CA2D0E9419
:1030F000C42D22968091CE010E940E2B08F409C0A7
:10310000FA93EA93E8EAFDE60E94CA2D0E94C42DD4
:1031100022968091CE010E940E2B08F409C0FA93EA
:10312000EA93EEEBFDE60E94CA2D0E94C42D229682
:103130008091CE010E940E2B08F409C0FA93EA9305
:10314000E4EDFDE60E94CA2D0E94C42D22968091D6
:10315000CE010E940E2B08F409C0FA93EA93EAEE1E
:10316000FDE60E94CA2D0E94C42D22968091CE01B8
:103170000E940E2B08F409C0FA93EA93E4E2F9E600
:103180000E94CA2D0E94C42D22968091CE010E94D9
:103190000E2B08F409C0FA93EA93E0E0FEE60E94E1
:1031A000CA2D0E94C42D22968091CE010E940E2B22
:1031B00008F409C0FA93EA93EAE1FEE60E94CA2DF8
:1031C0000E94C42D22968091CE010E940E2B08F4FD
:1031D00009C0FA93EA93E4E2F9E60E94CA2D0E943C
:1031E000C42D22968091CE010E940E2B08F409C0B6
:1031F000FA93EA93E2E3FEE60E94CA2D0E94C42DF0
:1032000022968091CE010E940E2B08F409C0FA93F9
:10321000EA93ECE4FEE60E94CA2D0E94C42D229699
:103220008091CE010E940E2B08F409C0FA93EA9314
:10323000E8E6FEE60E94CA2D0E94C42D22968091E7
:10324000CE010E940E2B08F409C0FA93EA93E4E23F
:10325000F9E60E94CA2D0E94C42D22968091CE01CB
:103260000E940E2B08F409C0FA93EA93E4E8FEE604
:103270000E94CA2D0E94C42D22968091CE010E94E8
:103280000E2B08F409C0FA93EA93E0EAFEE60E94E6
:10329000CA2D0E94C42D22968091CE010E940E2B31
:1032A00008F409C0FA93EA93E6EBFEE60E94CA2D01
:1032B0000E94C42D22968091CE010E940E2B08F40C
:1032C00009C0FA93EA93ECECFEE60E94CA2D0E9434
:1032D000C42D2296A0E0B0E1ECE4FBE60E949D2E16
:1032E000A0E0B0E10E9474268091CE010E943927AF
:1032F0008091CE010E9427270C94A81C0091E70220
:10330000003011F40C94A81C0E94202BAEECB1E00C
:103310008C93AFECB1E0E4EAFBE60E949D2E809135
:10332000CE01AFECB1E00E94BD268091CE0198E2C3
:10333000AFEEB1E00E9408278091CE0198E2AFEE97
:10334000B1E00E9408278091CE0198E2AFEEB1E093
:103350000E9408278091CE0198E2AFEEB1E00E9472
:103360000827AFEEB1E088278C938091CE0198E2D8
:10337000AFEEB1E00E940827EFEEF1E003E0AFEE20
:10338000B1E00E948F30AFEEB1E00E944B30A9E86F
:10339000B3E00C93E2E5F0E0A9E8B3E07BE70E943C
:1033A0009D308091CE0198E2AFEEB1E00E940827F7
:1033B000EFEEF1E003E0AFEEB1E00E948F30AFEE50
:1033C000B1E00E944B30AAE8B3E00C93E3E5F0E0F3
:1033D000AAE8B3E07BE70E949D308091CE0198E29D
:1033E000AFEEB1E00E940827EFEEF1E008E0AFEEAB
:1033F000B1E00E948F30EFEEF1E0A7E7B3E00E946A
:103400007D30E0E4F0E0A7E7B3E07BE70E94AE3078
:103410008091CE0198E2AFEEB1E00E940827EFEE76
:10342000F1E008E0AFEEB1E00E948F30EFEEF1E0A6
:10343000A0E8B3E00E947D30E9E4F0E0A0E8B3E06A
:103440007BE70E94AE308091CE0198E2AFEEB1E012
:103450000E940827EFEEF1E004E0AFEEB1E00E9439
:103460008F30AFEEB1E00E944B30AEE6B3E00D938B
:103470001C93EAE3F0E0AEE6B3E07BE70E949F3006
:103480008091CE0198E2AFEEB1E00E940827AFEE46
:10349000B1E088278C938091CE0198E2AFEEB1E045
:1034A0000E940827EFEEF1E003E0AFEEB1E00E94EA
:1034B0008F30AFEEB1E00E944B30A0EAB3E00C9346
:1034C000E6E6F0E0A0EAB3E07BE70E949D30809161
:1034D000CE0198E2AFEEB1E00E940827EFEEF1E0F6
:1034E00003E0AFEEB1E00E948F30AFEEB1E00E949A
:1034F0004B30A1EAB3E00C93E7E6F0E0A1EAB3E0D9
:103500007BE70E949D308091CE0198E2AFEEB1E062
:103510000E940827EFEEF1E008E0AFEEB1E00E9474
:103520008F30EFEEF1E0AEE8B3E00E947D30E4E5ED
:10353000F0E0AEE8B3E07BE70E94AE308091CE01D0
:1035400098E2AFEEB1E00E940827EFEEF1E008E06C
:10355000AFEEB1E00E948F30EFEEF1E0A7E9B3E00B
:103560000E947D30EDE5F0E0A7E9B3E07BE70E9443
:10357000AE308091CE0198E2AFEEB1E00E94082714
:10358000EFEEF1E004E0AFEEB1E00E948F30AFEE7D
:10359000B1E00E944B30A0E7B3E00D931C93ECE345
:1035A000F0E0A0E7B3E07BE70E949F308091CE017E
:1035B00098E2AFEEB1E00E940827AFEEB1E08827B5
:1035C0008C938091CE0198E2AFEEB1E00E94082783
:1035D000EFEEF1E003E0AFEEB1E00E948F30AFEE2E
:1035E000B1E00E944B30A7EBB3E00C93EAE7F0E0C8
:1035F000A7EBB3E07BE70E949D308091CE0198E27B
:10360000AFEEB1E00E940827EFEEF1E003E0AFEE8D
:10361000B1E00E948F30AFEEB1E00E944B30A8EBDA
:10362000B3E00C93EBE7F0E0A8EBB3E07BE70E949C
:103630009D308091CE0198E2AFEEB1E00E94082764
:10364000EFEEF1E008E0AFEEB1E00E948F30EFEE78
:10365000F1E0A5EAB3E00E947D30E8E6F0E0A5EAFB
:10366000B3E07BE70E94AE308091CE0198E2AFEEEE
:10367000B1E00E940827EFEEF1E008E0AFEEB1E024
:103680000E948F30EFEEF1E0AEEAB3E00E947D30B1
:10369000E1E7F0E0AEEAB3E07BE70E94AE30809174
:1036A000CE0198E2AFEEB1E00E940827EFEEF1E024
:1036B00004E0AFEEB1E00E948F30AFEEB1E00E94C7
:1036C0004B30A2E7B3E00D931C93EEE3F0E0A2E7EA
:1036D000B3E07BE70E949F308091CE0198E2AFEE8D
:1036E000B1E00E9408278091CE0198E2AFEEB1E0F0
:1036F0000E940827AFEEB1E088278C938091CE011D
:1037000098E2AFEEB1E00E940827EFEEF1E003E0AF
:10371000AFEEB1E00E948F30AFEEB1E00E944B30CF
:10372000AFE1B3E00D931C93E3E0F0E0AFE1B3E071
:103730007BE70E949F308091CE0198E2AFEEB1E02E
:103740000E9408278091CE0198E2AFEEB1E00E947E
:103750000827AFEEB1E088278C938091CE0198E2E4
:10376000AFEEB1E00E940827EFEEF1E008E0AFEE27
:10377000B1E00E948F30EFEEF1E0AAE4B3E00E94E6
:103780007D30E6E1F0E0AAE4B3E07BE70E94AE30F2
:103790008091CE0198E2AFEEB1E00E940827EFEEF3
:1037A000F1E008E0AFEEB1E00E948F30EFEEF1E023
:1037B000A3E5B3E00E947D30EFE1F0E0A3E5B3E0E4
:1037C0007BE70E94AE308091CE0198E2AFEEB1E08F
:1037D0000E940827EFEEF1E008E0AFEEB1E00E94B2
:1037E0008F30EFEEF1E0ACE5B3E00E947D30E8E22F
:1037F000F0E0ACE5B3E07BE70E94AE308091CE0113
:1038000098E2AFEEB1E00E940827EFEEF1E008E0A9
:10381000AFEEB1E00E948F30EFEEF1E0A5E6B3E04D
:103820000E947D30E1E3F0E0A5E6B3E07BE70E9493
:10383000AE308091CE0198E2AFEEB1E00E94082751
:103840008091CE0198E2AFEEB1E00E940827AFEE82
:10385000B1E088278C938091CE0198E2AFEEB1E081
:103860000E940827EFEEF1E004E0AFEEB1E00E9425
:103870008F30AFEEB1E00E94E832EDE0F0E0A9E376
:10388000B3E00E948230E2E1F0E0A9E3B3E094E02B
:103890007BE70E94A0308091CE0198E2AFEEB1E0CC
:1038A0000E9408278091CE0198E2AFEEB1E00E941D
:1038B0000827AFEEB1E088278C938091CE0198E283
:1038C000AFEEB1E00E940827EFEEF1E003E0AFEECB
:1038D000B1E00E948F30AFEEB1E00E944B30ABE11F
:1038E000B3E00D931C93E1E0F0E0ABE1B3E07BE7E4
:1038F0000E949F308091CE0198E2AFEEB1E00E942D
:103900000827EFEEF1E001E0AFEEB1E00E948F306A
:10391000AFEEB1E00E944B30A9EBB3E00C93ECE7C3
:10392000F0E0A9EBB3E07BE70E949D308091CE01EF
:103930000E9439278091CE010E942727A0E0B0E1A4
:10394000ECE4FBE60E949D2EA0E0B0E10E9474260C
:103950000E94602EA6ECB1E00D931D932D933D9334
:103960000E94572EAAECB1E00D931D932D933D9329
:10397000A6ECB1E00D911D912D913C91AAECB1E026
:103980004D915D916D917C910E94DD2FA2ECB1E093
:103990000D931D932D933D93EEEDFEE60E94542072
:1039A000A0E0B0E1E2ECF1E00E94FB2F0E944C208D
:1039B000E4EEFEE60E9454200E945B2084EF91E03A
:1039C0000E9497201C980C94EE1C0F9B0C94EE1CEC
:1039D000E8EEFEE60E9454200E945B20E2EFFEE645
:1039E0000E9454200E945B20E0E0FFE60E945420E9
:1039F000A0E0B0E1E9E8F3E00E9405300E944C202D
:103A00000E945B20E8E0FFE60E945420A0E0B0E1C5
:103A1000EAE8F3E00E9405300E944C200E945B20FF
:103A2000E2E1FFE60E945420A7E7B3E00E944E20A7
:103A30000E945B20EAE1FFE60E945420A0E8B3E088
:103A40000E944E200E945B20E2E2FFE60E9454208A
:103A5000A0E0B0E1EEE6F3E00E94F52F0E944C20DA
:103A60000E945B20E4E2F9E60E9454200E945B2061
:103A7000E2E3FFE60E945420A0E0B0E1E0EAF3E0D8
:103A80000E9405300E944C200E945B20EAE3FFE682
:103A90000E945420A0E0B0E1E1EAF3E00E9405308A
:103AA0000E944C200E945B20E4E4FFE60E94542028
:103AB000AEE8B3E00E944E200E945B20ECE4FFE6FB
:103AC0000E945420A7E9B3E00E944E200E945B2090
:103AD000E4E5FFE60E945420A0E0B0E1E0E7F3E077
:103AE0000E94F52F0E944C200E945B20E4E2F9E640
:103AF0000E9454200E945B20E4E6FFE60E945420CE
:103B0000A0E0B0E1E7EBF3E00E9405300E944C201A
:103B10000E945B20ECE6FFE60E945420A0E0B0E1AA
:103B2000E8EBF3E00E9405300E944C200E945B20ED
:103B3000E6E7FFE60E945420A5EAB3E00E944E208B
:103B40000E945B20EEE7FFE60E945420AEEAB3E05D
:103B50000E944E200E945B20E6E8FFE60E9454206F
:103B6000A0E0B0E1E2E7F3E00E94F52F0E944C20D4
:103B70000E945B20E4E2F9E60E9454200E945B2050
:103B8000E6E9FFE60E945420A0E0B0E1EFE1F3E0B7
:103B90000E94FE2F0E944C200E945B20E4E2F9E686
:103BA0000E9454200E945B20E0EAFFE60E9454201D
:103BB000AAE4B3E00E944E20EEE4F9E60E9454200D
:103BC000A3E5B3E00E944E200E945B20EAEAFFE6F4
:103BD0000E945420ACE5B3E00E944E20EEE4F9E6EA
:103BE0000E945420A5E6B3E00E944E200E945B2074
:103BF000E4E2F9E60E9454200E945B20E4EBFFE639
:103C00000E945420A0E0B0E1E9E3F3E0552744E04E
:103C10000E945C210E944C200E945B20E4E2F9E6B5
:103C20000E9454200E945B20EAEBFFE60E94542091
:103C3000A0E0B0E1EBE1F3E00E94F52F0E944C2000
:103C4000EAE4FBE60E945420A0E0B0E1E9EBF3E0F7
:103C50000E9405300E944C200E945B200E945B2045
:103C6000E0ECFFE60E945420A0E0B0E1EFE2F3E0D8
:103C7000552744E00E945C210E944C200E945B205A
:103C8000E0EDFFE60E945420A0E0B0E1EBE2F3E0BB
:103C9000552744E00E945C210E944C200E945B203A
:103CA000E0EEFFE60E945420A0E0B0E1E3E3F3E0A1
:103CB000552744E00E945C210E944C200E945B201A
:103CC0000E94410BE5E0F0E00E94652078940895A1
:103CD000A1E2B0E00C9107FB81E00EF480E08F934D
:103CE00000911A03003081E009F080E09F91892360
:103CF000882311F40C94D11E1C9AA0E0B0E1ECE3EF
:103D0000FBE60E949D2EA0E0B0E10E9474260E9476
:103D1000202BAEECB1E08C93AFECB1E0EAEEFFE625
:103D20000E949D2E8091CE01AFECB1E00E94BD2695
:103D30008091CE0198E2AFEEB1E00E940827AFEE8D
:103D4000B1E00E9438200E944520AFEEB1E0882704
:103D50008C938091CE010E943027AAE2B2E08C932E
:103D600000912A02003011F40C94981EE4EFFFE653
:103D70000E943E200E9445208091CE010E9439275A
:103D80008091CE010E942727A0E0B0E1ECE4FBE6A1
:103D90000E949D2EA0E0B0E10E9474261C980C9415
:103DA000DA1E0F9B0C94DA1EE8EEFEE60E94542009
:103DB0000E945B200895A1E2B0E00C9107FB81E036
:103DC0000EF480E08F9300911A03003081E009F037
:103DD00080E09F918923882311F40C94261F1C9A5C
:103DE000A0E0B0E1ECE3FBE60E949D2EA0E0B0E194
:103DF0000E9474260E94202BAEECB1E08C93A0E0D0
:103E0000B0E1EAEEFFE60E949D2EA0E0B0E10E9444
:103E10006E2A0E94CF2B8091CE010E94392780917B
:103E2000CE010E942727A0E0B0E1ECE4FBE60E946F
:103E30009D2EA0E0B0E10E947426EAEFFFE60E940A
:103E40003E200E9445201C980C942F1F0F9B0C9421
:103E50002F1FE8EEFEE60E9454200E945B2008958A
:103E60000F921F922F923F924F925F927F92AF924A
:103E7000BF920F931F932F933F934F935F936F9333
:103E80007F938F939F93AF93BF93CF93DF93EF93E2
:103E9000FF938FB78F93A4E3B1E0AD90BB24AEEF57
:103EA000B0E0AA0DBB1D0C910D3011F00C94691FF0
:103EB0001B9AA4E3B1E0AD90BB24ADEFB0E0AA0D36
:103EC000BB1D0C91033611F00C94691F81E08093A7
:103ED00049038F918FBFFF91EF91DF91CF91BF91F8
:103EE000AF919F918F917F916F915F914F913F9192
:103EF0002F911F910F91BF90AF907F905F904F9047
:103F00003F902F901F900F90A2E3B1E00E94CF2F1F
:103F10000895F8940F921F922F923F924F925F92C2
:103F20007F92AF92BF920F931F932F933F934F9324
:103F30005F936F937F938F939F93AF93BF93CF9331
:103F4000DF93EF93FF938FB78F93A5E5B1E0AD902B
:103F5000BB24A3E3B1E0AA0DBB1D0C910D3011F001
:103F60000C94C31F1B9AA5E5B1E0AD90BB24A2E35E
:103F7000B1E0AA0DBB1D0C91033611F00C94C31FC8
:103F800081E080934903A3E5B1E00E94CF2F8F9198
:103F90008FBFFF91EF91DF91CF91BF91AF919F9133
:103FA0008F917F916F915F914F913F912F911F91D1
:103FB0000F91BF90AF907F905F904F903F902F9068
:103FC0001F900F90789408950F921F922F923F9216
:103FD0004F925F927F92AF92BF920F931F932F9356
:103FE0003F934F935F936F937F938F939F93AF9381
:103FF000BF93CF93DF93EF93FF938FB78F9384E9B2
:1040000082BFADEBB1E00E9421208F918FBFFF9165
:10401000EF91DF91CF91BF91AF919F918F917F9160
:104020006F915F914F913F912F911F910F91BF9091
:10403000AF907F905F904F903F902F901F900F9088
:104040001895ED91FC91EF5FFF4FFC93EE9308956F
:10405000ED91FC91E150F040FC93EE9308958F9325
:104060008D918823E9F711978F910895A0E0B0E131
:104070008D91882311F00CD0FBCF08950E94AC2EB7
:10408000802D11F005D0FACF08958DE001D08AE09F
:104090005D9BFECF8CB90895A0E0B0E18D9188239F
:1040A00011F00CD0FBCF08950E94AC2E802D11F0A2
:1040B00005D0FACF08958DE001D08AE000909B00F2
:1040C00005FEFCCF80939C00089588EE93E02FD0EE
:1040D0003197D9F70895982F82958F70805D8D93D1
:1040E0009F70905D9D9388278C9308954AE0082FD8
:1040F0000E94CD300295802B0895892F8F709051AA
:1041000010F0865FFCCF08953197F1F70895B99AC2
:10411000BB98C39ABA9AB89A8CE58DB90895089558
:104120000895689462F80895E89462F80895EF930A
:10413000FF93EE27E82BE92B31F0EDECFAE0319715
:10414000F1F70197D1F7FF91EF9108958998889839
:104150009198909808958998889803D0899A01D069
:10416000889AEF93FF93EAE0F0E00E948420FF91A9
:10417000EF9108958898809BFECF0895899AF1DF8A
:10418000F9DFEFDF8998EDCF0894111F01C0110FFF
:1041900061F018F40000899802C0899A00C0E1DF3C
:1041A000E9DFDFDF889ADDDFF2CF8998DADFE2DF4F
:1041B000D8DFE8948199689462F8889AD2CF0894FD
:1041C00001C08894331F11E08998D4DF88948199C5
:1041D0000894111F0FB6C5DF889AC3DF0FBEA8F77A
:1041E000379510F4899801C0899AC4DFBADF889A9C
:1041F000B8CF0E943313ACE5B1E0E9E5F1E00E94ED
:104200004C2133970C942821ECE5F1E0A9E5B1E0CD
:104210000E943A210C943413E5E6F1E0A6E5B1E002
:104220000E9416210C943513ADE0BB27868197813F
:104230000E945F2F0D93838194810E945F2F0D93C5
:10424000808191810E945F2F0D930895EDE0FF27FB
:1042500082810E94542F8AE38D9381810E94542F82
:104260008AE38D9380810E94542F88278C93089530
:10427000ADE0BB27808191810E945F2F0D938381E8
:1042800094810E945F2F0D93868197810E945F2FFA
:104290000D930895EDE0FF2780810E94542F8FE257
:1042A0008D9381810E94542F8FE28D9382810E9491
:1042B000542F88278D9308950E942E310E948431B7
:1042C00017FF03C08DE28D931127003821F4E6E932
:1042D000F5E40C949D2E0F3741F4FF2019F4ECE81F
:1042E000F5E4F7CFE8E8F5E4F4CF4A934A934A932C
:1042F0005A93BA93AA93BB270F5F02F5BB27802F6F
:104300000A950E948E318D3E90F4E6EEF5E4A3E02E
:104310000E94DB320E941531BB1FB0FF06C07097B0
:104320000E94DB320E943F323C96AA9589F7E2EE6A
:10433000F5E40E94DB320E943F3222C0093058F17E
:10434000033178F10A3130F418E08BE192E9EAE9BF
:10435000F5E42EC00A950E948E31EAEDF5E4BFEF38
:10436000A3E00E94DB320E941531BB1FB0FD06C0E6
:1043700038960E94DB320E943F323C97AA9589F71B
:10438000B095BB0F0E948431039513E08AEF99E04A
:10439000F816090740F413E08BE094E0EEEAF5E448
:1043A00007C016E001C0B39583E194E2E2EAF5E4C8
:1043B0006A81BF3F19F4BB2711276260BD836A83FE
:1043C0001C83A881B98160E36D93A883B9836D9341
:1043D000081B0195AA24BB246A816A7F002339F057
:1043E000F694E794D794B794A7940A95F7CF19E079
:1043F00000270E94DB32CC248FEF74E0AC14B206AD
:10440000D306E406F50630F0AC18B20AD30AE40A83
:10441000F50A21F1881F7A9531F056954795379521
:104420002795C794EBCF809522D041F0969508F759
:10443000FE2CED2CDB2CBA2CAA24DBCF25D05D8101
:104440003C812B8170D0277021F02BD06CD0E8F309
:1044500001C03CD04CD078D0269608958894881F0F
:104460007A95E9F7809503D049F38827FCCF8063DC
:1044700060FD06C0803311F0616002C0039561FDEC
:104480008D9360FD1A95089599278E919C9385339D
:104490008E9108F083958A3308F080E38C93C0F7FF
:1044A0000895732F720F61FF701B0AD01296785017
:1044B00019F050F38E9380E38E937150EAF70895CC
:1044C000A881B981A70F8827B81F089579E061FDF9
:1044D000700FF6DF48E0431B400F8AF381F3992702
:1044E0004A9569F38E91803351F79C93F9CF732FDE
:1044F00061FF701B7395A881B981EA2FFB2F11977B
:104500008191803361FF09F08D937A9511F48EE2E9
:104510008D9381918823C1F7772311F480E38D93E4
:1045200088278C930895889462FD0895002359F498
:10453000A881B9818C91803331F0552321F05395B6
:1045400033506460089408955523E9F085E48D9311
:104550001AF48DE28D935195652F660F560F5A30E0
:1045600010F060E503D068E001D0DACF8FEF74E09F
:10457000561708F0561B881F7A9511F06695F8CFEC
:10458000809580638D9308954E414E00496E666913
:104590006E6974790000302E300000404B4C0020D2
:1045A000A107000050C3000088130000F4010000C0
:1045B00000320000000500008000CCCCCC0C14AE12
:1045C00047019CC42000DC460300E353000063085D
:1045D0000000D7000000150000001CC25367A5D4DE
:1045E00068530024744915BE9A17CCBC8C2BBD3778
:1045F0008635689401C0E8948F939F9396E60000F7
:1046000000009A95E1F798948091510C9091520C8A
:104610001EF4019708F401968093510C9093520C6C
:1046200059F080914F0C9091500C019708F401962D
:1046300080934F0C9093500C9F918F91089500E4BC
:1046400040E050E060E070E088C008E44AEA51E0F1
:10465000F9CF09E482C00AE480C000E540E052E0FE
:10466000F1CF01E57AC008E578C00AE7E9CF0DECA3
:10467000E7CF09EEE5CF09EE40E050E060E070E4FE
:104680006CC0C0D0702FBED0602FBCD0502FBAD01D
:10469000402FB8C00E94872000240ED1002700932D
:1046A000BA03AED088EE93E0A6DF11F499EE16C1FE
:1046B0000197D1F70AE00F93A5D00F910A95D9F78A
:1046C000BEDF013069F000E4A0D000279ED00027B3
:1046D0009CD000279AD0002798D005E996D0DECF4D
:1046E000B4DF013009F01FC0CCDF513011F44A3A79
:1046F00011F09AEEF3C0BFDF003021F07CDFD9F774
:104700009BEEECC0B2DF003021F075DFD9F79CEEF4
:10471000E5C0B7DF84E08093BA0376FF1DC08CE06C
:104720008093BA0319C0A5DF023028F081E080939E
:10473000BA0301E404C082E08093BA0309EE0F9348
:104740007FDF00230F9121F056DFC9F79DEEC6C031
:1047500084DF002309F0A2CFBAC011E0003409F4CD
:1047600015E9083409F417E807FF14C00F931F93E5
:104770004F935F936F937F9307E762DF7F916F9112
:104780005F914F911F91802F0F910F77823010F022
:10479000082F1EC035D02FDF31D01DD011F008EE0C
:1047A00017C033D0072F31D0062F2FD0052F2DD093
:1047B000042F2BD0012F29D02F9324E623D0189437
:1047C00007FF05C018DF11F02A95C1F798942F91C3
:1047D0000093BC0308950F938F939F9380E197E21A
:1047E0008093510C9093520C0DD00F3F19F001DFC4
:1047F000D9F798949F918F910F910895C09808953B
:10480000C09A08950FEF01C000270FB90EB1001F25
:10481000E8F70FB1089568D031F04ED03CD021DFD9
:10482000002311F091EF5AC0EDDF0E3F21F0E3DEDF
:10483000D9F792EF53C092E08827E4DF0193019704
:10484000E1F7E0DFDFDF43C04FD031F035D023D0D8
:104850000ADF002311F095EF41C0BDDF11F096EFA4
:104860003DC00EEFD2DF0D3F11F497EF37C092E05D
:1048700088270191CADF0197E1F7C4DFC3DFC2DFF8
:104880000F710093BD03053029F00093BC0306951A
:10489000086F24C01CC04091BA0343FD08C04427E0
:1048A0005D916D917D91550F661F771F08954D9114
:1048B0005D916D917D9108958F939F9380E29EE429
:1048C00080934F0C9093500C9F918F91089598DF97
:1048D00099DF992788949093BB0308959F9390DF65
:1048E00091DF9F910894F7CF9091BA03992392EEAC
:1048F0000895EDCF91EEF2CF91EEF0CFF5DF29F0F4
:10490000DBDFA7DE002319F096EE0C946E24E0E0C6
:10491000F0E178DF0E3F29F06EDEC9F797EE0C94D8
:104920006E2490E080E16EDF01930197E1F76ADF8A
:1049300069DFCDDFE0E0F0E19091BA03913081F0E2
:104940008081807C803461F437813F7320851185BC
:1049500000271F5F2F4F3F4F110F221F331F1AC019
:1049600033272681237017810085007C005C1F4F50
:104970002F4F818583709285990F881F11F011D078
:10498000F1F785818F7086500CD0F1F7012F122F2F
:10499000232F3327E881F9810193119321933193D8
:1049A0000895000F111F221F331F8A9508959CDF61
:1049B00029F082DF4EDE002319F096EE0C946E246F
:1049C000E881F9811FDF0E3F29F015DEC9F797EE68
:1049D0000C946E2490E080E115DF01930197E1F7DC
:1049E00011DF10DF74CF80DF29F066DF34DE0023B3
:1049F00019F096EE0C946E24E881F98103DF0E3FE6
:104A000029F0F9DDC9F797EE0C946E2490E080E16F
:104A1000F9DE01930197E1F7F5DEF4DE58CF64DFAC
:104A200029F04ADF22DE002319F096EE0C946E2462
:104A300028DEE881F981719361935193419347CFC7
:104A400053DF29F039DF13DE002319F096EE0C94C2
:104A50006E24E881F981D6DED5DE0E3F29F0CBDD6C
:104A6000C1F797EE0C946E2490E080E4CBDE0193C6
:104A70000197E1F7C7DEC6DE2ACFE2ECF3E0ABE850
:104A8000B8E0992791931197E9F70895E894843055
:104A900059F0863049F08E3039F068948B3021F02F
:104AA0008C3011F093E19EC30090C40300F8009293
:104AB000C40388940895E2E1F6E018D345555A4AB4
:104AC00009F408958FC38A93D8DFC9D3C0F091E168
:104AD000F2DFA8F088818823F9F0E2EDF5E08A950D
:104AE00011F07096FCCF80818F7721F4349680810D
:104AF000CDDF38F48881823078F093E173C321965A
:104B000071C38093C3033496AFE0B4E00CD3A7D352
:104B100088F392E1D0DF98F38991EFE1F4E0E6D2F7
:104B20004050524094E1F9F4A2E2B4E0DCD2AFE0AC
:104B3000B4E0AFD2A5D2A5ECB3E0BFD2AAE2B4E014
:104B4000D0D24050504019F4A8E3B4E0ACD2EAEC23
:104B5000F3E0BDD2809124048093C90396E18823B9
:104B600011F0833008F03EC38DD281FD8BD2AEECC4
:104B7000B3E0A3D2A5E2B4E0B6D2A2EDB3E0B9D2DD
:104B800084E0C7D27DD2A4EDB3E097D2AFE0B4E029
:104B90008AD20E94DD2FB3D2E7E2F4E09DD200502A
:104BA000104019F4E4E3F4E079D20E94DD2F809103
:104BB00021048093D80395E18823A9F28695F0F724
:104BC00091F6A3D157D2A9EDB3E077D20090C403F8
:104BD00000FA8091C303882379F4E89486E00F5F9C
:104BE000164F2040304010F068948BE88093C30348
:104BF000992790F99093C4033EF4A0E4B4E049D21D
:104C000099D1AEECB3E059D282E08093DD03AEECF3
:104C1000B3E03FD2A5EEB3E050D2ABEEB3E04DD25D
:104C2000E9C22497088319832A833B830895088166
:104C300019812A813B81089580E1FF93EF9380627F
:104C40008F93A4D58F918387028F138F248B358BFD
:104C5000AE2FBF2FE1E0F4E08BE066D213960E9406
:104C6000322E14960E94322EEAD2EF91FF910895CF
:104C700035D409F0BBC256D310F092E3B3C2ABD126
:104C800050F18AD2CEDFAED318F1D1DFD5DFCFDF3E
:104C90000E94C62CA1E0B4E08EE28D9380E29AE0FF
:104CA0008D939A95E9F7C3DFC7DFFF93EF9314D095
:104CB00011F02BD101C0D9D18EE280930204EF9183
:104CC000FF91B096B9DF0E94ED2C10F00E94FE2CEF
:104CD0008FB724968FBF0895A5EEB3E0DAD1AEEC7E
:104CE000B3E0E1D10C94E22F8C918E32D1F4A5EE99
:104CF000B3E0CFD1BDD2B09680818E3209F037C0FB
:104D00000090C40300FA22273327028D138D16F476
:104D100024893589F9D119F4AEECB3E01BC00AD16E
:104D20001AC08C35C9F3DAD309F060C2FBD2F0F0B7
:104D300083858F7CF1F40090C40322273327028DF2
:104D4000138D00FE02C024893589F4D091D270F011
:104D5000AFE0B4E09ED1A5EEB3E0AFD1ABEEB3E0EF
:104D6000ACD1A9EEB3E081D1C7D144C2089595E397
:104D700039C296E337C264D448F0B0D331F48F938C
:104D800091E070D48F9110F035C230C28827089519
:104D900057D4D8F0A3D3D1F48F9398E063D48F91F4
:104DA00020F4923481F498E01FC0FA93EA93908D36
:104DB00095FD07C0D5D18F9398940E945E2D8F9159
:104DC00008F017C222968827089408950FC238D495
:104DD00048F084D331F48F9392E0A3D48F9110F0F4
:104DE00009C204C2882708958F9396D48F9108F042
:104DF00001C28827089512D450F0FA93EA930E94D2
:104E0000B72D20F00E94C42D08F0F3C1F9C1089518
:104E10009F9304D49F91D0F0FA93EA939F93BF930A
:104E2000AF9349D4AF91BF919F9158F08D30B1F3BA
:104E30008A3029F0992391F38D939A95EFCF889436
:104E4000992780E08C938FB722968FBF0895E6D381
:104E500030F0FA93EA93FDD308F0CBC1D1C10895A5
:104E6000DDD328F0808D827009F08FEFC3C18FEF02
:104E70000895D4D340F0FA93EA9381E0C7D15ED588
:104E800008F0B7C1BDC10895FF93EF9327D34AD26D
:104E900058F0FF93EF93E1E0F4E0AFEEB3E08CE085
:104EA00043D1EF91FF918894AF91BF9130F488275F
:104EB0008C93923409F49EC1089540D30E948930A6
:104EC00011978EE28D9340D30E948930EDE0F4E09B
:104ED000ABEFB3E086E028C1FF93EF93E6D2E4CFD7
:104EE000802FC8D09091D403891B982F8395892750
:104EF0009091D803892311F488940895C5D005D0E2
:104F00002ED008F4089516D0F7CFE4EDF3E0D0D01A
:104F10000E94DD2F72F08091D80380FD06C0369587
:104F20002795179507958695F8CF0E5F1F4F2F4F42
:104F30003F4F08958091D8030250104020403040E8
:104F400080FD06C0000F111F221F331F8695F8CF6A
:104F5000E4EDF3E0ADD00C94D82F0ED1D6DFA5EC64
:104F6000B3E0A1D00090C40300FE04C0000F111FE5
:104F7000221F331F0F93012F122F232F33270E943D
:104F8000D82F72D18F91E8F00090C40300FA9927CE
:104F9000880F991FE80FF91F2227332701911191DC
:104FA00036F4219131913F7032976FEF7FE0329765
:104FB00048EF5FEF0417150716F42607370710F0C0
:104FC00091E210C117C151D002E0A02E442755270D
:104FD0006627772704C0ADEDB3E05BD0AA243F93EA
:104FE0002F931F930F937F936F935F934F93AF9282
:104FF000B6DFAF904F915F916F917F910F911F91AD
:105000002F913F91A9EDB3E0CD90DD90ED90FD9013
:1050100010F4913249F5C016D106E206F30618F1F4
:1050200099278191982B8191982B2EF48191982B1F
:1050300081918F70982B31F4A1FE0EC04F5F5F4FAE
:105040006F4F7F4F802F912F15D09127969516F493
:105050008027880F00F7C3CF32970EF43297ADED5B
:10506000B3E02BD0C7C092E2BDC000271127222792
:10507000332708950F5F1F4F2F4F3F4F0895552738
:10508000662777270C94D82F0150104020403040DD
:1050900008950D911D912D913D91089501911191CA
:1050A0002191319108954D915D916D917D9108957A
:1050B000419151916191719108950D931D932D939B
:1050C0003D93089501931193219331930895419352
:1050D0005193619371930895222733270191119180
:1050E0000895662777274D915D91089541915191DB
:1050F00008954D935D9308950D931D930895402F4A
:10510000512F622F732F08950050104020403040DF
:105110000895569547958A95E1F70895440F551FD0
:105120008A95E1F7089584E09F9391919D938A95E4
:10513000E1F79F910895E881F9810895A881B981E7
:1051400018960895E881F9813C960895E881F981DF
:105150003896B8CFE881F9813896A0CFF3DFB2CF87
:10516000F1DF9CCFEFDFA4CFA881B9811C96089511
:10517000E881F98174960895FBDF90CFE881F98189
:10518000808D0895E881F98170960895FBDF86CFC0
:10519000F9DF8ECFF7DF96CF0090C40300FA8FEFD0
:1051A000819381931EF481938FE0819342C000909C
:1051B000C40300FA0193119316F42193319339C07B
:1051C000E881F98179960895D3DF7CCFA881B981F0
:1051D000549608950F900F900F900F900F900F908E
:1051E0000895229608949093C2030895882799E41D
:1051F000F9CF2296889490E0F6CF2296889408956D
:1052000022960894089580EA01C084E8E881F98133
:105210009F93908D892B808F9F910895E881F981CC
:105220009F93908D80958923808F9F91089588E02A
:10523000EDCF8091180688608093180608958091BC
:10524000130488608093130408950E940B2408F0CF
:10525000D1CFC8CF0E94242408F0CCCFC3CFAFE079
:10526000B4E0E4E1F4E0F1CF80E1A4E1B6E006C00F
:1052700080E0AFE0B4E002C0A9DF80E814DF0E9464
:10528000E22F31F4E8941196EA2FFB2F1597B6CF51
:105290009D91EA2FFB2F792F777E872B8E93149782
:1052A00093FF18C00F931F932F933F939F93AF9338
:1052B000BF93D0DFBF91AF919F91A8F094FF06C03C
:1052C000AF93BF93A5D3BF91AF9168F03F912F915A
:1052D0001F910F91F2DED7DFEF93FF93B6DFFF91BF
:1052E000EF916894089578CF49DF8670B1F44EDF6E
:1052F00000271E7F442752E0C3DE4CDF3FDF86706D
:1053000061F43ADFEDDD20F061DFB6DF38F088C20E
:10531000913221F47ADF91E265CF91E063CFDED064
:1053200009F065CFFA93EA93A5D008F469CF838595
:105330008F3099F0827C89F480818E3271F0853EC5
:1053400061F08030D1F0A881B9819C919F3311F038
:10535000981303C07BE0B5D0A1F0B09681E0480F70
:1053600025F78827581F5F934F930FD008F080DFF1
:105370004F915F91D0F6903C08F492E4E991F99155
:1053800031CFADE0B4E0B5DE34CF0090C40300FC13
:1053900019C0A5EEB3E07DDEAEECB3E05F934F93B2
:1053A00082DE0E94E22F4F915F9161F4A2EDB3E0A3
:1053B0006D917D914617570710F091E313CF0FD0F1
:1053C00059DE18CF0CD03F932F931F930F9388DD96
:1053D00008F002CF0F911F912F913F910895AFE0F8
:1053E000B4E057CE4FD008F43CC08081853E81F1B7
:1053F000803071F1B09681E0480FBDF78827581FC3
:105400005F934F93C2DF08F033DF4F915F9168F7EE
:10541000913239F55F934F9378DD3F932F931F932C
:105420000F93D9DDF8F0B8DE6ADE0F911F912F914E
:105430003F917F936F935F934F9391DD0F911F91F6
:105440002F913F9180F4913281F4B1DE9FD2DDCF74
:10545000ADE0B4E04EDE1DDEA9EEB3E04ADE2DDEA7
:10546000C9CEC0CEB7CE93E2BDDEB8CEA881B98199
:1054700012960AC044275527A5EEB3E006C0ABEF4D
:10548000B3E002C0A9EEB3E02EDE03DE5A934A93E6
:10549000EFDE50F048814F70552785E03FDEE40F86
:1054A000F51F49915991A6CEABCEABEFB3E0ECDF3F
:1054B000FF93EF93EFEEF3E0FA93EA93EF91FF910E
:1054C0004CCFFF93EF9381919D919F3311F08917FA
:1054D00011F47A95C1F7EF91FF910895E1E0F4E0BE
:1054E0008F93E89499277BE0AEF08D918A3219F47E
:1054F0008FE368940FC08E3239F4733011F4E8945E
:10550000F3CF80E2689406C0803011F480E20CC0D2
:105510000E94BC2E81938F3309F49395743009F463
:10552000E8947A9509F704C080E281937A95E9F7C7
:1055300080E081933C9799238F91089588E0F4DD72
:10554000389788278D930895389683E0EDDD3B9753
:1055500088278D930895928D9D93938D9D930090B0
:10556000C40300FE05C094899D9395899D93089579
:1055700099279D939D9308957C96D5DDB0970895C6
:10558000882311F49AE42ECE32E0E9E1F8E0E894C1
:105590002081222329F4D6F0EE2EFF2E689416C027
:1055A000281771F1EF93FF938F9380F98F9386E023
:1055B0003296ADE0B4E09ED38F9180FB8F91FF9146
:1055C000EF9121F41181192310FF1CC03A9519F0B5
:1055D000E65EFD4FDDCFC6F4EE2DFF2D18D08083A3
:1055E0009183EF93FF938F9386E03296AE2FBF2F78
:1055F000EDE0F4E086E098DD8F91FF91EF91FACD38
:1056000095E4F0CD96E4EECD94E4ECCD94DD09E1A3
:10561000002401920A95E9F779970895882369F0A3
:1056200072E0E9E1F8E09081981749F07A9519F075
:10563000E65EFD4FF8CF93E4D5CD9AE4D3CD08953F
:1056400080E8ECDF28F08395E1F791E48827CACD64
:10565000D1CD71DD02C0E2DF20F081E0D7DD6ED177
:10566000D5CF08958F939F935DDE7F918F91E8F062
:10567000972F6385692760FF03C0692760FD18C005
:10568000FF93EF937DDFFA93EA93EF91FF9168F038
:105690006BDD72DF53DD5FDF5DDD36DD39F04ADC67
:1056A000EBDD40F0BDD06ADDA8CD0895ACDDFBCFC9
:1056B00098E498CDA5CDE881F9819181917251F15D
:1056C000E881F981808D81FD23C07096E7DC912F00
:1056D000802FD0DC3497F6DCE881F9813C96E8DC59
:1056E0000E94E22F30F0389670817260719311271A
:1056F00004C0E881F981799619279170E80FF91FA4
:105700008081169521F08F93F9DD8F91089572CDE8
:1057100091E068CD92E666CDFF93EF938F939F93D0
:1057200011C0FF93EF938F939F9339D058F4923425
:1057300051F508C0FF93EF938F939F93F3DD08F526
:10574000923409F54FDE00F121D09F918F91FF93A4
:10575000EF9316DFAF91BF91C0F0FA93EA93EF9108
:10576000FF919F938BE0E0DC9F91917090629D93FD
:10577000129678D2149676D262DD45DDE991F991E0
:1057800039CD92E32FDD089427CD28CD85EE819386
:1057900088279FE181939A95E9F7B097089509F0DA
:1057A00025CDC0DD80F183858F7D11F093E31ACD87
:1057B000FF93EF9358D0EF91FF9128F1FF93EF9370
:1057C00023D0EF91FF9185EE808339DD22273327A7
:1057D000028D138D0090C40300FE02C02489358918
:1057E00093DC79F017D0BBDB80E08193819316F4D2
:1057F000819381931EDDB0F7913221F4EED018F041
:10580000FDC0FCC008940895EDE0F4E0A9EEB3E01B
:1058100086E06EC2E0E1FF27ADEDB3E084E068C250
:105820009FDCB6DC0E94E22FC2F0C9F02DDC7327AA
:1058300061F4622751F45127569539F491DCA8DCC4
:105840000E94DD2F84E0E2DCD5CC00E012E086E0AF
:10585000E5DCD0CC84E0DADCCDCC91E601C091E08F
:1058600086E0D4DCBFCC72E0E9E1F8E080818823F7
:1058700051F0FF93EF933296ADE0B4E086E03AD278
:10588000EF91FF9129F07A9529F0E65EFD4FEECF7A
:1058900097E4A8CCAFCC70DC23DB28F06FDC81FF71
:1058A000EBCC92DC91C09132F9F495DBE8F08FEF0C
:1058B000819381930090C40300FE03C081938FE025
:1058C0008193B7DC0F931F932F933F9346DB3F9158
:1058D0002F911F910F9130F4913221F48BDC67DC12
:1058E00029DBDCCF93E27ECC089575DB30F18FEFBE
:1058F000819381930090C40300FE03C081938FE0E5
:10590000819397DC3F932F931F930F931FDCAEDDA2
:105910000F911F912F913F9180F0028F138F009074
:10592000C40300FE02C0248B358B89DC03DB4CDC16
:105930009CDB30DC80E272DC889408951FDC83FFFE
:1059400009C016DCAE2FBF2F34968081877F8193EC
:1059500081DCD0F013DC86FF18C087FF02C080FF17
:1059600014C084DD88F0AE2FBF2F1B968C9180620F
:105970008C93519681E452DCF3DB9FDB1A9772D152
:105980005EDC3CD008F029C0089534CCD3DA809195
:10599000D8038F936DDC18F018D051DC88948F9168
:1059A00090F08A9529F0EFE0F4E078DB63DBF1CF4B
:1059B0004091D8034A9531F0EFE0F4E06FDB041B2F
:1059C00064DB56CC17CC0895FBDB772792E080E0B0
:1059D00071930197E9F7F2500DCC80E1A4E1B6E0B4
:1059E000E8E1F6E0908193FF08958193BF93AF9330
:1059F00031DCAF91BF9108F408950AC080E0AFE0B8
:105A0000B4E0E3E1F4E0908193FF0895819322CC28
:105A1000E9ECF3E0819181FF08954ADB3ADBEA2F5C
:105A2000FB2F31960E94D82FA1EEB3E046DB1497EE
:105A300011CCE881F981092E9181902111F088948F
:105A4000089592E6CFCBE881F98191819A7279F13C
:105A5000E881F9818F93908D95FF06C046DF48F16C
:105A6000B3DFE881F981908D709618DBF12EE02E7E
:105A700001DB349727DBE881F9813C9619DB40177D
:105A800051076207730718F434971CDB92641F25D3
:105A90009860E881F981789691939F2D9170EE0D31
:105AA000F91F8F918193169531F048DFF4CE92E67D
:105AB00099CB8F91089588940895E6DA332312F4F0
:105AC00093E690CB19F45ADB85FD94CB4BDB0E9417
:105AD000E22FC1F1A8F53F932F931F930F9367D047
