:100000000C94460018950000189500001895000003
:10001000189500001895000018950000189500002C
:10002000189500001895000018950000189500001C
:10003000189500001895000018950000189500000C
:100040000C94DB1F189500000C94602F189500008D
:1000500018950000189500001895000018950000EC
:1000600018950000189500001895000018950000DC
:1000700018950000189500000C94922F1895000018
:100080001895000018950000189500008FEF8DBF9F
:10009000C0E8E8E14E2E80E18EBFD0E1F0E15F2EB6
:1000A000A89584B7082E877F84BF88E1992781BDF2
:1000B00091BDEEEFFFE0A0E0B1E088278D9331978E
:1000C000E9F787E489B980E08093900088E18AB9F4
:1000D000662485E089B980E080939000599888E192
:1000E0008AB986E080939500579A8BE080939900B7
:1000F00080E08093980070919B007D7F70939B00BF
:1001000086E080939D0088E180939A0070919A0028
:10011000706870939A00BD9ABE9ABF9A89EA8FBDA3
:1001200082E08EBD82E08EBD80E090E09BBD8ABD06
:1001300080E090E099BD88BD80E090E090937900E8
:100140008093780087E083BF84E982BF77B77160CE
:1001500077BF87E083BF86E886B980E487B9139AC2
:10016000149A159AD198D99AD298DA9A8C981798A5
:100170001F9AA798A29AA39AA19AA09AA49AA59A1C
:1001800070E0709371007AE0709370000E949D207F
:10019000A5E4B3E0E2EEF7E60E94AB2E82E090E049
:1001A000A1E2B3E08D939C9384EF91E0A7E1B3E0EB
:1001B0008D939C9381E08093190380E080931A03D0
:1001C00078940E944E058CE291E0A5E1B3E08D9316
:1001D0009C9383E18093EA0282E380931003AAE870
:1001E000B3E08C9199279BBD8ABDA1EAB3E08C91C5
:1001F000992799BD88BDA8EBB3E08C91992790937E
:100200007900809378000E94760D0E94E90F0E9489
:100210002A100E9488110E94A9120E9478010E944F
:10022000E7010E94CB030E9431040E94E904ADEB78
:10023000B1E00D911C91043650E0150718F011F053
:100240000C9424010C945F0180E090E0ADEBB1E0F0
:100250008D939C93A0ECB1E08C918F5F8C930E9466
:100260000309A0E1B3E08C918F5F8C93AAEEB2E01A
:100270008C918F5F8C93A8EEB2E00E941820ADE1C4
:10028000B3E00D911C91003050E0150718F011F00B
:100290000C944C010C945001ADE1B3E00E941F207E
:1002A000A8EEB2E00D911C910C3350E0150718F048
:1002B00011F00C945D010C945F010E94F413009105
:1002C000C001033018F011F00C9468010C946D011A
:1002D00080E08093C0010E94410B009149030130EE
:1002E00011F00C9475010C943A0E1B980C940301B8
:1002F000ADE1B3E00D911C91003050E0150781E0B5
:1003000009F080E08F93A5E3B0E00C9102FB81E05F
:100310000EF080E09F918923882311F40C949A01B8
:10032000A6E3B2E0EEE2F8E60E94942E0E94741377
:10033000AA98AB98ADE1B3E00D911C91003050E06C
:10034000150780E010F009F081E08F93A5E3B0E09D
:100350000C9102FB81E00EF480E09F9189238F9342
:10036000A5E3B0E00C9103FB81E00EF480E09F91E7
:100370008923882311F40C94E6010091B90300301D
:1003800011F00C94C5010C94E6010091B903013001
:1003900011F00C94D601A6E3B2E0EEE3F8E60E9479
:1003A000942E0E947413AA9A0C94E6010091B9034A
:1003B000023011F00C94E601A6E3B2E0EEE4F8E6B8
:1003C0000E94942E0E947413AA9AAB9A0895E7E7AC
:1003D000F3E0A4EBB1E00E94DC3011F00C94F301E7
:1003E00081E080937403E0E8F3E0A4EBB1E00E94C5
:1003F000DC3011F00C94FF0180E080937403EEE890
:10040000F3E0A4EBB1E00E94DC3011F00C940B029D
:1004100081E080938B03E7E9F3E0A4EBB1E00E9475
:10042000DC3011F00C94170280E080938B03E5EA36
:10043000F3E0A4EBB1E00E94DC3011F00C94230255
:1004400081E08093A203EEEAF3E0A4EBB1E00E9426
:10045000DC3011F00C942F0280E08093A203009115
:100460007403013081E009F080E08F93A9E8B3E0E4
:100470004D915527AAE4B0E00D911C910417150782
:1004800081E008F080E09F918923882311F40C9487
:100490007302AEE6B3E04D915C91A5E7B3E00D9138
:1004A0001C910417150710F00C945C02A5E7B3E04B
:1004B0000E9418200C947302AEE6B3E04D915C915B
:1004C000A5E7B3E00D911C910417150710F40C94E7
:1004D0007302AAE4B0E00E94182080E090E0A5E753
:1004E000B3E08D939C9300917403003081E009F098
:1004F00080E08F93AAE8B3E04D915527AAE4B0E0DD
:100500000D911C910417150780E010F009F081E0AF
:100510009F918923882311F40C94B802AEE6B3E0CE
:100520004D915C91A5E7B3E00D911C91041715075F
:1005300010F00C94A102A5E7B3E00E9418200C94DF
:10054000B802AEE6B3E04D915C91A5E7B3E00D9142
:100550001C910417150710F40C94B802AAE4B0E03B
:100560000E941F2080E090E0A5E7B3E08D939C936C
:1005700000918B03013081E009F080E08F93A0EAC5
:10058000B3E04D915527A8E4B0E00D911C910417FC
:10059000150781E008F080E09F918923882311F4FA
:1005A0000C94FC02A0E7B3E04D915C91ACE8B3E0A1
:1005B0000D911C910417150710F00C94E502ACE89E
:1005C000B3E00E9418200C94FC02A0E7B3E04D9128
:1005D0005C91ACE8B3E00D911C910417150710F481
:1005E0000C94FC02A8E4B0E00E94182080E090E0A7
:1005F000ACE8B3E08D939C9300918B03003081E0D5
:1006000009F080E08F93A1EAB3E04D915527A8E46B
:10061000B0E00D911C910417150780E010F009F06F
:1006200081E09F918923882311F40C944103A0E772
:10063000B3E04D915C91ACE8B3E00D911C910417CF
:10064000150710F00C942A03ACE8B3E00E941820C0
:100650000C944103A0E7B3E04D915C91ACE8B3E0AA
:100660000D911C910417150710F40C944103A8E494
:10067000B0E00E941F2080E090E0ACE8B3E08D93F2
:100680009C930091A203013081E009F080E08F93F8
:10069000A7EBB3E04D915527A8E7B0E00D911C9171
:1006A0000417150781E008F080E09F9189238823D3
:1006B00011F40C948503A2E7B3E04D915C91A3EA99
:1006C000B3E00D911C910417150710F00C946E0304
:1006D000A3EAB3E00E9418200C948503A2E7B3E0DC
:1006E0004D915C91A3EAB3E00D911C91041715079D
:1006F00010F40C948503A8E7B0E00E94182080E075
:1007000090E0A3EAB3E08D939C930091A2030030A4
:1007100081E009F080E08F93A8EBB3E04D9155277D
:10072000A8E7B0E00D911C910417150780E010F0C8
:1007300009F081E09F918923882311F40C94CA0366
:10074000A2E7B3E04D915C91A3EAB3E00D911C9157
:100750000417150710F00C94B303A3EAB3E00E944A
:1007600018200C94CA03A2E7B3E04D915C91A3EA70
:10077000B3E00D911C910417150710F40C94CA03F3
:10078000A8E7B0E00E941F2080E090E0A3EAB3E079
:100790008D939C930895AFE1B3E00D911C91A1E27C
:1007A000B3E04D915C91041B150BA3E2B3E00D93F4
:1007B0001C93AFE1B3E00D911C91A1E2B3E04D9128
:1007C0005C91040F151FA5E2B3E00D931C93A3E207
:1007D000B3E04D915C91A5E1B3E00D911C9104173C
:1007E000150781E014F009F080E08F93A5E3B0E0F5
:1007F0000C9101FB81E00EF480E09F918923882316
:1008000011F40C940C04A99AA6E3B2E0E2E6F8E62F
:100810000E94942E0E947413A5E2B3E04D915C9166
:10082000A5E1B3E00D911C910417150780E00CF0D1
:1008300081E08F93A5E3B0E00C9101FB81E00EF025
:1008400080E09F918923882311F40C943004A998A7
:10085000A6E3B2E0E2E7F8E60E94942E0E94741349
:100860000895E5E4F3E00E942A31E9E3F3E00E9411
:1008700025310E948432EDE0F0E0ADE3B3E00E9468
:100880007930E5E4F3E00E942A31E9E3F3E00E94E5
:1008900025310E947532EDE0F0E0A1E4B3E00E9462
:1008A0007930E7E2F3E00E942531EDE3F3E00E94C6
:1008B0002A310E940C3180E010F009F081E08F9322
:1008C000A5E3B0E00C9104FB81E00EF480E09F9181
:1008D00089238F93E7E2F3E00E942531E6EEF7E605
:1008E0000E94D2320E940C3180E010F009F081E0C9
:1008F0009F9189238F93E7E2F3E00E942531EAEE8E
:10090000F7E60E94D2320E940C3181E008F080E0CC
:100910009F918923882311F40C949704AC9AA6E341
:10092000B2E0E4E8F8E60E94942E0E947413E7E235
:10093000F3E00E942531E1E4F3E00E942A310E94B5
:100940000C3181E008F080E08F93A5E3B0E00C91DA
:1009500004FB81E00EF080E09F918923882311F44D
:100960000C94BB04AC98A6E3B2E0E2E9F8E60E947E
:10097000942E0E947413E7E2F3E00E942531E6EE24
:10098000F7E60E94D2320E940C3181E008F080E04C
:100990008F93E7E2F3E00E942531EAEEF7E60E944A
:1009A000D2320E940C3180E010F009F081E09F917A
:1009B000892B8F93A5E3B0E00C9104FB81E00EF04E
:1009C00080E09F918923882311F40C94E804AC986B
:1009D0000895EAE4F3E0A4EBB1E00E94DC3081E0AA
:1009E00009F080E08F93A5E3B0E00C9100FB81E07B
:1009F0000EF480E09F918923882311F40C9409055B
:100A0000A89AA6E3B2E0E0EAF8E60E94942E0E94DB
:100A10007413E3E5F3E0A4EBB1E00E94DC3081E085
:100A200009F080E08F93A5E3B0E00C9100FB81E03A
:100A30000EF080E09F918923882311F40C942905FE
:100A4000A898A6E3B2E0E2EBF8E60E94942E0E949A
:100A50007413ECE5F3E0A4EBB1E00E94DC3011F09C
:100A60000C943B05A89AA6E3B2E0E0EAF8E60E94FF
:100A7000942E0E947413E5E6F3E0A4EBB1E00E942B
:100A8000DC3011F00C944D05A898A6E3B2E0E2EB3F
:100A9000F8E60E94942E0E94741308951C9AA7E110
:100AA000B3E08D919C910E948E201C981B9AA7E127
:100AB000B3E08D919C910E948E201B981D9AA7E116
:100AC000B3E08D919C910E948E201D9880E090E073
:100AD0009BBD8ABD80E090E099BD88BD80E090E03C
:100AE00090937900809378008CE10E9455200E94B9
:100AF000522084E690E00E948E20E4ECF8E60E940A
:100B00004B20A0E0B0E1EAEDF8E60E94942E0E94AE
:100B100043200E945220E0E0F0E0AFEBB1E00E9401
:100B2000B0300091BF01013081E009F480E08F9383
:100B300000911903003081E009F080E09F91892342
:100B4000882311F40C940006F8941D9AE2EEF8E65E
:100B50000E944B200E94522084E20E943F2084E2A7
:100B60000E943F2084E20E943F20E1E0F0E00E94EA
:100B70005C20ECEEF8E60E944B200E945220E2EF4F
:100B8000F8E60E9435200E943C20E1E0F0E00E945F
:100B90005C20E8EFF8E60E944B200E945220E8EF2C
:100BA000F8E60E9435200E943C20E1E0F0E00E943F
:100BB0005C20E4E0F9E60E944B200E945220ECE029
:100BC000F9E60E9435208AE00E943F20E1E0F0E053
:100BD0000E945C201D987894A2E3B1E00E94C62F89
:100BE000A3E5B1E00E94C62F81E08093BF01E0E061
:100BF000F0E0AFEBB1E07BE70E9494300C94060686
:100C00000091BF01013011F00C9406060E94A91258
:100C1000AFE2B3E0E9E0F0E094E00E94B330EFE24D
:100C2000F3E00E942531EEEEF7E60E94D2320E94F8
:100C30000C3181E008F080E08F93EFE2F3E00E9456
:100C40002531E2EFF7E60E94D2320E940C3180E0BB
:100C500010F009F081E09F91892B8F93EFE2F3E090
:100C60000E942531E6EFF7E60E94D2320E940C3155
:100C700081E009F080E09F91892B882311F40C9486
:100C80004F06AFE2B3E0EAEFF7E60E94AB2EE9E0F1
:100C9000F0E0AFE2B3E094E07BE70E949730ABE294
:100CA000B3E0E5E0F0E094E00E94B330EBE2F3E083
:100CB0000E942531EEEEF7E60E94D2320E940C31FE
:100CC00081E008F080E08F93EBE2F3E00E942531B1
:100CD000E2EFF7E60E94D2320E940C3180E010F081
:100CE00009F081E09F91892B8F93EBE2F3E00E9462
:100CF0002531E6EFF7E60E94D2320E940C3181E006
:100D000009F080E09F91892B882311F40C949606BA
:100D1000ABE2B3E0EEEFF7E60E94AB2EE5E0F0E0E9
:100D2000ABE2B3E094E07BE70E949730A3E3B3E04B
:100D3000EDE0F0E094E00E94B330E3E3F3E00E94E2
:100D40002531E2E0F8E60E94D2320E940C3181E0C7
:100D500008F080E08F93E3E3F3E00E942531E6E0C2
:100D6000F8E60E94D2320E940C3180E010F009F0C7
:100D700081E09F91892B8F93E3E3F3E00E9425317B
:100D8000E6EFF7E60E94D2320E940C3181E009F0D2
:100D900080E09F91892B882311F40C94DD06A3E356
:100DA000B3E0EAE0F8E60E94AB2EEDE0F0E0A3E36A
:100DB000B3E094E07BE70E949730A9E3B3E0E2E17F
:100DC000F0E094E00E94B330E9E3F3E00E942531C3
:100DD000EEE0F8E60E94D2320E940C3180E010F082
:100DE00009F081E08F93E9E3F3E00E942531E2E12D
:100DF000F8E60E94D2320E940C3181E008F080E0D7
:100E00009F91892B882311F40C941407A9E3B3E074
:100E1000E6E1F8E60E94AB2EE2E1F0E0A9E3B3E000
:100E200094E07BE70E94973000911A03003011F0A4
:100E30000C941E070E943F130E946A1500911A032A
:100E4000013081E009F080E08F93A1E2B0E00C91E5
:100E500007FB81E00EF480E09F91892B882311F439
:100E60000C940109E3E0F0E0AFE1B3E00E94B2309E
:100E7000AFE1B3E00D911C91003951E0150780E01E
:100E800014F009F081E08F93AFE1B3E00D911C9174
:100E9000043650E0150780E00CF481E09F91892B27
:100EA000882311F40C9461078AEF90E0AFE1B3E07E
:100EB0008D939C93E3E0F0E0AFE1B3E07BE70E9429
:100EC0009630E6E1F0E0AAE4B3E098E00E94BA30A0
:100ED000EFE1F0E0A3E5B3E098E00E94BA30E8E289
:100EE000F0E0ACE5B3E098E00E94BA30E1E3F0E076
:100EF000A5E6B3E098E00E94BA30E1E0F0E0ABE1B3
:100F0000B3E00E94B230ABE1B3E00D911C91043824
:100F100053E0150718F011F00C9490070C949D07FE
:100F20008CE291E0ABE1B3E08D939C93E1E0F0E0E3
:100F3000ABE1B3E07BE70E949630ECE7F0E0A9EB91
:100F4000B3E00E94B0300091B903023018F011F004
:100F50000C94AC070C94B60780E08093B903ECE7DF
:100F6000F0E0A9EBB3E07BE70E949430EAE3F0E025
:100F7000AEE6B3E00E94B230AEE6B3E00D911C9154
:100F8000043C59E0150780E010F009F081E08F93F0
:100F9000AEE6B3E00D911C91043650E0150781E0F8
:100FA00008F080E09F91892B882311F40C94E507C9
:100FB00088EE93E0AEE6B3E08D939C93EAE3F0E035
:100FC000AEE6B3E07BE70E949630ECE3F0E0A0E70A
:100FD000B3E00E94B230A0E7B3E00D911C91043C55
:100FE00059E0150780E010F009F081E08F93A0E749
:100FF000B3E00D911C91043650E0150781E008F034
:1010000080E09F91892B882311F40C94140888EEBA
:1010100093E0A0E7B3E08D939C93ECE3F0E0A0E7CE
:10102000B3E07BE70E949630EEE3F0E0A2E7B3E0A6
:101030000E94B230A2E7B3E00D911C91043C59E04C
:10104000150780E010F009F081E08F93A2E7B3E08C
:101050000D911C91043650E0150781E008F080E006
:101060009F91892B882311F40C94430888EE93E018
:10107000A2E7B3E08D939C93EEE3F0E0A2E7B3E048
:101080007BE70E949630E0E4F0E0A7E7B3E098E069
:101090000E94BA30E9E4F0E0A0E8B3E098E00E94F2
:1010A000BA30E2E5F0E0A9E8B3E00E94B030E3E551
:1010B000F0E0AAE8B3E00E94B03000918A03043661
:1010C00018F011F00C9466080C94700880E080937E
:1010D0008A03E3E5F0E0AAE8B3E07BE70E949430FE
:1010E000E4E5F0E0AEE8B3E098E00E94BA30EDE568
:1010F000F0E0A7E9B3E098E00E94BA30E6E6F0E05D
:10110000A0EAB3E00E94B030E7E6F0E0A1EAB3E085
:101110000E94B0300091A103043618F011F00C9435
:1011200093080C949D0880E08093A103E7E6F0E02B
:10113000A1EAB3E07BE70E949430E8E6F0E0A5EA9C
:10114000B3E098E00E94BA30E1E7F0E0AEEAB3E045
:1011500098E00E94BA30EAE7F0E0A7EBB3E00E9423
:10116000B030EBE7F0E0A8EBB3E00E94B0300091C4
:10117000B803043618F011F00C94C0080C94CA0897
:1011800080E08093B803EBE7F0E0A8EBB3E07BE707
:101190000E949430A9E3B3E0E2E1F0E094E00E9421
:1011A000B330E9E3F3E00E942531E6EEF7E60E9472
:1011B000D2320E940C3181E008F080E08F93E9E3A5
:1011C000F3E00E942531EEE0F8E60E94D2320E9460
:1011D0000C3180E010F009F081E09F91892B882389
:1011E00011F40C940109A9E3B3E0E6E1F8E60E94EA
:1011F000AB2EE2E1F0E0A9E3B3E094E07BE70E94EC
:101200009730089508958CE10E9455200E94522045
:1012100084E690E00E948E200E94F020ACE5B1E0D0
:101220000E944520E0E1F9E60E944B200E94F02058
:10123000A5E6B1E00E9445200E945220E2E1F9E6D5
:101240000E944B200E945220E4E1F9E60E944B20CC
:10125000A5E3B0E08C9182FBA0E0B0E10E94C32E38
:101260008D9388278C930E944320E0E2F9E60E9448
:101270004B20A0E0B0E1EDE1F3E00E94EC2F0E94F2
:101280004320E4E2F9E60E944B200E945220E6E26D
:10129000F9E60E944B20A5E3B0E08C9183FBA0E02F
:1012A000B0E10E94C32E8D9388278C930E94432027
:1012B000E0E2F9E60E944B20A0E0B0E1EDE1F3E0CE
:1012C0000E94EC2F0E944320E4E2F9E60E944B20AA
:1012D0000E945220E2E3F9E60E944B20A5E3B0E031
:1012E0008C9181FBA0E0B0E10E94C32E8D938827F2
:1012F0008C930E944320EAE3F9E60E944B20A0E091
:10130000B0E1E3E2F3E00E94F52F0E944320ECE31A
:10131000F9E60E944B20A0E0B0E1E5E2F3E00E9494
:10132000F52F0E944320E4E2F9E60E944B200E9440
:101330005220EEE3F9E60E944B20A5E3B0E08C9149
:1013400080FBA0E0B0E10E94C32E8D9388278C9390
:101350000E944320E0E1F9E60E944B20AAE4B3E0BA
:101360000E944520ECE3F9E60E944B20A3E5B3E0A0
:101370000E944520E8E4F9E60E944B20ACE5B3E08A
:101380000E944520ECE3F9E60E944B20A5E6B3E07D
:101390000E9445200E945220ECE4F9E60E944B2076
:1013A000A5E3B0E08C9184FBA0E0B0E10E94C32EE5
:1013B0008D9388278C930E944320EAE3F9E60E94EC
:1013C0004B20A0E0B0E1E9E3F3E0552744E00E94C0
:1013D00053210E944320E4E2F9E60E944B200E9440
:1013E0005220E8E5F9E60E944B20A5E3B0E08C919D
:1013F00085FBA0E0B0E10E94C32E8D9388278C93DB
:101400000E9443200E945220EEE5F9E60E944B2004
:10141000A0E0B0E1EAE4F0E00E94EC2F0E9443205B
:10142000E4E6F9E60E944B20A0E0B0E1E9E8F3E051
:101430000E94FC2F0E944320ECE6F9E60E944B201C
:10144000A7E7B3E00E944520ECE3F9E60E944B20B9
:10145000A0E0B0E1EAE8F3E00E94FC2F0E94432004
:10146000ECE6F9E60E944B20A0E8B3E00E9445209C
:101470000E945220EEE6F9E60E944B20A0E0B0E187
:10148000E8E4F0E00E94EC2F0E944320E4E6F9E655
:101490000E944B20A0E0B0E1E0EAF3E00E94FC2FC4
:1014A0000E944320ECE6F9E60E944B20AEE8B3E050
:1014B0000E944520ECE3F9E60E944B20A0E0B0E159
:1014C000E1EAF3E00E94FC2F0E944320ECE6F9E6FB
:1014D0000E944B20A7E9B3E00E9445200E945220C1
:1014E000E4E7F9E60E944B20A0E0B0E1E8E7F0E095
:1014F0000E94EC2F0E944320E4E6F9E60E944B2074
:10150000A0E0B0E1E7EBF3E00E94FC2F0E94432053
:10151000ECE6F9E60E944B20A5EAB3E00E944520E4
:10152000ECE3F9E60E944B20A0E0B0E1E8EBF3E049
:101530000E94FC2F0E944320ECE6F9E60E944B201B
:10154000AEEAB3E00E9445200E945220E2E1F9E6B3
:101550000E944B200E945220EAE7F9E60E944B20AD
:10156000A0E0B0E1E7E2F3E0552744E00E94532118
:101570000E944320E0E8F9E60E944B20A0E0B0E1A1
:10158000EBEEF2E0552744E00E9453210E944320F5
:10159000E4E8F9E60E944B200E945220E8E8F9E6D0
:1015A0000E944B20A0E0B0E1E5E1F3E00E94F52FBE
:1015B0000E944320E0E9F9E60E944B200E9452205D
:1015C000E4E9F9E60E944B20A0E0B0E1E6E0F3E0B8
:1015D0000E94FC2F0E94432000910603003011F06E
:1015E0000C94F80AECE9F9E60E944B200E94522084
:1015F00000910603013011F00C94040BE2E1F9E6CE
:101600000E944B200E945220E0EAF9E60E944B2003
:10161000A0E0B0E1E4E0F3E00E94FC2F0E94432050
:10162000EAE3F9E60E944B20A0E0B0E1EBE1F3E051
:101630000E94EC2F0E944320EAEAF9E60E944B2028
:101640000E945220EEEAF9E60E944B20A0E0B0E1B1
:10165000E5E0F3E00E94FC2F0E944320EAEBF9E66C
:101660000E944B20A0E0B0E1EEE6F3E00E94EC2FF8
:101670000E944320E4E2F9E60E944B200E9452209F
:101680000895E2E1F9E60E9435200E943C200E9484
:10169000F020ACE5B1E00E942F20E0E1F9E60E94E5
:1016A00035200E94F020A5E6B1E00E942F200E9484
:1016B0003C20E4E1F9E60E943520A5E3B0E08C91FE
:1016C00082FBA0E0B0E10E94C32E8D9388278C930B
:1016D0000E942D20E0E2F9E60E943520A0E0B0E172
:1016E000EDE1F3E00E94EC2F0E942D20E4E2F9E608
:1016F0000E9435200E943C20E6E2F9E60E94352057
:10170000A5E3B0E08C9183FBA0E0B0E10E94C32E82
:101710008D9388278C930E942D20E0E2F9E60E94A9
:101720003520A0E0B0E1EDE1F3E00E94EC2F0E9453
:101730002D20E4E2F9E60E9435200E943C20E2E3FD
:10174000F9E60E943520A5E3B0E08C9181FBA0E092
:10175000B0E10E94C32E8D9388278C930E942D2088
:10176000EAE3F9E60E943520A0E0B0E1E3E2F3E02D
:101770000E94F52F0E942D20ECE3F9E60E9435200F
:10178000A0E0B0E1E5E2F3E00E94F52F0E942D20F9
:10179000E4E2F9E60E9435200E943C20EEE3F9E6FF
:1017A0000E943520A5E3B0E08C9180FBA0E0B0E181
:1017B0000E94C32E8D9388278C930E942D20E0E1F8
:1017C000F9E60E943520AAE4B3E00E942F20ECE362
:1017D000F9E60E943520A3E5B3E00E942F20E8E45B
:1017E000F9E60E943520ACE5B3E00E942F20ECE33F
:1017F000F9E60E943520A5E6B3E00E942F200E9462
:101800003C20ECE4F9E60E943520A5E3B0E08C91A1
:1018100084FBA0E0B0E10E94C32E8D9388278C93B7
:101820000E942D20EAE3F9E60E943520A0E0B0E115
:10183000E9E3F3E0552744E00E9453210E942D2064
:10184000E4E2F9E60E9435200E943C20E8E5F9E652
:101850000E943520A5E3B0E08C9185FBA0E0B0E1CB
:101860000E94C32E8D9388278C930E942D200E9466
:101870003C20EEE5F9E60E943520A0E0B0E1EAE484
:10188000F0E00E94EC2F0E942D20E4E6F9E60E9491
:101890003520A0E0B0E1E9E8F3E00E94FC2F0E94CF
:1018A0002D20ECE6F9E60E943520A7E7B3E00E9480
:1018B0002F20ECE3F9E60E943520A0E0B0E1EAE851
:1018C000F3E00E94FC2F0E942D20ECE6F9E60E9436
:1018D0003520A0E8B3E00E942F200E943C20EEE6D5
:1018E000F9E60E943520A0E0B0E1E8E4F0E00E94D3
:1018F000EC2F0E942D20E4E6F9E60E943520A0E0BE
:10190000B0E1E0EAF3E00E94FC2F0E942D20ECE61B
:10191000F9E60E943520AEE8B3E00E942F20ECE308
:10192000F9E60E943520A0E0B0E1E1EAF3E00E9490
:10193000FC2F0E942D20ECE6F9E60E943520A7E955
:10194000B3E00E942F200E943C20E4E7F9E60E94C9
:101950003520A0E0B0E1E8E7F0E00E94EC2F0E9423
:101960002D20E4E6F9E60E943520A0E0B0E1E7EBA7
:10197000F3E00E94FC2F0E942D20ECE6F9E60E9485
:101980003520A5EAB3E00E942F20ECE3F9E60E949F
:101990003520A0E0B0E1E8EBF3E00E94FC2F0E94CC
:1019A0002D20ECE6F9E60E943520AEEAB3E00E9475
:1019B0002F200E943C20E2E1F9E60E9435200E949F
:1019C0003C20EAE7F9E60E943520A0E0B0E1E7E23A
:1019D000F3E0552744E00E9453210E942D20E0E8C7
:1019E000F9E60E943520A0E0B0E1EBEEF2E05527E9
:1019F00044E00E9453210E942D20E4E8F9E60E9471
:101A000035200E943C20E8E8F9E60E943520A0E05D
:101A1000B0E1E5E1F3E00E94F52F0E942D20E0E91E
:101A2000F9E60E9435200E943C20E4E9F9E60E9494
:101A30003520A0E0B0E1E6E0F3E00E94FC2F0E9438
:101A40002D2000910603003011F00C942D0DECE9CF
:101A5000F9E60E9435200E943C20009106030130E7
:101A600011F00C94390DE2E1F9E60E9435200E9454
:101A70003C20E0EAF9E60E943520A0E0B0E1E4E095
:101A8000F3E00E94FC2F0E942D20EAE3F9E60E9479
:101A90003520A0E0B0E1EBE1F3E00E94EC2F0E94E2
:101AA0002D20EAEAF9E60E9435200E943C20EEEA69
:101AB000F9E60E943520A0E0B0E1E5E0F3E00E9405
:101AC000FC2F0E942D20EAEBF9E60E943520A0E0D1
:101AD000B0E1EEE6F3E00E94EC2F0E942D20E4E25C
:101AE000F9E60E9435200E943C2008950091EA0208
:101AF0000A3018F011F00C947F0D0C94390E80E030
:101B00008093F902ABEEB2E0E6EFF7E60E94AB2E6F
:101B100080E08093EA02F8940E94A52010E90E94D8
:101B2000BB201CE90E94BB200E94B52081E080936D
:101B3000F8020091F8020A3F18F011F00C94CB0D56
:101B40000E94A52011E90E94BB200E94D820A5EF89
:101B5000B2E01C930E94D820A6EFB2E01C930E9432
:101B6000D820A7EFB2E01C930E94B520A7EFB2E007
:101B70000C9107FB16F40C94BF0D0C94CB0D81E077
:101B800090E00E948E20A8EFB2E08C918F5F8C9342
:101B900010F40C94990D0E94A52011E90E94BB201D
:101BA0000E94D820A5EFB2E01C930E94D820A6EF97
:101BB000B2E01C930E94D820A7EFB2E01C930E94D1
:101BC000B52078949091F5028091F602A3EFB2E0EF
:101BD0008D939C93EAE1F8E60E94D232E3EFF2E0C3
:101BE000D190E080FF2400270E948D310E94DD31DA
:101BF000EDE0F0E0AFEEB2E00E947930EEE1F8E621
:101C00000E94D232EFEEF2E00E9425310E9436327D
:101C1000EDE0F0E0AFEEB2E00E947930EFEEF2E0FE
:101C20000E942A31EBEEF2E00E9425310E948432BC
:101C3000EDE0F0E0ABEEB2E00E947930A9EFB2E067
:101C40008C918F5F8C930091F902053011F00C9408
:101C5000880DE2E2F8E60E94D232EBEEF2E00E945A
:101C600025310E94DD31EDE0F0E0ABEEB2E00E9404
:101C7000793008951C9A1D9A1B98E2ECF9E60E94AF
:101C80004B200E9452208CE3809337038CE10E940A
:101C900055200E94522084E690E00E948E20E2EFC0
:101CA000F9E60E944B20A0E0B0E1E7E3F3E00E94F8
:101CB000FC2F0E944320EAE1FAE60E944B200E949A
:101CC000522080913703815080933703E1E0F0E0A8
:101CD0000E945C2000913703003011F00C94460EF6
:101CE000ABE2B3E0E6EFF7E60E94AB2E80E0809334
:101CF000370384E18093EA020E94760D8AE090E047
:101D00000E948E20EBEEF2E00E942A31EBE2F3E03B
:101D10000E9425310E948432EDE0F0E0ABE2B3E0B6
:101D20000E947930A7E3B3E08C918F5F8C93009190
:101D300037030A3011F00C947C0EEEE0F8E60E94B6
:101D4000D232EBE2F3E00E9425310E94DD31EDE07A
:101D5000F0E0ABE2B3E00E947930E5E0F0E0ABE226
:101D6000B3E094E07BE70E949730E0E2FAE60E945D
:101D70004B20A0E0B0E1EBE2F3E0552744E00E9405
:101D800053210E944320E2E3FAE60E944B200E9486
:101D90005220E5E0F0E00E945C20E4E3FAE60E94D5
:101DA0004B200E94522084E1809337038CE10E94F3
:101DB00055200E94522084E690E00E948E20E2E5A9
:101DC000FAE60E944B20A0E0B0E1E7E3F3E00E94D6
:101DD000FC2F0E944320EAE1FAE60E944B200E9479
:101DE000522080913703815080933703E1E0F0E087
:101DF0000E945C2000913703003011F00C94D60E45
:101E0000E0E7FAE60E944B200E9452208CE3809388
:101E100037038CE10E9455200E94522084E690E016
:101E20000E948E20E0EAFAE60E944B20A0E0B0E19A
:101E3000E7E3F3E00E94FC2F0E944320EAE1FAE688
:101E40000E944B200E945220809137038150809342
:101E50003703E1E0F0E00E945C200091370300309E
:101E600011F00C94090FAFE2B3E0E6EFF7E60E9441
:101E7000AB2E80E08093370384E18093EA020E94D6
:101E8000760D8AE090E00E948E20EBEEF2E00E9458
:101E90002A31EFE2F3E00E9425310E948432EDE026
:101EA000F0E0AFE2B3E00E947930A7E3B3E08C91B9
:101EB0008F5F8C93009137030A3011F00C943F0F21
:101EC000EEE0F8E60E94D232EFE2F3E00E94253124
:101ED0000E94DD31EDE0F0E0AFE2B3E00E94793046
:101EE000E9E0F0E0AFE2B3E094E07BE70E949730F6
:101EF000EBE2F3E00E942A31EFE2F3E00E942531A9
:101F00000E947532EDE0F0E0A3E3B3E00E94793087
:101F1000E6EEF7E60E94D232E3E3F3E00E942531D9
:101F20000E94DD31EDE0F0E0A3E3B3E00E94793000
:101F3000E8ECFAE60E944B20A0E0B0E1EFE2F3E02B
:101F4000552744E00E9453210E944320E2E3FAE631
:101F50000E944B200E945220EAEDFAE60E944B209C
:101F6000A0E0B0E1E3E3F3E0552744E00E94532111
:101F70000E944320E2E3FAE60E944B200E94522096
:101F800081E080933803E1E1F0E0A8E3B3E07BE790
:101F90000E949430E5E0F0E00E945C208CE10E9419
:101FA00055200E94522084E690E00E948E20EEEEA2
:101FB000FAE60E944B200E945220E5E0F0E00E94E9
:101FC0005C2080E0809349031C981D981B980C941A
:101FD000E300EBE2F3E00E942A31EBEEF2E00E9434
:101FE00025310E947532EDE0F0E0A7E2B3E00E94F7
:101FF0007930E3E3F3E00E942A31E7E2F3E00E9464
:1020000025310E94DD31EDE0F0E0A7E2B3E00E946F
:102010007930E2E0F8E60E94D232E7E2F3E00E9493
:1020200025310E943632EDE0F0E0A7E2B3E00E94F5
:102030007930E6E2F8E60E94D232E7E2F3E00E946D
:1020400025310E948432EDE0F0E0A7E2B3E00E9487
:102050007930089507B1007E07B90E949A2EAAEF41
:10206000B2E08D939C9307B1007E016007B90E9496
:102070009A2EACEFB2E08D939C9307B1007E026084
:1020800007B90E949A2EAEEFB2E08D939C9307B1F0
:10209000007E036007B90E949A2EA0E0B3E08D9302
:1020A0009C9307B1007E046007B90E949A2EA2E0BB
:1020B000B3E08D939C93CA990C94611081E0809356
:1020C0000403CA9B0C94671080E080930403009182
:1020D0000403013011F00C947D10ABE1B3E08D915D
:1020E0009C91ADE1B3E08D939C931C9A1D9AE2E024
:1020F000F0E00E945C201C981D98C9990C948310F4
:1021000081E080930503C99B0C94891080E0809343
:10211000050300910503013011F00C947B1100912F
:102120007403003011F00C94FD1081E0809374036F
:10213000A9E8B3E04D915527AAE4B0E00D911C91B8
:102140000417150710F00C94A910AAE4B0E00E943F
:10215000182081E080938B03A0EAB3E04D915527CE
:10216000A8E4B0E00D911C910417150710F00C9431
:10217000BD10A8E4B0E00E94182081E08093A20383
:10218000A7EBB3E04D915527A8E7B0E00D911C9166
:102190000417150710F00C94D110A8E7B0E00E94C6
:1021A000182082E390E00E948E2083B198E0892776
:1021B00083B9A9E8B3E04D915527AAE4B0E00D91A9
:1021C0001C910417150711F00C949510A9E8B3E0C1
:1021D0008C9199279BBD8ABDA0EAB3E08C91992789
:1021E00099BD88BDA7EBB3E08C91992790937900B6
:1021F000809378001B980C94771100917403013040
:1022000011F00C94771180E080937403AAE8B3E096
:102210004D915527AAE4B0E00D911C9104171507C4
:1022200018F011F00C9416110C941A11AAE4B0E0F5
:102230000E941F2080E080938B03A1EAB3E04D91C0
:102240005527A8E4B0E00D911C910417150718F06C
:1022500011F00C942D110C943111A8E4B0E00E94FF
:102260001F2080E08093A203A8EBB3E04D91552797
:10227000A8E7B0E00D911C910417150718F011F0B4
:102280000C9444110C944811A8E7B0E00E941F2060
:1022900083B198E0892783B983B190E1892783B915
:1022A00082E390E00E948E20AAE8B3E04D9155278A
:1022B000AAE4B0E00D911C910417150711F00C94DD
:1022C00003111B981C98AAE8B3E08C9199279BBD39
:1022D0008ABDA1EAB3E08C91992799BD88BDA8EB8E
:1022E000B3E08C91992790937900809378008AEFDE
:1022F00090E00E948E209F9B0C94811180E080933F
:1023000006039F990C94871181E08093060308953A
:10231000009110030A3018F011F00C9491110C94F4
:10232000221280E080931003A3EBB1E08C9185FB37
:1023300016F40C94AF111D9AF89482E0E1E20E9429
:10234000D62E5CEC82E0E1E20E94FE2E54E482E0B4
:10235000E1E20E94FE2E78941D980C9415121D9AAD
:10236000F894A1E1B3E0E6EFF7E60E94AB2E82E03D
:10237000E1E20E94D62E5CEC82E0E1E20E94FE2EB9
:102380005EEB82E0E1E20E94FE2E82E0A7E0B3E095
:10239000E1E229E02A930E94262F82E0E1E20E94F6
:1023A000D62E789488E0E7E0F3E00E94EE30402FEC
:1023B00000910F03041711F00C941412EAE2F8E6EE
:1023C0000E94D232E7E0F3E0D190E0808FEFE7FEA9
:1023D0008827F82E082F0E94A5310E94DD31EDE0FC
:1023E000F0E0A1E1B3E00E947930EEE0F8E60E946F
:1023F000D232E1E1F3E00E9425310E943632EDE075
:10240000F0E0A1E1B3E00E947930E1E1F3E00E9465
:10241000B133EDE0F0E00E943531A5E1B3E0EE0C20
:10242000000FE794DD92EC921D98A3EBB1E08C9144
:1024300085FB882780F9809580FBA3EBB1E08C9128
:1024400085F98C930895809156010E946D20AEEA23
:10245000B1E08C93809157010E946D20ADEAB1E00C
:102460008C93809158010E946D20ACEAB1E08C936E
:10247000809159010E946D20AFEAB1E08C93809168
:102480005A010E946D20A0EBB1E08C9380915B011A
:102490000E946D20A1EBB1E08C93AEEAB1E08C918B
:1024A00080688C930E94A5201EED0E94BB2010E046
:1024B0000E94BB201091AE010E94BB201091AD0183
:1024C0000E94BB201091AC010E94BB200E94B5204D
:1024D0000E94A5201EED0E94BB2013E00E94BB209D
:1024E00019E00E94BB201091AF010E94BB20109107
:1024F000B0010E94BB201091B1010E94BB200E943C
:10250000B5200E94A5201EED0E94BB2017E00E946E
:10251000BB2010E40E94BB200E94B520E8E1FBE64E
:102520000E944B200E94F020A5E6B1E00E944520C9
:10253000E0E1F9E60E944B200E94F020ACE5B1E01A
:102540000E9445200E945220E1E0F0E00E945C20C1
:1025500008950E94A5201EED0E94BB2010E00E945D
:10256000BB200E94B5200E94A5201FED0E94BB2029
:102570000E94D820AEEAB1E01C930E94D820ADEAB8
:10258000B1E01C930E94D620ACEAB1E01C930E94FB
:10259000B5200E94A5201EED0E94BB2013E00E94E2
:1025A000BB200E94B5200E94A5201FED0E94BB20E9
:1025B0000E94D820A2EBB1E01C930E94D820AFEA81
:1025C000B1E01C930E94D820A0EBB1E01C930E94C4
:1025D000D620A1EBB1E01C930E94B5207091B3010D
:1025E0007F777093B301A2EBB1E00C9105FB16F07D
:1025F0000C9433137091B30170687093B301AEEA19
:10260000B1E08C918F778C93A0EBB1E08C918F7DB2
:102610008C939091AE010E947420A6E5B1E08C935A
:102620009091AD010E947420A7E5B1E08C93909148
:10263000AC010E947420A8E5B1E08C939091AF01A9
:102640000E947420A9E5B1E08C939091B0010E94A2
:102650007420AAE5B1E08C939091B1010E9474209E
:10266000ABE5B1E08C930E94F020E5E6F1E0A4EB4D
:10267000B1E00E94743008950895089508951C9A59
:10268000A1E2B0E00C9107FB81E00EF480E08F93B3
:1026900000911A03003081E009F080E09F918923C6
:1026A000882311F40C947213F894B89AC09AB89ACB
:1026B000C09AC39A0E947E200E944123ABEBB3E0F4
:1026C0009C9381E00E945A25A1ECB1E09C93789400
:1026D000E2E2FBE60E944B200E94522084EF91E050
:1026E0000E948E201C980895A1E2B0E00C9107FB97
:1026F00081E00EF480E08F9300911A03003081E0B6
:1027000009F080E09F918923882311F40C94F3133E
:102710001C9AA0E0B0E1EAE2FBE60E94942EA0E061
:10272000B0E10E946B260E94172BAEECB1E08C93B7
:10273000AFECB1E0EEE2FBE60E94942E8091CE0178
:10274000AFECB1E00E94C126A2E8B2E088278C93EA
:102750000E94F020ECE5F1E0A2E8B2E00E947430C3
:10276000A2E8B2E00E942620E8E3FBE60E94942E55
:102770000E94F020E5E6F1E0A2E8B2E00E94262007
:102780000E947430A2E8B2E00E942620E8E3FBE653
:102790000E94942EE6E3F2E0A2E8B2E00E94262036
:1027A0000E9474308091CE01A2E8B2E00E94F2262D
:1027B000A6E3B2E088278C93A2E8B2E088278C9346
:1027C000A0E0B0E1EAE3FBE60E94942EA0E0B0E1D5
:1027D0000E946B268091CE010E9430278091CE010D
:1027E0000E941E271C98089580E090E0A8EEB2E0B9
:1027F0008D939C93A1E2B0E00C9107FB81E00EF475
:1028000080E08F9300911A03003081E009F080E0AE
:102810009F918923882311F40C9469151C9AA0E0D8
:10282000B0E1EAE2FBE60E94942EA0E0B0E10E9453
:102830006B260E94172BAEECB1E08C93AFECB1E0AD
:10284000ECE3FBE60E94942E8091CE01AFECB1E068
:102850000E94C126A2E8B2E088278C930E94F02053
:10286000ECE5F1E0A2E8B2E00E947430A2E8B2E048
:102870000E942620E8E3FBE60E94942E0E94F020AE
:10288000E5E6F1E0A2E8B2E00E9426200E94743062
:10289000A2E8B2E00E942620E8E3FBE60E94942E24
:1028A000A5E3B0E08C9182FBA2E8B2E00E94262072
:1028B0000E94C32E8D9388278C93A2E8B2E00E94D9
:1028C0002620E8E3FBE60E94942EA5E3B0E08C917D
:1028D00083FBA2E8B2E00E9426200E94C32E8D93C3
:1028E00088278C93A2E8B2E00E942620E8E3FBE66A
:1028F0000E94942EA5E3B0E08C9181FBA2E8B2E0A7
:102900000E9426200E94C32E8D9388278C93A2E8D4
:10291000B2E00E942620E8E3FBE60E94942EA5E3A5
:10292000B0E08C9180FBA2E8B2E00E9426200E94D9
:10293000C32E8D9388278C93A2E8B2E00E942620B4
:10294000E8E3FBE60E94942EA5E3B0E08C9184FBC3
:10295000A2E8B2E00E9426200E94C32E8D93882711
:102960008C93A2E8B2E00E942620E8E3FBE60E94F6
:10297000942EA5E3B0E08C9185FBA2E8B2E00E9422
:1029800026200E94C32E8D9388278C93A2E8B2E064
:102990000E942620E8E3FBE60E94942EA2E8B2E023
:1029A0000E942620EAE4F0E00E94EC2FA2E8B2E0C8
:1029B0000E942620E8E3FBE60E94942EA2E8B2E003
:1029C0000E942620E8E4F0E00E94EC2FA2E8B2E0AA
:1029D0000E942620E8E3FBE60E94942EA2E8B2E0E3
:1029E0000E942620E8E4F0E00E94EC2FA2E8B2E08A
:1029F0000E942620E8E3FBE60E94942EA2E8B2E0C3
:102A00000E942620E7E2F3E0552744E00E9453218C
:102A1000A2E8B2E00E942620E8E3FBE60E94942EA2
:102A2000A2E8B2E00E942620E5E1F3E00E94F52F43
:102A3000A2E8B2E00E942620E8E3FBE60E94942E82
:102A4000A2E8B2E00E942620E6E0F3E00E94FC2F1C
:102A5000A2E8B2E00E942620E8E3FBE60E94942E62
:102A6000A2E8B2E00E942620E4E0F3E00E94FC2FFE
:102A7000A2E8B2E00E942620E8E3FBE60E94942E42
:102A8000A2E8B2E00E942620E5E0F3E00E94FC2FDD
:102A90008091CE01A2E8B2E00E94F226A6E3B2E065
:102AA00088278C93A2E8B2E088278C93A0E0B0E15D
:102AB000EAE3FBE60E94942EA0E0B0E10E946B26C0
:102AC0008091CE010E9430278091CE010E941E2766
:102AD0001C980895F894A1E2B0E00C9107FB81E006
:102AE0000EF480E08F9300911A03003081E009F02A
:102AF00080E09F918923882311F40C94EE1C1C9A8A
:102B0000E4E4FBE60E944B200E94522084EF91E017
:102B10000E948E20A0E0B0E1EAE2FBE60E94942E43
:102B2000A0E0B0E10E942F26A0E0B0E1EEE4FBE6D9
:102B30000E94942EA0E0B0E10E942F26A0E0B0E118
:102B4000E6E5FBE60E94942EA0E0B0E1EAEDF1E0BC
:102B50000E943B27AAEDB1E08C91803011F40C94D7
:102B60001E16E0E6FBE60E944B200E9452200E94C7
:102B7000172BAEECB1E08C93A0E0B0E1E6E5FBE60C
:102B80000E94942E8091CE01A0E0B0E10E94B42674
:102B90008091CE0194E1A2E8B1E00E94FF268091ED
:102BA000CE0194E1A7E9B1E00E94FF268091CE0119
:102BB0000E941E27A2E8B1E00E94D430082F0830FE
:102BC00081E009F080E08F93A7E9B1E00E94D43062
:102BD000082F083081E009F080E09F918923882345
:102BE00011F40C941E16E2E8F1E0A5E6B1E00E94B3
:102BF00074300E940321E7E9F1E0ACE5B1E00E9406
:102C000074300E94FB200E94231284E690E00E9410
:102C10008E200E94A912A3EBB1E08C9187FB16F0E5
:102C20000C941E16A0E0B0E1E6E5FBE60E94942EAF
:102C3000A0E0B0E10E94652A0E94C62BA0E0B0E1AE
:102C4000EAE3FBE60E94942EA0E0B0E10E946B262E
:102C50000E94172BAEECB1E08C93AFECB1E0ECE648
:102C6000FBE60E94942E8091CE01AFECB1E00E9471
:102C7000E0268091CE010E94052B08F409C0FA934A
:102C8000EA93E6E7FBE60E94C12D0E94BB2D229647
:102C90008091CE010E941E27A0E0B0E1EAE2FBE6AF
:102CA0000E94942EA0E0B0E10E946B260E94172B98
:102CB000AEECB1E08C93AFECB1E0EEE2FBE60E944B
:102CC000942E8091CE01AFECB1E00E94C126A6E324
:102CD000B2E088278C93A6E3B2E0EAEDF8E60E9422
:102CE000942EA6E3B2E00E942620E8E4F9E60E94D2
:102CF000942E0E94F020ECE5F1E0A6E3B2E00E9401
:102D000026200E947430A6E3B2E00E942620E8E468
:102D1000F9E60E94942E0E94F020E5E6F1E0A6E399
:102D2000B2E00E9426200E9474308091CE010E9461
:102D3000052B08F409C0FA93EA93E2E1F9E60E9450
:102D4000C12D0E94BB2D22968091CE010E94052BA1
:102D500008F40DC0FA93EA93E4ECF8E60E94C12D62
:102D6000A6E3B2E00E94AE2D0E94BB2D2296A6E300
:102D7000B2E088278C938091CE010E941E27A0E0AC
:102D8000B0E1EAE3FBE60E94942EA0E0B0E10E94ED
:102D90006B26A0E0B0E1EEE4FBE60E94942EA0E0FA
:102DA000B0E10E946B26A0E0B0E1E6E8FBE60E94FD
:102DB000942EA0E0B0E1EAEDF1E00E943B27AAEDFD
:102DC000B1E00E94D430A7EEB2E08C930091E7020C
:102DD000003011F00C9487190E94172BAEECB1E073
:102DE0008C93AFECB1E0E2E9FBE60E94942E809177
:102DF000CE01AFECB1E00E94E0268091CE010E94AE
:102E0000052B08F409C0FA93EA93EEE9FBE60E9469
:102E1000C12D0E94BB2D22968091CE010E94052BD0
:102E200008F409C0FA93EA93E6EBFBE60E94C12D91
:102E30000E94BB2D22968091CE010E94052B08F4A2
:102E400009C0FA93EA93E2E1F9E60E94C12D0E94DB
:102E5000BB2D22968091CE010E94052B08F409C05B
:102E6000FA93EA93EEEDFBE60E94C12D0E94BB2D82
:102E700022968091CE010E94052B08F409C0FA9396
:102E8000EA93E8EFFBE60E94C12D0E94BB2D22963B
:102E90008091CE010E94052B08F409C0FA93EA93B1
:102EA000E2E1FCE60E94C12D0E94BB2D229680919A
:102EB000CE010E94052B08F409C0FA93EA93ECE2D4
:102EC000FCE60E94C12D0E94BB2D22968091CE016E
:102ED0000E94052B08F409C0FA93EA93E0E4FCE6AB
:102EE0000E94C12D0E94BB2D22968091CE010E948E
:102EF000052B08F409C0FA93EA93E4E5FCE60E9486
:102F0000C12D0E94BB2D22968091CE010E94052BDF
:102F100008F409C0FA93EA93E6E7FCE60E94C12DA3
:102F20000E94BB2D22968091CE010E94052B08F4B1
:102F300009C0FA93EA93E8EFFBE60E94C12D0E94D4
:102F4000BB2D22968091CE010E94052B08F409C06A
:102F5000FA93EA93E2E1FCE60E94C12D0E94BB2DA8
:102F600022968091CE010E94052B08F409C0FA93A5
:102F7000EA93E0E9FCE60E94C12D0E94BB2D229657
:102F80008091CE010E94052B08F409C0FA93EA93C0
:102F9000E4EAFCE60E94C12D0E94BB2D229680919E
:102FA000CE010E94052B08F409C0FA93EA93E8EBDE
:102FB000FCE60E94C12D0E94BB2D22968091CE017D
:102FC0000E94052B08F409C0FA93EA93EAEDFCE6A7
:102FD0000E94C12D0E94BB2D22968091CE010E949D
:102FE000052B08F409C0FA93EA93E8EFFBE60E9488
:102FF000C12D0E94BB2D22968091CE010E94052BEF
:1030000008F409C0FA93EA93E2E1FCE60E94C12DBC
:103010000E94BB2D22968091CE010E94052B08F4C0
:1030200009C0FA93EA93E4EFFCE60E94C12D0E94E6
:10303000BB2D22968091CE010E94052B08F409C079
:10304000FA93EA93E8E0FDE60E94C12D0E94BB2DB1
:1030500022968091CE010E94052B08F409C0FA93B4
:10306000EA93ECE1FDE60E94C12D0E94BB2D229661
:103070008091CE010E94052B08F409C0FA93EA93CF
:10308000E2E1F9E60E94C12D0E94BB2D22968091BB
:10309000CE010E94052B08F409C0FA93EA93EEE3EF
:1030A000FDE60E94C12D0E94BB2D22968091CE018B
:1030B0000E94052B08F409C0FA93EA93E8E5FDE6BF
:1030C0000E94C12D0E94BB2D22968091CE010E94AC
:1030D000052B08F409C0FA93EA93E2E1F9E60E94AD
:1030E000C12D0E94BB2D22968091CE010E94052BFE
:1030F00008F409C0FA93EA93ECE7FDE60E94C12DBB
:103100000E94BB2D22968091CE010E94052B08F4CF
:1031100009C0FA93EA93E6E9FDE60E94C12D0E94F8
:10312000BB2D22968091CE010E94052B08F409C088
:10313000FA93EA93ECEAFDE60E94C12D0E94BB2DB2
:1031400022968091CE010E94052B08F409C0FA93C3
:10315000EA93E2ECFDE60E94C12D0E94BB2D22966F
:103160008091CE010E94052B08F409C0FA93EA93DE
:10317000E8EDFDE60E94C12D0E94BB2D22968091B4
:10318000CE010E94052B08F409C0FA93EA93E2E10C
:10319000F9E60E94C12D0E94BB2D22968091CE019E
:1031A0000E94052B08F409C0FA93EA93EEEEFDE6BF
:1031B0000E94C12D0E94BB2D22968091CE010E94BB
:1031C000052B08F409C0FA93EA93E8E0FEE60E94B2
:1031D000C12D0E94BB2D22968091CE010E94052B0D
:1031E00008F409C0FA93EA93E2E1F9E60E94C12DDE
:1031F0000E94BB2D22968091CE010E94052B08F4DF
:1032000009C0FA93EA93E0E2FEE60E94C12D0E9413
:10321000BB2D22968091CE010E94052B08F409C097
:10322000FA93EA93EAE3FEE60E94C12D0E94BB2DC9
:1032300022968091CE010E94052B08F409C0FA93D2
:10324000EA93E6E5FEE60E94C12D0E94BB2D229680
:103250008091CE010E94052B08F409C0FA93EA93ED
:10326000E2E1F9E60E94C12D0E94BB2D22968091D9
:10327000CE010E94052B08F409C0FA93EA93E2E715
:10328000FEE60E94C12D0E94BB2D22968091CE01A8
:103290000E94052B08F409C0FA93EA93EEE8FEE6D3
:1032A0000E94C12D0E94BB2D22968091CE010E94CA
:1032B000052B08F409C0FA93EA93E4EAFEE60E94BB
:1032C000C12D0E94BB2D22968091CE010E94052B1C
:1032D00008F409C0FA93EA93EAEBFEE60E94C12DD6
:1032E0000E94BB2D2296A0E0B0E1EAE3FBE60E943B
:1032F000942EA0E0B0E10E946B268091CE010E9446
:1033000030278091CE010E941E270C94B11C0091A1
:10331000E702003011F40C94B11C0E94172BAEECA4
:10332000B1E08C93AFECB1E0E2E9FBE60E94942EB1
:103330008091CE01AFECB1E00E94B4268091CE0125
:1033400098E2AFEEB1E00E94FF268091CE0198E2B4
:10335000AFEEB1E00E94FF268091CE0198E2AFEE81
:10336000B1E00E94FF268091CE0198E2AFEEB1E07D
:103370000E94FF26AFEEB1E088278C938091CE01AA
:1033800098E2AFEEB1E00E94FF26EFEEF1E003E03D
:10339000AFEEB1E00E948630AFEEB1E00E94423065
:1033A000A9E8B3E00C93E2E5F0E0A9E8B3E07BE73D
:1033B0000E9494308091CE0198E2AFEEB1E00E947D
:1033C000FF26EFEEF1E003E0AFEEB1E00E948630C1
:1033D000AFEEB1E00E944230AAE8B3E00C93E3E51F
:1033E000F0E0AAE8B3E07BE70E9494308091CE0140
:1033F00098E2AFEEB1E00E94FF26EFEEF1E008E0C8
:10340000AFEEB1E00E948630EFEEF1E0A7E7B3E067
:103410000E947430E0E4F0E0A7E7B3E07BE70E94AD
:10342000A5308091CE0198E2AFEEB1E00E94FF2678
:10343000EFEEF1E008E0AFEEB1E00E948630EFEE93
:10344000F1E0A0E8B3E00E947430E9E4F0E0A0E825
:10345000B3E07BE70E94A5308091CE0198E2AFEE09
:10346000B1E00E94FF26EFEEF1E004E0AFEEB1E044
:103470000E948630AFEEB1E00E944230AEE6B3E08B
:103480000D931C93EAE3F0E0AEE6B3E07BE70E9425
:1034900096308091CE0198E2AFEEB1E00E94FF2617
:1034A000AFEEB1E088278C938091CE0198E2AFEE29
:1034B000B1E00E94FF26EFEEF1E003E0AFEEB1E0F5
:1034C0000E948630AFEEB1E00E944230A0EAB3E045
:1034D0000C93E6E6F0E0A0EAB3E07BE70E949430CC
:1034E0008091CE0198E2AFEEB1E00E94FF26EFEEB0
:1034F000F1E003E0AFEEB1E00E948630AFEEB1E064
:103500000E944230A1EAB3E00C93E7E6F0E0A1EAC2
:10351000B3E07BE70E9494308091CE0198E2AFEE59
:10352000B1E00E94FF26EFEEF1E008E0AFEEB1E07F
:103530000E948630EFEEF1E0AEE8B3E00E94743016
:10354000E6E6F0E0A0EAB3E07BE70E9494308091E9
:10355000CE0198E2AFEEB1E00E94FF26EFEEF1E07F
:1035600008E0AFEEB1E00E948630EFEEF1E0A7E9AF
:10357000B3E00E947430EDE5F0E0A7E9B3E07BE74B
:103580000E94A5308091CE0198E2AFEEB1E00E949A
:10359000FF26EFEEF1E004E0AFEEB1E00E948630EE
:1035A000AFEEB1E00E944230A0E7B3E00D931C9370
:1035B000ECE3F0E0A0E7B3E07BE70E949630809177
:1035C000CE0198E2AFEEB1E00E94FF26AFEEB1E08F
:1035D00088278C938091CE0198E2AFEEB1E00E94F3
:1035E000FF26EFEEF1E003E0AFEEB1E00E9486309F
:1035F000AFEEB1E00E944230A7EBB3E00C93EAE7F4
:10360000F0E0A7EBB3E07BE70E9494308091CE011D
:1036100098E2AFEEB1E00E94FF26EFEEF1E003E0AA
:10362000AFEEB1E00E948630AFEEB1E00E944230D2
:10363000A8EBB3E00C93EBE7F0E0A8EBB3E07BE79B
:103640000E9494308091CE0198E2AFEEB1E00E94EA
:10365000FF26EFEEF1E008E0AFEEB1E00E94863029
:10366000EFEEF1E0A5EAB3E00E947430E8E6F0E0A6
:10367000A5EAB3E07BE70E94A5308091CE0198E2F5
:10368000AFEEB1E00E94FF26EFEEF1E008E0AFEE12
:10369000B1E00E948630EFEEF1E0AEEAB3E00E94C6
:1036A0007430E1E7F0E0AEEAB3E07BE70E94A530DA
:1036B0008091CE0198E2AFEEB1E00E94FF26EFEEDE
:1036C000F1E004E0AFEEB1E00E948630AFEEB1E091
:1036D0000E944230A2E7B3E00D931C93EEE3F0E0CA
:1036E000A2E7B3E07BE70E9496308091CE0198E29A
:1036F000AFEEB1E00E94FF268091CE0198E2AFEEDE
:10370000B1E00E94FF26AFEEB1E088278C93809154
:10371000CE0198E2AFEEB1E00E94FF26EFEEF1E0BD
:1037200003E0AFEEB1E00E948630AFEEB1E00E9460
:103730004230AFE1B3E00D931C93E3E0F0E0AFE182
:10374000B3E07BE70E9496308091CE0198E2AFEE25
:10375000B1E00E94FF268091CE0198E2AFEEB1E089
:103760000E94FF26AFEEB1E088278C938091CE01B6
:1037700098E2AFEEB1E00E94FF26EFEEF1E008E044
:10378000AFEEB1E00E948630EFEEF1E0AAE4B3E0E4
:103790000E947430E6E1F0E0AAE4B3E07BE70E9427
:1037A000A5308091CE0198E2AFEEB1E00E94FF26F5
:1037B000EFEEF1E008E0AFEEB1E00E948630EFEE10
:1037C000F1E0A3E5B3E00E947430EFE1F0E0A3E59F
:1037D000B3E07BE70E94A5308091CE0198E2AFEE86
:1037E000B1E00E94FF26EFEEF1E008E0AFEEB1E0BD
:1037F0000E948630EFEEF1E0ACE5B3E00E94743059
:10380000E8E2F0E0ACE5B3E07BE70E94A530809110
:10381000CE0198E2AFEEB1E00E94FF26EFEEF1E0BC
:1038200008E0AFEEB1E00E948630EFEEF1E0A5E6F1
:10383000B3E00E947430E1E3F0E0A5E6B3E07BE79B
:103840000E94A5308091CE0198E2AFEEB1E00E94D7
:10385000FF268091CE0198E2AFEEB1E00E94FF26F4
:10386000AFEEB1E088278C938091CE0198E2AFEE65
:10387000B1E00E94FF26EFEEF1E004E0AFEEB1E030
:103880000E948630AFEEB1E00E94DF32EDE0F0E062
:10389000A9E3B3E00E947930E2E1F0E0A9E3B3E00C
:1038A00094E07BE70E9497308091CE0198E2AFEEE2
:1038B000B1E00E94FF268091CE0198E2AFEEB1E028
:1038C0000E94FF26AFEEB1E088278C938091CE0155
:1038D00098E2AFEEB1E00E94FF26EFEEF1E003E0E8
:1038E000AFEEB1E00E948630AFEEB1E00E94423010
:1038F000ABE1B3E00D931C93E1E0F0E0ABE1B3E0AA
:103900007BE70E9496308091CE0198E2AFEEB1E065
:103910000E94FF26EFEEF1E001E0AFEEB1E00E9481
:103920008630AFEEB1E00E944230A9EBB3E00C93D9
:10393000ECE7F0E0A9EBB3E07BE70E9494308091E4
:10394000CE010E9430278091CE010E941E27A0E068
:10395000B0E1EAE3FBE60E94942EA0E0B0E10E9411
:103960006B260E94572EA6ECB1E00D931D932D936C
:103970003D930E944E2EAAECB1E00D931D932D9322
:103980003D93A6ECB1E00D911D912D913C91AAECD7
:10399000B1E04D915D916D917C910E94D42FA2EC8C
:1039A000B1E00D931D932D933D93ECECFEE60E9448
:1039B0004B20A0E0B0E1E2ECF1E00E94F22F0E9487
:1039C0004320E2EDFEE60E944B200E94522084EF4D
:1039D00091E00E948E201C980C94F71C0F9B0C9475
:1039E000F71CE6EDFEE60E944B200E945220E0EE1E
:1039F000FEE60E944B200E945220EEEEFEE60E9460
:103A00004B20A0E0B0E1E9E8F3E00E94FC2F0E9427
:103A100043200E945220E6EFFEE60E944B20A0E0E9
:103A2000B0E1EAE8F3E00E94FC2F0E9443200E94EC
:103A30005220E0E0FFE60E944B20A7E7B3E00E949F
:103A400045200E945220E8E0FFE60E944B20A0E8BB
:103A5000B3E00E9445200E945220E0E1FFE60E9470
:103A60004B20A0E0B0E1EEE6F3E00E94EC2F0E94D4
:103A700043200E945220E2E1F9E60E944B200E947E
:103A80005220E0E2FFE60E944B20A0E0B0E1E0EA35
:103A9000F3E00E94FC2F0E9443200E945220E8E2A3
:103AA000FFE60E944B20A0E0B0E1E1EAF3E00E94D3
:103AB000FC2F0E9443200E945220E2E3FFE60E9476
:103AC0004B20AEE8B3E00E9445200E945220EAE37A
:103AD000FFE60E944B20A7E9B3E00E9445200E9428
:103AE0005220E2E4FFE60E944B20A0E0B0E1E0E7D4
:103AF000F3E00E94EC2F0E9443200E945220E2E15A
:103B0000F9E60E944B200E945220E2E5FFE60E9467
:103B10004B20A0E0B0E1E7EBF3E00E94FC2F0E9415
:103B200043200E945220EAE5FFE60E944B20A0E0DD
:103B3000B0E1E8EBF3E00E94FC2F0E9443200E94DA
:103B40005220E4E6FFE60E944B20A5EAB3E00E9483
:103B500045200E945220ECE6FFE60E944B20AEEA90
:103B6000B3E00E9445200E945220E4E7FFE60E9455
:103B70004B20A0E0B0E1E2E7F3E00E94EC2F0E94CE
:103B800043200E945220E2E1F9E60E944B200E946D
:103B90005220E4E8FFE60E944B20A0E0B0E1EFE114
:103BA000F3E00E94F52F0E9443200E945220E2E1A0
:103BB000F9E60E944B200E945220EEE8FFE60E94A8
:103BC0004B20AAE4B3E00E944520ECE3F9E60E9412
:103BD0004B20A3E5B3E00E9445200E945220E8E973
:103BE000FFE60E944B20ACE5B3E00E944520ECE3E9
:103BF000F9E60E944B20A5E6B3E00E9445200E9412
:103C00005220E2E1F9E60E944B200E945220E2EAB3
:103C1000FFE60E944B20A0E0B0E1E9E3F3E0552786
:103C200044E00E9453210E9443200E945220E2E17E
:103C3000F9E60E944B200E945220E8EAFFE60E942B
:103C40004B20A0E0B0E1EBE1F3E00E94EC2F0E94FA
:103C50004320E8E3FBE60E944B20A0E0B0E1E9EB63
:103C6000F3E00E94FC2F0E9443200E9452200E94F9
:103C70005220EEEAFFE60E944B20A0E0B0E1EFE226
:103C8000F3E0552744E00E9453210E9443200E9404
:103C90005220EEEBFFE60E944B20A0E0B0E1EBE209
:103CA000F3E0552744E00E9453210E9443200E94E4
:103CB0005220EEECFFE60E944B20A0E0B0E1E3E3EF
:103CC000F3E0552744E00E9453210E9443200E94C4
:103CD0005220E5E0F0E00E945C2078940895A1E293
:103CE000B0E00C9107FB81E00EF480E08F9300912F
:103CF0001A03003081E009F080E09F918923882336
:103D000011F40C94D81E1C9AA0E0B0E1EAE2FBE6A4
:103D10000E94942EA0E0B0E10E946B260E94172B17
:103D2000AEECB1E08C93AFECB1E0E8EDFFE60E94C1
:103D3000942E8091CE01AFECB1E00E94B426809128
:103D4000CE0198E2AFEEB1E00E94FF26AFEEB1E007
:103D50000E942F200E943C20AFEEB1E088278C9378
:103D60008091CE010E942727AAE2B2E08C930091B5
:103D70002A02003011F40C949F1EE2EEFFE60E942E
:103D800035200E943C208091CE010E9430278091F6
:103D9000CE010E941E27A0E0B0E1EAE3FBE60E940C
:103DA000942EA0E0B0E10E946B261C980C94E11EBA
:103DB0000F9B0C94E11EE6EDFEE60E944B200E9454
:103DC00052200895A1E2B0E00C9107FB81E00EF4CF
:103DD00080E08F9300911A03003081E009F080E0C9
:103DE0009F918923882311F40C942D1F1C9AA0E025
:103DF000B0E1EAE2FBE60E94942EA0E0B0E10E946E
:103E00006B260E94172BAEECB1E08C93A0E0B0E1E2
:103E1000E8EDFFE60E94942EA0E0B0E10E94652A42
:103E20000E94C62B8091CE010E9430278091CE0146
:103E30000E941E27A0E0B0E1EAE3FBE60E94942E78
:103E4000A0E0B0E10E946B26E8EEFFE60E9435207C
:103E50000E943C201C980C94361F0F9B0C94361F1C
:103E6000E6EDFEE60E944B200E94522008950F923C
:103E70001F922F923F924F925F927F92AF92BF928A
:103E80000F931F932F933F934F935F936F937F9362
:103E90008F939F93AF93BF93CF93DF93EF93FF9352
:103EA0008FB78F93A4E3B1E0AD90BB24AEEFB0E049
:103EB000AA0DBB1D0C910D3011F00C94601F1B9AC4
:103EC0008F918FBFFF91EF91DF91CF91BF91AF9114
:103ED0009F918F917F916F915F914F913F912F9122
:103EE0001F910F91BF90AF907F905F904F903F9048
:103EF0002F901F900F90A2E3B1E00E94C62F08956B
:103F0000F8940F921F922F923F924F925F927F925E
:103F1000AF92BF920F931F932F933F934F935F9353
:103F20006F937F938F939F93AF93BF93CF93DF93C1
:103F3000EF93FF938FB78F93A5E5B1E0AD90BB24CE
:103F4000A3E3B1E0AA0DBB1D0C910D3011F00C9450
:103F5000BA1F1B9AA5E5B1E0AD90BB24A2E3B1E086
:103F6000AA0DBB1D0C91043611F00C94BA1F81E010
:103F700080934903A3E5B1E00E94C62F8F918FBFC4
:103F8000FF91EF91DF91CF91BF91AF919F918F9171
:103F90007F916F915F914F913F912F911F910F9161
:103FA000BF90AF907F905F904F903F902F901F9069
:103FB0000F90789408950F921F922F923F924F92F4
:103FC0005F927F92AF92BF920F931F932F933F9375
:103FD0004F935F936F937F938F939F93AF93BF9311
:103FE000CF93DF93EF93FF938FB78F9384E982BFD3
:103FF000ADEBB1E00E9418208F918FBFFF91EF9140
:10400000DF91CF91BF91AF919F918F917F916F91F0
:104010005F914F913F912F911F910F91BF90AF9062
:104020007F905F904F903F902F901F900F9018952A
:10403000ED91FC91EF5FFF4FFC93EE930895ED91AE
:10404000FC91E150F040FC93EE9308958F938D9195
:104050008823E9F711978F910895A0E0B0E18D9141
:10406000882311F00CD0FBCF08950E94A32E802D41
:1040700011F005D0FACF08958DE001D08AE05D9B64
:10408000FECF8CB90895A0E0B0E18D91882311F0A6
:104090000CD0FBCF08950E94A32E802D11F005D0E7
:1040A000FACF08958DE001D08AE000909B0005FED4
:1040B000FCCF80939C00089588EE93E02FD0319739
:1040C000D9F70895982F82958F70805D8D939F709A
:1040D000905D9D9388278C9308954AE0082F0E9455
:1040E000C4300295802B0895892F8F70905110F065
:1040F000865FFCCF08953197F1F70895B99ABB9880
:10410000C39ABA9AB89A8CE58DB90895089508951E
:10411000689462F80895E89462F80895EF93FF9325
:10412000EE27E82BE92B31F0EDECFAE03197F1F7CF
:104130000197D1F7FF91EF91089589988898919808
:10414000909808958998889803D0899A01D0889A80
:10415000EF93FF93EAE0F0E00E947B20FF91EF9164
:1041600008958898809BFECF0895899AF1DFF9DF42
:10417000EFDF8998EDCF0894111F01C0110F61F096
:1041800018F40000899802C0899A00C0E1DFE9DFD5
:10419000DFDF889ADDDFF2CF8998DADFE2DFD8DF70
:1041A000E8948199689462F8889AD2CF089401C003
:1041B0008894331F11E08998D4DF889481990894FA
:1041C000111F0FB6C5DF889AC3DF0FBEA8F737955A
:1041D00010F4899801C0899AC4DFBADF889AB8CFF1
:1041E0000E943C13ACE5B1E0E9E5F1E00E94432117
:1041F00033970C941F21ECE5F1E0A9E5B1E00E94B2
:1042000031210C943D13E5E6F1E0A6E5B1E00E9412
:104210000D210C943E13ADE0BB27868197810E944F
:10422000562F0D93838194810E94562F0D93808188
:1042300091810E94562F0D930895EDE0FF27828112
:104240000E944B2F8AE38D9381810E944B2F8AE33A
:104250008D9380810E944B2F88278C930895ADE029
:10426000BB27808191810E94562F0D938381948179
:104270000E94562F0D93868197810E94562F0D9391
:104280000895EDE0FF2780810E944B2F8FE28D93F0
:1042900081810E944B2F8FE28D9382810E944B2F50
:1042A00088278D9308950E9425310E947B3117FF46
:1042B00003C08DE28D931127003821F4E4E8F5E482
:1042C0000C94942E0F3741F4FF2019F4EAE7F5E43B
:1042D000F7CFE6E7F5E4F4CF4A934A934A935A932B
:1042E000BA93AA93BB270F5F02F5BB27802F0A95CD
:1042F0000E9485318D3E90F4E4EDF5E4A3E00E9448
:10430000D2320E940C31BB1FB0FF06C070970E94D2
:10431000D2320E9436323C96AA9589F7E0EDF5E458
:104320000E94D2320E94363222C0093058F1033145
:1043300078F10A3130F418E08BE192E9E8E8F5E42D
:104340002EC00A950E948531E8ECF5E4BFEFA3E0AA
:104350000E94D2320E940C31BB1FB0FD06C03896BD
:104360000E94D2320E9436323C97AA9589F7B095C6
:10437000BB0F0E947B31039513E08AEF99E0F8169A
:10438000090740F413E08BE094E0ECE9F5E407C0A2
:1043900016E001C0B39583E194E2E0E9F5E46A81B7
:1043A000BF3F19F4BB2711276260BD836A831C835A
:1043B000A881B98160E36D93A883B9836D93081BCD
:1043C0000195AA24BB246A816A7F002339F0F69400
:1043D000E794D794B794A7940A95F7CF19E00027EC
:1043E0000E94D232CC248FEF74E0AC14B206D30614
:1043F000E406F50630F0AC18B20AD30AE40AF50A6E
:1044000021F1881F7A9531F0569547953795279574
:10441000C794EBCF809522D041F0969508F7FE2CFB
:10442000ED2CDB2CBA2CAA24DBCF25D05D813C817E
:104430002B8170D0277021F02BD06CD0E8F301C015
:104440003CD04CD078D0269608958894881F7A95D1
:10445000E9F7809503D049F38827FCCF806360FD9E
:1044600006C0803311F0616002C0039561FD8D9339
:1044700060FD1A95089599278E919C9385338E91AE
:1044800008F083958A3308F080E38C93C0F7089591
:10449000732F720F61FF701B0AD01296785019F0BB
:1044A00050F38E9380E38E937150EAF70895A881BC
:1044B000B981A70F8827B81F089579E061FD700FB3
:1044C000F6DF48E0431B400F8AF381F399274A95B2
:1044D00069F38E91803351F79C93F9CF732F61FF6D
:1044E000701B7395A881B981EA2FFB2F11978191D9
:1044F000803361FF09F08D937A9511F48EE28D93EC
:1045000081918823C1F7772311F480E38D93882765
:104510008C930895889462FD0895002359F4A8812E
:10452000B9818C91803331F0552321F0539533506C
:104530006460089408955523E9F085E48D931AF496
:104540008DE28D935195652F660F560F5A3010F0FE
:1045500060E503D068E001D0DACF8FEF74E0561742
:1045600008F0561B881F7A9511F06695F8CF809554
:1045700080638D9308954E414E00496E66696E6961
:1045800074790000302E300000404B4C0020A10711
:10459000000050C3000088130000F4010000003246
:1045A0000000000500008000CCCCCC0C14AE47010C
:1045B0009CC42000DC460300E353000063080000B5
:1045C000D7000000150000001CC25367A5D4685333
:1045D0000024744915BE9A17CCBC8C2BBD37863588
:1045E000689401C0E8948F939F9396E600000000C2
:1045F0009A95E1F798948091510C9091520C1EF489
:10460000019708F401968093510C9093520C59F045
:1046100080914F0C9091500C019708F40196809373
:104620004F0C9093500C9F918F91089500E440E0BF
:1046300050E060E070E088C008E44AEA51E0F9CF59
:1046400009E482C00AE480C000E540E052E0F1CF16
:1046500001E57AC008E578C00AE7E9CF0DECE7CFBD
:1046600009EEE5CF09EE40E050E060E070E46CC098
:10467000C0D0702FBED0602FBCD0502FBAD0402FEA
:10468000B8C00E947E2000240ED100270093BA03F8
:10469000AED088EE93E0A6DF11F499EE16C1019733
:1046A000D1F70AE00F93A5D00F910A95D9F7BEDF95
:1046B000013069F000E4A0D000279ED000279CD0F4
:1046C00000279AD0002798D005E996D0DECFB4DF36
:1046D000013009F01FC0CCDF513011F44A3A11F01B
:1046E0009AEEF3C0BFDF003021F07CDFD9F79BEEFC
:1046F000ECC0B2DF003021F075DFD9F79CEEE5C0E9
:10470000B7DF84E08093BA0376FF1DC08CE080930E
:10471000BA0319C0A5DF023028F081E08093BA0304
:1047200001E404C082E08093BA0309EE0F937FDFB7
:1047300000230F9121F056DFC9F79DEEC6C084DF3C
:10474000002309F0A2CFBAC011E0003409F415E942
:10475000083409F417E807FF14C00F931F934F9311
:104760005F936F937F9307E762DF7F916F915F9114
:104770004F911F91802F0F910F77823010F0082FEB
:104780001EC035D02FDF31D01DD011F008EE17C07C
:1047900033D0072F31D0062F2FD0052F2DD0042F47
:1047A0002BD0012F29D02F9324E623D0189407FF74
:1047B00005C018DF11F02A95C1F798942F91009346
:1047C000BC0308950F938F939F9380E197E28093AA
:1047D000510C9093520C0DD00F3F19F001DFD9F717
:1047E00098949F918F910F910895C0980895C09AC1
:1047F00008950FEF01C000270FB90EB1001FE8F7B1
:104800000FB1089568D031F04ED03CD021DF0023A5
:1048100011F091EF5AC0EDDF0E3F21F0E3DED9F742
:1048200092EF53C092E08827E4DF01930197E1F70C
:10483000E0DFDFDF43C04FD031F035D023D00ADFD7
:10484000002311F095EF41C0BDDF11F096EF3DC0A0
:104850000EEFD2DF0D3F11F497EF37C092E08827BB
:104860000191CADF0197E1F7C4DFC3DFC2DF0F7137
:104870000093BD03053029F00093BC030695086F33
:1048800024C01CC04091BA0343FD08C044275D9179
:104890006D917D91550F661F771F08954D915D9124
:1048A0006D917D9108958F939F9380E29EE4809314
:1048B0004F0C9093500C9F918F91089598DF99DF42
:1048C000992788949093BB0308959F9390DF91DF7D
:1048D0009F910894F7CF9091BA03992392EE08958F
:1048E000EDCF91EEF2CF91EEF0CFF5DF29F0DBDFE7
:1048F000A7DE002319F096EE0C946524E0E0F0E1C9
:1049000078DF0E3F29F06EDEC9F797EE0C94652430
:1049100090E080E16EDF01930197E1F76ADF69DFE4
:10492000CDDFE0E0F0E19091BA03913081F0808139
:10493000807C803461F437813F73208511850027A6
:104940001F5F2F4F3F4F110F221F331F1AC03327F6
:104950002681237017810085007C005C1F4F2F4F3C
:10496000818583709285990F881F11F011D0F1F71E
:1049700085818F7086500CD0F1F7012F122F232FD5
:104980003327E881F981019311932193319308959D
:10499000000F111F221F331F8A9508959CDF29F0F5
:1049A00082DF4EDE002319F096EE0C946524E88138
:1049B000F9811FDF0E3F29F015DEC9F797EE0C9441
:1049C000652490E080E115DF01930197E1F711DFA5
:1049D00010DF74CF80DF29F066DF34DE002319F0AA
:1049E00096EE0C946524E881F98103DF0E3F29F0EF
:1049F000F9DDC9F797EE0C94652490E080E1F9DECB
:104A000001930197E1F7F5DEF4DE58CF64DF29F07A
:104A10004ADF22DE002319F096EE0C94652428DE8E
:104A2000E881F981719361935193419347CF53DFAB
:104A300029F039DF13DE002319F096EE0C9465247B
:104A4000E881F981D6DED5DE0E3F29F0CBDDC1F756
:104A500097EE0C94652490E080E4CBDE01930197FF
:104A6000E1F7C7DEC6DE2ACFE2ECF3E0ABE8B8E060
:104A7000992791931197E9F70895E894843059F0B4
:104A8000863049F08E3039F068948B3021F08C30CC
:104A900011F093E19EC30090C40300F80092C40398
:104AA00088940895E2E1F6E018D345555A4A09F48E
:104AB00008958FC38A93D8DFC9D3C0F091E1F2DFA4
:104AC000A8F088818823F9F0E2EDF5E08A9511F0ED
:104AD0007096FCCF80818F7721F434968081CDDF72
:104AE00038F48881823078F093E173C3219671C3E2
:104AF0008093C3033496AFE0B4E00CD3A7D388F31C
:104B000092E1D0DF98F38991EFE1F4E0E6D24050F2
:104B1000524094E1F9F4A2E2B4E0DCD2AFE0B4E0B8
:104B2000AFD2A5D2A5ECB3E0BFD2AAE2B4E0D0D216
:104B30004050504019F4A8E3B4E0ACD2EAECF3E002
:104B4000BDD2809124048093C90396E1882311F09B
:104B5000833008F03EC38DD281FD8BD2AEECB3E042
:104B6000A3D2A5E2B4E0B6D2A2EDB3E0B9D284E01C
:104B7000C7D27DD2A4EDB3E097D2AFE0B4E08AD241
:104B80000E94D42FB3D2E7E2F4E09DD2005010404F
:104B900019F4E4E3F4E079D20E94D42F8091210447
:104BA0008093D80395E18823A9F28695F0F791F6D2
:104BB000A3D157D2A9EDB3E077D20090C40300FA95
:104BC0008091C303882379F4E89486E00F5F164F41
:104BD0002040304010F068948BE88093C3039927FD
:104BE00090F99093C4033EF4A0E4B4E049D299D183
:104BF000AEECB3E059D282E08093DD03AEECB3E0DB
:104C00003FD2A5EEB3E050D2ABEEB3E04DD2E9C255
:104C10002497088319832A833B8308950881198187
:104C20002A813B81089580E1FF93EF9380628F9307
:104C3000A4D58F918387028F138F248B358BAE2F52
:104C4000BF2FE1E0F4E08BE066D213960E94292E9C
:104C500014960E94292EEAD2EF91FF91089535D43F
:104C600009F0BBC256D310F092E3B3C2ABD150F1FE
:104C70008AD2CEDFAED318F1D1DFD5DFCFDF0E94ED
:104C8000BD2CA1E0B4E08EE28D9380E29AE08D939A
:104C90009A95E9F7C3DFC7DFFF93EF9314D011F0C4
:104CA0002BD101C0D9D18EE280930204EF91FF9104
:104CB000B096B9DF0E94E42C10F00E94F52C8FB75B
:104CC00024968FBF0895A5EEB3E0DAD1AEECB3E041
:104CD000E1D10C94D92F8C918E32D1F4A5EEB3E0B2
:104CE000CFD1BDD2B09680818E3209F037C000900E
:104CF000C40300FA22273327028D138D16F424896A
:104D00003589F9D119F4AEECB3E01BC00AD11AC051
:104D10008C35C9F3DAD309F060C2FBD2F0F0838599
:104D20008F7CF1F40090C40322273327028D138D6A
:104D300000FE02C024893589F4D091D270F0AFE032
:104D4000B4E09ED1A5EEB3E0AFD1ABEEB3E0ACD111
:104D5000A9EEB3E081D1C7D144C2089595E339C229
:104D600096E337C264D448F0B0D331F48F9391E026
:104D700070D48F9110F035C230C28827089557D46F
:104D8000D8F0A3D3D1F48F9398E063D48F9120F41B
:104D9000923481F498E01FC0FA93EA93908D95FDC8
:104DA00007C0D5D18F9398940E94552D8F9108F00C
:104DB00017C222968827089408950FC238D448F065
:104DC00084D331F48F9392E0A3D48F9110F009C271
:104DD00004C2882708958F9396D48F9108F001C25A
:104DE0008827089512D450F0FA93EA930E94AE2DCA
:104DF00020F00E94BB2D08F0F3C1F9C108959F93E4
:104E000004D49F91D0F0FA93EA939F93BF93AF930A
:104E100049D4AF91BF919F9158F08D30B1F38A3052
:104E200029F0992391F38D939A95EFCF8894992740
:104E300080E08C938FB722968FBF0895E6D330F031
:104E4000FA93EA93FDD308F0CBC1D1C10895DDD325
:104E500028F0808D827009F08FEFC3C18FEF089525
:104E6000D4D340F0FA93EA9381E0C7D15ED508F03D
:104E7000B7C1BDC10895FF93EF9327D34AD258F02D
:104E8000FF93EF93E1E0F4E0AFEEB3E08CE043D1C9
:104E9000EF91FF918894AF91BF9130F488278C9364
:104EA000923409F49EC1089540D30E948030119736
:104EB0008EE28D9340D30E948030EDE0F4E0ABEFC2
:104EC000B3E086E028C1FF93EF93E6D2E4CF802FD2
:104ED000C8D09091D403891B982F839589279091EE
:104EE000D803892311F488940895C5D005D02ED015
:104EF00008F4089516D0F7CFE4EDF3E0D0D00E9487
:104F0000D42F72F08091D80380FD06C03695279586
:104F1000179507958695F8CF0E5F1F4F2F4F3F4F80
:104F200008958091D803025010402040304080FD09
:104F300006C0000F111F221F331F8695F8CFE4ED26
:104F4000F3E0ADD00C94CF2F0ED1D6DFA5ECB3E0BB
:104F5000A1D00090C40300FE04C0000F111F221F47
:104F6000331F0F93012F122F232F33270E94CF2F90
:104F700072D18F91E8F00090C40300FA9927880F4E
:104F8000991FE80FF91F222733270191119136F459
:104F9000219131913F7032976FEF7FE0329748EF68
:104FA0005FEF0417150716F42607370710F091E294
:104FB00010C117C151D002E0A02E44275527662703
:104FC000772704C0ADEDB3E05BD0AA243F932F93C5
:104FD0001F930F937F936F935F934F93AF92B6DFBF
:104FE000AF904F915F916F917F910F911F912F9192
:104FF0003F91A9EDB3E0CD90DD90ED90FD9010F4E0
:10500000913249F5C016D106E206F30618F1992748
:105010008191982B8191982B2EF48191982B8191DD
:105020008F70982B31F4A1FE0EC04F5F5F4F6F4F12
:105030007F4F802F912F15D09127969516F48027BA
:10504000880F00F7C3CF32970EF43297ADEDB3E07F
:105050002BD0C7C092E2BDC00027112722273327DB
:1050600008950F5F1F4F2F4F3F4F08955527662715
:1050700077270C94CF2F01501040204030400895E6
:105080000D911D912D913D910895019111912191C5
:10509000319108954D915D916D917D91089541916A
:1050A00051916191719108950D931D932D933D93AD
:1050B000089501931193219331930895419351934E
:1050C00061937193089522273327019111910895D7
:1050D000662777274D915D910895419151910895EB
:1050E0004D935D9308950D931D930895402F512F77
:1050F000622F732F089500501040204030400895D3
:10510000569547958A95E1F70895440F551F8A955E
:10511000E1F7089584E09F9391919D938A95E1F73B
:105120009F910895E881F9810895A881B981189621
:105130000895E881F9813C960895E881F9813896CF
:10514000B8CFE881F9813896A0CFF3DFB2CFF1DF95
:105150009CCFEFDFA4CFA881B9811C960895E88188
:10516000F98174960895FBDF90CFE881F981808DF5
:105170000895E881F98170960895FBDF86CFF9DF05
:105180008ECFF7DF96CF0090C40300FA8FEF8193A4
:1051900081931EF481938FE0819342C00090C403F9
:1051A00000FA0193119316F42193319339C0E881E9
:1051B000F98179960895D3DF7CCFA881B98154967F
:1051C00008950F900F900F900F900F900F900895EB
:1051D000229608949093C2030895882799E4F9CF02
:1051E0002296889490E0F6CF22968894089522968D
:1051F0000894089580EA01C084E8E881F9819F93CA
:10520000908D892B808F9F910895E881F9819F93DC
:10521000908D80958923808F9F91089588E0EDCFB0
:105220008091180688608093180608958091130471
:1052300088608093130408950E94022408F0D1CF5F
:10524000C8CF0E941B2408F0CCCFC3CFAFE0B4E09E
:10525000E4E1F4E0F1CF80E1A4E1B6E006C080E053
:10526000AFE0B4E002C0A9DF80E814DF0E94D92FCC
:1052700031F4E8941196EA2FFB2F1597B6CF9D9144
:10528000EA2FFB2F792F777E872B8E93149793FF2E
:1052900018C00F931F932F933F939F93AF93BF9388
:1052A000D0DFBF91AF919F91A8F094FF06C0AF935C
:1052B000BF93A5D3BF91AF9168F03F912F911F91FC
:1052C0000F91F2DED7DFEF93FF93B6DFFF91EF91FF
:1052D0006894089578CF49DF8670B1F44EDF0027D7
:1052E0001E7F442752E0C3DE4CDF3FDF867061F44F
:1052F0003ADFEDDD20F061DFB6DF38F088C29132B1
:1053000021F47ADF91E265CF91E063CFDED009F03E
:1053100065CFFA93EA93A5D008F469CF83858F30DF
:1053200099F0827C89F480818E3271F0853E61F043
:105330008030D1F0A881B9819C919F3311F09813EE
:1053400003C07BE0B5D0A1F0B09681E0480F25F70F
:105350008827581F5F934F930FD008F080DF4F913D
:105360005F91D0F6903C08F492E4E991F99131CF45
:10537000ADE0B4E0B5DE34CF0090C40300FC19C04A
:10538000A5EEB3E07DDEAEECB3E05F934F9382DE3B
:105390000E94D92F4F915F9161F4A2EDB3E06D911E
:1053A0007D914617570710F091E313CF0FD059DEC8
:1053B00018CF0CD03F932F931F930F9388DD08F0E5
:1053C00002CF0F911F912F913F910895AFE0B4E06C
:1053D00057CE4FD008F43CC08081853E81F18030AB
:1053E00071F1B09681E0480FBDF78827581F5F9391
:1053F0004F93C2DF08F033DF4F915F9168F791322E
:1054000039F55F934F9378DD3F932F931F930F935D
:10541000D9DDF8F0B8DE6ADE0F911F912F913F9130
:105420007F936F935F934F9391DD0F911F912F9116
:105430003F9180F4913281F4B1DE9FD2DDCFADE0B7
:10544000B4E04EDE1DDEA9EEB3E04ADE2DDEC9CEAD
:10545000C0CEB7CE93E2BDDEB8CEA881B981129698
:105460000AC044275527A5EEB3E006C0ABEFB3E072
:1054700002C0A9EEB3E02EDE03DE5A934A93EFDEBC
:1054800050F048814F70552785E03FDEE40FF51F4F
:1054900049915991A6CEABCEABEFB3E0ECDFFF93D1
:1054A000EF93EFEEF3E0FA93EA93EF91FF914CCF95
:1054B000FF93EF9381919D919F3311F0891711F420
:1054C0007A95C1F7EF91FF910895E1E0F4E08F93B1
:1054D000E89499277BE0AEF08D918A3219F48FE33E
:1054E00068940FC08E3239F4733011F4E894F3CF1E
:1054F00080E2689406C0803011F480E20CC00E9403
:10550000B32E81938F3309F49395743009F4E894A2
:105510007A9509F704C080E281937A95E9F780E0F3
:1055200081933C9799238F91089588E0F4DD389713
:1055300088278D930895389683E0EDDD3B97882783
:105540008D930895928D9D93938D9D930090C403A8
:1055500000FE05C094899D9395899D930895992790
:105560009D939D9308957C96D5DDB09708958823EB
:1055700011F49AE42ECE32E0E9E1F8E0E8942081DB
:10558000222329F4D6F0EE2EFF2E689416C0281799
:1055900071F1EF93FF938F9380F98F9386E03296AA
:1055A000ADE0B4E09ED38F9180FB8F91FF91EF919E
:1055B00021F41181192310FF1CC03A9519F0E65E01
:1055C000FD4FDDCFC6F4EE2DFF2D18D080839183E3
:1055D000EF93FF938F9386E03296AE2FBF2FEDE0CF
:1055E000F4E086E098DD8F91FF91EF91FACD95E49C
:1055F000F0CD96E4EECD94E4ECCD94DD09E1002409
:1056000001920A95E9F779970895882369F072E085
:10561000E9E1F8E09081981749F07A9519F0E65E93
:10562000FD4FF8CF93E4D5CD9AE4D3CD089580E82B
:10563000ECDF28F08395E1F791E48827CACDD1CD3E
:1056400071DD02C0E2DF20F081E0D7DD6ED1D5CF81
:1056500008958F939F935DDE7F918F91E8F0972F50
:105660006385692760FF03C0692760FD18C0FF9349
:10567000EF937DDFFA93EA93EF91FF9168F06BDD92
:1056800072DF53DD5FDF5DDD36DD39F04ADCEBDDF7
:1056900040F0BDD06ADDA8CD0895ACDDFBCF98E425
:1056A00098CDA5CDE881F9819181917251F1E88180
:1056B000F981808D81FD23C07096E7DC912F802FCA
:1056C000D0DC3497F6DCE881F9813C96E8DC0E9476
:1056D000D92F30F03896708172607193112704C011
:1056E000E881F981799619279170E80FF91F808177
:1056F000169521F08F93F9DD8F91089572CD91E089
:1057000068CD92E666CDFF93EF938F939F9311C080
:10571000FF93EF938F939F9339D058F4923451F5C0
:1057200008C0FF93EF938F939F93F3DD08F59234B6
:1057300009F54FDE00F121D09F918F91FF93EF93F8
:1057400016DFAF91BF91C0F0FA93EA93EF91FF910A
:105750009F938BE0E0DC9F91917090629D931296F5
:1057600078D2149676D262DD45DDE991F99139CD92
:1057700092E32FDD089427CD28CD85EE81938827ED
:105780009FE181939A95E9F7B097089509F025CDA7
:10579000C0DD80F183858F7D11F093E31ACDFF93F7
:1057A000EF9358D0EF91FF9128F1FF93EF9323D01F
:1057B000EF91FF9185EE808339DD22273327028D1B
:1057C000138D0090C40300FE02C02489358993DC48
:1057D00079F017D0BBDB80E08193819316F481933D
:1057E00081931EDDB0F7913221F4EED018F0FDC0A8
:1057F000FCC008940895EDE0F4E0A9EEB3E086E083
:105800006EC2E0E1FF27ADEDB3E084E068C29FDC4B
:10581000B6DC0E94D92FC2F0C9F02DDC732761F4E9
:10582000622751F45127569539F491DCA8DC0E9487
:10583000D42F84E0E2DCD5CC00E012E086E0E5DCA9
:10584000D0CC84E0DADCCDCC91E601C091E086E0FA
:10585000D4DCBFCC72E0E9E1F8E08081882351F02C
:10586000FF93EF933296ADE0B4E086E03AD2EF9149
:10587000FF9129F07A9529F0E65EFD4FEECF97E48F
:10588000A8CCAFCC70DC23DB28F06FDC81FFEBCC45
:1058900092DC91C09132F9F495DBE8F08FEF8193BF
:1058A00081930090C40300FE03C081938FE0819335
:1058B000B7DC0F931F932F933F9346DB3F912F91BC
:1058C0001F910F9130F4913221F48BDC67DC29DBDE
:1058D000DCCF93E27ECC089575DB30F18FEF8193BE
:1058E00081930090C40300FE03C081938FE08193F5
:1058F00097DC3F932F931F930F931FDCAEDD0F9127
:105900001F912F913F9180F0028F138F0090C4035D
:1059100000FE02C0248B358B89DC03DB4CDC9CDB76
:1059200030DC80E272DC889408951FDC83FF09C0BC
:1059300016DCAE2FBF2F34968081877F819381DC68
:10594000D0F013DC86FF18C087FF02C080FF14C0B0
:1059500084DD88F0AE2FBF2F1B968C9180628C93D4
:10596000519681E452DCF3DB9FDB1A9772D15EDC47
:105970003CD008F029C0089534CCD3DA8091D80304
:105980008F936DDC18F018D051DC88948F9190F0D3
:105990008A9529F0EFE0F4E078DB63DBF1CF40910A
:1059A000D8034A9531F0EFE0F4E06FDB041B64DBD1
:1059B00056CC17CC0895FBDB772792E080E07193FB
:1059C0000197E9F7F2500DCC80E1A4E1B6E0E8E1FF
:1059D000F6E0908193FF08958193BF93AF9331DCFC
:1059E000AF91BF9108F408950AC080E0AFE0B4E041
:1059F000E3E1F4E0908193FF0895819322CCE9ECF8
:105A0000F3E0819181FF08954ADB3ADBEA2FFB2F17
:105A100031960E94CF2FA1EEB3E046DB149711CC54
:105A2000E881F981092E9181902111F088940895DF
:105A300092E6CFCBE881F98191819A7279F1E88180
:105A4000F9818F93908D95FF06C046DF48F1B3DF53
:105A5000E881F981908D709618DBF12EE02E01DB44
:105A6000349727DBE881F9813C9619DB4017510711
:105A70006207730718F434971CDB92641F25986043
:105A8000E881F981789691939F2D9170EE0DF91F21
:105A90008F918193169531F048DFF4CE92E699CB41
:105AA0008F91089588940895E6DA332312F493E6EB
:105AB00090CB19F45ADB85FD94CB4BDB0E94D92F98
:105AC000C1F1A8F53F932F931F930F9367D05C2DDF
:105AD0006D2D7E2D4F9351DB61D045DB7F936F930E
