:100000000C94460018950000189500001895000003
:10001000189500001895000018950000189500002C
:10002000189500001895000018950000189500001C
:10003000189500001895000018950000189500000C
:100040000C94DC1F189500000C94612F189500008B
:1000500018950000189500001895000018950000EC
:1000600018950000189500001895000018950000DC
:1000700018950000189500000C94932F1895000017
:100080001895000018950000189500008FEF8DBF9F
:10009000C0E8E8E14E2E80E18EBFD0E1F0E15F2EB6
:1000A000A89584B7082E877F84BF88E1992781BDF2
:1000B00091BDEEEFFFE0A0E0B1E088278D9331978E
:1000C000E9F787E489B980E08093900088E18AB9F4
:1000D000662485E089B980E080939000599888E192
:1000E0008AB986E080939500579A8BE080939900B7
:1000F00080E08093980070919B007D7F70939B00BF
:1001000086E080939D0088E180939A0070919A0028
:10011000706870939A00BD9ABE9ABF9A89EA8FBDA3
:1001200082E08EBD82E08EBD80E090E09BBD8ABD06
:1001300080E090E099BD88BD80E090E090937900E8
:100140008093780087E083BF84E982BF77B77160CE
:1001500077BF87E083BF86E886B980E487B9139AC2
:10016000149A159AD198D99AD298DA9A8C981798A5
:100170001F9AA798A29AA39AA19AA09AA49AA59A1C
:1001800070E0709371007AE0709370000E949E207E
:10019000A5E4B3E0E4EEF7E60E94AC2E82E090E046
:1001A000A1E2B3E08D939C9384EF91E0A7E1B3E0EB
:1001B0008D939C9381E08093190380E080931A03D0
:1001C00078940E944E058CE291E0A5E1B3E08D9316
:1001D0009C9383E18093EA0282E380931003AAE870
:1001E000B3E08C9199279BBD8ABDA1EAB3E08C91C5
:1001F000992799BD88BDA8EBB3E08C91992790937E
:100200007900809378000E94700D0E94DA0F0E949E
:100210001B100E9479110E949A120E9478010E947C
:10022000E7010E94CB030E9431040E94E904ADEB78
:10023000B1E00D911C91043650E0150718F011F053
:100240000C9424010C945F0180E090E0ADEBB1E0F0
:100250008D939C93A0ECB1E08C918F5F8C930E9466
:10026000FD08A0E1B3E08C918F5F8C93AAEEB2E021
:100270008C918F5F8C93A8EEB2E00E941920ADE1C3
:10028000B3E00D911C91003050E0150718F011F00B
:100290000C944C010C945001ADE1B3E00E9420207D
:1002A000A8EEB2E00D911C910C3350E0150718F048
:1002B00011F00C945D010C945F010E94E513009114
:1002C000C001033018F011F00C9468010C946D011A
:1002D00080E08093C0010E943B0B009149030130F4
:1002E00011F00C9475010C94340E1B980C940301BE
:1002F000ADE1B3E00D911C91003050E0150781E0B5
:1003000009F080E08F93A5E3B0E00C9102FB81E05F
:100310000EF080E09F918923882311F40C949A01B8
:10032000A6E3B2E0E0E3F8E60E94952E0E94651392
:10033000AA98AB98ADE1B3E00D911C91003050E06C
:10034000150780E010F009F081E08F93A5E3B0E09D
:100350000C9102FB81E00EF480E09F9189238F9342
:10036000A5E3B0E00C9103FB81E00EF480E09F91E7
:100370008923882311F40C94E6010091B90300301D
:1003800011F00C94C5010C94E6010091B903013001
:1003900011F00C94D601A6E3B2E0E0E4F8E60E9486
:1003A000952E0E946513AA9A0C94E6010091B90358
:1003B000023011F00C94E601A6E3B2E0E0E5F8E6C5
:1003C0000E94952E0E946513AA9AAB9A0895E7E7BA
:1003D000F3E0A4EBB1E00E94DD3011F00C94F301E6
:1003E00081E080937403E0E8F3E0A4EBB1E00E94C5
:1003F000DD3011F00C94FF0180E080937403EEE88F
:10040000F3E0A4EBB1E00E94DD3011F00C940B029C
:1004100081E080938B03E7E9F3E0A4EBB1E00E9475
:10042000DD3011F00C94170280E080938B03E5EA35
:10043000F3E0A4EBB1E00E94DD3011F00C94230254
:1004400081E08093A203EEEAF3E0A4EBB1E00E9426
:10045000DD3011F00C942F0280E08093A203009114
:100460007403013081E009F080E08F93A9E8B3E0E4
:100470004D915527AAE4B0E00D911C910417150782
:1004800081E008F080E09F918923882311F40C9487
:100490007302AEE6B3E04D915C91A5E7B3E00D9138
:1004A0001C910417150710F00C945C02A5E7B3E04B
:1004B0000E9419200C947302AEE6B3E04D915C915A
:1004C000A5E7B3E00D911C910417150710F40C94E7
:1004D0007302AAE4B0E00E94192080E090E0A5E752
:1004E000B3E08D939C9300917403003081E009F098
:1004F00080E08F93AAE8B3E04D915527AAE4B0E0DD
:100500000D911C910417150780E010F009F081E0AF
:100510009F918923882311F40C94B802AEE6B3E0CE
:100520004D915C91A5E7B3E00D911C91041715075F
:1005300010F00C94A102A5E7B3E00E9419200C94DE
:10054000B802AEE6B3E04D915C91A5E7B3E00D9142
:100550001C910417150710F40C94B802AAE4B0E03B
:100560000E94202080E090E0A5E7B3E08D939C936B
:1005700000918B03013081E009F080E08F93A0EAC5
:10058000B3E04D915527A8E4B0E00D911C910417FC
:10059000150781E008F080E09F918923882311F4FA
:1005A0000C94FC02A0E7B3E04D915C91ACE8B3E0A1
:1005B0000D911C910417150710F00C94E502ACE89E
:1005C000B3E00E9419200C94FC02A0E7B3E04D9127
:1005D0005C91ACE8B3E00D911C910417150710F481
:1005E0000C94FC02A8E4B0E00E94192080E090E0A6
:1005F000ACE8B3E08D939C9300918B03003081E0D5
:1006000009F080E08F93A1EAB3E04D915527A8E46B
:10061000B0E00D911C910417150780E010F009F06F
:1006200081E09F918923882311F40C944103A0E772
:10063000B3E04D915C91ACE8B3E00D911C910417CF
:10064000150710F00C942A03ACE8B3E00E941920BF
:100650000C944103A0E7B3E04D915C91ACE8B3E0AA
:100660000D911C910417150710F40C944103A8E494
:10067000B0E00E94202080E090E0ACE8B3E08D93F1
:100680009C930091A203013081E009F080E08F93F8
:10069000A7EBB3E04D915527A8E7B0E00D911C9171
:1006A0000417150781E008F080E09F9189238823D3
:1006B00011F40C948503A2E7B3E04D915C91A3EA99
:1006C000B3E00D911C910417150710F00C946E0304
:1006D000A3EAB3E00E9419200C948503A2E7B3E0DB
:1006E0004D915C91A3EAB3E00D911C91041715079D
:1006F00010F40C948503A8E7B0E00E94192080E074
:1007000090E0A3EAB3E08D939C930091A2030030A4
:1007100081E009F080E08F93A8EBB3E04D9155277D
:10072000A8E7B0E00D911C910417150780E010F0C8
:1007300009F081E09F918923882311F40C94CA0366
:10074000A2E7B3E04D915C91A3EAB3E00D911C9157
:100750000417150710F00C94B303A3EAB3E00E944A
:1007600019200C94CA03A2E7B3E04D915C91A3EA6F
:10077000B3E00D911C910417150710F40C94CA03F3
:10078000A8E7B0E00E94202080E090E0A3EAB3E078
:100790008D939C930895AFE1B3E00D911C91A1E27C
:1007A000B3E04D915C91041B150BA3E2B3E00D93F4
:1007B0001C93AFE1B3E00D911C91A1E2B3E04D9128
:1007C0005C91040F151FA5E2B3E00D931C93A3E207
:1007D000B3E04D915C91A5E1B3E00D911C9104173C
:1007E000150781E014F009F080E08F93A5E3B0E0F5
:1007F0000C9101FB81E00EF480E09F918923882316
:1008000011F40C940C04A99AA6E3B2E0E4E6F8E62D
:100810000E94952E0E946513A5E2B3E04D915C9174
:10082000A5E1B3E00D911C910417150780E00CF0D1
:1008300081E08F93A5E3B0E00C9101FB81E00EF025
:1008400080E09F918923882311F40C943004A998A7
:10085000A6E3B2E0E4E7F8E60E94952E0E94651355
:100860000895E5E4F3E00E942B31E9E3F3E00E9410
:1008700026310E948532EDE0F0E0ADE3B3E00E9466
:100880007A30E5E4F3E00E942B31E9E3F3E00E94E3
:1008900026310E947632EDE0F0E0A1E4B3E00E9460
:1008A0007A30E7E2F3E00E942631EDE3F3E00E94C4
:1008B0002B310E940D3180E010F009F081E08F9320
:1008C000A5E3B0E00C9104FB81E00EF480E09F9181
:1008D00089238F93E7E2F3E00E942631E8EEF7E602
:1008E0000E94D3320E940D3180E010F009F081E0C7
:1008F0009F9189238F93E7E2F3E00E942631ECEE8B
:10090000F7E60E94D3320E940D3181E008F080E0CA
:100910009F918923882311F40C949704AC9AA6E341
:10092000B2E0E6E8F8E60E94952E0E946513E7E241
:10093000F3E00E942631E1E4F3E00E942B310E94B3
:100940000D3181E008F080E08F93A5E3B0E00C91D9
:1009500004FB81E00EF080E09F918923882311F44D
:100960000C94BB04AC98A6E3B2E0E4E9F8E60E947C
:10097000952E0E946513E7E2F3E00E942631E8EE2F
:10098000F7E60E94D3320E940D3181E008F080E04A
:100990008F93E7E2F3E00E942631ECEEF7E60E9447
:1009A000D3320E940D3180E010F009F081E09F9178
:1009B000892B8F93A5E3B0E00C9104FB81E00EF04E
:1009C00080E09F918923882311F40C94E804AC986B
:1009D0000895EAE4F3E0A4EBB1E00E94DD3081E0A9
:1009E00009F080E08F93A5E3B0E00C9100FB81E07B
:1009F0000EF480E09F918923882311F40C9409055B
:100A0000A89AA6E3B2E0E2EAF8E60E94952E0E94D8
:100A10006513E3E5F3E0A4EBB1E00E94DD3081E093
:100A200009F080E08F93A5E3B0E00C9100FB81E03A
:100A30000EF080E09F918923882311F40C942905FE
:100A4000A898A6E3B2E0E4EBF8E60E94952E0E9497
:100A50006513ECE5F3E0A4EBB1E00E94DD3011F0AA
:100A60000C943B05A89AA6E3B2E0E2EAF8E60E94FD
:100A7000952E0E946513E5E6F3E0A4EBB1E00E9439
:100A8000DD3011F00C944D05A898A6E3B2E0E4EB3C
:100A9000F8E60E94952E0E94651308951C9AA7E11E
:100AA000B3E08D919C910E948F201C981B9AA7E126
:100AB000B3E08D919C910E948F201B981D9AA7E115
:100AC000B3E08D919C910E948F201D9880E090E072
:100AD0009BBD8ABD80E090E099BD88BD80E090E03C
:100AE00090937900809378008CE10E9456200E94B8
:100AF000532084E690E00E948F20E6ECF8E60E9406
:100B00004C20A0E0B0E1ECEDF8E60E94952E0E94AA
:100B100044200E9453200091BF01013081E009F47C
:100B200080E08F9300911903003081E009F080E0AC
:100B30009F918923882311F40C94FA05F8941D9A47
:100B4000E4EEF8E60E944C200E94532084E20E94CA
:100B5000402084E20E94402084E20E944020E1E0A4
:100B6000F0E00E945D20EEEEF8E60E944C200E942C
:100B70005320E4EFF8E60E9436200E943D20E1E099
:100B8000F0E00E945D20EAEFF8E60E944C200E940F
:100B90005320EAEFF8E60E9436200E943D20E1E073
:100BA000F0E00E945D20E6E0F9E60E944C200E9401
:100BB0005320EEE0F9E60E9436208AE00E944020B1
:100BC000E1E0F0E00E945D201D987894A2E3B1E09E
:100BD0000E94C72FA3E5B1E00E94C72F81E0809358
:100BE000BF01E0E0F0E0AFEBB1E07BE70E949530C1
:100BF0000C9400060091BF01013011F00C94000626
:100C00000E949A12AFE2B3E0E9E0F0E094E00E94C3
:100C1000B430EFE2F3E00E942631E0EFF7E60E9405
:100C2000D3320E940D3181E008F080E08F93EFE233
:100C3000F3E00E942631E4EFF7E60E94D3320E94EF
:100C40000D3180E010F009F081E09F91892B8F93A6
:100C5000EFE2F3E00E942631E8EFF7E60E94D3329C
:100C60000E940D3181E009F080E09F91892B88235B
:100C700011F40C944906AFE2B3E0ECEFF7E60E9402
:100C8000AC2EE9E0F0E0AFE2B3E094E07BE70E9455
:100C90009830ABE2B3E0E5E0F0E094E00E94B430DD
:100CA000EBE2F3E00E942631E0EFF7E60E94D33258
:100CB0000E940D3181E008F080E08F93EBE2F3E0D9
:100CC0000E942631E4EFF7E60E94D3320E940D31F4
:100CD00080E010F009F081E09F91892B8F93EBE287
:100CE000F3E00E942631E8EFF7E60E94D3320E943B
:100CF0000D3181E009F080E09F91892B882311F468
:100D00000C949006ABE2B3E0E0E0F8E60E94AC2E73
:100D1000E5E0F0E0ABE2B3E094E07BE70E949830DE
:100D2000A3E3B3E0EDE0F0E094E00E94B430E3E34D
:100D3000F3E00E942631E4E0F8E60E94D3320E94FC
:100D40000D3181E008F080E08F93E3E3F3E00E944F
:100D50002631E8E0F8E60E94D3320E940D3180E0AF
:100D600010F009F081E09F91892B8F93E3E3F3E08A
:100D70000E942631E8EFF7E60E94D3320E940D313F
:100D800081E009F080E09F91892B882311F40C9475
:100D9000D706A3E3B3E0ECE0F8E60E94AC2EEDE06A
:100DA000F0E0A3E3B3E094E07BE70E949830A9E38E
:100DB000B3E0E2E1F0E094E00E94B430E9E3F3E074
:100DC0000E942631E0E1F8E60E94D3320E940D3104
:100DD00080E010F009F081E08F93E9E3F3E00E94F6
:100DE0002631E4E1F8E60E94D3320E940D3181E021
:100DF00008F080E09F91892B882311F40C940E0752
:100E0000A9E3B3E0E8E1F8E60E94AC2EE2E1F0E00D
:100E1000A9E3B3E094E07BE70E94983000911A03C5
:100E2000003011F00C9418070E9430130E945B15DB
:100E300000911A03013081E009F080E08F93A1E274
:100E4000B0E00C9107FB81E00EF480E09F91892BCC
:100E5000882311F40C94FB08E3E0F0E0AFE1B3E089
:100E60000E94B330AFE1B3E00D911C91003951E025
:100E7000150780E014F009F081E08F93AFE1B3E053
:100E80000D911C91043650E0150780E00CF481E0D0
:100E90009F91892B882311F40C945B078AEF90E0D3
:100EA000AFE1B3E08D939C93E3E0F0E0AFE1B3E01A
:100EB0007BE70E949730E6E1F0E0AAE4B3E098E037
:100EC0000E94BB30EFE1F0E0A3E5B3E098E00E94C0
:100ED000BB30E8E2F0E0ACE5B3E098E00E94BB3064
:100EE000E1E3F0E0A5E6B3E098E00E94BB30E1E08A
:100EF000F0E0ABE1B3E00E94B330ABE1B3E00D91C1
:100F00001C91043853E0150718F011F00C948A076F
:100F10000C9497078CE291E0ABE1B3E08D939C9346
:100F2000E1E0F0E0ABE1B3E07BE70E949730ECE773
:100F3000F0E0A9EBB3E00E94B1300091B9030230B8
:100F400018F011F00C94A6070C94B00780E0809381
:100F5000B903ECE7F0E0A9EBB3E07BE70E94953042
:100F6000EAE3F0E0AEE6B3E00E94B330AEE6B3E011
:100F70000D911C91043C59E0150780E010F009F038
:100F800081E08F93AEE6B3E00D911C91043650E002
:100F9000150781E008F080E09F91892B882311F4E8
:100FA0000C94DF0788EE93E0AEE6B3E08D939C935C
:100FB000EAE3F0E0AEE6B3E07BE70E949730ECE3D3
:100FC000F0E0A0E7B3E00E94B330A0E7B3E00D91FA
:100FD0001C91043C59E0150780E010F009F081E015
:100FE0008F93A0E7B3E00D911C91043650E01507F4
:100FF00081E008F080E09F91892B882311F40C9404
:101000000E0888EE93E0A0E7B3E08D939C93ECE3A9
:10101000F0E0A0E7B3E07BE70E949730EEE3F0E07A
:10102000A2E7B3E00E94B330A2E7B3E00D911C91B8
:10103000043C59E0150780E010F009F081E08F933F
:10104000A2E7B3E00D911C91043650E0150781E052
:1010500008F080E09F91892B882311F40C943D08BF
:1010600088EE93E0A2E7B3E08D939C93EEE3F0E08B
:10107000A2E7B3E07BE70E949730E0E4F0E0A7E767
:10108000B3E098E00E94BB30E9E4F0E0A0E8B3E010
:1010900098E00E94BB30E2E5F0E0A9E8B3E00E94EE
:1010A000B130E3E5F0E0AAE8B3E00E94B13000918E
:1010B0008A03043618F011F00C9460080C946A0846
:1010C00080E080938A03E3E5F0E0AAE8B3E07BE701
:1010D0000E949530E4E5F0E0AEE8B3E098E00E94CD
:1010E000BB30EDE5F0E0A7E9B3E098E00E94BB304B
:1010F000E6E6F0E0A0EAB3E00E94B130E7E6F0E017
:10110000A1EAB3E00E94B1300091A103043618F0C7
:1011100011F00C948D080C94970880E08093A10343
:10112000E7E6F0E0A1EAB3E07BE70E949530E8E66D
:10113000F0E0A5EAB3E098E00E94BB30E1E7F0E020
:10114000AEEAB3E098E00E94BB30EAE7F0E0A7EB3C
:10115000B3E00E94B130EBE7F0E0A8EBB3E00E940F
:10116000B1300091B803043618F011F00C94BA08AD
:101170000C94C40880E08093B803EBE7F0E0A8EBA0
:10118000B3E07BE70E949530A9E3B3E0E2E1F0E051
:1011900094E00E94B430E9E3F3E00E942631E8EEE7
:1011A000F7E60E94D3320E940D3181E008F080E022
:1011B0008F93E9E3F3E00E942631E0E1F8E60E9434
:1011C000D3320E940D3180E010F009F081E09F9150
:1011D000892B882311F40C94FB08A9E3B3E0E8E120
:1011E000F8E60E94AC2EE2E1F0E0A9E3B3E094E07F
:1011F0007BE70E949830089508958CE10E94562064
:101200000E94532084E690E00E948F200E94F120EB
:10121000ACE5B1E00E944620E2E1F9E60E944C20F4
:101220000E94F120A5E6B1E00E9446200E945320D2
:10123000E4E1F9E60E944C200E945320E6E1F9E641
:101240000E944C20A5E3B0E08C9182FBA0E0B0E1CD
:101250000E94C42E8D9388278C930E944420E2E242
:10126000F9E60E944C20A0E0B0E1EDE1F3E00E943D
:10127000ED2F0E944420E6E2F9E60E944C200E94F5
:101280005320E8E2F9E60E944C20A5E3B0E08C91FF
:1012900083FBA0E0B0E10E94C42E8D9388278C933D
:1012A0000E944420E2E2F9E60E944C20A0E0B0E176
:1012B000EDE1F3E00E94ED2F0E944420E6E2F9E622
:1012C0000E944C200E945320E4E3F9E60E944C2047
:1012D000A5E3B0E08C9181FBA0E0B0E10E94C42EB8
:1012E0008D9388278C930E944420ECE3F9E60E94BA
:1012F0004C20A0E0B0E1E3E2F3E00E94F62F0E9470
:101300004420EEE3F9E60E944C20A0E0B0E1E5E2E3
:10131000F3E00E94F62F0E944420E6E2F9E60E94E4
:101320004C200E945320E0E4F9E60E944C20A5E303
:10133000B0E08C9180FBA0E0B0E10E94C42E8D93C0
:1013400088278C930E944420E2E1F9E60E944C2019
:10135000AAE4B3E00E944620EEE3F9E60E944C20A6
:10136000A3E5B3E00E944620EAE4F9E60E944C209F
:10137000ACE5B3E00E944620EEE3F9E60E944C2083
:10138000A5E6B3E00E9446200E945320EEE4F9E671
:101390000E944C20A5E3B0E08C9184FBA0E0B0E17A
:1013A0000E94C42E8D9388278C930E944420ECE3E6
:1013B000F9E60E944C20A0E0B0E1E9E3F3E0552714
:1013C00044E00E9454210E944420E6E2F9E60E9493
:1013D0004C200E945320EAE5F9E60E944C20A5E348
:1013E000B0E08C9185FBA0E0B0E10E94C42E8D930B
:1013F00088278C930E9444200E945320E0E6F9E65F
:101400000E944C20A0E0B0E1EAE4F0E00E94ED2F61
:101410000E944420E6E6F9E60E944C20A0E0B0E1FC
:10142000E9E8F3E00E94FD2F0E944420EEE6F9E691
:101430000E944C20A7E7B3E00E944620EEE3F9E6C5
:101440000E944C20A0E0B0E1EAE8F3E00E94FD2F0A
:101450000E944420EEE6F9E60E944C20A0E8B3E0AA
:101460000E9446200E945320E0E7F9E60E944C20AB
:10147000A0E0B0E1E8E4F0E00E94ED2F0E944420FB
:10148000E6E6F9E60E944C20A0E0B0E1E0EAF3E0F5
:101490000E94FD2F0E944420EEE6F9E60E944C20B7
:1014A000AEE8B3E00E944620EEE3F9E60E944C204D
:1014B000A0E0B0E1E1EAF3E00E94FD2F0E944420A9
:1014C000EEE6F9E60E944C20A7E9B3E00E94462030
:1014D0000E945320E6E7F9E60E944C20A0E0B0E12C
:1014E000E8E7F0E00E94ED2F0E944420E6E6F9E6EE
:1014F0000E944C20A0E0B0E1E7EBF3E00E94FD2F5A
:101500000E944420EEE6F9E60E944C20A5EAB3E0F2
:101510000E944620EEE3F9E60E944C20A0E0B0E1F4
:10152000E8EBF3E00E94FD2F0E944420EEE6F9E68E
:101530000E944C20AEEAB3E00E9446200E94532055
:10154000E4E1F9E60E944C200E945320ECE7F9E622
:101550000E944C20A0E0B0E1E7E2F3E0552744E030
:101560000E9454210E944420E2E8F9E60E944C20A7
:10157000A0E0B0E1EBEEF2E0552744E00E945421F8
:101580000E944420E6E8F9E60E944C200E94532085
:10159000EAE8F9E60E944C20A0E0B0E1E5E1F3E0E2
:1015A0000E94F62F0E944420E2E9F9E60E944C20B6
:1015B0000E945320E6E9F9E60E944C20A0E0B0E149
:1015C000E6E0F3E00E94FD2F0E9444200091060314
:1015D000003011F00C94F20AEEE9F9E60E944C207A
:1015E0000E94532000910603013011F00C94FE0A72
:1015F000E4E1F9E60E944C200E945320E2EAF9E679
:101600000E944C20A0E0B0E1E4E0F3E00E94FD2F56
:101610000E944420ECE3F9E60E944C20A0E0B0E1F7
:10162000EBE1F3E00E94ED2F0E944420ECEAF9E6A2
:101630000E944C200E945320E0EBF9E60E944C20CF
:10164000A0E0B0E1E5E0F3E00E94FD2F0E9444201D
:10165000ECEBF9E60E944C20A0E0B0E1EEE6F3E00E
:101660000E94ED2F0E944420E6E2F9E60E944C2001
:101670000E9453200895E4E1F9E60E9436200E947A
:101680003D200E94F120ACE5B1E00E943020E2E173
:10169000F9E60E9436200E94F120A5E6B1E00E9402
:1016A00030200E943D20E6E1F9E60E943620A5E3C5
:1016B000B0E08C9182FBA0E0B0E10E94C42E8D933B
:1016C00088278C930E942E20E2E2F9E60E943620C1
:1016D000A0E0B0E1EDE1F3E00E94ED2F0E942E20AA
:1016E000E6E2F9E60E9436200E943D20E8E2F9E6B3
:1016F0000E943620A5E3B0E08C9183FBA0E0B0E12E
:101700000E94C42E8D9388278C930E942E20E2E2A3
:10171000F9E60E943620A0E0B0E1EDE1F3E00E949E
:10172000ED2F0E942E20E6E2F9E60E9436200E946C
:101730003D20E4E3F9E60E943620A5E3B0E08C9179
:1017400081FBA0E0B0E10E94C42E8D9388278C938A
:101750000E942E20ECE3F9E60E943620A0E0B0E1E2
:10176000E3E2F3E00E94F62F0E942E20EEE3F9E67A
:101770000E943620A0E0B0E1E5E2F3E00E94F62FFF
:101780000E942E20E6E2F9E60E9436200E943D20CB
:10179000E0E4F9E60E943620A5E3B0E08C9180FBFE
:1017A000A0E0B0E10E94C42E8D9388278C930E9404
:1017B0002E20E2E1F9E60E943620AAE4B3E00E947E
:1017C0003020EEE3F9E60E943620A3E5B3E00E9464
:1017D0003020EAE4F9E60E943620ACE5B3E00E944E
:1017E0003020EEE3F9E60E943620A5E6B3E00E9441
:1017F00030200E943D20EEE4F9E60E943620A5E369
:10180000B0E08C9184FBA0E0B0E10E94C42E8D93E7
:1018100088278C930E942E20ECE3F9E60E94362064
:10182000A0E0B0E1E9E3F3E0552744E00E94542151
:101830000E942E20E6E2F9E60E9436200E943D201A
:10184000EAE5F9E60E943620A5E3B0E08C9185FB3D
:10185000A0E0B0E10E94C42E8D9388278C930E9453
:101860002E200E943D20E0E6F9E60E943620A0E00E
:10187000B0E1EAE4F0E00E94ED2F0E942E20E6E6BF
:10188000F9E60E943620A0E0B0E1E9E8F3E00E942A
:10189000FD2F0E942E20EEE6F9E60E943620A7E7F3
:1018A000B3E00E943020EEE3F9E60E943620A0E08B
:1018B000B0E1EAE8F3E00E94FD2F0E942E20EEE660
:1018C000F9E60E943620A0E8B3E00E9430200E9492
:1018D0003D20E0E7F9E60E943620A0E0B0E1E8E430
:1018E000F0E00E94ED2F0E942E20E6E6F9E60E942D
:1018F0003620A0E0B0E1E0EAF3E00E94FD2F0E9474
:101900002E20EEE6F9E60E943620AEE8B3E00E9413
:101910003020EEE3F9E60E943620A0E0B0E1E1EAF3
:10192000F3E00E94FD2F0E942E20EEE6F9E60E94D1
:101930003620A7E9B3E00E9430200E943D20E6E770
:10194000F9E60E943620A0E0B0E1E8E7F0E00E946E
:10195000ED2F0E942E20E6E6F9E60E943620A0E058
:10196000B0E1E7EBF3E00E94FD2F0E942E20EEE6AF
:10197000F9E60E943620A5EAB3E00E943020EEE3AB
:10198000F9E60E943620A0E0B0E1E8EBF3E00E9427
:10199000FD2F0E942E20EEE6F9E60E943620AEEAE8
:1019A000B3E00E9430200E943D20E4E1F9E60E946D
:1019B00036200E943D20ECE7F9E60E943620A0E0A8
:1019C000B0E1E7E2F3E0552744E00E9454210E9491
:1019D0002E20E2E8F9E60E943620A0E0B0E1EBEE2E
:1019E000F2E0552744E00E9454210E942E20E6E8B0
:1019F000F9E60E9436200E943D20EAE8F9E60E94BE
:101A00003620A0E0B0E1E5E1F3E00E94F62F0E946D
:101A10002E20E2E9F9E60E9436200E943D20E6E908
:101A2000F9E60E943620A0E0B0E1E6E0F3E00E9493
:101A3000FD2F0E942E2000910603003011F00C941F
:101A4000270DEEE9F9E60E9436200E943D20009124
:101A50000603013011F00C94330DE4E1F9E60E9425
:101A600036200E943D20E2EAF9E60E943620A0E0FE
:101A7000B0E1E4E0F3E00E94FD2F0E942E20ECE3B1
:101A8000F9E60E943620A0E0B0E1EBE1F3E00E942D
:101A9000ED2F0E942E20ECEAF9E60E9436200E94EB
:101AA0003D20E0EBF9E60E943620A0E0B0E1E5E061
:101AB000F3E00E94FD2F0E942E20ECEBF9E60E943D
:101AC0003620A0E0B0E1EEE6F3E00E94ED2F0E94A8
:101AD0002E20E6E2F9E60E9436200E943D2008957D
:101AE0000091EA020A3018F011F00C94790D0C9470
:101AF000330E80E08093F902ABEEB2E0E8EFF7E658
:101B00000E94AC2E80E08093EA02F8940E94A62006
:101B100010E90E94BC201CE90E94BC200E94B62053
:101B200081E08093F8020091F8020A3F18F011F06A
:101B30000C94C50D0E94A62011E90E94BC200E94B1
:101B4000D920A5EFB2E01C930E94D920A6EFB2E005
:101B50001C930E94D920A7EFB2E01C930E94B620EC
:101B6000A7EFB2E00C9107FB16F40C94B90D0C949E
:101B7000C50D81E090E00E948F20A8EFB2E08C912B
:101B80008F5F8C9310F40C94930D0E94A62011E9A2
:101B90000E94BC200E94D920A5EFB2E01C930E94B5
:101BA000D920A6EFB2E01C930E94D920A7EFB2E0A3
:101BB0001C930E94B62078949091F5028091F602D1
:101BC000A3EFB2E08D939C93ECE1F8E60E94D33250
:101BD000E3EFF2E0D190E080FF2400270E948E31F5
:101BE0000E94DE31EDE0F0E0AFEEB2E00E947A302C
:101BF000E0E2F8E60E94D332EFEEF2E00E942631F6
:101C00000E943732EDE0F0E0AFEEB2E00E947A30B1
:101C1000EFEEF2E00E942B31EBEEF2E00E94263173
:101C20000E948532EDE0F0E0ABEEB2E00E947A3047
:101C3000A9EFB2E08C918F5F8C930091F90205308F
:101C400011F00C94820DE4E2F8E60E94D332EBEE40
:101C5000F2E00E9426310E94DE31EDE0F0E0ABEED2
:101C6000B2E00E947A3008951C9A1D9A1B98E4EC09
:101C7000F9E60E9436200E943D208CE380933703D2
:101C8000E4EFF9E60E943620A0E0B0E1E7E3F3E0FC
:101C90000E94FD2F0E942E20ECE1FAE60E943620E1
:101CA0000E943D2080913703815080933703E1E00B
:101CB000F0E00E945D2000913703003011F00C9499
:101CC000400EABE2B3E0E8EFF7E60E94AC2E80E016
:101CD0008093370384E18093EA020E94700D8AE0CA
:101CE00090E00E948F20EBEEF2E00E942B31EBE2BD
:101CF000F3E00E9426310E948532EDE0F0E0ABE295
:101D0000B3E00E947A30A7E3B3E08C918F5F8C93AD
:101D1000009137030A3011F00C946D0EE0E1F8E603
:101D20000E94D332EBE2F3E00E9426310E94DE31C2
:101D3000EDE0F0E0ABE2B3E00E947A30E5E0F0E005
:101D4000ABE2B3E094E07BE70E949830E2E2FAE68F
:101D50000E943620A0E0B0E1EBE2F3E0552744E03A
:101D60000E9454210E942E20E4E3FAE60E943620CD
:101D70000E943D20E5E0F0E00E945D20E6E3FAE607
:101D80000E9436200E943D2084E1809337038CE13D
:101D90000E9440200E943D2084E690E00E948F2017
:101DA000E4E5FAE60E943620A0E0B0E1E7E3F3E0E4
:101DB0000E94FD2F0E942E20ECE1FAE60E943620C0
:101DC0000E943D2080913703815080933703E1E0EA
:101DD000F0E00E945D2000913703003011F00C9478
:101DE000C70EE2E7FAE60E9436200E943D208CE30F
:101DF000809337038CE10E9440200E943D2084E6BE
:101E000090E00E948F20E2EAFAE60E943620A0E0ED
:101E1000B0E1E7E3F3E00E94FD2F0E942E20ECE109
:101E2000FAE60E9436200E943D20809137038150BF
:101E300080933703E1E0F0E00E945D2000913703DA
:101E4000003011F00C94FA0EAFE2B3E0E8EFF7E6E1
:101E50000E94AC2E80E08093370384E18093EA02F5
:101E60000E94700D8AE090E00E948F20EBEEF2E07D
:101E70000E942B31EFE2F3E00E9426310E9485326E
:101E8000EDE0F0E0AFE2B3E00E947A30A7E3B3E028
:101E90008C918F5F8C93009137030A3011F00C9472
:101EA000300FE0E1F8E60E94D332EFE2F3E00E9467
:101EB00026310E94DE31EDE0F0E0AFE2B3E00E94B7
:101EC0007A30E9E0F0E0AFE2B3E094E07BE70E9433
:101ED0009830EBE2F3E00E942B31EFE2F3E00E9456
:101EE00026310E947632EDE0F0E0A3E3B3E00E94F9
:101EF0007A30E8EEF7E60E94D332E3E3F3E00E94A3
:101F000026310E94DE31EDE0F0E0A3E3B3E00E9471
:101F10007A30EAECFAE60E943620A0E0B0E1EFE287
:101F2000F3E0552744E00E9454210E942E20E4E370
:101F3000FAE60E9436200E943D20ECEDFAE60E946F
:101F40003620A0E0B0E1E3E3F3E0552744E00E944F
:101F500054210E942E20E4E3FAE60E9436200E94DB
:101F60003D2081E080933803E1E1F0E0A8E3B3E0B5
:101F70007BE70E949530E5E0F0E00E945D208CE177
:101F80000E9440200E943D2084E690E00E948F2025
:101F9000E0EFFAE60E9436200E943D20E5E0F0E006
:101FA0000E945D2080E0809349031C981D981B9837
:101FB0000C94E300EBE2F3E00E942B31EBEEF2E055
:101FC0000E9426310E947632EDE0F0E0A7E2B3E015
:101FD0000E947A30E3E3F3E00E942B31E7E2F3E082
:101FE0000E9426310E94DE31EDE0F0E0A7E2B3E08E
:101FF0000E947A30E4E0F8E60E94D332E7E2F3E0B0
:102000000E9426310E943732EDE0F0E0A7E2B3E013
:102010000E947A30E8E2F8E60E94D332E7E2F3E089
:102020000E9426310E948532EDE0F0E0A7E2B3E0A5
:102030000E947A30089507B1007E07B90E949B2E56
:10204000AAEFB2E08D939C9307B1007E016007B9BF
:102050000E949B2EACEFB2E08D939C9307B1007E63
:10206000026007B90E949B2EAEEFB2E08D939C9365
:1020700007B1007E036007B90E949B2EA0E0B3E089
:102080008D939C9307B1007E046007B90E949B2E3C
:10209000A2E0B3E08D939C93CA990C94521081E016
:1020A00080930403CA9B0C94581080E0809304032F
:1020B00000910403013011F00C946E10ABE1B3E019
:1020C0008D919C91ADE1B3E08D939C931C9A1D9AE8
:1020D000E2E0F0E00E945D201C981D98C9990C94E4
:1020E000741081E080930503C99B0C947A1080E002
:1020F0008093050300910503013011F00C946C11DD
:1021000000917403003011F00C94EE1081E0809384
:102110007403A9E8B3E04D915527AAE4B0E00D910E
:102120001C910417150710F00C949A10AAE4B0E063
:102130000E94192081E080938B03A0EAB3E04D91C7
:102140005527A8E4B0E00D911C910417150710F075
:102150000C94AE10A8E4B0E00E94192081E08093B6
:10216000A203A7EBB3E04D915527A8E7B0E00D918E
:102170001C910417150710F00C94C210A8E7B0E0EA
:102180000E94192082E390E00E948F2083B198E0A2
:10219000892783B9A9E8B3E04D915527AAE4B0E0B7
:1021A0000D911C910417150711F00C948610A9E8E5
:1021B000B3E08C9199279BBD8ABDA0EAB3E08C91D6
:1021C000992799BD88BDA7EBB3E08C91992790938F
:1021D0007900809378001B980C9468110091740327
:1021E000013011F00C94681180E080937403AAE828
:1021F000B3E04D915527AAE4B0E00D911C9104176E
:10220000150718F011F00C9407110C940B11AAE4A7
:10221000B0E00E94202080E080938B03A1EAB3E02D
:102220004D915527A8E4B0E00D911C9104171507B6
:1022300018F011F00C941E110C942211A8E4B0E0D7
:102240000E94202080E08093A203A8EBB3E04D9190
:102250005527A8E7B0E00D911C910417150718F059
:1022600011F00C9435110C943911A8E7B0E00E94DC
:10227000202083B198E0892783B983B190E1892731
:1022800083B982E390E00E948F20AAE8B3E04D91E9
:102290005527AAE4B0E00D911C910417150711F021
:1022A0000C94F4101B981C98AAE8B3E08C91992721
:1022B0009BBD8ABDA1EAB3E08C91992799BD88BDE9
:1022C000A8EBB3E08C9199279093790080937800E4
:1022D0008AEF90E00E948F209F9B0C94721180E007
:1022E000809306039F990C94781181E080930603F4
:1022F0000895009110030A3018F011F00C94821127
:102300000C94131280E080931003A3EBB1E08C9146
:1023100085FB16F40C94A0111D9AF89482E0E1E27A
:102320000E94D72E5CEC82E0E1E20E94FF2E54E492
:1023300082E0E1E20E94FF2E78941D980C94061230
:102340001D9AF894A1E1B3E0E8EFF7E60E94AC2E05
:1023500082E0E1E20E94D72E5CEC82E0E1E20E94A2
:10236000FF2E5EEB82E0E1E20E94FF2E82E0A7E01A
:10237000B3E0E1E229E02A930E94272F82E0E1E224
:102380000E94D72E789488E0E7E0F3E00E94EF30D7
:10239000402F00910F03041711F00C940512ECE28A
:1023A000F8E60E94D332E7E0F3E0D190E0808FEFCF
:1023B000E7FE8827F82E082F0E94A6310E94DE3102
:1023C000EDE0F0E0A1E1B3E00E947A30E0E1F8E670
:1023D0000E94D332E1E1F3E00E9426310E943732BD
:1023E000EDE0F0E0A1E1B3E00E947A30E1E1F3E05A
:1023F0000E94B233EDE0F0E00E943631A5E1B3E097
:10240000EE0C000FE794DD92EC921D98A3EBB1E087
:102410008C9185FB882780F9809580FBA3EBB1E048
:102420008C9185F98C930895809156010E946E20BD
:10243000AEEAB1E08C93809157010E946E20ADEA24
:10244000B1E08C93809158010E946E20ACEAB1E01B
:102450008C93809159010E946E20AFEAB1E08C9379
:1024600080915A010E946E20A0EBB1E08C93809184
:102470005B010E946E20A1EBB1E08C93AEEAB1E06B
:102480008C9180688C930E94A6201EED0E94BC2037
:1024900010E00E94BC201091AE010E94BC2010915F
:1024A000AD010E94BC201091AC010E94BC200E9492
:1024B000B6200E94A6201EED0E94BC2013E00E94C0
:1024C000BC2019E00E94BC201091AF010E94BC20EA
:1024D0001091B0010E94BC201091B1010E94BC205B
:1024E0000E94B6200E94A6201EED0E94BC2017E08C
:1024F0000E94BC2010E40E94BC200E94B620EAE1A9
:10250000FBE60E944C200E94F120A5E6B1E00E946B
:102510004620E2E1F9E60E944C200E94F120ACE561
:10252000B1E00E9446200E945320E1E0F0E00E94CA
:102530005D2008950E94A6201EED0E94BC2010E0A0
:102540000E94BC200E94B6200E94A6201FED0E947F
:10255000BC200E94D920AEEAB1E01C930E94D92091
:10256000ADEAB1E01C930E94D720ACEAB1E01C9325
:102570000E94B6200E94A6201EED0E94BC2013E0FF
:102580000E94BC200E94B6200E94A6201FED0E943F
:10259000BC200E94D920A2EBB1E01C930E94D9205C
:1025A000AFEAB1E01C930E94D920A0EBB1E01C93EC
:1025B0000E94D720A1EBB1E01C930E94B62070913D
:1025C000B3017F777093B301A2EBB1E00C9105FBEF
:1025D00016F00C9424137091B30170687093B301DA
:1025E000AEEAB1E08C918F778C93A0EBB1E08C9147
:1025F0008F7D8C939091AE010E947520A6E5B1E08D
:102600008C939091AD010E947520A7E5B1E08C9369
:102610009091AC010E947520A8E5B1E08C93909157
:10262000AF010E947520A9E5B1E08C939091B001B3
:102630000E947520AAE5B1E08C939091B1010E94AF
:102640007520ABE5B1E08C930E94F120E5E6F1E066
:10265000A4EBB1E00E94753008950895089508959F
:102660001C9AA1E2B0E00C9107FB81E00EF480E03F
:102670008F9300911A03003081E009F080E09F9170
:102680008923882311F40C946313F894B89AC09AA0
:10269000B89AC09AC39A0E947F200E944223ABEB53
:1026A000B3E09C9381E00E945B25A1ECB1E09C9398
:1026B0007894E4E2FBE60E944C200E94532084EFD1
:1026C00091E00E948F201C980895A1E2B0E00C9147
:1026D00007FB81E00EF480E08F9300911A03003035
:1026E00081E009F080E09F918923882311F40C9404
:1026F000E4131C9AA0E0B0E1ECE2FBE60E94952E08
:10270000A0E0B0E10E946C260E94182BAEECB1E074
:102710008C93AFECB1E0E0E3FBE60E94952E809154
:10272000CE01AFECB1E00E94C226A2E8B2E0882759
:102730008C930E94F120ECE5F1E0A2E8B2E00E9467
:102740007530A2E8B2E00E942720EAE3FBE60E948F
:10275000952E0E94F120E5E6F1E0A2E8B2E00E94A9
:1027600027200E947530A2E8B2E00E942720EAE309
:10277000FBE60E94952EE6E3F2E0A2E8B2E00E94BA
:1027800027200E9475308091CE01A2E8B2E00E941D
:10279000F326A6E3B2E088278C93A2E8B2E088276C
:1027A0008C93A0E0B0E1ECE3FBE60E94952EA0E064
:1027B000B0E10E946C268091CE010E943127809169
:1027C000CE010E941F271C98089580E090E0A8EE9B
:1027D000B2E08D939C93A1E2B0E00C9107FB81E005
:1027E0000EF480E08F9300911A03003081E009F02D
:1027F00080E09F918923882311F40C945A151C9A28
:10280000A0E0B0E1ECE2FBE60E94952EA0E0B0E192
:102810000E946C260E94182BAEECB1E08C93AFECBA
:10282000B1E0EEE3FBE60E94952E8091CE01AFEC85
:10283000B1E00E94C226A2E8B2E088278C930E94F1
:10284000F120ECE5F1E0A2E8B2E00E947530A2E8E8
:10285000B2E00E942720EAE3FBE60E94952E0E9448
:10286000F120E5E6F1E0A2E8B2E00E9427200E9414
:102870007530A2E8B2E00E942720EAE3FBE60E945E
:10288000952EA5E3B0E08C9182FBA2E8B2E00E9415
:1028900027200E94C42E8D9388278C93A2E8B2E053
:1028A0000E942720EAE3FBE60E94952EA5E3B0E014
:1028B0008C9183FBA2E8B2E00E9427200E94C42EE4
:1028C0008D9388278C93A2E8B2E00E942720EAE348
:1028D000FBE60E94952EA5E3B0E08C9181FBA2E877
:1028E000B2E00E9427200E94C42E8D9388278C93EB
:1028F000A2E8B2E00E942720EAE3FBE60E94952EC0
:10290000A5E3B0E08C9180FBA2E8B2E00E94272012
:102910000E94C42E8D9388278C93A2E8B2E00E9477
:102920002720EAE3FBE60E94952EA5E3B0E08C9118
:1029300084FBA2E8B2E00E9427200E94C42E8D935F
:1029400088278C93A2E8B2E00E942720EAE3FBE606
:102950000E94952EA5E3B0E08C9185FBA2E8B2E041
:102960000E9427200E94C42E8D9388278C93A2E872
:10297000B2E00E942720EAE3FBE60E94952EA2E83F
:10298000B2E00E942720EAE4F0E00E94ED2FA2E8E6
:10299000B2E00E942720EAE3FBE60E94952EA2E81F
:1029A000B2E00E942720E8E4F0E00E94ED2FA2E8C8
:1029B000B2E00E942720EAE3FBE60E94952EA2E8FF
:1029C000B2E00E942720E8E4F0E00E94ED2FA2E8A8
:1029D000B2E00E942720EAE3FBE60E94952EA2E8DF
:1029E000B2E00E942720E7E2F3E0552744E00E948E
:1029F0005421A2E8B2E00E942720EAE3FBE60E940D
:102A0000952EA2E8B2E00E942720E5E1F3E00E94C3
:102A1000F62FA2E8B2E00E942720EAE3FBE60E943C
:102A2000952EA2E8B2E00E942720E6E0F3E00E94A3
:102A3000FD2FA2E8B2E00E942720EAE3FBE60E9415
:102A4000952EA2E8B2E00E942720E4E0F3E00E9485
:102A5000FD2FA2E8B2E00E942720EAE3FBE60E94F5
:102A6000952EA2E8B2E00E942720E5E0F3E00E9464
:102A7000FD2F8091CE01A2E8B2E00E94F326A6E3EA
:102A8000B2E088278C93A2E8B2E088278C93A0E07C
:102A9000B0E1ECE3FBE60E94952EA0E0B0E10E94DD
:102AA0006C268091CE010E9431278091CE010E9438
:102AB0001F271C980895F894A1E2B0E00C9107FB41
:102AC00081E00EF480E08F9300911A03003081E0E2
:102AD00009F080E09F918923882311F40C94DF1C76
:102AE0001C9AE6E4FBE60E944C200E94532084EFEF
:102AF00091E00E948F20A0E0B0E1ECE2FBE60E94B2
:102B0000952EA0E0B0E10E943026A0E0B0E1E0E523
:102B1000FBE60E94952EA0E0B0E10E943026A0E0E6
:102B2000B0E1E8E5FBE60E94952EA0E0B0E1EAED19
:102B3000F1E00E943C27AAEDB1E08C91803011F4C5
:102B40000C940F16E2E6FBE60E944C200E945320F4
:102B50000E94182BAEECB1E08C93A0E0B0E1E8E568
:102B6000FBE60E94952E8091CE01A0E0B0E10E948C
:102B7000B5268091CE0194E1A2E8B1E00E94002741
:102B80008091CE0194E1A7E9B1E00E9400278091F5
:102B9000CE010E941F27A2E8B1E00E94D530082F85
:102BA000083081E009F080E08F93A7E9B1E00E944E
:102BB000D530082F083081E009F080E09F9189230B
:102BC000882311F40C940F16E2E8F1E0A5E6B1E0D9
:102BD0000E9475300E940421E7E9F1E0ACE5B1E024
:102BE0000E9475300E94FC200E94141284E690E03E
:102BF0000E948F200E949A12A3EBB1E08C9187FB78
:102C000016F00C940F16A0E0B0E1E8E5FBE60E9498
:102C1000952EA0E0B0E10E94662A0E94C72BA0E09A
:102C2000B0E1ECE3FBE60E94952EA0E0B0E10E944B
:102C30006C260E94182BAEECB1E08C93AFECB1E0A7
:102C4000EEE6FBE60E94952E8091CE01AFECB1E05E
:102C50000E94E1268091CE010E94062B08F409C053
:102C6000FA93EA93E8E7FBE60E94C22D0E94BC2D8E
:102C700022968091CE010E941F27A0E0B0E1ECE2F5
:102C8000FBE60E94952EA0E0B0E10E946C260E9417
:102C9000182BAEECB1E08C93AFECB1E0E0E3FBE6D7
:102CA0000E94952E8091CE01AFECB1E00E94C22629
:102CB000A6E3B2E088278C93A6E3B2E0ECEDF8E659
:102CC0000E94952EA6E3B2E00E942720EAE4F9E6EE
:102CD0000E94952E0E94F120ECE5F1E0A6E3B2E01F
:102CE0000E9427200E947530A6E3B2E00E942720B0
:102CF000EAE4F9E60E94952E0E94F120E5E6F1E073
:102D0000A6E3B2E00E9427200E9475308091CE0198
:102D10000E94062B08F409C0FA93EA93E4E1F9E66D
:102D20000E94C22D0E94BC2D22968091CE010E944D
:102D3000062B08F40DC0FA93EA93E6ECF8E60E943D
:102D4000C22DA6E3B2E00E94AF2D0E94BC2D2296B8
:102D5000A6E3B2E088278C938091CE010E941F27C2
:102D6000A0E0B0E1ECE3FBE60E94952EA0E0B0E12C
:102D70000E946C26A0E0B0E1E0E5FBE60E94952E03
:102D8000A0E0B0E10E946C26A0E0B0E1E8E8FBE63C
:102D90000E94952EA0E0B0E1EAEDF1E00E943C2710
:102DA000AAEDB1E00E94D530A7EEB2E08C9300917D
:102DB000E702003011F00C9478190E94182BAEEC49
:102DC000B1E08C93AFECB1E0E4E9FBE60E94952E14
:102DD0008091CE01AFECB1E00E94E1268091CE015E
:102DE0000E94062B08F409C0FA93EA93E0EAFBE696
:102DF0000E94C22D0E94BC2D22968091CE010E947D
:102E0000062B08F409C0FA93EA93E8EBFBE60E946C
:102E1000C22D0E94BC2D22968091CE010E94062BCD
:102E200008F409C0FA93EA93E4E1F9E60E94C22D9E
:102E30000E94BC2D22968091CE010E94062B08F4A0
:102E400009C0FA93EA93E0EEFBE60E94C22D0E94CD
:102E5000BC2D22968091CE010E94062B08F409C059
:102E6000FA93EA93EAEFFBE60E94C22D0E94BC2D82
:102E700022968091CE010E94062B08F409C0FA9395
:102E8000EA93E4E1FCE60E94C22D0E94BC2D22964A
:102E90008091CE010E94062B08F409C0FA93EA93B0
:102EA000EEE2FCE60E94C22D0E94BC2D229680918B
:102EB000CE010E94062B08F409C0FA93EA93E2E4DB
:102EC000FCE60E94C22D0E94BC2D22968091CE016C
:102ED0000E94062B08F409C0FA93EA93E6E5FCE6A3
:102EE0000E94C22D0E94BC2D22968091CE010E948C
:102EF000062B08F409C0FA93EA93E8E7FCE60E947F
:102F0000C22D0E94BC2D22968091CE010E94062BDC
:102F100008F409C0FA93EA93EAEFFBE60E94C22D97
:102F20000E94BC2D22968091CE010E94062B08F4AF
:102F300009C0FA93EA93E4E1FCE60E94C22D0E94E4
:102F4000BC2D22968091CE010E94062B08F409C068
:102F5000FA93EA93E2E9FCE60E94C22D0E94BC2D9E
:102F600022968091CE010E94062B08F409C0FA93A4
:102F7000EA93E6EAFCE60E94C22D0E94BC2D22964E
:102F80008091CE010E94062B08F409C0FA93EA93BF
:102F9000EAEBFCE60E94C22D0E94BC2D2296809195
:102FA000CE010E94062B08F409C0FA93EA93ECEDD7
:102FB000FCE60E94C22D0E94BC2D22968091CE017B
:102FC0000E94062B08F409C0FA93EA93EAEFFBE6A5
:102FD0000E94C22D0E94BC2D22968091CE010E949B
:102FE000062B08F409C0FA93EA93E4E1FCE60E9498
:102FF000C22D0E94BC2D22968091CE010E94062BEC
:1030000008F409C0FA93EA93E6EFFCE60E94C22DA9
:103010000E94BC2D22968091CE010E94062B08F4BE
:1030200009C0FA93EA93EAE0FDE60E94C22D0E94ED
:10303000BC2D22968091CE010E94062B08F409C077
:10304000FA93EA93EEE1FDE60E94C22D0E94BC2DA8
:1030500022968091CE010E94062B08F409C0FA93B3
:10306000EA93E4E1F9E60E94C22D0E94BC2D22966B
:103070008091CE010E94062B08F409C0FA93EA93CE
:10308000E0E4FDE60E94C22D0E94BC2D22968091B4
:10309000CE010E94062B08F409C0FA93EA93EAE5F0
:1030A000FDE60E94C22D0E94BC2D22968091CE0189
:1030B0000E94062B08F409C0FA93EA93E4E1F9E6CA
:1030C0000E94C22D0E94BC2D22968091CE010E94AA
:1030D000062B08F409C0FA93EA93EEE7FDE60E9496
:1030E000C22D0E94BC2D22968091CE010E94062BFB
:1030F00008F409C0FA93EA93E8E9FDE60E94C22DBC
:103100000E94BC2D22968091CE010E94062B08F4CD
:1031100009C0FA93EA93EEEAFDE60E94C22D0E94EE
:10312000BC2D22968091CE010E94062B08F409C086
:10313000FA93EA93E4ECFDE60E94C22D0E94BC2DB6
:1031400022968091CE010E94062B08F409C0FA93C2
:10315000EA93EAEDFDE60E94C22D0E94BC2D229664
:103160008091CE010E94062B08F409C0FA93EA93DD
:10317000E4E1F9E60E94C22D0E94BC2D22968091C6
:10318000CE010E94062B08F409C0FA93EA93E0EFFF
:10319000FDE60E94C22D0E94BC2D22968091CE0198
:1031A0000E94062B08F409C0FA93EA93EAE0FEE6CF
:1031B0000E94C22D0E94BC2D22968091CE010E94B9
:1031C000062B08F409C0FA93EA93E4E1F9E60E94B9
:1031D000C22D0E94BC2D22968091CE010E94062B0A
:1031E00008F409C0FA93EA93E2E2FEE60E94C22DD7
:1031F0000E94BC2D22968091CE010E94062B08F4DD
:1032000009C0FA93EA93ECE3FEE60E94C22D0E9405
:10321000BC2D22968091CE010E94062B08F409C095
:10322000FA93EA93E8E5FEE60E94C22D0E94BC2DC7
:1032300022968091CE010E94062B08F409C0FA93D1
:10324000EA93E4E1F9E60E94C22D0E94BC2D229689
:103250008091CE010E94062B08F409C0FA93EA93EC
:10326000E4E7FEE60E94C22D0E94BC2D22968091CA
:10327000CE010E94062B08F409C0FA93EA93E0E914
:10328000FEE60E94C22D0E94BC2D22968091CE01A6
:103290000E94062B08F409C0FA93EA93E6EAFEE6D8
:1032A0000E94C22D0E94BC2D22968091CE010E94C8
:1032B000062B08F409C0FA93EA93ECEBFEE60E94B1
:1032C000C22D0E94BC2D2296A0E0B0E1ECE3FBE60B
:1032D0000E94952EA0E0B0E10E946C268091CE0164
:1032E0000E9431278091CE010E941F270C94A21CBE
:1032F0000091E702003011F40C94A21C0E94182BDC
:10330000AEECB1E08C93AFECB1E0E4E9FBE60E94F7
:10331000952E8091CE01AFECB1E00E94B526809150
:10332000CE0198E2AFEEB1E00E9400278091CE017D
:1033300098E2AFEEB1E00E9400278091CE0198E2C2
:10334000AFEEB1E00E9400278091CE0198E2AFEE8F
:10335000B1E00E940027AFEEB1E088278C93809106
:10336000CE0198E2AFEEB1E00E940027EFEEF1E06F
:1033700003E0AFEEB1E00E948730AFEEB1E00E9413
:103380004330A9E8B3E00C93E2E5F0E0A9E8B3E04C
:103390007BE70E9495308091CE0198E2AFEEB1E0DC
:1033A0000E940027EFEEF1E003E0AFEEB1E00E94F3
:1033B0008730AFEEB1E00E944330AAE8B3E00C934F
:1033C000E3E5F0E0AAE8B3E07BE70E949530809166
:1033D000CE0198E2AFEEB1E00E940027EFEEF1E0FF
:1033E00008E0AFEEB1E00E948730EFEEF1E0A7E732
:1033F000B3E00E947530E0E4F0E0A7E7B3E07BE7DC
:103400000E94A6308091CE0198E2AFEEB1E00E941A
:103410000027EFEEF1E008E0AFEEB1E00E94873068
:10342000EFEEF1E0A0E8B3E00E947530E9E4F0E0EF
:10343000A0E8B3E07BE70E94A6308091CE0198E23D
:10344000AFEEB1E00E940027EFEEF1E004E0AFEE56
:10345000B1E00E948730AFEEB1E00E944330AEE6AB
:10346000B3E00D931C93EAE3F0E0AEE6B3E07BE754
:103470000E9497308091CE0198E2AFEEB1E00E94B9
:103480000027AFEEB1E088278C938091CE0198E2BF
:10349000AFEEB1E00E940027EFEEF1E003E0AFEE07
:1034A000B1E00E948730AFEEB1E00E944330A0EA65
:1034B000B3E00C93E6E6F0E0A0EAB3E07BE70E941D
:1034C00095308091CE0198E2AFEEB1E00E940027E6
:1034D000EFEEF1E003E0AFEEB1E00E948730AFEE37
:1034E000B1E00E944330A1EAB3E00C93E7E6F0E0DC
:1034F000A1EAB3E07BE70E9495308091CE0198E28B
:10350000AFEEB1E00E940027EFEEF1E008E0AFEE91
:10351000B1E00E948730EFEEF1E0AEE8B3E00E9448
:103520007530E6E6F0E0A0EAB3E07BE70E94953074
:103530008091CE0198E2AFEEB1E00E940027EFEE5D
:10354000F1E008E0AFEEB1E00E948730EFEEF1E08D
:10355000A7E9B3E00E947530EDE5F0E0A7E9B3E03C
:103560007BE70E94A6308091CE0198E2AFEEB1E0F9
:103570000E940027EFEEF1E004E0AFEEB1E00E9420
:103580008730AFEEB1E00E944330A0E7B3E00D9387
:103590001C93ECE3F0E0A0E7B3E07BE70E949730F8
:1035A0008091CE0198E2AFEEB1E00E940027AFEE2D
:1035B000B1E088278C938091CE0198E2AFEEB1E024
:1035C0000E940027EFEEF1E003E0AFEEB1E00E94D1
:1035D0008730AFEEB1E00E944330A7EBB3E00C932D
:1035E000EAE7F0E0A7EBB3E07BE70E94953080913B
:1035F000CE0198E2AFEEB1E00E940027EFEEF1E0DD
:1036000003E0AFEEB1E00E948730AFEEB1E00E9480
:103610004330A8EBB3E00C93EBE7F0E0A8EBB3E0AA
:103620007BE70E9495308091CE0198E2AFEEB1E049
:103630000E940027EFEEF1E008E0AFEEB1E00E945B
:103640008730EFEEF1E0A5EAB3E00E947530E8E6DE
:10365000F0E0A5EAB3E07BE70E94A6308091CE01BE
:1036600098E2AFEEB1E00E940027EFEEF1E008E053
:10367000AFEEB1E00E948730EFEEF1E0AEEAB3E0EA
:103680000E947530E1E7F0E0AEEAB3E07BE70E942C
:10369000A6308091CE0198E2AFEEB1E00E94002703
:1036A000EFEEF1E004E0AFEEB1E00E948730AFEE64
:1036B000B1E00E944330A2E7B3E00D931C93EEE328
:1036C000F0E0A2E7B3E07BE70E9497308091CE0163
:1036D00098E2AFEEB1E00E9400278091CE0198E21F
:1036E000AFEEB1E00E940027AFEEB1E088278C93E7
:1036F0008091CE0198E2AFEEB1E00E940027EFEE9C
:10370000F1E003E0AFEEB1E00E948730AFEEB1E050
:103710000E944330AFE1B3E00D931C93E3E0F0E08F
:10372000AFE1B3E07BE70E9497308091CE0198E251
:10373000AFEEB1E00E9400278091CE0198E2AFEE9B
:10374000B1E00E940027AFEEB1E088278C93809112
:10375000CE0198E2AFEEB1E00E940027EFEEF1E07B
:1037600008E0AFEEB1E00E948730EFEEF1E0AAE4AE
:10377000B3E00E947530E6E1F0E0AAE4B3E07BE755
:103780000E94A6308091CE0198E2AFEEB1E00E9497
:103790000027EFEEF1E008E0AFEEB1E00E948730E5
:1037A000EFEEF1E0A3E5B3E00E947530EFE1F0E069
:1037B000A3E5B3E07BE70E94A6308091CE0198E2BA
:1037C000AFEEB1E00E940027EFEEF1E008E0AFEECF
:1037D000B1E00E948730EFEEF1E0ACE5B3E00E948B
:1037E0007530E8E2F0E0ACE5B3E07BE70E94A6309C
:1037F0008091CE0198E2AFEEB1E00E940027EFEE9B
:10380000F1E008E0AFEEB1E00E948730EFEEF1E0CA
:10381000A5E6B3E00E947530E1E3F0E0A5E6B3E091
:103820007BE70E94A6308091CE0198E2AFEEB1E036
:103830000E9400278091CE0198E2AFEEB1E00E9495
:103840000027AFEEB1E088278C938091CE0198E2FB
:10385000AFEEB1E00E940027EFEEF1E004E0AFEE42
:10386000B1E00E948730AFEEB1E00E94E032EDE0BF
:10387000F0E0A9E3B3E00E947A30E2E1F0E0A9E3EE
:10388000B3E094E07BE70E9498308091CE0198E20B
:10389000AFEEB1E00E9400278091CE0198E2AFEE3A
:1038A000B1E00E940027AFEEB1E088278C938091B1
:1038B000CE0198E2AFEEB1E00E940027EFEEF1E01A
:1038C00003E0AFEEB1E00E948730AFEEB1E00E94BE
:1038D0004330ABE1B3E00D931C93E1E0F0E0ABE1EA
:1038E000B3E07BE70E9497308091CE0198E2AFEE83
:1038F000B1E00E940027EFEEF1E001E0AFEEB1E0B1
:103900000E948730AFEEB1E00E944330A9EBB3E0F4
:103910000C93ECE7F0E0A9EBB3E07BE70E94953075
:103920008091CE010E9431278091CE010E941F27F5
:10393000A0E0B0E1ECE3FBE60E94952EA0E0B0E150
:103940000E946C260E94582EA6ECB1E00D931D93A8
:103950002D933D930E944F2EAAECB1E00D931D9341
:103960002D933D93A6ECB1E00D911D912D913C91CD
:10397000AAECB1E04D915D916D917C910E94D52FA3
:10398000A2ECB1E00D931D932D933D93EEECFEE67A
:103990000E944C20A0E0B0E1E2ECF1E00E94F32FA5
:1039A0000E944420E4EDFEE60E944C200E94532039
:1039B00084EF91E00E948F201C980C94E81C0F9BD0
:1039C0000C94E81CE8EDFEE60E944C200E94532077
:1039D000E2EEFEE60E944C200E945320E0EFFEE65D
:1039E0000E944C20A0E0B0E1E9E8F3E00E94FD2F46
:1039F0000E9444200E945320E8EFFEE60E944C20E3
:103A0000A0E0B0E1EAE8F3E00E94FD2F0E9444202C
:103A10000E945320E2E0FFE60E944C20A7E7B3E0BB
:103A20000E9446200E945320EAE0FFE60E944C20BC
:103A3000A0E8B3E00E9446200E945320E2E1FFE6A6
:103A40000E944C20A0E0B0E1EEE6F3E00E94ED2FF2
:103A50000E9444200E945320E4E1F9E60E944C2099
:103A60000E945320E2E2FFE60E944C20A0E0B0E179
:103A7000E0EAF3E00E94FD2F0E9444200E945320C0
:103A8000EAE2FFE60E944C20A0E0B0E1E1EAF3E0C8
:103A90000E94FD2F0E9444200E945320E4E3FFE691
:103AA0000E944C20AEE8B3E00E9446200E945320C2
:103AB000ECE3FFE60E944C20A7E9B3E00E94462019
:103AC0000E945320E4E4FFE60E944C20A0E0B0E115
:103AD000E0E7F3E00E94ED2F0E9444200E94532073
:103AE000E4E1F9E60E944C200E945320E4E5FFE661
:103AF0000E944C20A0E0B0E1E7EBF3E00E94FD2F34
:103B00000E9444200E945320ECE5FFE60E944C20D6
:103B1000A0E0B0E1E8EBF3E00E94FD2F0E9444201A
:103B20000E945320E6E6FFE60E944C20A5EAB3E09F
:103B30000E9446200E945320EEE6FFE60E944C20A1
:103B4000AEEAB3E00E9446200E945320E6E7FFE67B
:103B50000E944C20A0E0B0E1E2E7F3E00E94ED2FEC
:103B60000E9444200E945320E4E1F9E60E944C2088
:103B70000E945320E6E8FFE60E944C20A0E0B0E15E
:103B8000EFE1F3E00E94F62F0E9444200E945320B0
:103B9000E4E1F9E60E944C200E945320E0E9FFE6B0
:103BA0000E944C20AAE4B3E00E944620EEE3F9E62E
:103BB0000E944C20A3E5B3E00E9446200E945320BF
:103BC000EAE9FFE60E944C20ACE5B3E00E94462003
:103BD000EEE3F9E60E944C20A5E6B3E00E94462001
:103BE0000E945320E4E1F9E60E944C200E945320F9
:103BF000E4EAFFE60E944C20A0E0B0E1E9E3F3E054
:103C0000552744E00E9454210E9444200E945320E2
:103C1000E4E1F9E60E944C200E945320EAEAFFE624
:103C20000E944C20A0E0B0E1EBE1F3E00E94ED2F18
:103C30000E944420EAE3FBE60E944C20A0E0B0E1B1
:103C4000E9EBF3E00E94FD2F0E9444200E945320E4
:103C50000E945320E0EBFFE60E944C20A0E0B0E180
:103C6000EFE2F3E0552744E00E9454210E944420F3
:103C70000E945320E0ECFFE60E944C20A0E0B0E15F
:103C8000EBE2F3E0552744E00E9454210E944420D7
:103C90000E945320E0EDFFE60E944C20A0E0B0E13E
:103CA000E3E3F3E0552744E00E9454210E944420BE
:103CB0000E945320E5E0F0E00E945D207894089592
:103CC000A1E2B0E00C9107FB81E00EF480E08F935D
:103CD00000911A03003081E009F080E09F91892370
:103CE000882311F40C94C91E1C9AA0E0B0E1ECE208
:103CF000FBE60E94952EA0E0B0E10E946C260E9497
:103D0000182BAEECB1E08C93AFECB1E0EAEDFFE63E
:103D10000E94952E8091CE01AFECB1E00E94B526B5
:103D20008091CE0198E2AFEEB1E00E940027AFEEA5
:103D3000B1E00E9430200E943D20AFEEB1E0882724
:103D40008C938091CE010E942827AAE2B2E08C9346
:103D500000912A02003011F40C94901EE4EEFFE66C
:103D60000E9436200E943D208091CE010E94312782
:103D70008091CE010E941F27A0E0B0E1ECE3FBE6BA
:103D80000E94952EA0E0B0E10E946C261C980C9435
:103D9000D21E0F9B0C94D21EE8EDFEE60E944C2032
:103DA0000E9453200895A1E2B0E00C9107FB81E04E
:103DB0000EF480E08F9300911A03003081E009F047
:103DC00080E09F918923882311F40C941E1F1C9A74
:103DD000A0E0B0E1ECE2FBE60E94952EA0E0B0E1AD
:103DE0000E946C260E94182BAEECB1E08C93A0E0F0
:103DF000B0E1EAEDFFE60E94952EA0E0B0E10E945E
:103E0000662A0E94C72B8091CE010E9431278091A3
:103E1000CE010E941F27A0E0B0E1ECE3FBE60E9488
:103E2000952EA0E0B0E10E946C26EAEEFFE60E942B
:103E300036200E943D201C980C94271F0F9B0C9449
:103E4000271FE8EDFEE60E944C200E9453200895B3
:103E50000F921F922F923F924F925F927F92AF925A
:103E6000BF920F931F932F933F934F935F936F9343
:103E70007F938F939F93AF93BF93CF93DF93EF93F2
:103E8000FF938FB78F93A4E3B1E0AD90BB24AEEF67
:103E9000B0E0AA0DBB1D0C910D3011F00C94611F08
:103EA0001B9AA4E3B1E0AD90BB24ADEFB0E0AA0D46
:103EB000BB1D0C91033611F00C94611F81E08093BF
:103EC00049038F918FBFFF91EF91DF91CF91BF9108
:103ED000AF919F918F917F916F915F914F913F91A2
:103EE0002F911F910F91BF90AF907F905F904F9057
:103EF0003F902F901F900F90A2E3B1E00E94C72F38
:103F00000895F8940F921F922F923F924F925F92D2
:103F10007F92AF92BF920F931F932F933F934F9334
:103F20005F936F937F938F939F93AF93BF93CF9341
:103F3000DF93EF93FF938FB78F93A5E5B1E0AD903B
:103F4000BB24A3E3B1E0AA0DBB1D0C910D3011F011
:103F50000C94BB1F1B9AA5E5B1E0AD90BB24A2E376
:103F6000B1E0AA0DBB1D0C91033611F00C94BB1FE0
:103F700081E080934903A3E5B1E00E94C72F8F91B0
:103F80008FBFFF91EF91DF91CF91BF91AF919F9143
:103F90008F917F916F915F914F913F912F911F91E1
:103FA0000F91BF90AF907F905F904F903F902F9078
:103FB0001F900F90789408950F921F922F923F9226
:103FC0004F925F927F92AF92BF920F931F932F9366
:103FD0003F934F935F936F937F938F939F93AF9391
:103FE000BF93CF93DF93EF93FF938FB78F9384E9C2
:103FF00082BFADEBB1E00E9419208F918FBFFF917E
:10400000EF91DF91CF91BF91AF919F918F917F9170
:104010006F915F914F913F912F911F910F91BF90A1
:10402000AF907F905F904F903F902F901F900F9098
:104030001895ED91FC91EF5FFF4FFC93EE9308957F
:10404000ED91FC91E150F040FC93EE9308958F9335
:104050008D918823E9F711978F910895A0E0B0E141
:104060008D91882311F00CD0FBCF08950E94A42ECF
:10407000802D11F005D0FACF08958DE001D08AE0AF
:104080005D9BFECF8CB90895A0E0B0E18D918823AF
:1040900011F00CD0FBCF08950E94A42E802D11F0BA
:1040A00005D0FACF08958DE001D08AE000909B0002
:1040B00005FEFCCF80939C00089588EE93E02FD0FE
:1040C0003197D9F70895982F82958F70805D8D93E1
:1040D0009F70905D9D9388278C9308954AE0082FE8
:1040E0000E94C5300295802B0895892F8F709051C2
:1040F00010F0865FFCCF08953197F1F70895B99AD3
:10410000BB98C39ABA9AB89A8CE58DB90895089568
:104110000895689462F80895E89462F80895EF931A
:10412000FF93EE27E82BE92B31F0EDECFAE0319725
:10413000F1F70197D1F7FF91EF9108958998889849
:104140009198909808958998889803D0899A01D079
:10415000889AEF93FF93EAE0F0E00E947C20FF91C1
:10416000EF9108958898809BFECF0895899AF1DF9A
:10417000F9DFEFDF8998EDCF0894111F01C0110F0F
:1041800061F018F40000899802C0899A00C0E1DF4C
:10419000E9DFDFDF889ADDDFF2CF8998DADFE2DF5F
:1041A000D8DFE8948199689462F8889AD2CF08940D
:1041B00001C08894331F11E08998D4DF88948199D5
:1041C0000894111F0FB6C5DF889AC3DF0FBEA8F78A
:1041D000379510F4899801C0899AC4DFBADF889AAC
:1041E000B8CF0E942D13ACE5B1E0E9E5F1E00E9403
:1041F000442133970C942021ECE5F1E0A9E5B1E0EE
:104200000E9432210C942E13E5E6F1E0A6E5B1E020
:104210000E940E210C942F13ADE0BB27868197815D
:104220000E94572F0D93838194810E94572F0D93E5
:10423000808191810E94572F0D930895EDE0FF2713
:1042400082810E944C2F8AE38D9381810E944C2FA2
:104250008AE38D9380810E944C2F88278C93089548
:10426000ADE0BB27808191810E94572F0D93838100
:1042700094810E94572F0D93868197810E94572F1A
:104280000D930895EDE0FF2780810E944C2F8FE26F
:104290008D9381810E944C2F8FE28D9382810E94A9
:1042A0004C2F88278D9308950E9426310E947C31DF
:1042B00017FF03C08DE28D931127003821F4E6E843
:1042C000F5E40C94952E0F3741F4FF2019F4ECE738
:1042D000F5E4F7CFE8E7F5E4F4CF4A934A934A933D
:1042E0005A93BA93AA93BB270F5F02F5BB27802F7F
:1042F0000A950E9486318D3E90F4E6EDF5E4A3E048
:104300000E94D3320E940D31BB1FB0FF06C07097D0
:104310000E94D3320E9437323C96AA9589F7E2ED8B
:10432000F5E40E94D3320E94373222C0093058F19E
:10433000033178F10A3130F418E08BE192E9EAE8D0
:10434000F5E42EC00A950E948631EAECF5E4BFEF51
:10435000A3E00E94D3320E940D31BB1FB0FD06C006
:1043600038960E94D3320E9437323C97AA9589F73B
:10437000B095BB0F0E947C31039513E08AEF99E062
:10438000F816090740F413E08BE094E0EEE9F5E459
:1043900007C016E001C0B39583E194E2E2E9F5E4D9
:1043A0006A81BF3F19F4BB2711276260BD836A830E
:1043B0001C83A881B98160E36D93A883B9836D9351
:1043C000081B0195AA24BB246A816A7F002339F067
:1043D000F694E794D794B794A7940A95F7CF19E089
:1043E00000270E94D332CC248FEF74E0AC14B206C5
:1043F000D306E406F50630F0AC18B20AD30AE40A94
:10440000F50A21F1881F7A9531F056954795379531
:104410002795C794EBCF809522D041F0969508F769
:10442000FE2CED2CDB2CBA2CAA24DBCF25D05D8111
:104430003C812B8170D0277021F02BD06CD0E8F319
:1044400001C03CD04CD078D0269608958894881F1F
:104450007A95E9F7809503D049F38827FCCF8063EC
:1044600060FD06C0803311F0616002C0039561FDFC
:104470008D9360FD1A95089599278E919C938533AD
:104480008E9108F083958A3308F080E38C93C0F70F
:104490000895732F720F61FF701B0AD01296785027
:1044A00019F050F38E9380E38E937150EAF70895DC
:1044B000A881B981A70F8827B81F089579E061FD09
:1044C000700FF6DF48E0431B400F8AF381F3992712
:1044D0004A9569F38E91803351F79C93F9CF732FEE
:1044E00061FF701B7395A881B981EA2FFB2F11978B
:1044F0008191803361FF09F08D937A9511F48EE2FA
:104500008D9381918823C1F7772311F480E38D93F4
:1045100088278C930895889462FD0895002359F4A8
:10452000A881B9818C91803331F0552321F05395C6
:1045300033506460089408955523E9F085E48D9321
:104540001AF48DE28D935195652F660F560F5A30F0
:1045500010F060E503D068E001D0DACF8FEF74E0AF
:10456000561708F0561B881F7A9511F06695F8CFFC
:10457000809580638D9308954E414E00496E666923
:104580006E6974790000302E300000404B4C0020E2
:10459000A107000050C3000088130000F4010000D0
:1045A00000320000000500008000CCCCCC0C14AE22
:1045B00047019CC42000DC460300E353000063086D
:1045C0000000D7000000150000001CC25367A5D4EE
:1045D00068530024744915BE9A17CCBC8C2BBD3788
:1045E0008635689401C0E8948F939F9396E6000007
:1045F00000009A95E1F798948091510C9091520C9B
:104600001EF4019708F401968093510C9093520C7C
:1046100059F080914F0C9091500C019708F401963D
:1046200080934F0C9093500C9F918F91089500E4CC
:1046300040E050E060E070E088C008E44AEA51E001
:10464000F9CF09E482C00AE480C000E540E052E00E
:10465000F1CF01E57AC008E578C00AE7E9CF0DECB3
:10466000E7CF09EEE5CF09EE40E050E060E070E40E
:104670006CC0C0D0702FBED0602FBCD0502FBAD02D
:10468000402FB8C00E947F2000240ED10027009345
:10469000BA03AED088EE93E0A6DF11F499EE16C10E
:1046A0000197D1F70AE00F93A5D00F910A95D9F79A
:1046B000BEDF013069F000E4A0D000279ED00027C3
:1046C0009CD000279AD0002798D005E996D0DECF5D
:1046D000B4DF013009F01FC0CCDF513011F44A3A89
:1046E00011F09AEEF3C0BFDF003021F07CDFD9F784
:1046F0009BEEECC0B2DF003021F075DFD9F79CEE05
:10470000E5C0B7DF84E08093BA0376FF1DC08CE07C
:104710008093BA0319C0A5DF023028F081E08093AE
:10472000BA0301E404C082E08093BA0309EE0F9358
:104730007FDF00230F9121F056DFC9F79DEEC6C041
:1047400084DF002309F0A2CFBAC011E0003409F4DD
:1047500015E9083409F417E807FF14C00F931F93F5
:104760004F935F936F937F9307E762DF7F916F9122
:104770005F914F911F91802F0F910F77823010F032
:10478000082F1EC035D02FDF31D01DD011F008EE1C
:1047900017C033D0072F31D0062F2FD0052F2DD0A3
:1047A000042F2BD0012F29D02F9324E623D0189447
:1047B00007FF05C018DF11F02A95C1F798942F91D3
:1047C0000093BC0308950F938F939F9380E197E22A
:1047D0008093510C9093520C0DD00F3F19F001DFD4
:1047E000D9F798949F918F910F910895C09808954B
:1047F000C09A08950FEF01C000270FB90EB1001F36
:10480000E8F70FB1089568D031F04ED03CD021DFE9
:10481000002311F091EF5AC0EDDF0E3F21F0E3DEEF
:10482000D9F792EF53C092E08827E4DF0193019714
:10483000E1F7E0DFDFDF43C04FD031F035D023D0E8
:104840000ADF002311F095EF41C0BDDF11F096EFB4
:104850003DC00EEFD2DF0D3F11F497EF37C092E06D
:1048600088270191CADF0197E1F7C4DFC3DFC2DF08
:104870000F710093BD03053029F00093BC0306952A
:10488000086F24C01CC04091BA0343FD08C04427F0
:104890005D916D917D91550F661F771F08954D9124
:1048A0005D916D917D9108958F939F9380E29EE439
:1048B00080934F0C9093500C9F918F91089598DFA7
:1048C00099DF992788949093BB0308959F9390DF75
:1048D00091DF9F910894F7CF9091BA03992392EEBC
:1048E0000895EDCF91EEF2CF91EEF0CFF5DF29F004
:1048F000DBDFA7DE002319F096EE0C946624E0E0DF
:10490000F0E178DF0E3F29F06EDEC9F797EE0C94E8
:10491000662490E080E16EDF01930197E1F76ADFA2
:1049200069DFCDDFE0E0F0E19091BA03913081F0F2
:104930008081807C803461F437813F7320851185CC
:1049400000271F5F2F4F3F4F110F221F331F1AC029
:1049500033272681237017810085007C005C1F4F60
:104960002F4F818583709285990F881F11F011D088
:10497000F1F785818F7086500CD0F1F7012F122F3F
:10498000232F3327E881F9810193119321933193E8
:104990000895000F111F221F331F8A9508959CDF71
:1049A00029F082DF4EDE002319F096EE0C94662487
:1049B000E881F9811FDF0E3F29F015DEC9F797EE78
:1049C0000C94662490E080E115DF01930197E1F7F4
:1049D00011DF10DF74CF80DF29F066DF34DE0023C3
:1049E00019F096EE0C946624E881F98103DF0E3FFE
:1049F00029F0F9DDC9F797EE0C94662490E080E188
:104A0000F9DE01930197E1F7F5DEF4DE58CF64DFBC
:104A100029F04ADF22DE002319F096EE0C9466247A
:104A200028DEE881F981719361935193419347CFD7
:104A300053DF29F039DF13DE002319F096EE0C94D2
:104A40006624E881F981D6DED5DE0E3F29F0CBDD84
:104A5000C1F797EE0C94662490E080E4CBDE0193DE
:104A60000197E1F7C7DEC6DE2ACFE2ECF3E0ABE860
:104A7000B8E0992791931197E9F70895E894843065
:104A800059F0863049F08E3039F068948B3021F03F
:104A90008C3011F093E19EC30090C40300F80092A3
:104AA000C40388940895E2E1F6E018D345555A4AC4
:104AB00009F408958FC38A93D8DFC9D3C0F091E178
:104AC000F2DFA8F088818823F9F0E2EDF5E08A951D
:104AD00011F07096FCCF80818F7721F4349680811D
:104AE000CDDF38F48881823078F093E173C321966A
:104AF00071C38093C3033496AFE0B4E00CD3A7D363
:104B000088F392E1D0DF98F38991EFE1F4E0E6D207
:104B10004050524094E1F9F4A2E2B4E0DCD2AFE0BC
:104B2000B4E0AFD2A5D2A5ECB3E0BFD2AAE2B4E024
:104B3000D0D24050504019F4A8E3B4E0ACD2EAEC33
:104B4000F3E0BDD2809124048093C90396E18823C9
:104B500011F0833008F03EC38DD281FD8BD2AEECD4
:104B6000B3E0A3D2A5E2B4E0B6D2A2EDB3E0B9D2ED
:104B700084E0C7D27DD2A4EDB3E097D2AFE0B4E039
:104B80008AD20E94D52FB3D2E7E2F4E09DD2005042
:104B9000104019F4E4E3F4E079D20E94D52F80911B
:104BA00021048093D80395E18823A9F28695F0F734
:104BB00091F6A3D157D2A9EDB3E077D20090C40308
:104BC00000FA8091C303882379F4E89486E00F5FAC
:104BD000164F2040304010F068948BE88093C30358
:104BE000992790F99093C4033EF4A0E4B4E049D22D
:104BF00099D1AEECB3E059D282E08093DD03AEEC04
:104C0000B3E03FD2A5EEB3E050D2ABEEB3E04DD26D
:104C1000E9C22497088319832A833B830895088176
:104C200019812A813B81089580E1FF93EF9380628F
:104C30008F93A4D58F918387028F138F248B358B0D
:104C4000AE2FBF2FE1E0F4E08BE066D213960E9416
:104C50002A2E14960E942A2EEAD2EF91FF910895EF
:104C600035D409F0BBC256D310F092E3B3C2ABD136
:104C700050F18AD2CEDFAED318F1D1DFD5DFCFDF4E
:104C80000E94BE2CA1E0B4E08EE28D9380E29AE017
:104C90008D939A95E9F7C3DFC7DFFF93EF9314D0A5
:104CA00011F02BD101C0D9D18EE280930204EF9193
:104CB000FF91B096B9DF0E94E52C10F00E94F62C0F
:104CC0008FB724968FBF0895A5EEB3E0DAD1AEEC8E
:104CD000B3E0E1D10C94DA2F8C918E32D1F4A5EEB1
:104CE000B3E0CFD1BDD2B09680818E3209F037C00B
:104CF0000090C40300FA22273327028D138D16F487
:104D000024893589F9D119F4AEECB3E01BC00AD17E
:104D10001AC08C35C9F3DAD309F060C2FBD2F0F0C7
:104D200083858F7CF1F40090C40322273327028D02
:104D3000138D00FE02C024893589F4D091D270F021
:104D4000AFE0B4E09ED1A5EEB3E0AFD1ABEEB3E0FF
:104D5000ACD1A9EEB3E081D1C7D144C2089595E3A7
:104D600039C296E337C264D448F0B0D331F48F939C
:104D700091E070D48F9110F035C230C28827089529
:104D800057D4D8F0A3D3D1F48F9398E063D48F9104
:104D900020F4923481F498E01FC0FA93EA93908D46
:104DA00095FD07C0D5D18F9398940E94562D8F9171
:104DB00008F017C222968827089408950FC238D4A5
:104DC00048F084D331F48F9392E0A3D48F9110F004
:104DD00009C204C2882708958F9396D48F9108F052
:104DE00001C28827089512D450F0FA93EA930E94E2
:104DF000AF2D20F00E94BC2D08F0F3C1F9C1089539
:104E00009F9304D49F91D0F0FA93EA939F93BF931A
:104E1000AF9349D4AF91BF919F9158F08D30B1F3CA
:104E20008A3029F0992391F38D939A95EFCF889446
:104E3000992780E08C938FB722968FBF0895E6D391
:104E400030F0FA93EA93FDD308F0CBC1D1C10895B5
:104E5000DDD328F0808D827009F08FEFC3C18FEF12
:104E60000895D4D340F0FA93EA9381E0C7D15ED598
:104E700008F0B7C1BDC10895FF93EF9327D34AD27D
:104E800058F0FF93EF93E1E0F4E0AFEEB3E08CE095
:104E900043D1EF91FF918894AF91BF9130F488276F
:104EA0008C93923409F49EC1089540D30E948130BE
:104EB00011978EE28D9340D30E948130EDE0F4E0B3
:104EC000ABEFB3E086E028C1FF93EF93E6D2E4CFE7
:104ED000802FC8D09091D403891B982F8395892760
:104EE0009091D803892311F488940895C5D005D0F2
:104EF0002ED008F4089516D0F7CFE4EDF3E0D0D02B
:104F00000E94D52F72F08091D80380FD06C036959F
:104F10002795179507958695F8CF0E5F1F4F2F4F52
:104F20003F4F08958091D8030250104020403040F8
:104F300080FD06C0000F111F221F331F8695F8CF7A
:104F4000E4EDF3E0ADD00C94D02F0ED1D6DFA5EC7C
:104F5000B3E0A1D00090C40300FE04C0000F111FF5
:104F6000221F331F0F93012F122F232F33270E944D
:104F7000D02F72D18F91E8F00090C40300FA9927E6
:104F8000880F991FE80FF91F2227332701911191EC
:104F900036F4219131913F7032976FEF7FE0329775
:104FA00048EF5FEF0417150716F42607370710F0D0
:104FB00091E210C117C151D002E0A02E442755271D
:104FC0006627772704C0ADEDB3E05BD0AA243F93FA
:104FD0002F931F930F937F936F935F934F93AF9292
:104FE000B6DFAF904F915F916F917F910F911F91BD
:104FF0002F913F91A9EDB3E0CD90DD90ED90FD9024
:1050000010F4913249F5C016D106E206F30618F104
:1050100099278191982B8191982B2EF48191982B2F
:1050200081918F70982B31F4A1FE0EC04F5F5F4FBE
:105030006F4F7F4F802F912F15D09127969516F4A3
:105040008027880F00F7C3CF32970EF43297ADED6B
:10505000B3E02BD0C7C092E2BDC0002711272227A2
:10506000332708950F5F1F4F2F4F3F4F0895552748
:10507000662777270C94D02F0150104020403040F5
:1050800008950D911D912D913D91089501911191DA
:105090002191319108954D915D916D917D9108958A
:1050A000419151916191719108950D931D932D93AB
:1050B0003D93089501931193219331930895419362
:1050C0005193619371930895222733270191119190
:1050D0000895662777274D915D91089541915191EB
:1050E00008954D935D9308950D931D930895402F5A
:1050F000512F622F732F08950050104020403040F0
:105100000895569547958A95E1F70895440F551FE0
:105110008A95E1F7089584E09F9391919D938A95F4
:10512000E1F79F910895E881F9810895A881B981F7
:1051300018960895E881F9813C960895E881F981EF
:105140003896B8CFE881F9813896A0CFF3DFB2CF97
:10515000F1DF9CCFEFDFA4CFA881B9811C96089521
:10516000E881F98174960895FBDF90CFE881F98199
:10517000808D0895E881F98170960895FBDF86CFD0
:10518000F9DF8ECFF7DF96CF0090C40300FA8FEFE0
:10519000819381931EF481938FE0819342C00090AC
:1051A000C40300FA0193119316F42193319339C08B
:1051B000E881F98179960895D3DF7CCFA881B98100
:1051C000549608950F900F900F900F900F900F909E
:1051D0000895229608949093C2030895882799E42D
:1051E000F9CF2296889490E0F6CF2296889408957D
:1051F00022960894089580EA01C084E8E881F98144
:105200009F93908D892B808F9F910895E881F981DC
:105210009F93908D80958923808F9F91089588E03A
:10522000EDCF8091180688608093180608958091CC
:10523000130488608093130408950E94032408F0E7
:10524000D1CFC8CF0E941C2408F0CCCFC3CFAFE091
:10525000B4E0E4E1F4E0F1CF80E1A4E1B6E006C01F
:1052600080E0AFE0B4E002C0A9DF80E814DF0E9474
:10527000DA2F31F4E8941196EA2FFB2F1597B6CF69
:105280009D91EA2FFB2F792F777E872B8E93149792
:1052900093FF18C00F931F932F933F939F93AF9348
:1052A000BF93D0DFBF91AF919F91A8F094FF06C04C
:1052B000AF93BF93A5D3BF91AF9168F03F912F916A
:1052C0001F910F91F2DED7DFEF93FF93B6DFFF91CF
:1052D000EF916894089578CF49DF8670B1F44EDF7E
:1052E00000271E7F442752E0C3DE4CDF3FDF86707D
:1052F00061F43ADFEDDD20F061DFB6DF38F088C21F
:10530000913221F47ADF91E265CF91E063CFDED074
:1053100009F065CFFA93EA93A5D008F469CF8385A5
:105320008F3099F0827C89F480818E3271F0853ED5
:1053300061F08030D1F0A881B9819C919F3311F048
:10534000981303C07BE0B5D0A1F0B09681E0480F80
:1053500025F78827581F5F934F930FD008F080DF01
:105360004F915F91D0F6903C08F492E4E991F99165
:1053700031CFADE0B4E0B5DE34CF0090C40300FC23
:1053800019C0A5EEB3E07DDEAEECB3E05F934F93C2
:1053900082DE0E94DA2F4F915F9161F4A2EDB3E0BB
:1053A0006D917D914617570710F091E313CF0FD001
:1053B00059DE18CF0CD03F932F931F930F9388DDA6
:1053C00008F002CF0F911F912F913F910895AFE008
:1053D000B4E057CE4FD008F43CC08081853E81F1C7
:1053E000803071F1B09681E0480FBDF78827581FD3
:1053F0005F934F93C2DF08F033DF4F915F9168F7FF
:10540000913239F55F934F9378DD3F932F931F933C
:105410000F93D9DDF8F0B8DE6ADE0F911F912F915E
:105420003F917F936F935F934F9391DD0F911F9106
:105430002F913F9180F4913281F4B1DE9FD2DDCF84
:10544000ADE0B4E04EDE1DDEA9EEB3E04ADE2DDEB7
:10545000C9CEC0CEB7CE93E2BDDEB8CEA881B981A9
:1054600012960AC044275527A5EEB3E006C0ABEF5D
:10547000B3E002C0A9EEB3E02EDE03DE5A934A93F6
:10548000EFDE50F048814F70552785E03FDEE40F96
:10549000F51F49915991A6CEABCEABEFB3E0ECDF4F
:1054A000FF93EF93EFEEF3E0FA93EA93EF91FF911E
:1054B0004CCFFF93EF9381919D919F3311F089170A
:1054C00011F47A95C1F7EF91FF910895E1E0F4E0CE
:1054D0008F93E89499277BE0AEF08D918A3219F48E
:1054E0008FE368940FC08E3239F4733011F4E8946E
:1054F000F3CF80E2689406C0803011F480E20CC0E3
:105500000E94B42E81938F3309F49395743009F47B
:10551000E8947A9509F704C080E281937A95E9F7D7
:1055200080E081933C9799238F91089588E0F4DD82
:10553000389788278D930895389683E0EDDD3B9763
:1055400088278D930895928D9D93938D9D930090C0
:10555000C40300FE05C094899D9395899D93089589
:1055600099279D939D9308957C96D5DDB0970895D6
:10557000882311F49AE42ECE32E0E9E1F8E0E894D1
:105580002081222329F4D6F0EE2EFF2E689416C037
:10559000281771F1EF93FF938F9380F98F9386E033
:1055A0003296ADE0B4E09ED38F9180FB8F91FF9156
:1055B000EF9121F41181192310FF1CC03A9519F0C5
:1055C000E65EFD4FDDCFC6F4EE2DFF2D18D08083B3
:1055D0009183EF93FF938F9386E03296AE2FBF2F88
:1055E000EDE0F4E086E098DD8F91FF91EF91FACD48
:1055F00095E4F0CD96E4EECD94E4ECCD94DD09E1B4
:10560000002401920A95E9F779970895882369F0B3
:1056100072E0E9E1F8E09081981749F07A9519F085
:10562000E65EFD4FF8CF93E4D5CD9AE4D3CD08954F
:1056300080E8ECDF28F08395E1F791E48827CACD74
:10564000D1CD71DD02C0E2DF20F081E0D7DD6ED187
:10565000D5CF08958F939F935DDE7F918F91E8F072
:10566000972F6385692760FF03C0692760FD18C015
:10567000FF93EF937DDFFA93EA93EF91FF9168F048
:105680006BDD72DF53DD5FDF5DDD36DD39F04ADC77
:10569000EBDD40F0BDD06ADDA8CD0895ACDDFBCFD9
:1056A00098E498CDA5CDE881F9819181917251F16D
:1056B000E881F981808D81FD23C07096E7DC912F10
:1056C000802FD0DC3497F6DCE881F9813C96E8DC69
:1056D0000E94DA2F30F03896708172607193112732
:1056E00004C0E881F981799619279170E80FF91FB4
:1056F0008081169521F08F93F9DD8F91089572CDF9
:1057000091E068CD92E666CDFF93EF938F939F93E0
:1057100011C0FF93EF938F939F9339D058F4923435
:1057200051F508C0FF93EF938F939F93F3DD08F536
:10573000923409F54FDE00F121D09F918F91FF93B4
:10574000EF9316DFAF91BF91C0F0FA93EA93EF9118
:10575000FF919F938BE0E0DC9F91917090629D930D
:10576000129678D2149676D262DD45DDE991F991F0
:1057700039CD92E32FDD089427CD28CD85EE819396
:1057800088279FE181939A95E9F7B097089509F0EA
:1057900025CDC0DD80F183858F7D11F093E31ACD97
:1057A000FF93EF9358D0EF91FF9128F1FF93EF9380
:1057B00023D0EF91FF9185EE808339DD22273327B7
:1057C000028D138D0090C40300FE02C02489358928
:1057D00093DC79F017D0BBDB80E08193819316F4E2
:1057E000819381931EDDB0F7913221F4EED018F051
:1057F000FDC0FCC008940895EDE0F4E0A9EEB3E02C
:1058000086E06EC2E0E1FF27ADEDB3E084E068C260
:105810009FDCB6DC0E94DA2FC2F0C9F02DDC7327C2
:1058200061F4622751F45127569539F491DCA8DCD4
:105830000E94D52F84E0E2DCD5CC00E012E086E0C7
:10584000E5DCD0CC84E0DADCCDCC91E601C091E09F
:1058500086E0D4DCBFCC72E0E9E1F8E08081882307
:1058600051F0FF93EF933296ADE0B4E086E03AD288
:10587000EF91FF9129F07A9529F0E65EFD4FEECF8A
:1058800097E4A8CCAFCC70DC23DB28F06FDC81FF81
:10589000EBCC92DC91C09132F9F495DBE8F08FEF1C
:1058A000819381930090C40300FE03C081938FE035
:1058B0008193B7DC0F931F932F933F9346DB3F9168
:1058C0002F911F910F9130F4913221F48BDC67DC22
:1058D00029DBDCCF93E27ECC089575DB30F18FEFCE
:1058E000819381930090C40300FE03C081938FE0F5
:1058F000819397DC3F932F931F930F931FDCAEDDB3
:105900000F911F912F913F9180F0028F138F009084
:10591000C40300FE02C0248B358B89DC03DB4CDC26
:105920009CDB30DC80E272DC889408951FDC83FF0E
:1059300009C016DCAE2FBF2F34968081877F8193FC
:1059400081DCD0F013DC86FF18C087FF02C080FF27
:1059500014C084DD88F0AE2FBF2F1B968C9180621F
:105960008C93519681E452DCF3DB9FDB1A9772D162
:105970005EDC3CD008F029C0089534CCD3DA8091A5
:10598000D8038F936DDC18F018D051DC88948F9178
:1059900090F08A9529F0EFE0F4E078DB63DBF1CF5B
:1059A0004091D8034A9531F0EFE0F4E06FDB041B3F
:1059B00064DB56CC17CC0895FBDB772792E080E0C0
:1059C00071930197E9F7F2500DCC80E1A4E1B6E0C4
:1059D000E8E1F6E0908193FF08958193BF93AF9340
:1059E00031DCAF91BF9108F408950AC080E0AFE0C8
:1059F000B4E0E3E1F4E0908193FF0895819322CC39
:105A0000E9ECF3E0819181FF08954ADB3ADBEA2F6C
:105A1000FB2F31960E94D02FA1EEB3E046DB149706
:105A200011CCE881F981092E9181902111F088949F
:105A3000089592E6CFCBE881F98191819A7279F14C
:105A4000E881F9818F93908D95FF06C046DF48F17C
:105A5000B3DFE881F981908D709618DBF12EE02E8E
:105A600001DB349727DBE881F9813C9619DB40178D
:105A700051076207730718F434971CDB92641F25E3
:105A80009860E881F981789691939F2D9170EE0D41
:105A9000F91F8F918193169531F048DFF4CE92E68D
:105AA00099CB8F91089588940895E6DA332312F400
:105AB00093E690CB19F45ADB85FD94CB4BDB0E9427
:105AC000DA2FC1F1A8F53F932F931F930F9367D05F
:105AD0005C2D6D2D7E2D4F9351DB61D045DB7F9387
