:100000000C94460018950000189500001895000003
:10001000189500001895000018950000189500002C
:10002000189500001895000018950000189500001C
:10003000189500001895000018950000189500000C
:1000400018950000189500001895000018950000FC
:1000500018950000189500001895000018950000EC
:1000600018950000189500001895000018950000DC
:1000700018950000189500001895000018950000CC
:100080001895000018950000189500008FEF8DBF9F
:10009000C0E8E8E14E2E80E18EBFD0E1F0E15F2EB6
:1000A000A89584B7082E877F84BF88E1992781BDF2
:1000B00091BDEEEFFFE0A0E0B1E088278D9331978E
:1000C000E9F7662485E089B980E08093900059982B
:1000D00088E18AB986E0809395008BE0809399004F
:1000E00080E08093980070919B007D7F70939B00CF
:1000F00086E080939D0088E180939A00BD9ABE9A25
:10010000BF9A89EA8FBD82E08EBD82E08EBD80E01D
:1001100090E09BBD8ABD80E090E099BD88BD80E005
:1001200090E0909379008093780086E886B980E427
:1001300087B9139A149A159AD198D99AD298DA9ABB
:100140008C9817981F9AA798A29AA39AA19AA09AF6
:10015000A49AA59A789488EE93E0A8E1B1E08D93F3
:100160009C931C9AA8E1B1E08D919C910E94B301EF
:100170001C98A8E1B1E08D919C910E94B3011D9A59
:10018000A8E1B1E08D919C910E94B3011D98A8E176
:10019000B1E08D919C910E94B3011B9AA8E1B1E05E
:1001A0008D919C910E94B3011B98A8E1B1E08D91C3
:1001B0009C910E94B301AA9AA8E1B1E08D919C9113
:1001C0000E94B301AA98A8E1B1E08D919C910E9490
:1001D000B301AB9AA8E1B1E08D919C910E94B3016B
:1001E000AB98A8E1B1E08D919C910E94B301A99ACE
:1001F000A8E1B1E08D919C910E94B301A998A8E17A
:10020000B1E08D919C910E94B301A89AA8E1B1E060
:100210008D919C910E94B301A898A8E1B1E08D91C5
:100220009C910E94B301AC9AA8E1B1E08D919C91A0
:100230000E94B301AC98A8E1B1E08D919C910E941D
:10024000B301AD9AA8E1B1E08D919C910E94B301F8
:10025000AD98A8E1B1E08D919C910E94B3018FEF20
:1002600090E09BBD8ABDA8E1B1E08D919C910E9478
:10027000B30180E090E09BBD8ABDA8E1B1E08D9123
:100280009C910E94B3018FEF90E099BD88BDA8E1D9
:10029000B1E08D919C910E94B30180E090E099BD06
:1002A00088BDA8E1B1E08D919C910E94B3018FEFD0
:1002B00090E09093790080937800A8E1B1E08D916F
:1002C0009C910E94B30180E090E09093790080932C
:1002D0007800A8E1B1E08D919C910E94B30180E08B
:1002E00090E0AAE1B1E08D939C93CA990C947901B6
:1002F0001B9ACA9B0C947D011B98C9990C9481018F
:100300001D9AC99B0C9485011D9883B190E18927A2
:1003100083B9AAE1B1E00E94A30184E690E00E94C3
:10032000B301AAE1B1E00D911C91043650E015072C
:1003300018F011F00C949E010C9475011B981D98F7
:100340001C980C94B100ED91FC91EF5FFF4FFC9372
:10035000EE9308953197F1F70895689462F808953F
:10036000E89462F80895EF93FF93EE27E82BE92BCA
:1003700031F0EDECFAE03197F1F70197D1F7FF9109
:04038000EF9108955C
:00000001FF
