:100000000C94460018950000189500001895000003
:10001000189500001895000018950000189500002C
:10002000189500001895000018950000189500001C
:10003000189500001895000018950000189500000C
:100040000C941B21189500000C94A030189500000A
:1000500018950000189500001895000018950000EC
:1000600018950000189500001895000018950000DC
:1000700018950000189500000C94D23018950000D7
:100080001895000018950000189500008FEF8DBF9F
:10009000C0E8E8E14E2E80E18EBFD0E1F0E15F2EB6
:1000A000A89584B7082E877F84BF88E1992781BDF2
:1000B00091BDEEEFFFE0A0E0B1E088278D9331978E
:1000C000E9F787E489B980E08093900088E18AB9F4
:1000D000662485E089B980E080939000599888E192
:1000E0008AB986E080939500579A8BE080939900B7
:1000F00080E08093980070919B007D7F70939B00BF
:1001000086E080939D0088E180939A0070919A0028
:10011000706870939A00BD9ABE9ABF9A89EA8FBDA3
:1001200082E08EBD82E08EBD80E090E09BBD8ABD06
:1001300080E090E099BD88BD80E090E090937900E8
:100140008093780087E083BF84E982BF77B77160CE
:1001500077BF87E083BF86E886B980E487B9139AC2
:10016000149A159AD198D99AD298DA9A8C981798A5
:100170001F9AA798A29AA39AA19AA09AA49AA59A1C
:1001800070E0709371007AE0709370000E94DD213E
:10019000A6E4B3E0E2E6FAE60E94EB2F82E090E00C
:1001A000A2E2B3E08D939C9384EF91E0A8E1B3E0E9
:1001B0008D939C9381E080931A0380E080931B03CE
:1001C00078940E94560582E593E0A6E1B3E08D9312
:1001D0009C9383E18093EA0282E380931103ABE86E
:1001E000B3E08C9199279BBD8ABDA2EAB3E08C91C4
:1001F000992799BD88BDA9EBB3E08C91992790937D
:100200007900809378000E94860D0E94F00F0E9472
:1002100031100E9496120E94B7130E9480010E9422
:10022000EF010E94D3030E9439040E94F104ADEB58
:10023000B1E00D911C91043650E0150718F011F053
:100240000C9424010C945F0180E090E0ADEBB1E0F0
:100250008D939C93A0ECB1E08C918F5F8C930E9466
:100260001909A1E1B3E08C918F5F8C93AAEEB2E003
:100270008C918F5F8C93A8EEB2E00E945821AEE182
:10028000B3E00D911C91003050E0150718F011F00B
:100290000C944C010C945001AEE1B3E00E945F213C
:1002A000A8EEB2E00D911C910C3350E0150718F048
:1002B00011F00C945D010C945F010E9402150091F5
:1002C000C001033018F011F00C9468010C946D011A
:1002D00080E08093C0010E94510B00914A030130DD
:1002E00011F00C9475010C944A0E0091BA03013080
:1002F00011F00C947D010E94AA111B980C9403012B
:10030000AEE1B3E00D911C91003050E0150781E0A3
:1003100009F080E08F93A5E3B0E00C9102FB81E04F
:100320000EF080E09F918923882311F40C94A201A0
:10033000A6E3B2E0EEEAFAE60E94D42F0E9482140D
:10034000AA98AB98AEE1B3E00D911C91003050E05B
:10035000150780E010F009F081E08F93A5E3B0E08D
:100360000C9102FB81E00EF480E09F9189238F9332
:10037000A5E3B0E00C9103FB81E00EF480E09F91D7
:100380008923882311F40C94EE010091BB03003003
:1003900011F00C94CD010C94EE010091BB030130DF
:1003A00011F00C94DE01A6E3B2E0EEEBFAE60E9457
:1003B000D42F0E948214AA9A0C94EE010091BB03E0
:1003C000023011F00C94EE01A6E3B2E0EEECFAE696
:1003D0000E94D42F0E948214AA9AAB9A0895E8E74B
:1003E000F3E0A4EBB1E00E941C3211F00C94FB018D
:1003F00081E080937503E1E8F3E0A4EBB1E00E94B3
:100400001C3211F00C94070280E080937503EFE832
:10041000F3E0A4EBB1E00E941C3211F00C94130243
:1004200081E080938C03E8E9F3E0A4EBB1E00E9463
:100430001C3211F00C941F0280E080938C03E6EADA
:10044000F3E0A4EBB1E00E941C3211F00C942B02FB
:1004500081E08093A303EFEAF3E0A4EBB1E00E9414
:100460001C3211F00C94370280E08093A3030091BA
:100470007503013081E009F080E08F93AAE8B3E0D2
:100480004D915527AAE4B0E00D911C910417150772
:1004900081E008F080E09F918923882311F40C9477
:1004A0007B02AFE6B3E04D915C91A6E7B3E00D911E
:1004B0001C910417150710F00C946402A6E7B3E032
:1004C0000E9458210C947B02AFE6B3E04D915C9101
:1004D000A6E7B3E00D911C910417150710F40C94D6
:1004E0007B02AAE4B0E00E94582180E090E0A6E7F9
:1004F000B3E08D939C9300917503003081E009F087
:1005000080E08F93ABE8B3E04D915527AAE4B0E0CB
:100510000D911C910417150780E010F009F081E09F
:100520009F918923882311F40C94C002AFE6B3E0B5
:100530004D915C91A6E7B3E00D911C91041715074E
:1005400010F00C94A902A6E7B3E00E9458210C9485
:10055000C002AFE6B3E04D915C91A6E7B3E00D9128
:100560001C910417150710F40C94C002AAE4B0E023
:100570000E945F2180E090E0A6E7B3E08D939C931A
:1005800000918C03013081E009F080E08F93A1EAB3
:10059000B3E04D915527A8E4B0E00D911C910417EC
:1005A000150781E008F080E09F918923882311F4EA
:1005B0000C940403A1E7B3E04D915C91ADE8B3E086
:1005C0000D911C910417150710F00C94ED02ADE885
:1005D000B3E00E9458210C940403A1E7B3E04D91CD
:1005E0005C91ADE8B3E00D911C910417150710F470
:1005F0000C940403A8E4B0E00E94582180E090E04D
:10060000ADE8B3E08D939C9300918C03003081E0C2
:1006100009F080E08F93A2EAB3E04D915527A8E45A
:10062000B0E00D911C910417150780E010F009F05F
:1006300081E09F918923882311F40C944903A1E759
:10064000B3E04D915C91ADE8B3E00D911C910417BE
:10065000150710F00C943203ADE8B3E00E94582166
:100660000C944903A1E7B3E04D915C91ADE8B3E090
:100670000D911C910417150710F40C944903A8E47C
:10068000B0E00E945F2180E090E0ADE8B3E08D93A0
:100690009C930091A303013081E009F080E08F93E7
:1006A000A8EBB3E04D915527A8E7B0E00D911C9160
:1006B0000417150781E008F080E09F9189238823C3
:1006C00011F40C948D03A3E7B3E04D915C91A4EA7F
:1006D000B3E00D911C910417150710F00C947603EC
:1006E000A4EAB3E00E9458210C948D03A3E7B3E081
:1006F0004D915C91A4EAB3E00D911C91041715078C
:1007000010F40C948D03A8E7B0E00E94582180E01B
:1007100090E0A4EAB3E08D939C930091A303003092
:1007200081E009F080E08F93A9EBB3E04D9155276C
:10073000A8E7B0E00D911C910417150780E010F0B8
:1007400009F081E09F918923882311F40C94D2034E
:10075000A3E7B3E04D915C91A4EAB3E00D911C9145
:100760000417150710F00C94BB03A4EAB3E00E9431
:1007700058210C94D203A3E7B3E04D915C91A4EA15
:10078000B3E00D911C910417150710F40C94D203DB
:10079000A8E7B0E00E945F2180E090E0A4EAB3E027
:1007A0008D939C930895A0E2B3E00D911C91A2E279
:1007B000B3E04D915C91041B150BA4E2B3E00D93E3
:1007C0001C93A0E2B3E00D911C91A2E2B3E04D9125
:1007D0005C91040F151FA6E2B3E00D931C93A4E2F5
:1007E000B3E04D915C91A6E1B3E00D911C9104172B
:1007F000150781E014F009F080E08F93A5E3B0E0E5
:100800000C9101FB81E00EF480E09F918923882305
:1008100011F40C941404A99AA6E3B2E0E2EEFAE60D
:100820000E94D42F0E948214A6E2B3E04D915C9105
:10083000A6E1B3E00D911C910417150780E00CF0C0
:1008400081E08F93A5E3B0E00C9101FB81E00EF015
:1008500080E09F918923882311F40C943804A9988F
:10086000A6E3B2E0E2EFFAE60E94D42F0E948214DF
:100870000895E6E4F3E00E946A32EAE3F3E00E94BE
:1008800065320E94C433EDE0F0E0AEE3B3E00E94D5
:10089000B931E6E4F3E00E946A32EAE3F3E00E9451
:1008A00065320E94B533EDE0F0E0A2E4B3E00E94CF
:1008B000B931E8E2F3E00E946532EEE3F3E00E9432
:1008C0006A320E944C3280E010F009F081E08F9390
:1008D000A5E3B0E00C9104FB81E00EF480E09F9171
:1008E00089238F93E8E2F3E00E946532E6E6FAE6B8
:1008F0000E9412340E944C3280E010F009F081E036
:100900009F9189238F93E8E2F3E00E946532EAE643
:10091000FAE60E9412340E944C3281E008F080E036
:100920009F918923882311F40C949F04AC9AA6E329
:10093000B2E0E4E0FBE60E94D42F0E948214E8E2D9
:10094000F3E00E946532E2E4F3E00E946A320E9422
:100950004C3281E008F080E08F93A5E3B0E00C9189
:1009600004FB81E00EF080E09F918923882311F43D
:100970000C94C304AC98A6E3B2E0E2E1FBE60E946B
:10098000D42F0E948214E8E2F3E00E946532E6E68A
:10099000FAE60E9412340E944C3281E008F080E0B6
:1009A0008F93E8E2F3E00E946532EAE6FAE60E94FD
:1009B00012340E944C3280E010F009F081E09F91E7
:1009C000892B8F93A5E3B0E00C9104FB81E00EF03E
:1009D00080E09F918923882311F40C94F004AC9853
:1009E0000895EBE4F3E0A4EBB1E00E941C3281E057
:1009F00009F080E08F93A5E3B0E00C9100FB81E06B
:100A00000EF480E09F918923882311F40C94110542
:100A1000A89AA6E3B2E0E0E2FBE60E94D42F0E948F
:100A20008214E4E5F3E0A4EBB1E00E941C3281E023
:100A300009F080E08F93A5E3B0E00C9100FB81E02A
:100A40000EF080E09F918923882311F40C943105E6
:100A5000A898A6E3B2E0E2E3FBE60E94D42F0E944E
:100A60008214EDE5F3E0A4EBB1E00E941C3211F03A
:100A70000C944305A89AA6E3B2E0E0E2FBE60E94EC
:100A8000D42F0E948214E6E6F3E0A4EBB1E00E94CA
:100A90001C3211F00C945505A898A6E3B2E0E2E3ED
:100AA000FBE60E94D42F0E94821408951C9AA8E1AC
:100AB000B3E08D919C910E94CE211C981B9AA8E1D5
:100AC000B3E08D919C910E94CE211B981D9AA8E1C4
:100AD000B3E08D919C910E94CE211D9880E090E022
:100AE0009BBD8ABD80E090E099BD88BD80E090E02C
:100AF00090937900809378008CE10E9495210E9468
:100B0000922184E690E00E94CE21E4E4FBE60E947C
:100B10008B21A0E0B0E1EAE5FBE60E94D42F0E9421
:100B200083210E949221E0E0F0E0AFEBB1E00E946F
:100B3000F0310091BF01013081E009F480E08F9332
:100B400000911A03003081E009F080E09F91892331
:100B5000882311F40C940806F8941D9AE2E6FBE64B
:100B60000E948B210E94922184E20E947F2184E2D4
:100B70000E947F2184E20E947F21E1E0F0E00E9458
:100B80009C21ECE6FBE60E948B210E949221E2E789
:100B9000FBE60E9475210E947C21E1E0F0E00E94CA
:100BA0009C21E8E7FBE60E948B210E949221E8E766
:100BB000FBE60E9475210E947C21E1E0F0E00E94AA
:100BC0009C21E4E8FBE60E948B210E949221ECE844
:100BD000FBE60E9475218AE00E947F21E1E0F0E0BF
:100BE0000E949C211D987894A2E3B1E00E940631F6
:100BF000A3E5B1E00E94063181E08093BF01E0E00F
:100C0000F0E0AFEBB1E07BE70E94D4310C940E062C
:100C10000091BF01013011F00C940E060E94B71331
:100C2000A0E3B3E0E9E0F0E094E00E94F331E0E318
:100C3000F3E00E946532EEE6FAE60E9412340E946A
:100C40004C3281E008F080E08F93E0E3F3E00E9413
:100C50006532E2E7FAE60E9412340E944C3280E0EC
:100C600010F009F081E09F91892B8F93E0E3F3E08E
:100C70000E946532E6E7FAE60E9412340E944C3286
:100C800081E009F080E09F91892B882311F40C9476
:100C90005706A0E3B3E0EAE7FAE60E94EB2FE9E0AB
:100CA000F0E0A0E3B3E094E07BE70E94D731ACE250
:100CB000B3E0E5E0F0E094E00E94F331ECE2F3E031
:100CC0000E946532EEE6FAE60E9412340E944C322F
:100CD00081E008F080E08F93ECE2F3E00E9465325F
:100CE000E2E7FAE60E9412340E944C3280E010F0F3
:100CF00009F081E09F91892B8F93ECE2F3E00E9451
:100D00006532E6E7FAE60E9412340E944C3281E036
:100D100009F080E09F91892B882311F40C949E06A2
:100D2000ACE2B3E0EEE7FAE60E94EB2FE5E0F0E09C
:100D3000ACE2B3E094E07BE70E94D731A4E3B3E0F8
:100D4000EDE0F0E094E00E94F331E4E3F3E00E9490
:100D50006532E2E8FAE60E9412340E944C3281E0E9
:100D600008F080E08F93E4E3F3E00E946532E6E868
:100D7000FAE60E9412340E944C3280E010F009F032
:100D800081E09F91892B8F93E4E3F3E00E94653229
:100D9000E6E7FAE60E9412340E944C3281E009F044
:100DA00080E09F91892B882311F40C94E506A4E33D
:100DB000B3E0EAE8FAE60E94EB2FEDE0F0E0A4E30E
:100DC000B3E094E07BE70E94D731AAE3B3E0E2E12D
:100DD000F0E094E00E94F331EAE3F3E00E94653230
:100DE000EEE8FAE60E9412340E944C3280E010F0E5
:100DF00009F081E08F93EAE3F3E00E946532E2E9D3
:100E0000FAE60E9412340E944C3281E008F080E041
:100E10009F91892B882311F40C941C07AAE3B3E05B
:100E2000E6E9FAE60E94EB2FE2E1F0E0AAE3B3E0A4
:100E300094E07BE70E94D73100911B03003081E0F2
:100E400009F080E08F93A1E2B0E00C9107FB81E014
:100E50000EF480E09F918923882311F40C943407C9
:100E60000E944D140E94781600911B03013081E00E
:100E700009F080E08F93A1E2B0E00C9107FB81E0E4
:100E80000EF080E09F91892B882311F40C941709B0
:100E9000E3E0F0E0A0E2B3E00E94F231A0E2B3E0D0
:100EA0000D911C91003951E0150780E014F009F014
:100EB00081E08F93A0E2B3E00D911C91043650E0E5
:100EC000150780E00CF481E09F91892B882311F4B1
:100ED0000C9477078AEF90E0A0E2B3E08D939C93A7
:100EE000E3E0F0E0A0E2B3E07BE70E94D631E6E188
:100EF000F0E0ABE4B3E098E00E94FA31EFE1F0E01B
:100F0000A4E5B3E098E00E94FA31E8E2F0E0ADE554
:100F1000B3E098E00E94FA31E1E3F0E0A6E6B3E046
:100F200098E00E94FA31E1E0F0E0ACE1B3E00E9429
:100F3000F231ACE1B3E00D911C91043853E0150798
:100F400018F011F00C94A6070C94B3078CE291E012
:100F5000ACE1B3E08D939C93E1E0F0E0ACE1B3E071
:100F60007BE70E94D631ECE7F0E0ABEBB3E00E9408
:100F7000F0310091BB03023018F011F00C94C2075D
:100F80000C94CC0780E08093BB03ECE7F0E0ABEB84
:100F9000B3E07BE70E94D431EAE3F0E0AFE6B3E0F0
:100FA0000E94F231AFE6B3E00D911C91043C59E090
:100FB000150780E010F009F081E08F93AFE6B3E011
:100FC0000D911C91043650E0150781E008F080E097
:100FD0009F91892B882311F40C94FB0788EE93E0F2
:100FE000AFE6B3E08D939C93EAE3F0E0AFE6B3E0C5
:100FF0007BE70E94D631ECE3F0E0A1E7B3E00E948A
:10100000F231A1E7B3E00D911C91043C59E01507C2
:1010100080E010F009F081E08F93A1E7B3E00D913B
:101020001C91043650E0150781E008F080E09F91A4
:10103000892B882311F40C942A0888EE93E0A1E709
:10104000B3E08D939C93ECE3F0E0A1E7B3E07BE7A2
:101050000E94D631EEE3F0E0A3E7B3E00E94F23164
:10106000A3E7B3E00D911C91043C59E0150780E023
:1010700010F009F081E08F93A3E7B3E00D911C918C
:10108000043650E0150781E008F080E09F91892B3D
:10109000882311F40C94590888EE93E0A3E7B3E099
:1010A0008D939C93EEE3F0E0A3E7B3E07BE70E942F
:1010B000D631E0E4F0E0A8E7B3E098E00E94FA312E
:1010C000E9E4F0E0A1E8B3E098E00E94FA31E2E55B
:1010D000F0E0AAE8B3E00E94F031E3E5F0E0ABE82D
:1010E000B3E00E94F03100918B03043618F011F048
:1010F0000C947C080C94860880E080938B03E3E5D5
:10110000F0E0ABE8B3E07BE70E94D431E4E5F0E047
:10111000AFE8B3E098E00E94FA31EDE5F0E0A8E92D
:10112000B3E098E00E94FA31E6E6F0E0A1EAB3E02D
:101130000E94F031E7E6F0E0A2EAB3E00E94F0316D
:101140000091A203043618F011F00C94A9080C9435
:10115000B30880E08093A203E7E6F0E0A2EAB3E000
:101160007BE70E94D431E8E6F0E0A6EAB3E098E03D
:101170000E94FA31E1E7F0E0AFEAB3E098E00E94C4
:10118000FA31EAE7F0E0A8EBB3E00E94F031EBE7D8
:10119000F0E0A9EBB3E00E94F0310091B90304360E
:1011A00018F011F00C94D6080C94E00880E08093BD
:1011B000B903EBE7F0E0A9EBB3E07BE70E94D431A1
:1011C000AAE3B3E0E2E1F0E094E00E94F331EAE365
:1011D000F3E00E946532E6E6FAE60E9412340E94CD
:1011E0004C3281E008F080E08F93EAE3F3E00E9464
:1011F0006532EEE8FAE60E9412340E944C3280E03A
:1012000010F009F081E09F91892B882311F40C9450
:101210001709AAE3B3E0E6E9FAE60E94EB2FE2E160
:10122000F0E0AAE3B3E094E07BE70E94D7310895B1
:1012300008958CE10E9495210E94922184E690E01D
:101240000E94CE210E943022ACE5B1E00E948521AF
:10125000E0E9FBE60E948B210E943022A5E6B1E086
:101260000E9485210E949221E2E9FBE60E948B21E7
:10127000A5E3B0E08C9182FBA0E0B0E10E940330D6
:101280008D9388278C930E948321EEE9FBE60E94D0
:101290008B21A0E0B0E1EEE1F3E00E942C310E944E
:1012A0008321E2EAFBE60E948B210E949221E4EA7C
:1012B000FBE60E948B21A5E3B0E08C9183FBA0E0CC
:1012C000B0E10E9403308D9388278C930E94832184
:1012D000EEE9FBE60E948B21A0E0B0E1EEE1F3E055
:1012E0000E942C310E948321E2EAFBE60E948B21BE
:1012F0000E949221E0EBFBE60E948B21A5E3B0E087
:101300008C9181FBA0E0B0E10E9403308D9388278F
:101310008C930E948321E8EBFBE60E948B21A0E0E6
:10132000B0E1E4E2F3E00E9435310E948321EAEB70
:10133000FBE60E948B21A0E0B0E1E6E2F3E00E9430
:1013400035310E948321E2EAFBE60E948B210E9454
:101350009221ECEBFBE60E948B21A5E3B0E08C919F
:1013600080FBA0E0B0E10E9403308D9388278C932E
:101370000E948321E0E9FBE60E948B21ABE4B3E00D
:101380000E948521EAEBFBE60E948B21A4E5B3E0F5
:101390000E948521E6ECFBE60E948B21ADE5B3E0DF
:1013A0000E948521EAEBFBE60E948B21A6E6B3E0D2
:1013B0000E9485210E949221EAECFBE60E948B218B
:1013C000A5E3B0E08C9184FBA0E0B0E10E94033083
:1013D0008D9388278C930E948321E8EBFBE60E9483
:1013E0008B21A0E0B0E1EAE3F3E0552744E00E945E
:1013F00093220E948321E2EAFBE60E948B210E9455
:101400009221E6EDFBE60E948B21A5E3B0E08C91F2
:1014100085FBA0E0B0E10E9403308D9388278C9378
:101420000E9483210E949221ECEDFBE60E948B2119
:10143000A0E0B0E1EAE4F0E00E942C310E948321B8
:10144000E2EEFBE60E948B21A0E0B0E1EAE8F3E0E7
:101450000E943C310E948321EAEEFBE60E948B2130
:10146000A8E7B3E00E948521EAEBFBE60E948B210E
:10147000A0E0B0E1EBE8F3E00E943C310E94832160
:10148000EAEEFBE60E948B21A1E8B3E00E948521F1
:101490000E949221ECEEFBE60E948B21A0E0B0E1DD
:1014A000E8E4F0E00E942C310E948321E2EEFBE6AA
:1014B0000E948B21A0E0B0E1E1EAF3E00E943C3120
:1014C0000E948321EAEEFBE60E948B21AFE8B3E0A5
:1014D0000E948521EAEBFBE60E948B21A0E0B0E1AF
:1014E000E2EAF3E00E943C310E948321EAEEFBE64F
:1014F0000E948B21A8E9B3E00E9485210E949221DD
:10150000E2EFFBE60E948B21A0E0B0E1E8E7F0E02B
:101510000E942C310E948321E2EEFBE60E948B2187
:10152000A0E0B0E1E8EBF3E00E943C310E948321AF
:10153000EAEEFBE60E948B21A6EAB3E00E94852139
:10154000EAEBFBE60E948B21A0E0B0E1E9EBF3E0DF
:101550000E943C310E948321EAEEFBE60E948B212F
:10156000AFEAB3E00E9485210E949221E8EFFBE6FA
:101570000E948B210E949221EAEFFBE60E948B21C0
:10158000A0E0B0E1E8E2F3E0552744E00E949322B6
:101590000E948321E0E0FCE60E948B21A0E0B0E104
:1015A000EBEEF2E0552744E00E9493220E94832153
:1015B000E4E0FCE60E948B210E949221E8E0FCE638
:1015C0000E948B21A0E0B0E1E6E1F3E00E9435311A
:1015D0000E948321E0E1FCE60E948B210E9492217F
:1015E000E4E1FCE60E948B21A0E0B0E1E6E0F3E05C
:1015F0000E943C310E94832100910603003011F0CB
:101600000C94080BECE1FCE60E948B210E949221D5
:1016100000910603013011F00C94140BE8EFFBE687
:101620000E9475210E947C21E0E2FCE60E948B2151
:10163000A0E0B0E1E4E0F3E00E943C310E948321AD
:10164000E8EBFBE60E948B21A0E0B0E1ECE1F3E0E7
:101650000E942C310E948321EAE2FCE60E948B2149
:101660000E949221EEE2FCE60E948B21A0E0B0E114
:10167000E5E0F3E00E943C310E948321EAE3FCE6CE
:101680000E948B21A0E0B0E1EFE6F3E00E942C3154
:101690000E948321E2EAFBE60E948B210E949221B4
:1016A0000895E8EFFBE60E9475210E947C210E94CC
:1016B0003022ACE5B1E00E946F21E0E9FBE60E9438
:1016C00075210E943022A5E6B1E00E946F210E94A0
:1016D0007C21E2E9FBE60E947521A5E3B0E08C9154
:1016E00082FBA0E0B0E10E9403308D9388278C93A9
:1016F0000E946D21EEE9FBE60E947521A0E0B0E1B9
:10170000EEE1F3E00E942C310E946D21E2EAFBE65B
:101710000E9475210E947C21E4EAFBE60E9475216B
:10172000A5E3B0E08C9183FBA0E0B0E10E94033020
:101730008D9388278C930E946D21EEE9FBE60E9431
:101740007521A0E0B0E1EEE1F3E00E942C310E94AF
:101750006D21E2EAFBE60E9475210E947C21E0EB0C
:10176000FBE60E947521A5E3B0E08C9181FBA0E02F
:10177000B0E10E9403308D9388278C930E946D21E5
:10178000E8EBFBE60E947521A0E0B0E1E4E2F3E0C3
:101790000E9435310E946D21EAEBFBE60E94752123
:1017A000A0E0B0E1E6E2F3E00E9435310E946D2155
:1017B000E2EAFBE60E9475210E947C21ECEBFBE64D
:1017C0000E947521A5E3B0E08C9180FBA0E0B0E120
:1017D0000E9403308D9388278C930E946D21E0E94D
:1017E000FBE60E947521ABE4B3E00E946F21EAEBB7
:1017F000FBE60E947521A4E5B3E00E946F21E6ECB0
:10180000FBE60E947521ADE5B3E00E946F21EAEB93
:10181000FBE60E947521A6E6B3E00E946F210E94BC
:101820007C21EAECFBE60E947521A5E3B0E08C91F7
:1018300084FBA0E0B0E10E9403308D9388278C9355
:101840000E946D21E8EBFBE60E947521A0E0B0E16B
:10185000EAE3F3E0552744E00E9493220E946D21C1
:10186000E2EAFBE60E9475210E947C21E6EDFBE6A0
:101870000E947521A5E3B0E08C9185FBA0E0B0E16A
:101880000E9403308D9388278C930E946D210E94C3
:101890007C21ECEDFBE60E947521A0E0B0E1EAE4DA
:1018A000F0E00E942C310E946D21E2EEFBE60E94E6
:1018B0007521A0E0B0E1EAE8F3E00E943C310E942B
:1018C0006D21EAEEFBE60E947521A8E7B3E00E94D5
:1018D0006F21EAEBFBE60E947521A0E0B0E1EBE8A6
:1018E000F3E00E943C310E946D21EAEEFBE60E948B
:1018F0007521A1E8B3E00E946F210E947C21ECEEEB
:10190000FBE60E947521A0E0B0E1E8E4F0E00E946F
:101910002C310E946D21E2EEFBE60E947521A0E0D1
:10192000B0E1E1EAF3E00E943C310E946D21EAEE71
:10193000FBE60E947521AFE8B3E00E946F21EAEB5D
:10194000FBE60E947521A0E0B0E1E2EAF3E00E942C
:101950003C310E946D21EAEEFBE60E947521A8E968
:10196000B3E00E946F210E947C21E2EFFBE60E941F
:101970007521A0E0B0E1E8E7F0E00E942C310E9480
:101980006D21E2EEFBE60E947521A0E0B0E1E8EBFC
:10199000F3E00E943C310E946D21EAEEFBE60E94DA
:1019A0007521A6EAB3E00E946F21EAEBFBE60E94F4
:1019B0007521A0E0B0E1E9EBF3E00E943C310E9428
:1019C0006D21EAEEFBE60E947521AFEAB3E00E94CA
:1019D0006F210E947C21E8EFFBE60E9475210E94A6
:1019E0007C21EAEFFBE60E947521A0E0B0E1E8E28D
:1019F000F3E0552744E00E9493220E946D21E0E02D
:101A0000FCE60E947521A0E0B0E1EBEEF2E0552784
:101A100044E00E9493220E946D21E4E0FCE60E94D3
:101A200075210E947C21E8E0FCE60E947521A0E07F
:101A3000B0E1E6E1F3E00E9435310E946D21E0E182
:101A4000FCE60E9475210E947C21E4E1FCE60E94F4
:101A50007521A0E0B0E1E6E0F3E00E943C310E9495
:101A60006D2100910603003011F00C943D0DECE166
:101A7000FCE60E9475210E947C2100910603013042
:101A800011F00C94490DE8EFFBE60E9475210E94CD
:101A90007C21E0E2FCE60E947521A0E0B0E1E4E0F8
:101AA000F3E00E943C310E946D21E8EBFBE60E94CE
:101AB0007521A0E0B0E1ECE1F3E00E942C310E943E
:101AC0006D21EAE2FCE60E9475210E947C21EEE293
:101AD000FCE60E947521A0E0B0E1E5E0F3E00E94A1
:101AE0003C310E946D21EAE3FCE60E947521A0E0F2
:101AF000B0E1EFE6F3E00E942C310E946D21E2EAB2
:101B0000FBE60E9475210E947C2108950091EA0263
:101B10000A3018F011F00C948F0D0C94490E80E0EF
:101B20008093F902ABEEB2E0E6E7FAE60E94EB2F13
:101B300080E08093EA02F8940E94E52110E90E9477
:101B4000FB211CE90E94FB210E94F52181E080938A
:101B5000F8020091F8020A3F18F011F00C94DB0D26
:101B60000E94E52111E90E94FB210E941822A5EFA5
:101B7000B2E01C930E941822A6EFB2E01C930E94D0
:101B80001822A7EFB2E01C930E94F521A7EFB2E064
:101B90000C9107FB16F40C94CF0D0C94DB0D81E037
:101BA00090E00E94CE21A8EFB2E08C918F5F8C93E1
:101BB00010F40C94A90D0E94E52111E90E94FB216B
:101BC0000E941822A5EFB2E01C930E941822A6EFF3
:101BD000B2E01C930E941822A7EFB2E01C930E946F
:101BE000F52178949091F5028091F602A3EFB2E08E
:101BF0008D939C93EAE9FAE60E941234E3EFF2E057
:101C0000D190E080FF2400270E94CD320E941D3336
:101C1000EDE0F0E0AFEEB2E00E94B931EEE9FAE6B5
:101C20000E941234EFEEF2E00E9465320E94763399
:101C3000EDE0F0E0AFEEB2E00E94B931EFEEF2E09D
:101C40000E946A32EBEEF2E00E9465320E94C433D9
:101C5000EDE0F0E0ABEEB2E00E94B931A9EFB2E006
:101C60008C918F5F8C930091F902053011F00C94E8
:101C7000980DE2EAFAE60E941234EBEEF2E00E94DE
:101C800065320E941D33EDE0F0E0ABEEB2E00E9461
:101C9000B93108951C9A1D9A1B98E2E4FCE60E9453
:101CA00075210E947C218CE380933803E2E7FCE6F7
:101CB0000E947521A0E0B0E1E8E3F3E00E943C312E
:101CC0000E946D21EAE9FCE60E9475210E947C21B8
:101CD00080913803815080933803E1E0F0E00E9466
:101CE0009C2100913803003011F00C94560EACE2A8
:101CF000B3E0E6E7FAE60E94EB2F80E0809338033A
:101D000084E18093EA020E94860D8AE090E00E94BE
:101D1000CE21EBEEF2E00E946A32ECE2F3E00E94A8
:101D200065320E94C433EDE0F0E0ACE2B3E00E9423
:101D3000B931A8E3B3E08C918F5F8C9300913803A5
:101D40000A3011F00C94830EEEE8FAE60E94123489
:101D5000ECE2F3E00E9465320E941D33EDE0F0E01A
:101D6000ACE2B3E00E94B931E5E0F0E0ACE2B3E010
:101D700094E07BE70E94D731E0EAFCE60E947521FF
:101D8000A0E0B0E1ECE2F3E0552744E00E949322AA
:101D90000E946D21E2EBFCE60E9475210E947C21ED
:101DA000E5E0F0E00E949C21E4EBFCE60E94752156
:101DB0000E947C2184E1809338038CE10E947F2182
:101DC0000E947C2184E690E00E94CE21E2EDFCE6B8
:101DD0000E947521A0E0B0E1E8E3F3E00E943C310D
:101DE0000E946D21EAE9FCE60E9475210E947C2197
:101DF00080913803815080933803E1E0F0E00E9445
:101E00009C2100913803003011F00C94DD0EE0EFBE
:101E1000FCE60E9475210E947C218CE380933803AC
:101E20008CE10E947F210E947C2184E690E00E9448
:101E3000CE21E0E2FDE60E947521A0E0B0E1E8E3FA
:101E4000F3E00E943C310E946D21EAE9FCE60E9429
:101E500075210E947C218091380381508093380342
:101E6000E1E0F0E00E949C2100913803003011F085
:101E70000C94100FA0E3B3E0E6E7FAE60E94EB2F24
:101E800080E08093380384E18093EA020E94860D0B
:101E90008AE090E00E94CE21EBEEF2E00E946A32EE
:101EA000E0E3F3E00E9465320E94C433EDE0F0E02D
:101EB000A0E3B3E00E94B931A8E3B3E08C918F5F57
:101EC0008C93009138030A3011F00C94460FEEE821
:101ED000FAE60E941234E0E3F3E00E9465320E94C9
:101EE0001D33EDE0F0E0A0E3B3E00E94B931E9E09A
:101EF000F0E0A0E3B3E094E07BE70E94D731ECE2AE
:101F0000F3E00E946A32E0E3F3E00E9465320E944F
:101F1000B533EDE0F0E0A4E3B3E00E94B931E6E6CA
:101F2000FAE60E941234E4E3F3E00E9465320E9474
:101F30001D33EDE0F0E0A4E3B3E00E94B931E8E442
:101F4000FDE60E947521A0E0B0E1E0E3F3E0552753
:101F500044E00E9493220E946D21E2EBFCE60E9485
:101F600075210E947C21EAE5FDE60E947521A0E032
:101F7000B0E1E4E3F3E0552744E00E9493220E949D
:101F80006D21E2EBFCE60E9475210E947C2181E03C
:101F900080933903E1E1F0E0A9E3B3E07BE70E943D
:101FA000D431E5E0F0E00E949C218CE10E947F2189
:101FB0000E947C2184E690E00E94CE21EEE6FDE6C0
:101FC0000E9475210E947C21E5E0F0E00E949C21A6
:101FD00080E080934A031C981D981B980C94E300A2
:101FE000ECE2F3E00E946A32EBEEF2E00E9465322E
:101FF0000E94B533EDE0F0E0A8E2B3E00E94B93111
:10200000E4E3F3E00E946A32E8E2F3E00E94653222
:102010000E941D33EDE0F0E0A8E2B3E00E94B93188
:10202000E2E8FAE60E941234E8E2F3E00E94653248
:102030000E947633EDE0F0E0A8E2B3E00E94B9310F
:10204000E6EAFAE60E941234E8E2F3E00E94653222
:102050000E94C433EDE0F0E0A8E2B3E00E94B931A1
:10206000089507B1007E07B90E94DA2FAAEFB2E007
:102070008D939C9307B1007E016007B90E94DA2F0F
:10208000ACEFB2E08D939C9307B1007E026007B97C
:102090000E94DA2FAEEFB2E08D939C9307B1007EE1
:1020A000036007B90E94DA2FA0E0B3E08D939C9300
:1020B00007B1007E046007B90E94DA2FA2E0B3E006
:1020C0008D939C93CA990C94681081E080930403CB
:1020D000CA9B0C946E1080E080930403009104036B
:1020E000013011F00C948410ACE1B3E08D919C911F
:1020F000AEE1B3E08D939C931C9A1D9AE2E0F0E070
:102100000E949C211C981D98C9990C948A1081E00A
:1021100080930503C99B0C94901080E08093050385
:1021200000910503013011F00C94821100917503A8
:10213000003011F00C94041181E080937503AAE83B
:10214000B3E04D915527AAE4B0E00D911C9104171E
:10215000150710F00C94B010AAE4B0E00E945821CA
:1021600081E080938C03A1EAB3E04D915527A8E468
:10217000B0E00D911C910417150710F00C94C410D9
:10218000A8E4B0E00E94582181E08093A303A8EB6B
:10219000B3E04D915527A8E7B0E00D911C910417CD
:1021A000150710F00C94D810A8E7B0E00E94582151
:1021B00082E390E00E94CE2183B198E0892783B921
:1021C000AAE8B3E04D915527AAE4B0E00D911C9127
:1021D0000417150711F00C949C10AAE8B3E08C9139
:1021E00099279BBD8ABDA1EAB3E08C91992799BD3F
:1021F00088BDA8EBB3E08C919927909379008093E8
:1022000078001B980C947E1100917503013011F039
:102210000C947E1180E080937503ABE8B3E04D91A0
:102220005527AAE4B0E00D911C910417150718F08A
:1022300011F00C941D110C942111AAE4B0E00E943D
:102240005F2180E080938C03A2EAB3E04D91552793
:10225000A8E4B0E00D911C910417150718F011F0D7
:102260000C9434110C943811A8E4B0E00E945F2162
:1022700080E08093A303A9EBB3E04D915527A8E735
:10228000B0E00D911C910417150718F011F00C9493
:102290004B110C944F11A8E7B0E00E945F2183B16D
:1022A00098E0892783B983B190E1892783B982E3D4
:1022B00090E00E94CE21ABE8B3E04D915527AAE40F
:1022C000B0E00D911C910417150711F00C940A1140
:1022D0001B981C98ABE8B3E08C9199279BBD8ABDF5
:1022E000A2EAB3E08C91992799BD88BDA9EBB3E030
:1022F0008C91992790937900809378008AEF90E0F1
:102300000E94CE219F9B0C949211009107030A3FDB
:1023100010F00C949011A7E0B3E08C918F5F8C9338
:102320000C9498119F990C94981180E08093070366
:10233000009107030A3018F011F00C94A1110C94CD
:10234000A61180E0809306030C94A91181E080938C
:102350000603089500917503003011F00C941812D3
:1023600081E080937503AAE8B3E04D915527AAE474
:10237000B0E00D911C910417150710F00C94C411D6
:10238000AAE4B0E00E94582181E080938C03A1EA86
:10239000B3E04D915527A8E4B0E00D911C910417CE
:1023A000150710F00C94D811A8E4B0E00E94582151
:1023B00081E08093A303A8EBB3E04D915527A8E7F4
:1023C000B0E00D911C910417150710F00C94EC115E
:1023D000A8E7B0E00E94582182E390E00E94CE215D
:1023E00083B198E0892783B9AAE8B3E04D915527D6
:1023F000AAE4B0E00D911C910417150711F00C949C
:10240000B011AAE8B3E08C9199279BBD8ABDA1EADF
:10241000B3E08C91992799BD88BDA8EBB3E08C916E
:10242000992790937900809378001B980C949212CE
:1024300000917503013011F00C94921280E08093AA
:102440007503ABE8B3E04D915527AAE4B0E00D91D8
:102450001C910417150718F011F00C9431120C940C
:102460003512AAE4B0E00E945F2180E080938C03E3
:10247000A2EAB3E04D915527A8E4B0E00D911C917C
:102480000417150718F011F00C9448120C944C1214
:10249000A8E4B0E00E945F2180E08093A303A9EB51
:1024A000B3E04D915527A8E7B0E00D911C910417BA
:1024B000150718F011F00C945F120C946312A8E742
:1024C000B0E00E945F2183B198E0892783B983B18E
:1024D00090E1892783B982E390E00E94CE21ABE8A6
:1024E000B3E04D915527AAE4B0E00D911C9104177B
:1024F000150711F00C941E121B981C98ABE8B3E062
:102500008C9199279BBD8ABDA2EAB3E08C91992753
:1025100099BD88BDA9EBB3E08C9199279093790080
:102520008093780080E08093BA03089500911103AE
:102530000A3018F011F00C949F120C94301380E0C4
:1025400080931103A3EBB1E08C9185FB16F40C94FE
:10255000BD121D9AF89482E0E1E20E9416305CEC14
:1025600082E0E1E20E943E3054E482E0E1E20E9437
:102570003E3078941D980C9423131D9AF894A2E190
:10258000B3E0E6E7FAE60E94EB2F82E0E1E20E9488
:1025900016305CEC82E0E1E20E943E305EEB82E0CD
:1025A000E1E20E943E3082E0A8E0B3E0E1E229E00F
:1025B0002A930E94663082E0E1E20E94163078940D
:1025C00088E0E8E0F3E00E942E32402F00911003F3
:1025D000041711F00C942213EAEAFAE60E9412346E
:1025E000E8E0F3E0D190E0808FEFE7FE8827F82E57
:1025F000082F0E94E5320E941D33EDE0F0E0A2E1D9
:10260000B3E00E94B931EEE8FAE60E941234E2E14A
:10261000F3E00E9465320E947633EDE0F0E0A2E143
:10262000B3E00E94B931E2E1F3E00E94F134EDE061
:10263000F0E00E947532A6E1B3E0EE0C000FE794E3
:10264000DD92EC921D98A3EBB1E08C9185FB88277D
:1026500080F9809580FBA3EBB1E08C9185F98C9398
:102660000895809156010E94AD21AEEAB1E08C93AD
:10267000809157010E94AD21ADEAB1E08C93809129
:1026800058010E94AD21ACEAB1E08C9380915901D0
:102690000E94AD21AFEAB1E08C9380915A010E9473
:1026A000AD21A0EBB1E08C9380915B010E94AD2144
:1026B000A1EBB1E08C93AEEAB1E08C9180688C9391
:1026C0000E94E5211EED0E94FB2110E00E94FB21EB
:1026D0001091AE010E94FB211091AD010E94FB21DF
:1026E0001091AC010E94FB210E94F5210E94E5217E
:1026F0001EED0E94FB2113E00E94FB2119E00E94C5
:10270000FB211091AF010E94FB211091B0010E94AA
:10271000FB211091B1010E94FB210E94F5210E9432
:10272000E5211EED0E94FB2117E00E94FB2110E431
:102730000E94FB210E94F521E8E9FDE60E948B2121
:102740000E943022A5E6B1E00E948521E0E9FBE687
:102750000E948B210E943022ACE5B1E00E948521CD
:102760000E949221E1E0F0E00E949C2108950E94E5
:10277000E5211EED0E94FB2110E00E94FB210E943A
:10278000F5210E94E5211FED0E94FB210E941822E5
:10279000AEEAB1E01C930E941822ADEAB1E01C93AE
:1027A0000E941622ACEAB1E01C930E94F5210E941F
:1027B000E5211EED0E94FB2113E00E94FB210E94F7
:1027C000F5210E94E5211FED0E94FB210E941822A5
:1027D000A2EBB1E01C930E941822AFEAB1E01C9377
:1027E0000E941822A0EBB1E01C930E941622A1EBDC
:1027F000B1E01C930E94F5217091B3017F77709333
:10280000B301A2EBB1E00C9105FB16F00C9441145E
:102810007091B30170687093B301AEEAB1E08C912E
:102820008F778C93A0EBB1E08C918F7D8C939091FE
:10283000AE010E94B421A6E5B1E08C939091AD0168
:102840000E94B421A7E5B1E08C939091AC010E9465
:10285000B421A8E5B1E08C939091AF010E94B4211E
:10286000A9E5B1E08C939091B0010E94B421AAE552
:10287000B1E08C939091B1010E94B421ABE5B1E03D
:102880008C930E943022E5E6F1E0A4EBB1E00E94D7
:10289000B43108950895089508951C9AA1E2B0E016
:1028A0000C9107FB81E00EF480E08F9300911B03F5
:1028B000003081E009F080E09F918923882311F4A2
:1028C0000C948014F894B89AC09AB89AC09AC39A93
:1028D0000E94BE210E948124ADEBB3E09C9381E075
:1028E0000E949A26A1ECB1E09C937894E2EAFDE67E
:1028F0000E948B210E94922184EF91E00E94CE21C0
:102900001C980895A1E2B0E00C9107FB81E00EF461
:1029100080E08F9300911B03003081E009F080E09C
:102920009F918923882311F40C9401151C9AA0E02F
:10293000B0E1EAEAFDE60E94D42FA0E0B0E10E94F7
:10294000AB270E94572CAEECB1E08C93AFECB1E01A
:10295000EEEAFDE60E94D42F8091CE01AFECB1E00B
:102960000E940128A2E8B2E088278C930E943022BE
:10297000ECE5F1E0A2E8B2E00E94B431A2E8B2E0F6
:102980000E946621E8EBFDE60E94D42F0E943022CF
:10299000E5E6F1E0A2E8B2E00E9466210E94B431CF
:1029A000A2E8B2E00E946621E8EBFDE60E94D42F87
:1029B000E6E3F2E0A2E8B2E00E9466210E94B431B0
:1029C0008091CE01A2E8B2E00E943228A6E3B2E0F4
:1029D00088278C93A2E8B2E088278C93A0E0B0E12E
:1029E000EAEBFDE60E94D42FA0E0B0E10E94AB2705
:1029F0008091CE010E9470288091CE010E945E28B5
:102A00001C98089580E090E0A8EEB2E08D939C932E
:102A1000A1E2B0E00C9107FB81E00EF480E08F931F
:102A200000911B03003081E009F080E09F91892331
:102A3000882311F40C9477161C9AA0E0B0E1EAEA1E
:102A4000FDE60E94D42FA0E0B0E10E94AB270E94D7
:102A5000572CAEECB1E08C93AFECB1E0ECEBFDE6C3
:102A60000E94D42F8091CE01AFECB1E00E940128EA
:102A7000A2E8B2E088278C930E943022ECE5F1E0D6
:102A8000A2E8B2E00E94B431A2E8B2E00E9466215E
:102A9000E8EBFDE60E94D42F0E943022E5E6F1E04B
:102AA000A2E8B2E00E9466210E94B431A2E8B2E03E
:102AB0000E946621E8EBFDE60E94D42FA5E3B0E07A
:102AC0008C9182FBA2E8B2E00E9466210E94033052
:102AD0008D9388278C93A2E8B2E00E946621E8EBF0
:102AE000FDE60E94D42FA5E3B0E08C9183FBA2E821
:102AF000B2E00E9466210E9403308D9388278C9358
:102B0000A2E8B2E00E946621E8EBFDE60E94D42F25
:102B1000A5E3B0E08C9181FBA2E8B2E00E946621BF
:102B20000E9403308D9388278C93A2E8B2E00E9424
:102B30006621E8EBFDE60E94D42FA5E3B0E08C917E
:102B400080FBA2E8B2E00E9466210E9403308D93D0
:102B500088278C93A2E8B2E00E946621E8EBFDE6AC
:102B60000E94D42FA5E3B0E08C9184FBA2E8B2E0F0
:102B70000E9466210E9403308D9388278C93A2E8DF
:102B8000B2E00E946621E8EBFDE60E94D42FA5E3A7
:102B9000B0E08C9185FBA2E8B2E00E9466210E9421
:102BA00003308D9388278C93A2E8B2E00E946621BF
:102BB000E8EBFDE60E94D42FA2E8B2E00E94662175
:102BC000EAE4F0E00E942C31A2E8B2E00E94662123
:102BD000E8EBFDE60E94D42FA2E8B2E00E94662155
:102BE000E8E4F0E00E942C31A2E8B2E00E94662105
:102BF000E8EBFDE60E94D42FA2E8B2E00E94662135
:102C0000E8E4F0E00E942C31A2E8B2E00E946621E4
:102C1000E8EBFDE60E94D42FA2E8B2E00E94662114
:102C2000E8E2F3E0552744E00E949322A2E8B2E0F4
:102C30000E946621E8EBFDE60E94D42FA2E8B2E0F4
:102C40000E946621E6E1F3E00E943531A2E8B2E09D
:102C50000E946621E8EBFDE60E94D42FA2E8B2E0D4
:102C60000E946621E6E0F3E00E943C31A2E8B2E077
:102C70000E946621E8EBFDE60E94D42FA2E8B2E0B4
:102C80000E946621E4E0F3E00E943C31A2E8B2E059
:102C90000E946621E8EBFDE60E94D42FA2E8B2E094
:102CA0000E946621E5E0F3E00E943C318091CE0174
:102CB000A2E8B2E00E943228A6E3B2E088278C9313
:102CC000A2E8B2E088278C93A0E0B0E1EAEBFDE651
:102CD0000E94D42FA0E0B0E10E94AB278091CE01EA
:102CE0000E9470288091CE010E945E281C98089551
:102CF000F894A1E2B0E00C9107FB81E00EF480E0D3
:102D00008F9300911B03003081E009F080E09F91D8
:102D10008923882311F40C94FC1D1C9AE4ECFDE635
:102D20000E948B210E94922184EF91E00E94CE218B
:102D3000A0E0B0E1EAEAFDE60E94D42FA0E0B0E115
:102D40000E946F27A0E0B0E1EEECFDE60E94D42FD8
:102D5000A0E0B0E10E946F27A0E0B0E1E6EDFDE663
:102D60000E94D42FA0E0B0E1EAEDF1E00E947B28C0
:102D7000AAEDB1E08C91803011F40C942C17E0EEA8
:102D8000FDE60E948B210E9492210E94572CAEECFE
:102D9000B1E08C93A0E0B0E1E6EDFDE60E94D42F17
:102DA0008091CE01A0E0B0E10E94F4278091CE0195
:102DB00094E1A2E8B1E00E943F288091CE0194E125
:102DC000A7E9B1E00E943F288091CE010E945E28D1
:102DD000A2E8B1E00E941432082F083081E009F027
:102DE00080E08F93A7E9B1E00E941432082F0830E9
:102DF00081E009F080E09F918923882311F40C94ED
:102E00002C17E2E8F1E0A5E6B1E00E94B4310E949F
:102E10004322E7E9F1E0ACE5B1E00E94B4310E9461
:102E20003B220E94311384E690E00E94CE210E9452
:102E3000B713A3EBB1E08C9187FB16F00C942C1721
:102E4000A0E0B0E1E6EDFDE60E94D42FA0E0B0E105
:102E50000E94A52B0E94062DA0E0B0E1EAEBFDE662
:102E60000E94D42FA0E0B0E10E94AB270E94572C13
:102E7000AEECB1E08C93AFECB1E0ECEEFDE60E947D
:102E8000D42F8091CE01AFECB1E00E942028809138
:102E9000CE010E94452C08F409C0FA93EA93E6EFAC
:102EA000FDE60E94012F0E94FB2E22968091CE010A
:102EB0000E945E28A0E0B0E1EAEAFDE60E94D42F7D
:102EC000A0E0B0E10E94AB270E94572CAEECB1E02D
:102ED0008C93AFECB1E0EEEAFDE60E94D42F809136
:102EE000CE01AFECB1E00E940128A6E3B2E0882752
:102EF0008C93A6E3B2E0EAE5FBE60E94D42FA6E3BA
:102F0000B2E00E946621E6ECFBE60E94D42F0E940C
:102F10003022ECE5F1E0A6E3B2E00E9466210E94D7
:102F2000B431A6E3B2E00E946621E6ECFBE60E9423
:102F3000D42F0E943022E5E6F1E0A6E3B2E00E9441
:102F400066210E94B4318091CE010E94452C08F484
:102F500009C0FA93EA93E8EFFBE60E94012F0E9472
:102F6000FB2E22968091CE010E94452C08F40DC0C4
:102F7000FA93EA93E4E4FBE60E94012FA6E3B2E0B1
:102F80000E94EE2E0E94FB2E2296A6E3B2E0882736
:102F90008C938091CE010E945E28A0E0B0E1EAEB24
:102FA000FDE60E94D42FA0E0B0E10E94AB27A0E094
:102FB000B0E1EEECFDE60E94D42FA0E0B0E10E946B
:102FC000AB27A0E0B0E1E6E0FEE60E94D42FA0E04F
:102FD000B0E1EAEDF1E00E947B28AAEDB1E00E94A9
:102FE0001432A7EEB2E08C930091E702003011F0AA
:102FF0000C94951A0E94572CAEECB1E08C93AFEC78
:10300000B1E0E2E1FEE60E94D42F8091CE01AFEC68
:10301000B1E00E9420288091CE010E94452C08F446
:1030200009C0FA93EA93EEE1FEE60E94012F0E94A6
:10303000FB2E22968091CE010E94452C08F409C0F7
:10304000FA93EA93E6E3FEE60E94012F0E94FB2E2C
:1030500022968091CE010E94452C08F409C0FA9373
:10306000EA93E8EFFBE60E94012F0E94FB2E2296D6
:103070008091CE010E94452C08F409C0FA93EA938E
:10308000EEE5FEE60E94012F0E94FB2E2296809123
:10309000CE010E94452C08F409C0FA93EA93E8E7B0
:1030A000FEE60E94012F0E94FB2E22968091CE0107
:1030B0000E94452C08F409C0FA93EA93E2E9FEE67F
:1030C0000E94012F0E94FB2E22968091CE010E9429
:1030D000452C08F409C0FA93EA93ECEAFEE60E9454
:1030E000012F0E94FB2E22968091CE010E94452C3A
:1030F00008F409C0FA93EA93E0ECFEE60E94012F7F
:103100000E94FB2E22968091CE010E94452C08F44D
:1031100009C0FA93EA93E4EDFEE60E94012F0E94B3
:10312000FB2E22968091CE010E94452C08F409C006
:10313000FA93EA93E6EFFEE60E94012F0E94FB2E2F
:1031400022968091CE010E94452C08F409C0FA9382
:10315000EA93E8E7FEE60E94012F0E94FB2E2296EA
:103160008091CE010E94452C08F409C0FA93EA939D
:10317000E2E9FEE60E94012F0E94FB2E229680913A
:10318000CE010E94452C08F409C0FA93EA93E0E1CD
:10319000FFE60E94012F0E94FB2E22968091CE0115
:1031A0000E94452C08F409C0FA93EA93E4E2FFE692
:1031B0000E94012F0E94FB2E22968091CE010E9438
:1031C000452C08F409C0FA93EA93E8E3FFE60E946D
:1031D000012F0E94FB2E22968091CE010E94452C49
:1031E00008F409C0FA93EA93EAE5FFE60E94012F8A
:1031F0000E94FB2E22968091CE010E94452C08F45D
:1032000009C0FA93EA93E8E7FEE60E94012F0E94C4
:10321000FB2E22968091CE010E94452C08F409C015
:10322000FA93EA93E2E9FEE60E94012F0E94FB2E48
:1032300022968091CE010E94452C08F409C0FA9391
:10324000EA93E4E7FFE60E94012F0E94FB2E2296FC
:103250008091CE010E94452C08F409C0FA93EA93AC
:10326000E8E8FFE60E94012F0E94FB2E2296809143
:10327000CE010E94452C08F409C0FA93EA93ECE9C8
:10328000FFE60E94012F0E94FB2E22968091CE0124
:103290000E94452C08F409C0FA93EA93E8EFFBE694
:1032A0000E94012F0E94FB2E22968091CE010E9447
:1032B000452C08F409C0FA93EA93EEEBFFE60E946E
:1032C000012F0E94FB2E22968091CE010E94452C58
:1032D00008F409C0FA93EA93E8EDFFE60E94012F93
:1032E0000E94FB2E22968091CE010E94452C08F46C
:1032F00009C0FA93EA93E8EFFBE60E94012F0E94CF
:10330000FB2E22968091CE010E94452C08F409C024
:10331000FA93EA93ECEFFFE60E94012F0E94FB2E46
:1033200022968091CE010E94452C08F409C0FA93A0
:10333000EA93E6E1F0E70E94012F0E94FB2E22961D
:103340008091CE010E94452C08F409C0FA93EA93BB
:10335000ECE2F0E70E94012F0E94FB2E2296809162
:10336000CE010E94452C08F409C0FA93EA93E2E4E6
:10337000F0E70E94012F0E94FB2E22968091CE0141
:103380000E94452C08F409C0FA93EA93E8E5F0E7B7
:103390000E94012F0E94FB2E22968091CE010E9456
:1033A000452C08F409C0FA93EA93E8EFFBE60E9483
:1033B000012F0E94FB2E22968091CE010E94452C67
:1033C00008F409C0FA93EA93EEE6F0E70E94012FB1
:1033D0000E94FB2E22968091CE010E94452C08F47B
:1033E00009C0FA93EA93E8E8F0E70E94012F0E94EF
:1033F000FB2E22968091CE010E94452C08F409C034
:10340000FA93EA93E8EFFBE60E94012F0E94FB2E5D
:1034100022968091CE010E94452C08F409C0FA93AF
:10342000EA93E0EAF0E70E94012F0E94FB2E229629
:103430008091CE010E94452C08F409C0FA93EA93CA
:10344000EAEBF0E70E94012F0E94FB2E229680916A
:10345000CE010E94452C08F409C0FA93EA93E6EDE8
:10346000F0E70E94012F0E94FB2E22968091CE0150
:103470000E94452C08F409C0FA93EA93E8EFFBE6B2
:103480000E94012F0E94FB2E22968091CE010E9465
:10349000452C08F409C0FA93EA93E2EFF0E70E94A2
:1034A000012F0E94FB2E22968091CE010E94452C76
:1034B00008F409C0FA93EA93EEE0F1E70E94012FC5
:1034C0000E94FB2E22968091CE010E94452C08F48A
:1034D00009C0FA93EA93E4E2F1E70E94012F0E9407
:1034E000FB2E22968091CE010E94452C08F409C043
:1034F000FA93EA93EAE3F1E70E94012F0E94FB2E80
:103500002296A0E0B0E1EAEBFDE60E94D42FA0E015
:10351000B0E10E94AB278091CE010E94702880917B
:10352000CE010E945E280C94BF1D0091E70200307E
:1035300011F40C94BF1D0E94572CAEECB1E08C939B
:10354000AFECB1E0E2E1FEE60E94D42F8091CE0123
:10355000AFECB1E00E94F4278091CE0198E2AFEE8B
:10356000B1E00E943F288091CE0198E2AFEEB1E039
:103570000E943F288091CE0198E2AFEEB1E00E9418
:103580003F288091CE0198E2AFEEB1E00E943F2843
:10359000AFEEB1E088278C938091CE0198E2AFEE38
:1035A000B1E00E943F28EFEEF1E003E0AFEEB1E0C2
:1035B0000E94C631AFEEB1E00E948231AAE8B3E0CA
:1035C0000C93E2E5F0E0AAE8B3E07BE70E94D43197
:1035D0008091CE0198E2AFEEB1E00E943F28EFEE7D
:1035E000F1E003E0AFEEB1E00E94C631AFEEB1E032
:1035F0000E948231ABE8B3E00C93E3E5F0E0ABE886
:10360000B3E07BE70E94D4318091CE0198E2AFEE27
:10361000B1E00E943F28EFEEF1E008E0AFEEB1E04C
:103620000E94C631EFEEF1E0A8E7B3E00E94B431AA
:10363000E0E4F0E0A8E7B3E07BE70E94E5318091A9
:10364000CE0198E2AFEEB1E00E943F28EFEEF1E04C
:1036500008E0AFEEB1E00E94C631EFEEF1E0A1E884
:10366000B3E00E94B431E9E4F0E0A1E8B3E07BE725
:103670000E94E5318091CE0198E2AFEEB1E00E9468
:103680003F28EFEEF1E004E0AFEEB1E00E94C6317A
:10369000AFEEB1E00E948231AFE6B3E00D931C9330
:1036A000EAE3F0E0AFE6B3E07BE70E94D631809139
:1036B000CE0198E2AFEEB1E00E943F28AFEEB1E05C
:1036C00088278C938091CE0198E2AFEEB1E00E9402
:1036D0003F28EFEEF1E003E0AFEEB1E00E94C6312B
:1036E000AFEEB1E00E948231A1EAB3E00C93E6E6CE
:1036F000F0E0A1EAB3E07BE70E94D4318091CE01F3
:1037000098E2AFEEB1E00E943F28EFEEF1E003E077
:10371000AFEEB1E00E94C631AFEEB1E00E9482315F
:10372000A2EAB3E00C93E7E6F0E0A2EAB3E07BE7BD
:103730000E94D4318091CE0198E2AFEEB1E00E94B8
:103740003F28EFEEF1E008E0AFEEB1E00E94C631B5
:10375000EFEEF1E0AFE8B3E00E94B431E4E5F0E071
:10376000AFE8B3E07BE70E94E5318091CE0198E2BB
:10377000AFEEB1E00E943F28EFEEF1E008E0AFEEDF
:10378000B1E00E94C631EFEEF1E0A8E9B3E00E949B
:10379000B431EDE5F0E0A8E9B3E07BE70E94E53164
:1037A0008091CE0198E2AFEEB1E00E943F28EFEEAB
:1037B000F1E004E0AFEEB1E00E94C631AFEEB1E05F
:1037C0000E948231A1E7B3E00D931C93ECE3F0E09B
:1037D000A1E7B3E07BE70E94D6318091CE0198E269
:1037E000AFEEB1E00E943F28AFEEB1E088278C93A6
:1037F0008091CE0198E2AFEEB1E00E943F28EFEE5B
:10380000F1E003E0AFEEB1E00E94C631AFEEB1E00F
:103810000E948231A8EBB3E00C93EAE7F0E0A8EB5A
:10382000B3E07BE70E94D4318091CE0198E2AFEE05
:10383000B1E00E943F28EFEEF1E003E0AFEEB1E02F
:103840000E94C631AFEEB1E00E948231A9EBB3E035
:103850000C93EBE7F0E0A9EBB3E07BE70E94D431F7
:103860008091CE0198E2AFEEB1E00E943F28EFEEEA
:10387000F1E008E0AFEEB1E00E94C631EFEEF1E01A
:10388000A6EAB3E00E94B431E8E6F0E0A6EAB3E0CD
:103890007BE70E94E5318091CE0198E2AFEEB1E086
:1038A0000E943F28EFEEF1E008E0AFEEB1E00E94A9
:1038B000C631EFEEF1E0AFEAB3E00E94B431E1E7E8
:1038C000F0E0AFEAB3E07BE70E94E5318091CE0102
:1038D00098E2AFEEB1E00E943F28EFEEF1E004E0A5
:1038E000AFEEB1E00E94C631AFEEB1E00E9482318E
:1038F000A3E7B3E00D931C93EEE3F0E0A3E7B3E09E
:103900007BE70E94D6318091CE0198E2AFEEB1E024
:103910000E943F288091CE0198E2AFEEB1E00E9474
:103920003F28AFEEB1E088278C938091CE0198E2DA
:10393000AFEEB1E00E943F28EFEEF1E003E0AFEE22
:10394000B1E00E94C631AFEEB1E00E948231A0E248
:10395000B3E00D931C93E3E0F0E0A0E2B3E07BE77B
:103960000E94D6318091CE0198E2AFEEB1E00E9484
:103970003F288091CE0198E2AFEEB1E00E943F284F
:10398000AFEEB1E088278C938091CE0198E2AFEE44
:10399000B1E00E943F28EFEEF1E008E0AFEEB1E0C9
:1039A0000E94C631EFEEF1E0ABE4B3E00E94B43127
:1039B000E6E1F0E0ABE4B3E07BE70E94E531809123
:1039C000CE0198E2AFEEB1E00E943F28EFEEF1E0C9
:1039D00008E0AFEEB1E00E94C631EFEEF1E0A4E501
:1039E000B3E00E94B431EFE1F0E0A4E5B3E07BE79F
:1039F0000E94E5318091CE0198E2AFEEB1E00E94E5
:103A00003F28EFEEF1E008E0AFEEB1E00E94C631F2
:103A1000EFEEF1E0ADE5B3E00E94B431E8E2F0E0B2
:103A2000ADE5B3E07BE70E94E5318091CE0198E2FD
:103A3000AFEEB1E00E943F28EFEEF1E008E0AFEE1C
:103A4000B1E00E94C631EFEEF1E0A6E6B3E00E94DD
:103A5000B431E1E3F0E0A6E6B3E07BE70E94E531B4
:103A60008091CE0198E2AFEEB1E00E943F288091B4
:103A7000CE0198E2AFEEB1E00E943F28AFEEB1E098
:103A800088278C938091CE0198E2AFEEB1E00E943E
:103A90003F28EFEEF1E004E0AFEEB1E00E94C63166
:103AA000AFEEB1E00E941F34EDE0F0E0AAE3B3E036
:103AB0000E94B931E2E1F0E0AAE3B3E094E07BE7F1
:103AC0000E94D7318091CE0198E2AFEEB1E00E9422
:103AD0003F288091CE0198E2AFEEB1E00E943F28EE
:103AE000AFEEB1E088278C938091CE0198E2AFEEE3
:103AF000B1E00E943F28EFEEF1E003E0AFEEB1E06D
:103B00000E94C631AFEEB1E00E948231ACE1B3E079
:103B10000D931C93E1E0F0E0ACE1B3E07BE70E94A1
:103B2000D6318091CE0198E2AFEEB1E00E943F28FD
:103B3000EFEEF1E001E0AFEEB1E00E94C631AFEE92
:103B4000B1E00E948231ABEBB3E00C93ECE7F0E024
:103B5000ABEBB3E07BE70E94D4318091CE010E94B1
:103B600070288091CE010E945E28A0E0B0E1EAEBCF
:103B7000FDE60E94D42FA0E0B0E10E94AB270E9496
:103B8000972FA6ECB1E00D931D932D933D930E94CA
:103B90008E2FAAECB1E00D931D932D933D93A6ECCF
:103BA000B1E00D911D912D913C91AAECB1E04D91A8
:103BB0005D916D917C910E941431A2ECB1E00D9366
:103BC0001D932D933D93ECE4F1E70E948B21A0E03F
:103BD000B0E1E2ECF1E00E9432310E948321E2E5A3
:103BE000F1E70E948B210E94922184EF91E00E94D4
:103BF000CE211C980C94051E0F9B0C94051EE6E527
:103C0000F1E70E948B210E949221E0E6F1E70E94F9
:103C10008B210E949221EEE6F1E70E948B21A0E029
:103C2000B0E1EAE8F3E00E943C310E9483210E9467
:103C30009221E6E7F1E70E948B21A0E0B0E1EBE8FA
:103C4000F3E00E943C310E9483210E949221E0E82F
:103C5000F1E70E948B21A8E7B3E00E9485210E9432
:103C60009221E8E8F1E70E948B21A1E8B3E00E94ED
:103C700085210E949221E0E9F1E70E948B21A0E0DA
:103C8000B0E1EFE6F3E00E942C310E9483210E9414
:103C90009221E8EFFBE60E948B210E949221E0EA4C
:103CA000F1E70E948B21A0E0B0E1E1EAF3E00E949D
:103CB0003C310E9483210E949221E8EAF1E70E94B0
:103CC0008B21A0E0B0E1E2EAF3E00E943C310E94E7
:103CD00083210E949221E2EBF1E70E948B21AFE861
:103CE000B3E00E9485210E949221EAEBF1E70E9455
:103CF0008B21A8E9B3E00E9485210E949221E2EC89
:103D0000F1E70E948B21A0E0B0E1E1E7F3E00E943F
:103D10002C310E9483210E949221E8EFFBE60E9451
:103D20008B210E949221E2EDF1E70E948B21A0E01D
:103D3000B0E1E8EBF3E00E943C310E9483210E9455
:103D40009221EAEDF1E70E948B21A0E0B0E1E9EBDE
:103D5000F3E00E943C310E9483210E949221E4EE14
:103D6000F1E70E948B21A6EAB3E00E9485210E9420
:103D70009221ECEEF1E70E948B21AFEAB3E00E94C2
:103D800085210E949221E4EFF1E70E948B21A0E0BF
:103D9000B0E1E3E7F3E00E942C310E9483210E940E
:103DA0009221E8EFFBE60E948B210E949221E4E041
:103DB000F2E70E948B21A0E0B0E1E0E2F3E00E9494
:103DC00035310E9483210E949221E8EFFBE60E9498
:103DD0008B210E949221EEE0F2E70E948B21ABE45E
:103DE000B3E00E948521EAEBFBE60E948B21A4E56B
:103DF000B3E00E9485210E949221E8E1F2E70E944F
:103E00008B21ADE5B3E00E948521EAEBFBE60E9441
:103E10008B21A6E6B3E00E9485210E949221E8EF63
:103E2000FBE60E948B210E949221E2E2F2E70E94CF
:103E30008B21A0E0B0E1EAE3F3E0552744E00E94E3
:103E400093220E9483210E949221E8EFFBE60E94C8
:103E50008B210E949221E8E2F2E70E948B21A0E0F0
:103E6000B0E1ECE1F3E00E942C310E948321E8EB09
:103E7000FDE60E948B21A0E0B0E1EBEBF3E00E94B5
:103E80003C310E9483210E9492210E949221EEE205
:103E9000F2E70E948B21A0E0B0E1E0E3F3E05527D8
:103EA00044E00E9493220E9483210E949221EEE32B
:103EB000F2E70E948B21A0E0B0E1ECE2F3E05527AD
:103EC00044E00E9493220E9483210E949221EEE40A
:103ED000F2E70E948B21A0E0B0E1E4E3F3E0552794
:103EE00044E00E9493220E9483210E9492210E941A
:103EF000510BE5E0F0E00E949C2178940895A1E246
:103F0000B0E00C9107FB81E00EF480E08F9300910C
:103F10001B03003081E009F080E09F918923882312
:103F200011F40C94E81F1C9AA0E0B0E1EAEAFDE667
:103F30000E94D42FA0E0B0E10E94AB270E94572C32
:103F4000AEECB1E08C93AFECB1E0E8E5F2E70E94B3
:103F5000D42F8091CE01AFECB1E00E94F427809184
:103F6000CE0198E2AFEEB1E00E943F28AFEEB1E0A3
:103F70000E946F210E947C21AFEEB1E088278C93D4
:103F80008091CE010E946728AAE2B2E08C93009152
:103F90002A02003011F40C94AF1FE2E6F2E70E940F
:103FA00075210E947C218091CE010E947028809111
:103FB000CE010E945E28A0E0B0E1EAEBFDE60E949F
:103FC000D42FA0E0B0E10E94AB271C980C94F11F05
:103FD0000F9B0C94F11FE6E5F1E70E948B210E94F4
:103FE00092210895A1E2B0E00C9107FB81E00EF46C
:103FF00080E08F9300911B03003081E009F080E0A6
:104000009F918923882311F40C943D201C9AA0E0F1
:10401000B0E1EAEAFDE60E94D42FA0E0B0E10E9400
:10402000AB270E94572CAEECB1E08C93A0E0B0E13E
:10403000E8E5F2E70E94D42FA0E0B0E10E94A52BB2
:104040000E94062D8091CE010E9470288091CE01A1
:104050000E945E28A0E0B0E1EAEBFDE60E94D42FCA
:10406000A0E0B0E10E94AB27E8E6F2E70E947521EC
:104070000E947C211C980C9446200F9B0C94462097
:10408000E6E5F1E70E948B210E94922108950F92AC
:104090001F922F923F924F925F927F92AF92BF9268
:1040A0000F931F932F933F934F935F936F937F9340
:1040B0008F939F93AF93BF93CF93DF93EF93FF9330
:1040C0008FB78F93A4E3B1E0AD90BB24AEEFB0E027
:1040D000AA0DBB1D0C910D3011F00C9490201B9A71
:1040E000A4E3B1E0AD90BB24ADEFB0E0AA0DBB1DE1
:1040F0000C91033611F00C94802081E080934A03E8
:10410000A4E3B1E0AD90BB24ADEFB0E0AA0DBB1DC0
:104110000C910C3611F00C94902081E08093BA033E
:104120008F918FBFFF91EF91DF91CF91BF91AF91B1
:104130009F918F917F916F915F914F913F912F91BF
:104140001F910F91BF90AF907F905F904F903F90E5
:104150002F901F900F90A2E3B1E00E9406310895C6
:10416000F8940F921F922F923F924F925F927F92FC
:10417000AF92BF920F931F932F933F934F935F93F1
:104180006F937F938F939F93AF93BF93CF93DF935F
:10419000EF93FF938FB78F93A5E5B1E0AD90BB246C
:1041A000A3E3B1E0AA0DBB1D0C910D3011F00C94EE
:1041B000FA201B9AA5E5B1E0AD90BB24A2E3B1E0E3
:1041C000AA0DBB1D0C91033611F00C94EA2081E07E
:1041D00080934A03A5E5B1E0AD90BB24A2E3B1E032
:1041E000AA0DBB1D0C910C3611F00C94FA2081E045
:1041F0008093BA03A3E5B1E00E9406318F918FBF8F
:10420000FF91EF91DF91CF91BF91AF919F918F91EE
:104210007F916F915F914F913F912F911F910F91DE
:10422000BF90AF907F905F904F903F902F901F90E6
:104230000F90789408950F921F922F923F924F9271
:104240005F927F92AF92BF920F931F932F933F93F2
:104250004F935F936F937F938F939F93AF93BF938E
:10426000CF93DF93EF93FF938FB78F9384E982BF50
:10427000ADEBB1E00E9458218F918FBFFF91EF917C
:10428000DF91CF91BF91AF919F918F917F916F916E
:104290005F914F913F912F911F910F91BF90AF90E0
:1042A0007F905F904F903F902F901F900F901895A8
:1042B000ED91FC91EF5FFF4FFC93EE930895ED912C
:1042C000FC91E150F040FC93EE9308958F938D9113
:1042D0008823E9F711978F910895A0E0B0E18D91BF
:1042E000882311F00CD0FBCF08950E94E32F802D7E
:1042F00011F005D0FACF08958DE001D08AE05D9BE2
:10430000FECF8CB90895A0E0B0E18D91882311F023
:104310000CD0FBCF08950E94E32F802D11F005D023
:10432000FACF08958DE001D08AE000909B0005FE51
:10433000FCCF80939C00089588EE93E02FD03197B6
:10434000D9F70895982F82958F70805D8D939F7017
:10435000905D9D9388278C9308954AE0082F0E94D2
:1043600004320295802B0895892F8F70905110F0A0
:10437000865FFCCF08953197F1F70895B99ABB98FD
:10438000C39ABA9AB89A8CE58DB90895089508959C
:10439000689462F80895E89462F80895EF93FF93A3
:1043A000EE27E82BE92B31F0EDECFAE03197F1F74D
:1043B0000197D1F7FF91EF91089589988898919886
:1043C000909808958998889803D0899A01D0889AFE
:1043D000EF93FF93EAE0F0E00E94BB21FF91EF91A1
:1043E00008958898809BFECF0895899AF1DFF9DFC0
:1043F000EFDF8998EDCF0894111F01C0110F61F014
:1044000018F40000899802C0899A00C0E1DFE9DF52
:10441000DFDF889ADDDFF2CF8998DADFE2DFD8DFED
:10442000E8948199689462F8889AD2CF089401C080
:104430008894331F11E08998D4DF88948199089477
:10444000111F0FB6C5DF889AC3DF0FBEA8F73795D7
:1044500010F4899801C0899AC4DFBADF889AB8CF6E
:104460000E944A14ACE5B1E0E9E5F1E00E94832244
:1044700033970C945F22ECE5F1E0A9E5B1E00E94EE
:1044800071220C944B14E5E6F1E0A6E5B1E00E9440
:104490004D220C944C14ADE0BB27868197810E947D
:1044A00096300D93838194810E9496300D93808184
:1044B00091810E9496300D930895EDE0FF2782814F
:1044C0000E948B308AE38D9381810E948B308AE336
:1044D0008D9380810E948B3088278C930895ADE066
:1044E000BB27808191810E9496300D9383819481B6
:1044F0000E9496300D93868197810E9496300D938D
:104500000895EDE0FF2780810E948B308FE28D932C
:1045100081810E948B308FE28D9382810E948B304B
:1045200088278D9308950E9465320E94BB3217FF41
:1045300003C08DE28D931127003821F4E4E0F8E404
:104540000C94D42F0F3741F4FF2019F4EAEFF7E46D
:10455000F7CFE6EFF7E4F4CF4A934A934A935A939E
:10456000BA93AA93BB270F5F02F5BB27802F0A954A
:104570000E94C5328D3E90F4E4E5F8E4A3E00E9489
:1045800012340E944C32BB1FB0FF06C070970E94CD
:1045900012340E9476333C96AA9589F7E0E5F8E458
:1045A0000E9412340E94763322C0093058F1033140
:1045B00078F10A3130F418E08BE192E9E8E0F8E4B0
:1045C0002EC00A950E94C532E8E4F8E4BFEFA3E0EC
:1045D0000E9412340E944C32BB1FB0FD06C03896B8
:1045E0000E9412340E9476333C97AA9589F7B095C1
:1045F000BB0F0E94BB32039513E08AEF99E0F816D7
:10460000090740F413E08BE094E0ECE1F8E407C024
:1046100016E001C0B39583E194E2E0E1F8E46A8139
:10462000BF3F19F4BB2711276260BD836A831C83D7
:10463000A881B98160E36D93A883B9836D93081B4A
:104640000195AA24BB246A816A7F002339F0F6947D
:10465000E794D794B794A7940A95F7CF19E0002769
:104660000E941234CC248FEF74E0AC14B206D3064F
:10467000E406F50630F0AC18B20AD30AE40AF50AEB
:1046800021F1881F7A9531F05695479537952795F2
:10469000C794EBCF809522D041F0969508F7FE2C79
:1046A000ED2CDB2CBA2CAA24DBCF25D05D813C81FC
:1046B0002B8170D0277021F02BD06CD0E8F301C093
:1046C0003CD04CD078D0269608958894881F7A954F
:1046D000E9F7809503D049F38827FCCF806360FD1C
:1046E00006C0803311F0616002C0039561FD8D93B7
:1046F00060FD1A95089599278E919C9385338E912C
:1047000008F083958A3308F080E38C93C0F708950E
:10471000732F720F61FF701B0AD01296785019F038
:1047200050F38E9380E38E937150EAF70895A88139
:10473000B981A70F8827B81F089579E061FD700F30
:10474000F6DF48E0431B400F8AF381F399274A952F
:1047500069F38E91803351F79C93F9CF732F61FFEA
:10476000701B7395A881B981EA2FFB2F1197819156
:10477000803361FF09F08D937A9511F48EE28D9369
:1047800081918823C1F7772311F480E38D938827E3
:104790008C930895889462FD0895002359F4A881AC
:1047A000B9818C91803331F0552321F053953350EA
:1047B0006460089408955523E9F085E48D931AF414
:1047C0008DE28D935195652F660F560F5A3010F07C
:1047D00060E503D068E001D0DACF8FEF74E05617C0
:1047E00008F0561B881F7A9511F06695F8CF8095D2
:1047F00080638D9308954E414E00496E66696E69DF
:1048000074790000302E300000404B4C0020A1078E
:10481000000050C3000088130000F40100000032C3
:104820000000000500008000CCCCCC0C14AE470189
:104830009CC42000DC460300E35300006308000032
:10484000D7000000150000001CC25367A5D46853B0
:104850000024744915BE9A17CCBC8C2BBD37863505
:10486000689401C0E8948F939F9396E6000000003F
:104870009A95E1F798948091530C9091540C1EF402
:10488000019708F401968093530C9093540C59F0BF
:104890008091510C9091520C019708F401968093ED
:1048A000510C9093520C9F918F91089500E440E039
:1048B00050E060E070E088C008E44AEA51E0F9CFD7
:1048C00009E482C00AE480C000E540E052E0F1CF94
:1048D00001E57AC008E578C00AE7E9CF0DECE7CF3B
:1048E00009EEE5CF09EE40E050E060E070E46CC016
:1048F000C0D0702FBED0602FBCD0502FBAD0402F68
:10490000B8C00E94BE2100240ED100270093BC0332
:10491000AED088EE93E0A6DF11F499EE16C10197B0
:10492000D1F70AE00F93A5D00F910A95D9F7BEDF12
:10493000013069F000E4A0D000279ED000279CD071
:1049400000279AD0002798D005E996D0DECFB4DFB3
:10495000013009F01FC0CCDF513011F44A3A11F098
:104960009AEEF3C0BFDF003021F07CDFD9F79BEE79
:10497000ECC0B2DF003021F075DFD9F79CEEE5C066
:10498000B7DF84E08093BC0376FF1DC08CE080938A
:10499000BC0319C0A5DF023028F081E08093BC037E
:1049A00001E404C082E08093BC0309EE0F937FDF33
:1049B00000230F9121F056DFC9F79DEEC6C084DFBA
:1049C000002309F0A2CFBAC011E0003409F415E9C0
:1049D000083409F417E807FF14C00F931F934F938F
:1049E0005F936F937F9307E762DF7F916F915F9192
:1049F0004F911F91802F0F910F77823010F0082F69
:104A00001EC035D02FDF31D01DD011F008EE17C0F9
:104A100033D0072F31D0062F2FD0052F2DD0042FC4
:104A20002BD0012F29D02F9324E623D0189407FFF1
:104A300005C018DF11F02A95C1F798942F910093C3
:104A4000BE0308950F938F939F9380E197E2809325
:104A5000530C9093540C0DD00F3F19F001DFD9F790
:104A600098949F918F910F910895C0980895C09A3E
:104A700008950FEF01C000270FB90EB1001FE8F72E
:104A80000FB1089568D031F04ED03CD021DF002323
:104A900011F091EF5AC0EDDF0E3F21F0E3DED9F7C0
:104AA00092EF53C092E08827E4DF01930197E1F78A
:104AB000E0DFDFDF43C04FD031F035D023D00ADF55
:104AC000002311F095EF41C0BDDF11F096EF3DC01E
:104AD0000EEFD2DF0D3F11F497EF37C092E0882739
:104AE0000191CADF0197E1F7C4DFC3DFC2DF0F71B5
:104AF0000093BF03053029F00093BE030695086FAD
:104B000024C01CC04091BC0343FD08C044275D91F4
:104B10006D917D91550F661F771F08954D915D91A1
:104B20006D917D9108958F939F9380E29EE4809391
:104B3000510C9093520C9F918F91089598DF99DFBB
:104B4000992788949093BD0308959F9390DF91DFF8
:104B50009F910894F7CF9091BC03992392EE08950A
:104B6000EDCF91EEF2CF91EEF0CFF5DF29F0DBDF64
:104B7000A7DE002319F096EE0C94A525E0E0F0E105
:104B800078DF0E3F29F06EDEC9F797EE0C94A5256D
:104B900090E080E16EDF01930197E1F76ADF69DF62
:104BA000CDDFE0E0F0E19091BC03913081F08081B5
:104BB000807C803461F437813F7320851185002724
:104BC0001F5F2F4F3F4F110F221F331F1AC0332774
:104BD0002681237017810085007C005C1F4F2F4FBA
:104BE000818583709285990F881F11F011D0F1F79C
:104BF00085818F7086500CD0F1F7012F122F232F53
:104C00003327E881F981019311932193319308951A
:104C1000000F111F221F331F8A9508959CDF29F072
:104C200082DF4EDE002319F096EE0C94A525E88174
:104C3000F9811FDF0E3F29F015DEC9F797EE0C94BE
:104C4000A52590E080E115DF01930197E1F711DFE1
:104C500010DF74CF80DF29F066DF34DE002319F027
:104C600096EE0C94A525E881F98103DF0E3F29F02B
:104C7000F9DDC9F797EE0C94A52590E080E1F9DE07
:104C800001930197E1F7F5DEF4DE58CF64DF29F0F8
:104C90004ADF22DE002319F096EE0C94A52528DECB
:104CA000E881F981719361935193419347CF53DF29
:104CB00029F039DF13DE002319F096EE0C94A525B8
:104CC000E881F981D6DED5DE0E3F29F0CBDDC1F7D4
:104CD00097EE0C94A52590E080E4CBDE019301973C
:104CE000E1F7C7DEC6DE2ACFE4ECF3E0ABE8B8E0DC
:104CF000992791931197E9F70895E894843059F032
:104D0000863049F08E3039F068948B3021F08C3049
:104D100011F093E19EC30090C60300F80092C60311
:104D200088940895E4E1F6E018D345555A4A09F409
:104D300008958FC38A93D8DFC9D3C0F091E1F2DF21
:104D4000A8F088818823F9F0E4EDF5E08A9511F068
:104D50007096FCCF80818F7721F434968081CDDFEF
:104D600038F48881823078F093E173C3219671C35F
:104D70008093C5033496A1E1B4E00CD3A7D388F3A4
:104D800092E1D0DF98F38991E1E2F4E0E6D240507D
:104D9000524094E1F9F4A4E2B4E0DCD2A1E1B4E041
:104DA000AFD2A5D2A7ECB3E0BFD2ACE2B4E0D0D290
:104DB0004050504019F4AAE3B4E0ACD2ECECF3E07C
:104DC000BDD2809126048093CB0396E1882311F015
:104DD000833008F03EC38DD281FD8BD2A0EDB3E0CD
:104DE000A3D2A7E2B4E0B6D2A4EDB3E0B9D284E096
:104DF000C7D27DD2A6EDB3E097D2A1E1B4E08AD2CA
:104E00000E941431B3D2E9E2F4E09DD20050104088
:104E100019F4E6E3F4E079D20E941431809123047E
:104E20008093DA0395E18823A9F28695F0F791F64D
:104E3000A3D157D2ABEDB3E077D20090C60300FA0E
:104E40008091C503882379F4E89486E00F5F164FBC
:104E50002040304010F068948BE88093C503992778
:104E600090F99093C6033EF4A2E4B4E049D299D1FC
:104E7000A0EDB3E059D282E08093DF03A0EDB3E070
:104E80003FD2A7EEB3E050D2ADEEB3E04DD2E9C2CF
:104E90002497088319832A833B8308950881198105
:104EA0002A813B81089580E1FF93EF9380628F9385
:104EB000A4D58F918387028F138F248B358BAE2FD0
:104EC000BF2FE3E0F4E08BE066D213960E94692FD7
:104ED00014960E94692FEAD2EF91FF91089535D47C
:104EE00009F0BBC256D310F092E3B3C2ABD150F17C
:104EF0008AD2CEDFAED318F1D1DFD5DFCFDF0E946B
:104F0000FD2DA3E0B4E08EE28D9380E29AE08D93D4
:104F10009A95E9F7C3DFC7DFFF93EF9314D011F041
:104F20002BD101C0D9D18EE280930404EF91FF917F
:104F3000B096B9DF0E94242E10F00E94352E8FB754
:104F400024968FBF0895A7EEB3E0DAD1A0EDB3E0C9
:104F5000E1D10C9419318C918E32D1F4A7EEB3E0EB
:104F6000CFD1BDD2B09680818E3209F037C000908B
:104F7000C60300FA22273327028D138D16F42489E5
:104F80003589F9D119F4A0EDB3E01BC00AD11AC0DC
:104F90008C35C9F3DAD309F060C2FBD2F0F0838517
:104FA0008F7CF1F40090C60322273327028D138DE6
:104FB00000FE02C024893589F4D091D270F0A1E1BD
:104FC000B4E09ED1A7EEB3E0AFD1ADEEB3E0ACD18B
:104FD000ABEEB3E081D1C7D144C2089595E339C2A5
:104FE00096E337C264D448F0B0D331F48F9391E0A4
:104FF00070D48F9110F035C230C28827089557D4ED
:10500000D8F0A3D3D1F48F9398E063D48F9120F498
:10501000923481F498E01FC0FA93EA93908D95FD45
:1050200007C0D5D18F9398940E94952E8F9108F048
:1050300017C222968827089408950FC238D448F0E2
:1050400084D331F48F9392E0A3D48F9110F009C2EE
:1050500004C2882708958F9396D48F9108F001C2D7
:105060008827089512D450F0FA93EA930E94EE2E06
:1050700020F00E94FB2E08F0F3C1F9C108959F9320
:1050800004D49F91D0F0FA93EA939F93BF93AF9388
:1050900049D4AF91BF919F9158F08D30B1F38A30D0
:1050A00029F0992391F38D939A95EFCF88949927BE
:1050B00080E08C938FB722968FBF0895E6D330F0AF
:1050C000FA93EA93FDD308F0CBC1D1C10895DDD3A3
:1050D00028F0808D827009F08FEFC3C18FEF0895A3
:1050E000D4D340F0FA93EA9381E0C7D15ED508F0BB
:1050F000B7C1BDC10895FF93EF9327D34AD258F0AB
:10510000FF93EF93E3E0F4E0A1EFB3E08CE043D151
:10511000EF91FF918894AF91BF9130F488278C93E1
:10512000923409F49EC1089540D30E94C031119772
:105130008EE28D9340D30E94C031EFE0F4E0ADEFFA
:10514000B3E086E028C1FF93EF93E6D2E4CF802F4F
:10515000C8D09091D603891B982F83958927909169
:10516000DA03892311F488940895C5D005D02ED090
:1051700008F4089516D0F7CFE6EDF3E0D0D00E9402
:10518000143172F08091DA0380FD06C036952795C0
:10519000179507958695F8CF0E5F1F4F2F4F3F4FFE
:1051A00008958091DA03025010402040304080FD85
:1051B00006C0000F111F221F331F8695F8CFE6EDA2
:1051C000F3E0ADD00C940F310ED1D6DFA7ECB3E0F5
:1051D000A1D00090C60300FE04C0000F111F221FC3
:1051E000331F0F93012F122F232F33270E940F31CC
:1051F00072D18F91E8F00090C60300FA9927880FCA
:10520000991FE80FF91F222733270191119136F4D6
:10521000219131913F7032976FEF7FE0329748EFE5
:105220005FEF0417150716F42607370710F091E211
:1052300010C117C151D002E0A02E44275527662780
:10524000772704C0AFEDB3E05BD0AA243F932F9340
:105250001F930F937F936F935F934F93AF92B6DF3C
:10526000AF904F915F916F917F910F911F912F910F
:105270003F91ABEDB3E0CD90DD90ED90FD9010F45B
:10528000913249F5C016D106E206F30618F19927C6
:105290008191982B8191982B2EF48191982B81915B
:1052A0008F70982B31F4A1FE0EC04F5F5F4F6F4F90
:1052B0007F4F802F912F15D09127969516F4802738
:1052C000880F00F7C3CF32970EF43297AFEDB3E0FB
:1052D0002BD0C7C092E2BDC0002711272227332759
:1052E00008950F5F1F4F2F4F3F4F08955527662793
:1052F00077270C940F310150104020403040089522
:105300000D911D912D913D91089501911191219142
:10531000319108954D915D916D917D9108954191E7
:1053200051916191719108950D931D932D933D932A
:1053300008950193119321933193089541935193CB
:105340006193719308952227332701911191089554
:10535000662777274D915D91089541915191089568
:105360004D935D9308950D931D930895402F512FF4
:10537000622F732F08950050104020403040089550
:10538000569547958A95E1F70895440F551F8A95DC
:10539000E1F7089584E09F9391919D938A95E1F7B9
:1053A0009F910895E881F9810895A881B98118969F
:1053B0000895E881F9813C960895E881F98138964D
:1053C000B8CFE881F9813896A0CFF3DFB2CFF1DF13
:1053D0009CCFEFDFA4CFA881B9811C960895E88106
:1053E000F98174960895FBDF90CFE881F981808D73
:1053F0000895E881F98170960895FBDF86CFF9DF83
:105400008ECFF7DF96CF0090C60300FA8FEF81931F
:1054100081931EF481938FE0819342C00090C60374
:1054200000FA0193119316F42193319339C0E88166
:10543000F98179960895D3DF7CCFA881B9815496FC
:1054400008950F900F900F900F900F900F90089568
:10545000229608949093C4030895882799E4F9CF7D
:105460002296889490E0F6CF22968894089522960A
:105470000894089580EA01C084E8E881F9819F9347
:10548000908D892B808F9F910895E881F9819F935A
:10549000908D80958923808F9F91089588E0EDCF2E
:1054A00080911A06886080931A06089580911504E9
:1054B00088608093150408950E94422508F0D1CF9A
:1054C000C8CF0E945B2508F0CCCFC3CFA1E1B4E0E8
:1054D000E6E1F4E0F1CF80E1A6E1B6E006C080E0CD
:1054E000A1E1B4E002C0A9DF80E814DF0E94193115
:1054F00031F4E8941196EA2FFB2F1597B6CF9D91C2
:10550000EA2FFB2F792F777E872B8E93149793FFAB
:1055100018C00F931F932F933F939F93AF93BF9305
:10552000D0DFBF91AF919F91A8F094FF06C0AF93D9
:10553000BF93A5D3BF91AF9168F03F912F911F9179
:105540000F91F2DED7DFEF93FF93B6DFFF91EF917C
:105550006894089578CF49DF8670B1F44EDF002754
:105560001E7F442752E0C3DE4CDF3FDF867061F4CC
:105570003ADFEDDD20F061DFB6DF38F088C291322E
:1055800021F47ADF91E265CF91E063CFDED009F0BC
:1055900065CFFA93EA93A5D008F469CF83858F305D
:1055A00099F0827C89F480818E3271F0853E61F0C1
:1055B0008030D1F0A881B9819C919F3311F098136C
:1055C00003C07BE0B5D0A1F0B09681E0480F25F78D
:1055D0008827581F5F934F930FD008F080DF4F91BB
:1055E0005F91D0F6903C08F492E4E991F99131CFC3
:1055F000AFE0B4E0B5DE34CF0090C60300FC19C0C4
:10560000A7EEB3E07DDEA0EDB3E05F934F9382DEC3
:105610000E9419314F915F9161F4A4EDB3E06D9157
:105620007D914617570710F091E313CF0FD059DE45
:1056300018CF0CD03F932F931F930F9388DD08F062
:1056400002CF0F911F912F913F910895A1E1B4E0F6
:1056500057CE4FD008F43CC08081853E81F1803028
:1056600071F1B09681E0480FBDF78827581F5F930E
:105670004F93C2DF08F033DF4F915F9168F79132AB
:1056800039F55F934F9378DD3F932F931F930F93DB
:10569000D9DDF8F0B8DE6ADE0F911F912F913F91AE
:1056A0007F936F935F934F9391DD0F911F912F9194
:1056B0003F9180F4913281F4B1DE9FD2DDCFAFE033
:1056C000B4E04EDE1DDEABEEB3E04ADE2DDEC9CE29
:1056D000C0CEB7CE93E2BDDEB8CEA881B981129616
:1056E0000AC044275527A7EEB3E006C0ADEFB3E0EC
:1056F00002C0ABEEB3E02EDE03DE5A934A93EFDE38
:1057000050F048814F70552785E03FDEE40FF51FCC
:1057100049915991A6CEABCEADEFB3E0ECDFFF934C
:10572000EF93E1EFF3E0FA93EA93EF91FF914CCF1F
:10573000FF93EF9381919D919F3311F0891711F49D
:105740007A95C1F7EF91FF910895E3E0F4E08F932C
:10575000E89499277BE0AEF08D918A3219F48FE3BB
:1057600068940FC08E3239F4733011F4E894F3CF9B
:1057700080E2689406C0803011F480E20CC00E9480
:10578000F32F81938F3309F49395743009F4E894DF
:105790007A9509F704C080E281937A95E9F780E071
:1057A00081933C9799238F91089588E0F4DD389791
:1057B00088278D930895389683E0EDDD3B97882701
:1057C0008D930895928D9D93938D9D930090C60324
:1057D00000FE05C094899D9395899D93089599270E
:1057E0009D939D9308957C96D5DDB0970895882369
:1057F00011F49AE42ECE32E0EBE1F8E0E894208157
:10580000222329F4D6F0EE2EFF2E689416C0281716
:1058100071F1EF93FF938F9380F98F9386E0329627
:10582000AFE0B4E09ED38F9180FB8F91FF91EF9119
:1058300021F41181192310FF1CC03A9519F0E65E7E
:10584000FD4FDDCFC6F4EE2DFF2D18D08083918360
:10585000EF93FF938F9386E03296AE2FBF2FEFE04A
:10586000F4E086E098DD8F91FF91EF91FACD95E419
:10587000F0CD96E4EECD94E4ECCD94DD09E1002486
:1058800001920A95E9F779970895882369F072E003
:10589000EBE1F8E09081981749F07A9519F0E65E0F
:1058A000FD4FF8CF93E4D5CD9AE4D3CD089580E8A9
:1058B000ECDF28F08395E1F791E48827CACDD1CDBC
:1058C00071DD02C0E2DF20F081E0D7DD6ED1D5CFFF
:1058D00008958F939F935DDE7F918F91E8F0972FCE
:1058E0006385692760FF03C0692760FD18C0FF93C7
:1058F000EF937DDFFA93EA93EF91FF9168F06BDD10
:1059000072DF53DD5FDF5DDD36DD39F04ADCEBDD74
:1059100040F0BDD06ADDA8CD0895ACDDFBCF98E4A2
:1059200098CDA5CDE881F9819181917251F1E881FD
:10593000F981808D81FD23C07096E7DC912F802F47
:10594000D0DC3497F6DCE881F9813C96E8DC0E94F3
:10595000193130F03896708172607193112704C04C
:10596000E881F981799619279170E80FF91F8081F4
:10597000169521F08F93F9DD8F91089572CD91E006
:1059800068CD92E666CDFF93EF938F939F9311C0FE
:10599000FF93EF938F939F9339D058F4923451F53E
:1059A00008C0FF93EF938F939F93F3DD08F5923434
:1059B00009F54FDE00F121D09F918F91FF93EF9376
:1059C00016DFAF91BF91C0F0FA93EA93EF91FF9188
:1059D0009F938BE0E0DC9F91917090629D93129673
:1059E00078D2149676D262DD45DDE991F99139CD10
:1059F00092E32FDD089427CD28CD85EE819388276B
:105A00009FE181939A95E9F7B097089509F025CD24
:105A1000C0DD80F183858F7D11F093E31ACDFF9374
:105A2000EF9358D0EF91FF9128F1FF93EF9323D09C
:105A3000EF91FF9185EE808339DD22273327028D98
:105A4000138D0090C60300FE02C02489358993DCC3
:105A500079F017D0BBDB80E08193819316F48193BA
:105A600081931EDDB0F7913221F4EED018F0FDC025
:105A7000FCC008940895EFE0F4E0ABEEB3E086E0FC
:105A80006EC2E0E1FF27AFEDB3E084E068C29FDCC7
:105A9000B6DC0E941931C2F0C9F02DDC732761F425
:105AA000622751F45127569539F491DCA8DC0E9405
:105AB000143184E0E2DCD5CC00E012E086E0E5DCE5
:105AC000D0CC84E0DADCCDCC91E601C091E086E078
:105AD000D4DCBFCC72E0EBE1F8E08081882351F0A8
