:100000000C94460018950000189500001895000003
:10001000189500001895000018950000189500002C
:10002000189500001895000018950000189500001C
:10003000189500001895000018950000189500000C
:100040000C940720189500000C948C2F1895000034
:1000500018950000189500001895000018950000EC
:1000600018950000189500001895000018950000DC
:1000700018950000189500000C94BE2F18950000EC
:100080001895000018950000189500008FEF8DBF9F
:10009000C0E8E8E14E2E80E18EBFD0E1F0E15F2EB6
:1000A000A89584B7082E877F84BF88E1992781BDF2
:1000B00091BDEEEFFFE0A0E0B1E088278D9331978E
:1000C000E9F787E489B980E08093900088E18AB9F4
:1000D000662485E089B980E080939000599888E192
:1000E0008AB986E080939500579A8BE080939900B7
:1000F00080E08093980070919B007D7F70939B00BF
:1001000086E080939D0088E180939A0070919A0028
:10011000706870939A00BD9ABE9ABF9A89EA8FBDA3
:1001200082E08EBD82E08EBD80E090E09BBD8ABD06
:1001300080E090E099BD88BD80E090E090937900E8
:100140008093780087E083BF84E982BF77B77160CE
:1001500077BF87E083BF86E886B980E487B9139AC2
:10016000149A159AD198D99AD298DA9A8C981798A5
:100170001F9AA798A29AA39AA19AA09AA49AA59A1C
:1001800070E0709371007AE0709370000E94C92053
:10019000A6E4B3E0EAE3F8E60E94D72E82E090E01E
:1001A000A2E2B3E08D939C9384EF91E0A8E1B3E0E9
:1001B0008D939C9381E080931A0380E080931B03CE
:1001C00078940E944E0582E593E0A6E1B3E08D931A
:1001D0009C9383E18093EA0282E380931103ABE86E
:1001E000B3E08C9199279BBD8ABDA2EAB3E08C91C4
:1001F000992799BD88BDA9EBB3E08C91992790937D
:100200007900809378000E947E0D0E94E80F0E9482
:1002100029100E94A2110E94C3120E9478010E941C
:10022000E7010E94CB030E9431040E94E904ADEB78
:10023000B1E00D911C91043650E0150718F011F053
:100240000C9424010C945F0180E090E0ADEBB1E0F0
:100250008D939C93A0ECB1E08C918F5F8C930E9466
:100260001109A1E1B3E08C918F5F8C93AAEEB2E00B
:100270008C918F5F8C93A8EEB2E00E944420AEE197
:10028000B3E00D911C91003050E0150718F011F00B
:100290000C944C010C945001AEE1B3E00E944B2051
:1002A000A8EEB2E00D911C910C3350E0150718F048
:1002B00011F00C945D010C945F010E940E140091EA
:1002C000C001033018F011F00C9468010C946D011A
:1002D00080E08093C0010E94490B00914A030130E5
:1002E00011F00C9475010C94420E1B980C940301B0
:1002F000AEE1B3E00D911C91003050E0150781E0B4
:1003000009F080E08F93A5E3B0E00C9102FB81E05F
:100310000EF080E09F918923882311F40C949A01B8
:10032000A6E3B2E0E6E8F8E60E94C02E0E948E1333
:10033000AA98AB98AEE1B3E00D911C91003050E06B
:10034000150780E010F009F081E08F93A5E3B0E09D
:100350000C9102FB81E00EF480E09F9189238F9342
:10036000A5E3B0E00C9103FB81E00EF480E09F91E7
:100370008923882311F40C94E6010091BA0300301C
:1003800011F00C94C5010C94E6010091BA03013000
:1003900011F00C94D601A6E3B2E0E6E9F8E60E947B
:1003A000C02E0E948E13AA9A0C94E6010091BA0303
:1003B000023011F00C94E601A6E3B2E0E6EAF8E6BA
:1003C0000E94C02E0E948E13AA9AAB9A0895E8E765
:1003D000F3E0A4EBB1E00E94083111F00C94F301BA
:1003E00081E080937503E1E8F3E0A4EBB1E00E94C3
:1003F000083111F00C94FF0180E080937503EFE861
:10040000F3E0A4EBB1E00E94083111F00C940B0270
:1004100081E080938C03E8E9F3E0A4EBB1E00E9473
:10042000083111F00C94170280E080938C03E6EA07
:10043000F3E0A4EBB1E00E94083111F00C94230228
:1004400081E08093A303EFEAF3E0A4EBB1E00E9424
:10045000083111F00C942F0280E08093A3030091E7
:100460007503013081E009F080E08F93AAE8B3E0E2
:100470004D915527AAE4B0E00D911C910417150782
:1004800081E008F080E09F918923882311F40C9487
:100490007302AFE6B3E04D915C91A6E7B3E00D9136
:1004A0001C910417150710F00C945C02A6E7B3E04A
:1004B0000E9444200C947302AFE6B3E04D915C912E
:1004C000A6E7B3E00D911C910417150710F40C94E6
:1004D0007302AAE4B0E00E94442080E090E0A6E726
:1004E000B3E08D939C9300917503003081E009F097
:1004F00080E08F93ABE8B3E04D915527AAE4B0E0DC
:100500000D911C910417150780E010F009F081E0AF
:100510009F918923882311F40C94B802AFE6B3E0CD
:100520004D915C91A6E7B3E00D911C91041715075E
:1005300010F00C94A102A6E7B3E00E9444200C94B2
:10054000B802AFE6B3E04D915C91A6E7B3E00D9140
:100550001C910417150710F40C94B802AAE4B0E03B
:100560000E944B2080E090E0A6E7B3E08D939C933F
:1005700000918C03013081E009F080E08F93A1EAC3
:10058000B3E04D915527A8E4B0E00D911C910417FC
:10059000150781E008F080E09F918923882311F4FA
:1005A0000C94FC02A1E7B3E04D915C91ADE8B3E09F
:1005B0000D911C910417150710F00C94E502ADE89D
:1005C000B3E00E9444200C94FC02A1E7B3E04D91FB
:1005D0005C91ADE8B3E00D911C910417150710F480
:1005E0000C94FC02A8E4B0E00E94442080E090E07B
:1005F000ADE8B3E08D939C9300918C03003081E0D3
:1006000009F080E08F93A2EAB3E04D915527A8E46A
:10061000B0E00D911C910417150780E010F009F06F
:1006200081E09F918923882311F40C944103A1E771
:10063000B3E04D915C91ADE8B3E00D911C910417CE
:10064000150710F00C942A03ADE8B3E00E94442093
:100650000C944103A1E7B3E04D915C91ADE8B3E0A8
:100660000D911C910417150710F40C944103A8E494
:10067000B0E00E944B2080E090E0ADE8B3E08D93C5
:100680009C930091A303013081E009F080E08F93F7
:10069000A8EBB3E04D915527A8E7B0E00D911C9170
:1006A0000417150781E008F080E09F9189238823D3
:1006B00011F40C948503A3E7B3E04D915C91A4EA97
:1006C000B3E00D911C910417150710F00C946E0304
:1006D000A4EAB3E00E9444200C948503A3E7B3E0AE
:1006E0004D915C91A4EAB3E00D911C91041715079C
:1006F00010F40C948503A8E7B0E00E94442080E049
:1007000090E0A4EAB3E08D939C930091A3030030A2
:1007100081E009F080E08F93A9EBB3E04D9155277C
:10072000A8E7B0E00D911C910417150780E010F0C8
:1007300009F081E09F918923882311F40C94CA0366
:10074000A3E7B3E04D915C91A4EAB3E00D911C9155
:100750000417150710F00C94B303A4EAB3E00E9449
:1007600044200C94CA03A3E7B3E04D915C91A4EA42
:10077000B3E00D911C910417150710F40C94CA03F3
:10078000A8E7B0E00E944B2080E090E0A4EAB3E04C
:100790008D939C930895A0E2B3E00D911C91A2E289
:1007A000B3E04D915C91041B150BA4E2B3E00D93F3
:1007B0001C93A0E2B3E00D911C91A2E2B3E04D9135
:1007C0005C91040F151FA6E2B3E00D931C93A4E205
:1007D000B3E04D915C91A6E1B3E00D911C9104173B
:1007E000150781E014F009F080E08F93A5E3B0E0F5
:1007F0000C9101FB81E00EF480E09F918923882316
:1008000011F40C940C04A99AA6E3B2E0EAEBF8E622
:100810000E94C02E0E948E13A6E2B3E04D915C911F
:10082000A6E1B3E00D911C910417150780E00CF0D0
:1008300081E08F93A5E3B0E00C9101FB81E00EF025
:1008400080E09F918923882311F40C943004A998A7
:10085000A6E3B2E0EAECF8E60E94C02E0E948E13F6
:100860000895E6E4F3E00E945631EAE3F3E00E94E3
:1008700051310E94B032EDE0F0E0AEE3B3E00E940F
:10088000A530E6E4F3E00E945631EAE3F3E00E948B
:1008900051310E94A132EDE0F0E0A2E4B3E00E9409
:1008A000A530E8E2F3E00E945131EEE3F3E00E946C
:1008B00056310E94383180E010F009F081E08F93CA
:1008C000A5E3B0E00C9104FB81E00EF480E09F9181
:1008D00089238F93E8E2F3E00E945131EEE3F8E6DA
:1008E0000E94FE320E94383180E010F009F081E071
:1008F0009F9189238F93E8E2F3E00E945131E2E473
:10090000F8E60E94FE320E94383181E008F080E073
:100910009F918923882311F40C949704AC9AA6E341
:10092000B2E0ECEDF8E60E94C02E0E948E13E8E2E1
:10093000F3E00E945131E2E4F3E00E9456310E945C
:10094000383181E008F080E08F93A5E3B0E00C91AE
:1009500004FB81E00EF080E09F918923882311F44D
:100960000C94BB04AC98A6E3B2E0EAEEF8E60E9471
:10097000C02E0E948E13E8E2F3E00E945131EEE3B4
:10098000F8E60E94FE320E94383181E008F080E0F3
:100990008F93E8E2F3E00E945131E2E4F8E60E942E
:1009A000FE320E94383180E010F009F081E09F9122
:1009B000892B8F93A5E3B0E00C9104FB81E00EF04E
:1009C00080E09F918923882311F40C94E804AC986B
:1009D0000895EBE4F3E0A4EBB1E00E94083181E07C
:1009E00009F080E08F93A5E3B0E00C9100FB81E07B
:1009F0000EF480E09F918923882311F40C9409055B
:100A0000A89AA6E3B2E0E8EFF8E60E94C02E0E94A2
:100A10008E13E4E5F3E0A4EBB1E00E94083181E03D
:100A200009F080E08F93A5E3B0E00C9100FB81E03A
:100A30000EF080E09F918923882311F40C942905FE
:100A4000A898A6E3B2E0EAE0F9E60E94C02E0E9470
:100A50008E13EDE5F3E0A4EBB1E00E94083111F054
:100A60000C943B05A89AA6E3B2E0E8EFF8E60E94F2
:100A7000C02E0E948E13E6E6F3E0A4EBB1E00E94E4
:100A8000083111F00C944D05A898A6E3B2E0EAE015
:100A9000F9E60E94C02E0E948E1308951C9AA8E1C8
:100AA000B3E08D919C910E94BA201C981B9AA8E1FA
:100AB000B3E08D919C910E94BA201B981D9AA8E1E9
:100AC000B3E08D919C910E94BA201D9880E090E047
:100AD0009BBD8ABD80E090E099BD88BD80E090E03C
:100AE00090937900809378008CE10E9481200E948D
:100AF0007E2084E690E00E94BA20ECE1F9E60E94B4
:100B00007720A0E0B0E1E2E3F9E60E94C02E0E9467
:100B10006F200E947E20E0E0F0E0AFEBB1E00E94A9
:100B2000DC300091BF01013081E009F480E08F9357
:100B300000911A03003081E009F080E09F91892341
:100B4000882311F40C940006F8941D9AEAE3F9E660
:100B50000E9477200E947E2084E20E946B2084E223
:100B60000E946B2084E20E946B20E1E0F0E00E9492
:100B70008820E4E4F9E60E9477200E947E20EAE4DF
:100B8000F9E60E9461200E946820E1E0F0E00E9406
:100B90008820E0E5F9E60E9477200E947E20E0E5CB
:100BA000F9E60E9461200E946820E1E0F0E00E94E6
:100BB0008820ECE5F9E60E9477200E947E20E4E69A
:100BC000F9E60E9461208AE00E946B20E1E0F0E0FB
:100BD0000E9488201D987894A2E3B1E00E94F22F31
:100BE000A3E5B1E00E94F22F81E08093BF01E0E035
:100BF000F0E0AFEBB1E07BE70E94C0300C9406065A
:100C00000091BF01013011F00C9406060E94C3123E
:100C1000A0E3B3E0E9E0F0E094E00E94DF30E0E33D
:100C2000F3E00E945131E6E4F8E60E94FE320E94B1
:100C3000383181E008F080E08F93E0E3F3E00E9438
:100C40005131EAE4F8E60E94FE320E94383180E039
:100C500010F009F081E09F91892B8F93E0E3F3E09E
:100C60000E945131EEE4F8E60E94FE320E943831D3
:100C700081E009F080E09F91892B882311F40C9486
:100C80004F06A0E3B3E0E2E5F8E60E94D72EE9E0E4
:100C9000F0E0A0E3B3E094E07BE70E94C330ACE275
:100CA000B3E0E5E0F0E094E00E94DF30ECE2F3E056
:100CB0000E945131E6E4F8E60E94FE320E9438318B
:100CC00081E008F080E08F93ECE2F3E00E94513184
:100CD000EAE4F8E60E94FE320E94383180E010F02B
:100CE00009F081E09F91892B8F93ECE2F3E00E9461
:100CF0005131EEE4F8E60E94FE320E94383181E084
:100D000009F080E09F91892B882311F40C949606BA
:100D1000ACE2B3E0E6E5F8E60E94D72EE5E0F0E0CD
:100D2000ACE2B3E094E07BE70E94C330A4E3B3E01D
:100D3000EDE0F0E094E00E94DF30E4E3F3E00E94B5
:100D40005131EAE5F8E60E94FE320E94383181E036
:100D500008F080E08F93E4E3F3E00E945131EEE588
:100D6000F8E60E94FE320E94383180E010F009F06F
:100D700081E09F91892B8F93E4E3F3E00E9451314E
:100D8000EEE4F8E60E94FE320E94383181E009F07C
:100D900080E09F91892B882311F40C94DD06A4E355
:100DA000B3E0E2E6F8E60E94D72EEDE0F0E0A4E33F
:100DB000B3E094E07BE70E94C330AAE3B3E0E2E152
:100DC000F0E094E00E94DF30EAE3F3E00E9451316A
:100DD000E6E6F8E60E94FE320E94383180E010F02C
:100DE00009F081E08F93EAE3F3E00E945131EAE6F3
:100DF000F8E60E94FE320E94383181E008F080E07F
:100E00009F91892B882311F40C941407AAE3B3E073
:100E1000EEE6F8E60E94D72EE2E1F0E0AAE3B3E0C6
:100E200094E07BE70E94C33000911B03003081E017
:100E300009F080E08F93A1E2B0E00C9107FB81E024
:100E40000EF480E09F918923882311F40C942C07E1
:100E50000E9459130E94841500911B03013081E008
:100E600009F080E08F93A1E2B0E00C9107FB81E0F4
:100E70000EF080E09F91892B882311F40C940F09C8
:100E8000E3E0F0E0A0E2B3E00E94DE30A0E2B3E0F5
:100E90000D911C91003951E0150780E014F009F024
:100EA00081E08F93A0E2B3E00D911C91043650E0F5
:100EB000150780E00CF481E09F91892B882311F4C1
:100EC0000C946F078AEF90E0A0E2B3E08D939C93BF
:100ED000E3E0F0E0A0E2B3E07BE70E94C230E6E1AD
:100EE000F0E0ABE4B3E098E00E94E630EFE1F0E040
:100EF000A4E5B3E098E00E94E630E8E2F0E0ADE57A
:100F0000B3E098E00E94E630E1E3F0E0A6E6B3E06B
:100F100098E00E94E630E1E0F0E0ACE1B3E00E944E
:100F2000DE30ACE1B3E00D911C91043853E01507BD
:100F300018F011F00C949E070C94AB078CE291E032
:100F4000ACE1B3E08D939C93E1E0F0E0ACE1B3E081
:100F50007BE70E94C230ECE7F0E0AAEBB3E00E942E
:100F6000DC300091BA03023018F011F00C94BA078B
:100F70000C94C40780E08093BA03ECE7F0E0AAEB9E
:100F8000B3E07BE70E94C030EAE3F0E0AFE6B3E015
:100F90000E94DE30AFE6B3E00D911C91043C59E0B5
:100FA000150780E010F009F081E08F93AFE6B3E021
:100FB0000D911C91043650E0150781E008F080E0A7
:100FC0009F91892B882311F40C94F30788EE93E00A
:100FD000AFE6B3E08D939C93EAE3F0E0AFE6B3E0D5
:100FE0007BE70E94C230ECE3F0E0A1E7B3E00E94AF
:100FF000DE30A1E7B3E00D911C91043C59E01507E8
:1010000080E010F009F081E08F93A1E7B3E00D914B
:101010001C91043650E0150781E008F080E09F91B4
:10102000892B882311F40C94220888EE93E0A1E721
:10103000B3E08D939C93ECE3F0E0A1E7B3E07BE7B2
:101040000E94C230EEE3F0E0A3E7B3E00E94DE309E
:10105000A3E7B3E00D911C91043C59E0150780E033
:1010600010F009F081E08F93A3E7B3E00D911C919C
:10107000043650E0150781E008F080E09F91892B4D
:10108000882311F40C94510888EE93E0A3E7B3E0B1
:101090008D939C93EEE3F0E0A3E7B3E07BE70E943F
:1010A000C230E0E4F0E0A8E7B3E098E00E94E63068
:1010B000E9E4F0E0A1E8B3E098E00E94E630E2E580
:1010C000F0E0AAE8B3E00E94DC30E3E5F0E0ABE852
:1010D000B3E00E94DC3000918B03043618F011F06D
:1010E0000C9474080C947E0880E080938B03E3E5F5
:1010F000F0E0ABE8B3E07BE70E94C030E4E5F0E06D
:10110000AFE8B3E098E00E94E630EDE5F0E0A8E952
:10111000B3E098E00E94E630E6E6F0E0A1EAB3E052
:101120000E94DC30E7E6F0E0A2EAB3E00E94DC30A7
:101130000091A203043618F011F00C94A1080C944D
:10114000AB0880E08093A203E7E6F0E0A2EAB3E018
:101150007BE70E94C030E8E6F0E0A6EAB3E098E062
:101160000E94E630E1E7F0E0AFEAB3E098E00E94E9
:10117000E630EAE7F0E0A8EBB3E00E94DC30EBE712
:10118000F0E0A9EBB3E00E94DC300091B903043633
:1011900018F011F00C94CE080C94D80880E08093DD
:1011A000B903EBE7F0E0A9EBB3E07BE70E94C030C6
:1011B000AAE3B3E0E2E1F0E094E00E94DF30EAE38A
:1011C000F3E00E945131EEE3F8E60E94FE320E9405
:1011D000383181E008F080E08F93EAE3F3E00E9489
:1011E0005131E6E6F8E60E94FE320E94383180E096
:1011F00010F009F081E09F91892B882311F40C9461
:101200000F09AAE3B3E0EEE6F8E60E94D72EE2E18A
:10121000F0E0AAE3B3E094E07BE70E94C3300895D6
:1012200008958CE10E9481200E947E2084E690E057
:101230000E94BA200E941C21ACE5B1E00E947120FE
:10124000E8E6F9E60E9477200E941C21A5E6B1E0BD
:101250000E9471200E947E20EAE6F9E60E94772033
:10126000A5E3B0E08C9182FBA0E0B0E10E94EF2EFC
:101270008D9388278C930E946F20E6E7F9E60E9401
:101280007720A0E0B0E1EEE1F3E00E9418300E9488
:101290006F20EAE7F9E60E9477200E947E20ECE7C3
:1012A000F9E60E947720A5E3B0E08C9183FBA0E0F3
:1012B000B0E10E94EF2E8D9388278C930E946F20BF
:1012C000E6E7F9E60E947720A0E0B0E1EEE1F3E086
:1012D0000E9418300E946F20EAE7F9E60E9477200A
:1012E0000E947E20E8E8F9E60E947720A5E3B0E0BE
:1012F0008C9181FBA0E0B0E10E94EF2E8D938827B6
:101300008C930E946F20E0E9F9E60E947720A0E02C
:10131000B0E1E4E2F3E00E9421300E946F20E2E9B4
:10132000F9E60E947720A0E0B0E1E6E2F3E00E9457
:1013300021300E946F20EAE7F9E60E9477200E94A0
:101340007E20E4E9F9E60E947720A5E3B0E08C91E5
:1013500080FBA0E0B0E10E94EF2E8D9388278C9354
:101360000E946F20E8E6F9E60E947720ABE4B3E044
:101370000E947120E2E9F9E60E947720A4E5B3E03B
:101380000E947120EEE9F9E60E947720ADE5B3E016
:101390000E947120E2E9F9E60E947720A6E6B3E018
:1013A0000E9471200E947E20E2EAF9E60E947720E6
:1013B000A5E3B0E08C9184FBA0E0B0E10E94EF2EA9
:1013C0008D9388278C930E946F20E0E9F9E60E94B4
:1013D0007720A0E0B0E1EAE3F3E0552744E00E9483
:1013E0007F210E946F20EAE7F9E60E9477200E94A1
:1013F0007E20EEEAF9E60E947720A5E3B0E08C912A
:1014000085FBA0E0B0E10E94EF2E8D9388278C939E
:101410000E946F200E947E20E4EBF9E60E94772074
:10142000A0E0B0E1EAE4F0E00E9418300E946F20F2
:10143000EAEBF9E60E947720A0E0B0E1EAE8F3E009
:101440000E9428300E946F20E2ECF9E60E9477208B
:10145000A8E7B3E00E947120E2E9F9E60E94772054
:10146000A0E0B0E1EBE8F3E00E9428300E946F209A
:10147000E2ECF9E60E947720A1E8B3E00E94712037
:101480000E947E20E4ECF9E60E947720A0E0B0E123
:10149000E8E4F0E00E9418300E946F20EAEBF9E6E1
:1014A0000E947720A0E0B0E1E1EAF3E00E9428305A
:1014B0000E946F20E2ECF9E60E947720AFE8B3E0EB
:1014C0000E947120E2E9F9E60E947720A0E0B0E1F5
:1014D000E2EAF3E00E9428300E946F20E2ECF9E695
:1014E0000E947720A8E9B3E00E9471200E947E202C
:1014F000EAECF9E60E947720A0E0B0E1E8E7F0E04E
:101500000E9418300E946F20EAEBF9E60E947720D3
:10151000A0E0B0E1E8EBF3E00E9428300E946F20E9
:10152000E2ECF9E60E947720A6EAB3E00E9471207F
:10153000E2E9F9E60E947720A0E0B0E1E9EBF3E010
:101540000E9428300E946F20E2ECF9E60E9477208A
:10155000AFEAB3E00E9471200E947E20E0EDF9E640
:101560000E9477200E947E20E2EDF9E60E9477201B
:10157000A0E0B0E1E8E2F3E0552744E00E947F21DB
:101580000E946F20E8EDF9E60E947720A0E0B0E12C
:10159000EBEEF2E0552744E00E947F210E946F208D
:1015A000ECEDF9E60E9477200E947E20E0EEF9E65D
:1015B0000E947720A0E0B0E1E6E1F3E00E94213054
:1015C0000E946F20E8EEF9E60E9477200E947E20BC
:1015D000ECEEF9E60E947720A0E0B0E1E6E0F3E06F
:1015E0000E9428300E946F2000910603003011F005
:1015F0000C94000BE4EFF9E60E9477200E947E2015
:1016000000910603013011F00C940C0BE0EDF9E6AB
:101610000E9461200E946820E8EFF9E60E9477208E
:10162000A0E0B0E1E4E0F3E00E9428300E946F20E7
:10163000E0E9F9E60E947720A0E0B0E1ECE1F3E018
:101640000E9418300E946F20E2E0FAE60E947720A4
:101650000E947E20E6E0FAE60E947720A0E0B0E15A
:10166000E5E0F3E00E9428300E946F20E2E1FAE614
:101670000E947720A0E0B0E1EFE6F3E00E9418308E
:101680000E946F20EAE7F9E60E9477200E947E2000
:101690000895E0EDF9E60E9461200E9468200E9412
:1016A0001C21ACE5B1E00E945B20E8E6F9E60E946F
:1016B00061200E941C21A5E6B1E00E945B200E94EF
:1016C0006820EAE6F9E60E946120A5E3B0E08C918B
:1016D00082FBA0E0B0E10E94EF2E8D9388278C93CF
:1016E0000E945920E6E7F9E60E946120A0E0B0E1FF
:1016F000EEE1F3E00E9418300E945920EAE7F9E693
:101700000E9461200E946820ECE7F9E60E946120B7
:10171000A5E3B0E08C9183FBA0E0B0E10E94EF2E46
:101720008D9388278C930E945920E6E7F9E60E9462
:101730006120A0E0B0E1EEE1F3E00E9418300E94E9
:101740005920EAE7F9E60E9461200E946820E8E853
:10175000F9E60E946120A5E3B0E08C9181FBA0E056
:10176000B0E10E94EF2E8D9388278C930E94592020
:10177000E0E9F9E60E946120A0E0B0E1E4E2F3E0F4
:101780000E9421300E945920E2E9F9E60E9461207E
:10179000A0E0B0E1E6E2F3E00E9421300E9459208F
:1017A000EAE7F9E60E9461200E946820E4E9F9E690
:1017B0000E946120A5E3B0E08C9180FBA0E0B0E145
:1017C0000E94EF2E8D9388278C930E945920E8E683
:1017D000F9E60E946120ABE4B3E00E945B20E2E9FD
:1017E000F9E60E946120A4E5B3E00E945B20EEE9E7
:1017F000F9E60E946120ADE5B3E00E945B20E2E9DA
:10180000F9E60E946120A6E6B3E00E945B200E94F8
:101810006820E2EAF9E60E946120A5E3B0E08C913D
:1018200084FBA0E0B0E10E94EF2E8D9388278C937B
:101830000E945920E0E9F9E60E946120A0E0B0E1B1
:10184000EAE3F3E0552744E00E947F210E945920FB
:10185000EAE7F9E60E9461200E946820EEEAF9E6D4
:101860000E946120A5E3B0E08C9185FBA0E0B0E18F
:101870000E94EF2E8D9388278C930E9459200E94FE
:101880006820E4EBF9E60E946120A0E0B0E1EAE420
:10189000F0E00E9418300E945920EAEBF9E60E941D
:1018A0006120A0E0B0E1EAE8F3E00E9428300E9465
:1018B0005920E2ECF9E60E946120A8E7B3E00E941B
:1018C0005B20E2E9F9E60E946120A0E0B0E1EBE8EC
:1018D000F3E00E9428300E945920E2ECF9E60E94D1
:1018E0006120A1E8B3E00E945B200E946820E4EC44
:1018F000F9E60E946120A0E0B0E1E8E4F0E00E9497
:1019000018300E945920EAEBF9E60E946120A0E01D
:10191000B0E1E1EAF3E00E9428300E945920E2ECB5
:10192000F9E60E946120AFE8B3E00E945B20E2E9A3
:10193000F9E60E946120A0E0B0E1E2EAF3E00E9453
:1019400028300E945920E2ECF9E60E946120A8E9C3
:10195000B3E00E945B200E946820EAECF9E60E9456
:101960006120A0E0B0E1E8E7F0E00E9418300E94BA
:101970005920EAEBF9E60E946120A0E0B0E1E8EB33
:10198000F3E00E9428300E945920E2ECF9E60E9420
:101990006120A6EAB3E00E945B20E2E9F9E60E943A
:1019A0006120A0E0B0E1E9EBF3E00E9428300E9462
:1019B0005920E2ECF9E60E946120AFEAB3E00E9410
:1019C0005B200E946820E0EDF9E60E9461200E9401
:1019D0006820E2EDF9E60E946120A0E0B0E1E8E2D3
:1019E000F3E0552744E00E947F210E945920E8ED52
:1019F000F9E60E946120A0E0B0E1EBEEF2E05527AD
:101A000044E00E947F210E945920ECEDF9E60E94FB
:101A100061200E946820E0EEF9E60E946120A0E0CB
:101A2000B0E1E6E1F3E00E9421300E945920E8EEA7
:101A3000F9E60E9461200E946820ECEEF9E60E941F
:101A40006120A0E0B0E1E6E0F3E00E9428300E94CF
:101A5000592000910603003011F00C94350DE4EF8D
:101A6000F9E60E9461200E9468200091060301307F
:101A700011F00C94410DE0EDF9E60E9461200E9406
:101A80006820E8EFF9E60E946120A0E0B0E1E4E020
:101A9000F3E00E9428300E945920E0E9F9E60E9414
:101AA0006120A0E0B0E1ECE1F3E00E9418300E9478
:101AB0005920E2E0FAE60E9461200E946820E6E0F8
:101AC000FAE60E946120A0E0B0E1E5E0F3E00E94C8
:101AD00028300E945920E2E1FAE60E946120A0E04D
:101AE000B0E1EFE6F3E00E9418300E945920EAE7E7
:101AF000F9E60E9461200E94682008950091EA02A0
:101B00000A3018F011F00C94870D0C94410E80E00F
:101B10008093F902ABEEB2E0EEE4F8E60E94D72E35
:101B200080E08093EA02F8940E94D12010E90E949C
:101B3000E7201CE90E94E7200E94E12081E08093D9
:101B4000F8020091F8020A3F18F011F00C94D30D3E
:101B50000E94D12011E90E94E7200E940421A5EFF4
:101B6000B2E01C930E940421A6EFB2E01C930E94F5
:101B70000421A7EFB2E01C930E94E120A7EFB2E09E
:101B80000C9107FB16F40C94C70D0C94D30D81E057
:101B900090E00E94BA20A8EFB2E08C918F5F8C9306
:101BA00010F40C94A10D0E94D12011E90E94E720AD
:101BB0000E940421A5EFB2E01C930E940421A6EF2D
:101BC000B2E01C930E940421A7EFB2E01C930E9494
:101BD000E12078949091F5028091F602A3EFB2E0B3
:101BE0008D939C93E2E7F8E60E94FE32E3EFF2E089
:101BF000D190E080FF2400270E94B9310E94093271
:101C0000EDE0F0E0AFEEB2E00E94A530E6E7F8E6E6
:101C10000E94FE32EFEEF2E00E9451310E946232E9
:101C2000EDE0F0E0AFEEB2E00E94A530EFEEF2E0C2
:101C30000E945631EBEEF2E00E9451310E94B03228
:101C4000EDE0F0E0ABEEB2E00E94A530A9EFB2E02B
:101C50008C918F5F8C930091F902053011F00C94F8
:101C6000900DEAE7F8E60E94FE32EBEEF2E00E9409
:101C700051310E940932EDE0F0E0ABEEB2E00E949B
:101C8000A53008951C9A1D9A1B98EAE1FAE60E9475
:101C900061200E9468208CE380933803EAE4FAE62E
:101CA0000E946120A0E0B0E1E8E3F3E00E94283068
:101CB0000E945920E2E7FAE60E9461200E94682013
:101CC00080913803815080933803E1E0F0E00E9476
:101CD000882000913803003011F00C944E0EACE2D5
:101CE000B3E0EEE4F8E60E94D72E80E0809338035C
:101CF00084E18093EA020E947E0D8AE090E00E94D7
:101D0000BA20EBEEF2E00E945631ECE2F3E00E94E2
:101D100051310E94B032EDE0F0E0ACE2B3E00E945D
:101D2000A530A8E3B3E08C918F5F8C9300913803CA
:101D30000A3011F00C947B0EE6E6F8E60E94FE32C3
:101D4000ECE2F3E00E9451310E940932EDE0F0E054
:101D5000ACE2B3E00E94A530E5E0F0E0ACE2B3E035
:101D600094E07BE70E94C330E8E7FAE60E94612036
:101D7000A0E0B0E1ECE2F3E0552744E00E947F21CF
:101D80000E945920EAE8FAE60E9461200E94682039
:101D9000E5E0F0E00E948820ECE8FAE60E9461208D
:101DA0000E94682084E1809338038CE10E946B20BC
:101DB0000E94682084E690E00E94BA20EAEAFAE6EF
:101DC0000E946120A0E0B0E1E8E3F3E00E94283047
:101DD0000E945920E2E7FAE60E9461200E946820F2
:101DE00080913803815080933803E1E0F0E00E9455
:101DF000882000913803003011F00C94D50EE8ECE7
:101E0000FAE60E9461200E9468208CE380933803E8
:101E10008CE10E946B200E94682084E690E00E9482
:101E2000BA20E8EFFAE60E946120A0E0B0E1E8E322
:101E3000F3E00E9428300E945920E2E7FAE60E946F
:101E400061200E946820809138038150809338037C
:101E5000E1E0F0E00E94882000913803003011F0AA
:101E60000C94080FA0E3B3E0EEE4F8E60E94D72E4E
:101E700080E08093380384E18093EA020E947E0D23
:101E80008AE090E00E94BA20EBEEF2E00E94563128
:101E9000E0E3F3E00E9451310E94B032EDE0F0E067
:101EA000A0E3B3E00E94A530A8E3B3E08C918F5F7C
:101EB0008C93009138030A3011F00C943E0FE6E643
:101EC000F8E60E94FE32E0E3F3E00E9451310E9406
:101ED0000932EDE0F0E0A0E3B3E00E94A530E9E0D4
:101EE000F0E0A0E3B3E094E07BE70E94C330ECE2D3
:101EF000F3E00E945631E0E3F3E00E9451310E948A
:101F0000A132EDE0F0E0A4E3B3E00E94A530EEE3FF
:101F1000F8E60E94FE32E4E3F3E00E9451310E94B1
:101F20000932EDE0F0E0A4E3B3E00E94A530E0E286
:101F3000FBE60E946120A0E0B0E1E0E3F3E055277A
:101F400044E00E947F210E945920EAE8FAE60E94BC
:101F500061200E946820E2E3FBE60E946120A0E08D
:101F6000B0E1E4E3F3E0552744E00E947F210E94C2
:101F70005920EAE8FAE60E9461200E94682081E088
:101F800080933903E1E1F0E0A9E3B3E07BE70E944D
:101F9000C030E5E0F0E00E9488208CE10E946B20D8
:101FA0000E94682084E690E00E94BA20E6E4FBE606
:101FB0000E9461200E946820E5E0F0E00E948820F5
:101FC00080E080934A031C981D981B980C94E300B2
:101FD000ECE2F3E00E945631EBEEF2E00E94513168
:101FE0000E94A132EDE0F0E0A8E2B3E00E94A5304B
:101FF000E4E3F3E00E945631E8E2F3E00E9451315D
:102000000E940932EDE0F0E0A8E2B3E00E94A530C2
:10201000EAE5F8E60E94FE32E8E2F3E00E94513180
:102020000E946232EDE0F0E0A8E2B3E00E94A53049
:10203000EEE7F8E60E94FE32E8E2F3E00E9451315A
:102040000E94B032EDE0F0E0A8E2B3E00E94A530DB
:10205000089507B1007E07B90E94C62EAAEFB2E02C
:102060008D939C9307B1007E016007B90E94C62E34
:10207000ACEFB2E08D939C9307B1007E026007B98C
:102080000E94C62EAEEFB2E08D939C9307B1007E06
:10209000036007B90E94C62EA0E0B3E08D939C9325
:1020A00007B1007E046007B90E94C62EA2E0B3E02B
:1020B0008D939C93CA990C94601081E080930403E3
:1020C000CA9B0C94661080E0809304030091040383
:1020D000013011F00C947C10ACE1B3E08D919C9137
:1020E000AEE1B3E08D939C931C9A1D9AE2E0F0E080
:1020F0000E9488201C981D98C9990C94821081E038
:1021000080930503C99B0C94881080E0809305039D
:1021100000910503013011F00C947A1100917503C0
:10212000003011F00C94FC1081E080937503AAE854
:10213000B3E04D915527AAE4B0E00D911C9104172E
:10214000150710F00C94A810AAE4B0E00E944420F7
:1021500081E080938C03A1EAB3E04D915527A8E478
:10216000B0E00D911C910417150710F00C94BC10F1
:10217000A8E4B0E00E94442081E08093A303A8EB90
:10218000B3E04D915527A8E7B0E00D911C910417DD
:10219000150710F00C94D010A8E7B0E00E9444207E
:1021A00082E390E00E94BA2083B198E0892783B946
:1021B000AAE8B3E04D915527AAE4B0E00D911C9137
:1021C0000417150711F00C949410AAE8B3E08C9151
:1021D00099279BBD8ABDA1EAB3E08C91992799BD4F
:1021E00088BDA8EBB3E08C919927909379008093F8
:1021F00078001B980C94761100917503013011F052
:102200000C94761180E080937503ABE8B3E04D91B8
:102210005527AAE4B0E00D911C910417150718F09A
:1022200011F00C9415110C941911AAE4B0E00E945D
:102230004B2080E080938C03A2EAB3E04D915527B8
:10224000A8E4B0E00D911C910417150718F011F0E7
:102250000C942C110C943011A8E4B0E00E944B2097
:1022600080E08093A303A9EBB3E04D915527A8E745
:10227000B0E00D911C910417150718F011F00C94A3
:1022800043110C944711A8E7B0E00E944B2083B1A2
:1022900098E0892783B983B190E1892783B982E3E4
:1022A00090E00E94BA20ABE8B3E04D915527AAE434
:1022B000B0E00D911C910417150711F00C94021158
:1022C0001B981C98ABE8B3E08C9199279BBD8ABD05
:1022D000A2EAB3E08C91992799BD88BDA9EBB3E040
:1022E0008C91992790937900809378008AEF90E001
:1022F0000E94BA209F9B0C948A11009107030A3F09
:1023000010F00C948811A7E0B3E08C918F5F8C9350
:102310000C9490119F990C94901180E08093070386
:10232000009107030A3018F011F00C9499110C94E5
:102330009E1180E0809306030C94A11181E08093AC
:1023400006030895009111030A3018F011F00C945F
:10235000AB110C943C1280E080931103A3EBB1E02D
:102360008C9185FB16F40C94C9111D9AF89482E0A7
:10237000E1E20E94022F5CEC82E0E1E20E942A2F5F
:1023800054E482E0E1E20E942A2F78941D980C9494
:102390002F121D9AF894A2E1B3E0EEE4F8E60E9451
:1023A000D72E82E0E1E20E94022F5CEC82E0E1E2C3
:1023B0000E942A2F5EEB82E0E1E20E942A2F82E057
:1023C000A8E0B3E0E1E229E02A930E94522F82E0E4
:1023D000E1E20E94022F789488E0E8E0F3E00E94B6
:1023E0001A31402F00911003041711F00C942E1293
:1023F000E2E8F8E60E94FE32E8E0F3E0D190E08007
:102400008FEFE7FE8827F82E082F0E94D1310E9417
:102410000932EDE0F0E0A2E1B3E00E94A530E6E68B
:10242000F8E60E94FE32E2E1F3E00E9451310E94A0
:102430006232EDE0F0E0A2E1B3E00E94A530E2E11B
:10244000F3E00E94DD33EDE0F0E00E946131A6E1AF
:10245000B3E0EE0C000FE794DD92EC921D98A3EB35
:10246000B1E08C9185FB882780F9809580FBA3EBF8
:10247000B1E08C9185F98C930895809156010E946A
:102480009920AEEAB1E08C93809157010E94992087
:10249000ADEAB1E08C93809158010E949920ACEA9A
:1024A000B1E08C93809159010E949920AFEAB1E08C
:1024B0008C9380915A010E949920A0EBB1E08C93FB
:1024C00080915B010E949920A1EBB1E08C93AEEA70
:1024D000B1E08C9180688C930E94D1201EED0E9407
:1024E000E72010E00E94E7201091AE010E94E72053
:1024F0001091AD010E94E7201091AC010E94E720ED
:102500000E94E1200E94D1201EED0E94E72013E0EE
:102510000E94E72019E00E94E7201091AF010E947D
:10252000E7201091B0010E94E7201091B1010E94B4
:10253000E7200E94E1200E94D1201EED0E94E720AA
:1025400017E00E94E72010E40E94E7200E94E120AB
:10255000E0E7FBE60E9477200E941C21A5E6B1E09F
:102560000E947120E8E6F9E60E9477200E941C2173
:10257000ACE5B1E00E9471200E947E20E1E0F0E035
:102580000E94882008950E94D1201EED0E94E7201D
:1025900010E00E94E7200E94E1200E94D1201FED60
:1025A0000E94E7200E940421AEEAB1E01C930E9441
:1025B0000421ADEAB1E01C930E940221ACEAB1E033
:1025C0001C930E94E1200E94D1201EED0E94E72072
:1025D00013E00E94E7200E94E1200E94D1201FED1D
:1025E0000E94E7200E940421A2EBB1E01C930E940C
:1025F0000421AFEAB1E01C930E940421A0EBB1E0FA
:102600001C930E940221A1EBB1E01C930E94E120E7
:102610007091B3017F777093B301A2EBB1E00C919D
:1026200005FB16F00C944D137091B3017068709314
:10263000B301AEEAB1E08C918F778C93A0EBB1E05F
:102640008C918F7D8C939091AE010E94A020A6E585
:10265000B1E08C939091AD010E94A020A7E5B1E07C
:102660008C939091AC010E94A020A8E5B1E08C93DE
:102670009091AF010E94A020A9E5B1E08C939091C8
:10268000B0010E94A020AAE5B1E08C939091B10125
:102690000E94A020ABE5B1E08C930E941C21E5E6EE
:1026A000F1E0A4EBB1E00E94A030089508950895F0
:1026B00008951C9AA1E2B0E00C9107FB81E00EF4B2
:1026C00080E08F9300911B03003081E009F080E0EF
:1026D0009F918923882311F40C948C13F894B89A51
:1026E000C09AB89AC09AC39A0E94AA200E946D23E9
:1026F000ACEBB3E09C9381E00E948625A1ECB1E0B5
:102700009C937894EAE7FBE60E9477200E947E2063
:1027100084EF91E00E94BA201C980895A1E2B0E0F5
:102720000C9107FB81E00EF480E08F9300911B0376
:10273000003081E009F080E09F918923882311F423
:102740000C940D141C9AA0E0B0E1E2E8FBE60E94B4
:10275000C02EA0E0B0E10E9497260E94432BAEEC71
:10276000B1E08C93AFECB1E0E6E8FBE60E94C02E4E
:102770008091CE01AFECB1E00E94ED26A2E8B2E07C
:1027800088278C930E941C21ECE5F1E0A2E8B2E0DE
:102790000E94A030A2E8B2E00E945220E0E9FBE6ED
:1027A0000E94C02E0E941C21E5E6F1E0A2E8B2E002
:1027B0000E9452200E94A030A2E8B2E00E94522063
:1027C000E0E9FBE60E94C02EE6E3F2E0A2E8B2E018
:1027D0000E9452200E94A0308091CE01A2E8B2E077
:1027E0000E941E27A6E3B2E088278C93A2E8B2E0FD
:1027F00088278C93A0E0B0E1E2E9FBE60E94C02EBE
:10280000A0E0B0E10E9497268091CE010E945C2753
:102810008091CE010E944A271C98089580E090E0A4
:10282000A8EEB2E08D939C93A1E2B0E00C9107FB7F
:1028300081E00EF480E08F9300911B03003081E073
:1028400009F080E09F918923882311F40C9483156B
:102850001C9AA0E0B0E1E2E8FBE60E94C02EA0E0F6
:10286000B0E10E9497260E94432BAEECB1E08C931E
:10287000AFECB1E0E4E9FBE60E94C02E8091CE010E
:10288000AFECB1E00E94ED26A2E8B2E088278C937D
:102890000E941C21ECE5F1E0A2E8B2E00E94A03029
:1028A000A2E8B2E00E945220E0E9FBE60E94C02EBE
:1028B0000E941C21E5E6F1E0A2E8B2E00E9452206D
:1028C0000E94A030A2E8B2E00E945220E0E9FBE6BC
:1028D0000E94C02EA5E3B0E08C9182FBA2E8B2E09A
:1028E0000E9452200E94EF2E8D9388278C93A2E89D
:1028F000B2E00E945220E0E9FBE60E94C02EA5E370
:10290000B0E08C9183FBA2E8B2E00E9452200E94CA
:10291000EF2E8D9388278C93A2E8B2E00E9452207C
:10292000E0E9FBE60E94C02EA5E3B0E08C9181FBBC
:10293000A2E8B2E00E9452200E94EF2E8D938827D9
:102940008C93A2E8B2E00E945220E0E9FBE60E94EC
:10295000C02EA5E3B0E08C9180FBA2E8B2E00E941B
:1029600052200E94EF2E8D9388278C93A2E8B2E02C
:102970000E945220E0E9FBE60E94C02EA5E3B0E0F1
:102980008C9184FBA2E8B2E00E9452200E94EF2EBC
:102990008D9388278C93A2E8B2E00E945220E0E950
:1029A000FBE60E94C02EA5E3B0E08C9185FBA2E877
:1029B000B2E00E9452200E94EF2E8D9388278C93C4
:1029C000A2E8B2E00E945220E0E9FBE60E94C02E9D
:1029D000A2E8B2E00E945220EAE4F0E00E9418303F
:1029E000A2E8B2E00E945220E0E9FBE60E94C02E7D
:1029F000A2E8B2E00E945220E8E4F0E00E94183021
:102A0000A2E8B2E00E945220E0E9FBE60E94C02E5C
:102A1000A2E8B2E00E945220E8E4F0E00E94183000
:102A2000A2E8B2E00E945220E0E9FBE60E94C02E3C
:102A3000A2E8B2E00E945220E8E2F3E0552744E029
:102A40000E947F21A2E8B2E00E945220E0E9FBE66A
:102A50000E94C02EA2E8B2E00E945220E6E1F3E01C
:102A60000E942130A2E8B2E00E945220E0E9FBE699
:102A70000E94C02EA2E8B2E00E945220E6E0F3E0FD
:102A80000E942830A2E8B2E00E945220E0E9FBE672
:102A90000E94C02EA2E8B2E00E945220E4E0F3E0DF
:102AA0000E942830A2E8B2E00E945220E0E9FBE652
:102AB0000E94C02EA2E8B2E00E945220E5E0F3E0BE
:102AC0000E9428308091CE01A2E8B2E00E941E2729
:102AD000A6E3B2E088278C93A2E8B2E088278C9323
:102AE000A0E0B0E1E2E9FBE60E94C02EA0E0B0E188
:102AF0000E9497268091CE010E945C278091CE0192
:102B00000E944A271C980895F894A1E2B0E00C9125
:102B100007FB81E00EF480E08F9300911B030030EF
:102B200081E009F080E09F918923882311F40C94BF
:102B3000081D1C9AECE9FBE60E9477200E947E208B
:102B400084EF91E00E94BA20A0E0B0E1E2E8FBE669
:102B50000E94C02EA0E0B0E10E945B26A0E0B0E1A0
:102B6000E6EAFBE60E94C02EA0E0B0E10E945B26F0
:102B7000A0E0B0E1EEEAFBE60E94C02EA0E0B0E1EA
:102B8000EAEDF1E00E946727AAEDB1E08C91803078
:102B900011F40C943816E8EBFBE60E9477200E94B3
:102BA0007E200E94432BAEECB1E08C93A0E0B0E11C
:102BB000EEEAFBE60E94C02E8091CE01A0E0B0E1DB
:102BC0000E94E0268091CE0194E1A2E8B1E00E944B
:102BD0002B278091CE0194E1A7E9B1E00E942B2739
:102BE0008091CE010E944A27A2E8B1E00E94003104
:102BF000082F083081E009F080E08F93A7E9B1E069
:102C00000E940031082F083081E009F080E09F9198
:102C10008923882311F40C943816E2E8F1E0A5E644
:102C2000B1E00E94A0300E942F21E7E9F1E0ACE57D
:102C3000B1E00E94A0300E9427210E943D1284E64C
:102C400090E00E94BA200E94C312A3EBB1E08C91E5
:102C500087FB16F00C943816A0E0B0E1EEEAFBE634
:102C60000E94C02EA0E0B0E10E94912A0E94F22BA7
:102C7000A0E0B0E1E2E9FBE60E94C02EA0E0B0E1F6
:102C80000E9497260E94432BAEECB1E08C93AFECF0
:102C9000B1E0E4ECFBE60E94C02E8091CE01AFECE7
:102CA000B1E00E940C278091CE010E94312B08F4E4
:102CB00009C0FA93EA93EEECFBE60E94ED2D0E9428
:102CC000E72D22968091CE010E944A27A0E0B0E134
:102CD000E2E8FBE60E94C02EA0E0B0E10E94972649
:102CE0000E94432BAEECB1E08C93AFECB1E0E6E890
:102CF000FBE60E94C02E8091CE01AFECB1E00E94B5
:102D0000ED26A6E3B2E088278C93A6E3B2E0E2E3E7
:102D1000F9E60E94C02EA6E3B2E00E945220EEE93E
:102D2000F9E60E94C02E0E941C21ECE5F1E0A6E32A
:102D3000B2E00E9452200E94A030A6E3B2E00E94BE
:102D40005220EEE9F9E60E94C02E0E941C21E5E621
:102D5000F1E0A6E3B2E00E9452200E94A0308091F0
:102D6000CE010E94312B08F409C0FA93EA93E0EDFA
:102D7000F9E60E94ED2D0E94E72D22968091CE016A
:102D80000E94312B08F40DC0FA93EA93ECE1F9E6C6
:102D90000E94ED2DA6E3B2E00E94DA2D0E94E72DFD
:102DA0002296A6E3B2E088278C938091CE010E9400
:102DB0004A27A0E0B0E1E2E9FBE60E94C02EA0E0D5
:102DC000B0E10E949726A0E0B0E1E6EAFBE60E94AF
:102DD000C02EA0E0B0E10E949726A0E0B0E1EEEDA9
:102DE000FBE60E94C02EA0E0B0E1EAEDF1E00E9417
:102DF0006727AAEDB1E00E940031A7EEB2E08C9304
:102E00000091E702003011F00C94A1190E94432BAD
:102E1000AEECB1E08C93AFECB1E0EAEEFBE60E94E1
:102E2000C02E8091CE01AFECB1E00E940C278091C2
:102E3000CE010E94312B08F409C0FA93EA93E6EF21
:102E4000FBE60E94ED2D0E94E72D22968091CE0197
:102E50000E94312B08F409C0FA93EA93EEE0FCE6F5
:102E60000E94ED2D0E94E72D22968091CE010E94B6
:102E7000312B08F409C0FA93EA93E0EDF9E60E94D9
:102E8000ED2D0E94E72D22968091CE010E94312BDC
:102E900008F409C0FA93EA93E6E3FCE60E94ED2DFC
:102EA0000E94E72D22968091CE010E94312B08F4DA
:102EB00009C0FA93EA93E0E5FCE60E94ED2D0E943A
:102EC000E72D22968091CE010E94312B08F409C093
:102ED000FA93EA93EAE6FCE60E94ED2D0E94E72DC4
:102EE00022968091CE010E94312B08F409C0FA93FA
:102EF000EA93E4E8FCE60E94ED2D0E94E72D22967D
:102F00008091CE010E94312B08F409C0FA93EA9314
:102F1000E8E9FCE60E94ED2D0E94E72D22968091C3
:102F2000CE010E94312B08F409C0FA93EA93ECEA2F
:102F3000FCE60E94ED2D0E94E72D22968091CE01A5
:102F40000E94312B08F409C0FA93EA93EEECFCE6F8
:102F50000E94ED2D0E94E72D22968091CE010E94C5
:102F6000312B08F409C0FA93EA93E0E5FCE60E94ED
:102F7000ED2D0E94E72D22968091CE010E94312BEB
:102F800008F409C0FA93EA93EAE6FCE60E94ED2D04
:102F90000E94E72D22968091CE010E94312B08F4E9
:102FA00009C0FA93EA93E8EEFCE60E94ED2D0E9438
:102FB000E72D22968091CE010E94312B08F409C0A2
:102FC000FA93EA93ECEFFCE60E94ED2D0E94E72DC8
:102FD00022968091CE010E94312B08F409C0FA9309
:102FE000EA93E0E1FDE60E94ED2D0E94E72D229696
:102FF0008091CE010E94312B08F409C0FA93EA9324
:10300000E2E3FDE60E94ED2D0E94E72D22968091DD
:10301000CE010E94312B08F409C0FA93EA93E0E54F
:10302000FCE60E94ED2D0E94E72D22968091CE01B4
:103030000E94312B08F409C0FA93EA93EAE6FCE611
:103040000E94ED2D0E94E72D22968091CE010E94D4
:10305000312B08F409C0FA93EA93ECE4FDE60E94F0
:10306000ED2D0E94E72D22968091CE010E94312BFA
:1030700008F409C0FA93EA93E0E6FDE60E94ED2D1C
:103080000E94E72D22968091CE010E94312B08F4F8
:1030900009C0FA93EA93E4E7FDE60E94ED2D0E9451
:1030A000E72D22968091CE010E94312B08F409C0B1
:1030B000FA93EA93E0EDF9E60E94ED2D0E94E72DE8
:1030C00022968091CE010E94312B08F409C0FA9318
:1030D000EA93E6E9FDE60E94ED2D0E94E72D229697
:1030E0008091CE010E94312B08F409C0FA93EA9333
:1030F000E0EBFDE60E94ED2D0E94E72D22968091E7
:10310000CE010E94312B08F409C0FA93EA93E0ED56
:10311000F9E60E94ED2D0E94E72D22968091CE01C6
:103120000E94312B08F409C0FA93EA93E4EDFDE61E
:103130000E94ED2D0E94E72D22968091CE010E94E3
:10314000312B08F409C0FA93EA93EEEEFDE60E94F3
:10315000ED2D0E94E72D22968091CE010E94312B09
:1031600008F409C0FA93EA93E4E0FEE60E94ED2D2C
:103170000E94E72D22968091CE010E94312B08F407
:1031800009C0FA93EA93EAE1FEE60E94ED2D0E945F
:10319000E72D22968091CE010E94312B08F409C0C0
:1031A000FA93EA93E0E3FEE60E94ED2D0E94E72DFC
:1031B00022968091CE010E94312B08F409C0FA9327
:1031C000EA93E0EDF9E60E94ED2D0E94E72D2296AC
:1031D0008091CE010E94312B08F409C0FA93EA9342
:1031E000E6E4FEE60E94ED2D0E94E72D22968091F6
:1031F000CE010E94312B08F409C0FA93EA93E0E66D
:10320000FEE60E94ED2D0E94E72D22968091CE01D0
:103210000E94312B08F409C0FA93EA93E0EDF9E635
:103220000E94ED2D0E94E72D22968091CE010E94F2
:10323000312B08F409C0FA93EA93E8E7FEE60E940E
:10324000ED2D0E94E72D22968091CE010E94312B18
:1032500008F409C0FA93EA93E2E9FEE60E94ED2D34
:103260000E94E72D22968091CE010E94312B08F416
:1032700009C0FA93EA93EEEAFEE60E94ED2D0E9461
:10328000E72D22968091CE010E94312B08F409C0CF
:10329000FA93EA93E0EDF9E60E94ED2D0E94E72D06
:1032A00022968091CE010E94312B08F409C0FA9336
:1032B000EA93EAECFEE60E94ED2D0E94E72D2296AD
:1032C0008091CE010E94312B08F409C0FA93EA9351
:1032D000E6EEFEE60E94ED2D0E94E72D22968091FB
:1032E000CE010E94312B08F409C0FA93EA93ECEF67
:1032F000FEE60E94ED2D0E94E72D22968091CE01E0
:103300000E94312B08F409C0FA93EA93E2E1FFE648
:103310000E94ED2D0E94E72D2296A0E0B0E1E2E9A7
:10332000FBE60E94C02EA0E0B0E10E9497268091AB
:10333000CE010E945C278091CE010E944A270C9406
:10334000CB1C0091E702003011F40C94CB1C0E94BE
:10335000432BAEECB1E08C93AFECB1E0EAEEFBE6D0
:103360000E94C02E8091CE01AFECB1E00E94E02619
:103370008091CE0198E2AFEEB1E00E942B278091C0
:10338000CE0198E2AFEEB1E00E942B278091CE01F2
:1033900098E2AFEEB1E00E942B278091CE0198E237
:1033A000AFEEB1E00E942B27AFEEB1E088278C93FF
:1033B0008091CE0198E2AFEEB1E00E942B27EFEEB4
:1033C000F1E003E0AFEEB1E00E94B230AFEEB1E069
:1033D0000E946E30AAE8B3E00C93E2E5F0E0AAE8C0
:1033E000B3E07BE70E94C0308091CE0198E2AFEE5F
:1033F000B1E00E942B27EFEEF1E003E0AFEEB1E089
:103400000E94B230AFEEB1E00E946E30ABE8B3E0A4
:103410000C93E3E5F0E0ABE8B3E07BE70E94C0305B
:103420008091CE0198E2AFEEB1E00E942B27EFEE43
:10343000F1E008E0AFEEB1E00E94B230EFEEF1E073
:10344000A8E7B3E00E94A030E0E4F0E0A8E7B3E032
:103450007BE70E94D1308091CE0198E2AFEEB1E0DF
:103460000E942B27EFEEF1E008E0AFEEB1E00E9402
:10347000B230EFEEF1E0A1E8B3E00E94A030E9E461
:10348000F0E0A1E8B3E07BE70E94D1308091CE016B
:1034900098E2AFEEB1E00E942B27EFEEF1E004E0FE
:1034A000AFEEB1E00E94B230AFEEB1E00E946E30FC
:1034B000AFE6B3E00D931C93EAE3F0E0AFE6B3E0D0
:1034C0007BE70E94C2308091CE0198E2AFEEB1E07E
:1034D0000E942B27AFEEB1E088278C938091CE011C
:1034E00098E2AFEEB1E00E942B27EFEEF1E003E0AF
:1034F000AFEEB1E00E94B230AFEEB1E00E946E30AC
:10350000A1EAB3E00C93E6E6F0E0A1EAB3E07BE7E2
:103510000E94C0308091CE0198E2AFEEB1E00E94EF
:103520002B27EFEEF1E003E0AFEEB1E00E94B23006
:10353000AFEEB1E00E946E30A2EAB3E00C93E7E692
:10354000F0E0A2EAB3E07BE70E94C0308091CE01B8
:1035500098E2AFEEB1E00E942B27EFEEF1E008E039
:10356000AFEEB1E00E94B230EFEEF1E0AFE8B3E0D1
:103570000E94A030E4E5F0E0AFE8B3E07BE70E9412
:10358000D1308091CE0198E2AFEEB1E00E942B27BE
:10359000EFEEF1E008E0AFEEB1E00E94B230EFEE06
:1035A000F1E0A8E9B3E00E94A030EDE5F0E0A8E981
:1035B000B3E07BE70E94D1308091CE0198E2AFEE7C
:1035C000B1E00E942B27EFEEF1E004E0AFEEB1E0B6
:1035D0000E94B230AFEEB1E00E946E30A1E7B3E0DE
:1035E0000D931C93ECE3F0E0A1E7B3E07BE70E94CE
:1035F000C2308091CE0198E2AFEEB1E00E942B275D
:10360000AFEEB1E088278C938091CE0198E2AFEEC7
:10361000B1E00E942B27EFEEF1E003E0AFEEB1E066
:103620000E94B230AFEEB1E00E946E30A8EBB3E082
:103630000C93EAE7F0E0A8EBB3E07BE70E94C03030
:103640008091CE0198E2AFEEB1E00E942B27EFEE21
:10365000F1E003E0AFEEB1E00E94B230AFEEB1E0D6
:103660000E946E30A9EBB3E00C93EBE7F0E0A9EB1E
:10367000B3E07BE70E94C0308091CE0198E2AFEECC
:10368000B1E00E942B27EFEEF1E008E0AFEEB1E0F1
:103690000E94B230EFEEF1E0A6EAB3E00E94A03063
:1036A000E8E6F0E0A6EAB3E07BE70E94D130809143
:1036B000CE0198E2AFEEB1E00E942B27EFEEF1E0F1
:1036C00008E0AFEEB1E00E94B230EFEEF1E0AFEA19
:1036D000B3E00E94A030E1E7F0E0AFEAB3E07BE7BF
:1036E0000E94D1308091CE0198E2AFEEB1E00E940D
:1036F0002B27EFEEF1E004E0AFEEB1E00E94B23034
:10370000AFEEB1E00E946E30A3E7B3E00D931C93DF
:10371000EEE3F0E0A3E7B3E07BE70E94C2308091E4
:10372000CE0198E2AFEEB1E00E942B278091CE014E
:1037300098E2AFEEB1E00E942B27AFEEB1E0882710
:103740008C938091CE0198E2AFEEB1E00E942B27DE
:10375000EFEEF1E003E0AFEEB1E00E94B230AFEE89
:10376000B1E00E946E30A0E2B3E00D931C93E3E061
:10377000F0E0A0E2B3E07BE70E94C2308091CE018E
:1037800098E2AFEEB1E00E942B278091CE0198E243
:10379000AFEEB1E00E942B27AFEEB1E088278C930B
:1037A0008091CE0198E2AFEEB1E00E942B27EFEEC0
:1037B000F1E008E0AFEEB1E00E94B230EFEEF1E0F0
:1037C000ABE4B3E00E94A030E6E1F0E0ABE4B3E0AC
:1037D0007BE70E94D1308091CE0198E2AFEEB1E05C
:1037E0000E942B27EFEEF1E008E0AFEEB1E00E947F
:1037F000B230EFEEF1E0A4E5B3E00E94A030EFE1DB
:10380000F0E0A4E5B3E07BE70E94D1308091CE01E7
:1038100098E2AFEEB1E00E942B27EFEEF1E008E076
:10382000AFEEB1E00E94B230EFEEF1E0ADE5B3E013
:103830000E94A030E8E2F0E0ADE5B3E07BE70E9453
:10384000D1308091CE0198E2AFEEB1E00E942B27FB
:10385000EFEEF1E008E0AFEEB1E00E94B230EFEE43
:10386000F1E0A6E6B3E00E94A030E1E3F0E0A6E6D6
:10387000B3E07BE70E94D1308091CE0198E2AFEEB9
:10388000B1E00E942B278091CE0198E2AFEEB1E02B
:103890000E942B27AFEEB1E088278C938091CE0158
:1038A00098E2AFEEB1E00E942B27EFEEF1E004E0EA
:1038B000AFEEB1E00E94B230AFEEB1E00E940B3348
:1038C000EDE0F0E0AAE3B3E00E94A530E2E1F0E031
:1038D000AAE3B3E094E07BE70E94C3308091CE017D
:1038E00098E2AFEEB1E00E942B278091CE0198E2E2
:1038F000AFEEB1E00E942B27AFEEB1E088278C93AA
:103900008091CE0198E2AFEEB1E00E942B27EFEE5E
:10391000F1E003E0AFEEB1E00E94B230AFEEB1E013
:103920000E946E30ACE1B3E00D931C93E1E0F0E057
:10393000ACE1B3E07BE70E94C2308091CE0198E217
:10394000AFEEB1E00E942B27EFEEF1E001E0AFEE29
:10395000B1E00E94B230AFEEB1E00E946E30AAEB4F
:10396000B3E00C93ECE7F0E0AAEBB3E07BE70E9456
:10397000C0308091CE010E945C278091CE010E94D0
:103980004A27A0E0B0E1E2E9FBE60E94C02EA0E0F9
:10399000B0E10E9497260E94832EA6ECB1E00D9321
:1039A0001D932D933D930E947A2EAAECB1E00D93C6
:1039B0001D932D933D93A6ECB1E00D911D912D919A
:1039C0003C91AAECB1E04D915D916D917C910E948A
:1039D0000030A2ECB1E00D931D932D933D93E4E2F2
:1039E000FFE60E947720A0E0B0E1E2ECF1E00E9467
:1039F0001E300E946F20EAE2FFE60E9477200E94BC
:103A00007E2084EF91E00E94BA201C980C94111D36
:103A10000F9B0C94111DEEE2FFE60E9477200E949E
:103A20007E20E8E3FFE60E9477200E947E20E6E405
:103A3000FFE60E947720A0E0B0E1EAE8F3E00E9410
:103A400028300E946F200E947E20EEE4FFE60E9454
:103A50007720A0E0B0E1EBE8F3E00E9428300E947C
:103A60006F200E947E20E8E5FFE60E947720A8E70D
:103A7000B3E00E9471200E947E20E0E6FFE60E94F3
:103A80007720A1E8B3E00E9471200E947E20E8E642
:103A9000FFE60E947720A0E0B0E1EFE6F3E00E94AD
:103AA00018300E946F200E947E20E0EDF9E60E940F
:103AB00077200E947E20E8E7FFE60E947720A0E0C2
:103AC000B0E1E1EAF3E00E9428300E946F200E94FA
:103AD0007E20E0E8FFE60E947720A0E0B0E1E2EA85
:103AE000F3E00E9428300E946F200E947E20EAE8C6
:103AF000FFE60E947720AFE8B3E00E9471200E94A9
:103B00007E20E2E9FFE60E947720A8E9B3E00E9468
:103B100071200E947E20EAE9FFE60E947720A0E063
:103B2000B0E1E1E7F3E00E9418300E946F200E94AC
:103B30007E20E0EDF9E60E9477200E947E20EAEAEE
:103B4000FFE60E947720A0E0B0E1E8EBF3E00E94FE
:103B500028300E946F200E947E20E2EBFFE60E9448
:103B60007720A0E0B0E1E9EBF3E00E9428300E946A
:103B70006F200E947E20ECEBFFE60E947720A6EAF1
:103B8000B3E00E9471200E947E20E4ECFFE60E94D8
:103B90007720AFEAB3E00E9471200E947E20ECEC17
:103BA000FFE60E947720A0E0B0E1E3E7F3E00E94A7
:103BB00018300E946F200E947E20E0EDF9E60E94FE
:103BC00077200E947E20ECEDFFE60E947720A0E0A7
:103BD000B0E1E0E2F3E00E9421300E946F200E94F9
:103BE0007E20E0EDF9E60E9477200E947E20E6EE3E
:103BF000FFE60E947720ABE4B3E00E947120E2E987
:103C0000F9E60E947720A4E5B3E00E9471200E94AB
:103C10007E20E0EFFFE60E947720ADE5B3E00E9452
:103C20007120E2E9F9E60E947720A6E6B3E00E945F
:103C300071200E947E20E0EDF9E60E9477200E942C
:103C40007E20EAEFFFE60E947720A0E0B0E1EAE301
:103C5000F3E0552744E00E947F210E946F200E94DC
:103C60007E20E0EDF9E60E9477200E947E20E0E0D1
:103C7000F0E70E947720A0E0B0E1ECE1F3E00E94E1
:103C800018300E946F20E0E9FBE60E947720A0E058
:103C9000B0E1EAEBF3E00E9428300E946F200E941E
:103CA0007E200E947E20E6E0F0E70E947720A0E0E0
:103CB000B0E1E0E3F3E0552744E00E947F210E9459
:103CC0006F200E947E20E6E1F0E70E947720A0E0CE
:103CD000B0E1ECE2F3E0552744E00E947F210E942E
:103CE0006F200E947E20E6E2F0E70E947720A0E0AD
:103CF000B0E1E4E3F3E0552744E00E947F210E9415
:103D00006F200E947E200E94490BE5E0F0E00E94B7
:103D1000882078940895A1E2B0E00C9107FB81E03F
:103D20000EF480E08F9300911B03003081E009F0D6
:103D300080E09F918923882311F40C94F41E1C9A2F
:103D4000A0E0B0E1E2E8FBE60E94C02EA0E0B0E116
:103D50000E9497260E94432BAEECB1E08C93AFEC0F
:103D6000B1E0E0E3F0E70E94C02E8091CE01AFEC1D
:103D7000B1E00E94E0268091CE0198E2AFEEB1E082
:103D80000E942B27AFEEB1E00E945B200E946820CA
:103D9000AFEEB1E088278C938091CE010E9453272B
:103DA000AAE2B2E08C9300912A02003011F40C9444
:103DB000BB1EEAE3F0E70E9461200E946820809128
:103DC000CE010E945C278091CE010E944A27A0E08C
:103DD000B0E1E2E9FBE60E94C02EA0E0B0E10E9463
:103DE00097261C980C94FD1E0F9B0C94FD1EEEE272
:103DF000FFE60E9477200E947E200895A1E2B0E0B5
:103E00000C9107FB81E00EF480E08F9300911B037F
:103E1000003081E009F080E09F918923882311F42C
:103E20000C94491F1C9AA0E0B0E1E2E8FBE60E9476
:103E3000C02EA0E0B0E10E9497260E94432BAEEC7A
:103E4000B1E08C93A0E0B0E1E0E3F0E70E94C02E87
:103E5000A0E0B0E10E94912A0E94F22B8091CE0155
:103E60000E945C278091CE010E944A27A0E0B0E129
:103E7000E2E9FBE60E94C02EA0E0B0E10E94972696
:103E8000E0E4F0E70E9461200E9468201C980C94F6
:103E9000521F0F9B0C94521FEEE2FFE60E94772008
:103EA0000E947E2008950F921F922F923F924F9270
:103EB0005F927F92AF92BF920F931F932F933F9386
:103EC0004F935F936F937F938F939F93AF93BF9322
:103ED000CF93DF93EF93FF938FB78F93A4E3B1E07A
:103EE000AD90BB24AEEFB0E0AA0DBB1D0C910D3020
:103EF00011F00C948C1F1B9AA4E3B1E0AD90BB248D
:103F0000ADEFB0E0AA0DBB1D0C91033611F00C947F
:103F10008C1F81E080934A038F918FBFFF91EF91B7
:103F2000DF91CF91BF91AF919F918F917F916F91D1
:103F30005F914F913F912F911F910F91BF90AF9043
:103F40007F905F904F903F902F901F900F90A2E333
:103F5000B1E00E94F22F0895F8940F921F922F92D1
:103F60003F924F925F927F92AF92BF920F931F93B7
:103F70002F933F934F935F936F937F938F939F9371
:103F8000AF93BF93CF93DF93EF93FF938FB78F934D
:103F9000A5E5B1E0AD90BB24A3E3B1E0AA0DBB1D44
:103FA0000C910D3011F00C94E61F1B9AA5E5B1E0C1
:103FB000AD90BB24A2E3B1E0AA0DBB1D0C9103366A
:103FC00011F00C94E61F81E080934A03A3E5B1E071
:103FD0000E94F22F8F918FBFFF91EF91DF91CF91D0
:103FE000BF91AF919F918F917F916F915F914F9111
:103FF0003F912F911F910F91BF90AF907F905F9055
:104000004F903F902F901F900F90789408950F92AB
:104010001F922F923F924F925F927F92AF92BF92E8
:104020000F931F932F933F934F935F936F937F93C0
:104030008F939F93AF93BF93CF93DF93EF93FF93B0
:104040008FB78F9384E982BFADEBB1E00E9444202B
:104050008F918FBFFF91EF91DF91CF91BF91AF9182
:104060009F918F917F916F915F914F913F912F9190
:104070001F910F91BF90AF907F905F904F903F90B6
:104080002F901F900F901895ED91FC91EF5FFF4FCF
:10409000FC93EE930895ED91FC91E150F040FC9378
:1040A000EE9308958F938D918823E9F711978F915F
:1040B0000895A0E0B0E18D91882311F00CD0FBCFE2
:1040C00008950E94CF2E802D11F005D0FACF0895CB
:1040D0008DE001D08AE05D9BFECF8CB90895A0E011
:1040E000B0E18D91882311F00CD0FBCF08950E9490
:1040F000CF2E802D11F005D0FACF08958DE001D09C
:104100008AE000909B0005FEFCCF80939C00089500
:1041100088EE93E02FD03197D9F70895982F8295A4
:104120008F70805D8D939F70905D9D9388278C9399
:1041300008954AE0082F0E94F0300295802B0895E0
:10414000892F8F70905110F0865FFCCF08953197C2
:10415000F1F70895B99ABB98C39ABA9AB89A8CE5C0
:104160008DB9089508950895689462F80895E894C3
:1041700062F80895EF93FF93EE27E82BE92B31F0D7
:10418000EDECFAE03197F1F70197D1F7FF91EF915C
:104190000895899888989198909808958998889812
:1041A00003D0899A01D0889AEF93FF93EAE0F0E078
:1041B0000E94A720FF91EF9108958898809BFECFE1
:1041C0000895899AF1DFF9DFEFDF8998EDCF089440
:1041D000111F01C0110F61F018F40000899802C08E
:1041E000899A00C0E1DFE9DFDFDF889ADDDFF2CF07
:1041F0008998DADFE2DFD8DFE8948199689462F881
:10420000889AD2CF089401C08894331F11E089980E
:10421000D4DF889481990894111F0FB6C5DF889A5E
:10422000C3DF0FBEA8F7379510F4899801C0899AAB
:10423000C4DFBADF889AB8CF0E945613ACE5B1E06C
:10424000E9E5F1E00E946F2133970C944B21ECE5F6
:10425000F1E0A9E5B1E00E945D210C945713E5E679
:10426000F1E0A6E5B1E00E9439210C945813ADE0CD
:10427000BB27868197810E94822F0D938381948131
:104280000E94822F0D93808191810E94822F0D9335
:104290000895EDE0FF2782810E94772F8AE38D93B6
:1042A00081810E94772F8AE38D9380810E94772FEE
:1042B00088278C930895ADE0BB27808191810E946F
:1042C000822F0D93838194810E94822F0D9386818A
:1042D00097810E94822F0D930895EDE0FF27808142
:1042E0000E94772F8FE28D9381810E94772F8FE23A
:1042F0008D9382810E94772F88278D9308950E9445
:1043000051310E94A73117FF03C08DE28D93112711
:10431000003821F4ECEDF5E40C94C02E0F3741F495
:10432000FF2019F4E2EDF5E4F7CFEEECF5E4F4CF7D
:104330004A934A934A935A93BA93AA93BB270F5F1F
:1043400002F5BB27802F0A950E94B1318D3E90F473
:10435000ECE2F6E4A3E00E94FE320E943831BB1F7B
:10436000B0FF06C070970E94FE320E9462323C96F7
:10437000AA9589F7E8E2F6E40E94FE320E946232D2
:1043800022C0093058F1033178F10A3130F418E0D5
:104390008BE192E9E0EEF5E42EC00A950E94B1317E
:1043A000E0E2F6E4BFEFA3E00E94FE320E94383163
:1043B000BB1FB0FD06C038960E94FE320E946232DA
:1043C0003C97AA9589F7B095BB0F0E94A73103953A
:1043D00013E08AEF99E0F816090740F413E08BE048
:1043E00094E0E4EFF5E407C016E001C0B39583E183
:1043F00094E2E8EEF5E46A81BF3F19F4BB27112788
:104400006260BD836A831C83A881B98160E36D9378
:10441000A883B9836D93081B0195AA24BB246A81E4
:104420006A7F002339F0F694E794D794B794A79461
:104430000A95F7CF19E000270E94FE32CC248FEFB7
:1044400074E0AC14B206D306E406F50630F0AC18FE
:10445000B20AD30AE40AF50A21F1881F7A9531F0ED
:104460005695479537952795C794EBCF809522D0E1
:1044700041F0969508F7FE2CED2CDB2CBA2CAA24E3
:10448000DBCF25D05D813C812B8170D0277021F05E
:104490002BD06CD0E8F301C03CD04CD078D026961D
:1044A00008958894881F7A95E9F7809503D049F399
:1044B0008827FCCF806360FD06C0803311F0616007
:1044C00002C0039561FD8D9360FD1A9508959927AB
:1044D0008E919C9385338E9108F083958A3308F0F2
:1044E00080E38C93C0F70895732F720F61FF701BE8
:1044F0000AD01296785019F050F38E9380E38E9381
:104500007150EAF70895A881B981A70F8827B81FCD
:10451000089579E061FD700FF6DF48E0431B400F1E
:104520008AF381F399274A9569F38E91803351F785
:104530009C93F9CF732F61FF701B7395A881B9818C
:10454000EA2FFB2F11978191803361FF09F08D9342
:104550007A9511F48EE28D9381918823C1F77723A8
:1045600011F480E38D9388278C930895889462FDDD
:104570000895002359F4A881B9818C91803331F0DA
:10458000552321F0539533506460089408955523C2
:10459000E9F085E48D931AF48DE28D935195652FA2
:1045A000660F560F5A3010F060E503D068E001D076
:1045B000DACF8FEF74E0561708F0561B881F7A95F4
:1045C00011F06695F8CF809580638D9308954E41E4
:1045D0004E00496E66696E6974790000302E3000B5
:1045E00000404B4C0020A107000050C3000088137E
:1045F0000000F4010000003200000005000080000F
:10460000CCCCCC0C14AE47019CC42000DC4603008B
:10461000E353000063080000D7000000150000000D
:104620001CC25367A5D468530024744915BE9A1759
:10463000CCBC8C2BBD378635689401C0E8948F9331
:104640009F9396E6000000009A95E1F79894809178
:10465000520C9091530C1EF4019708F4019680932C
:10466000520C9093530C59F08091500C9091510C36
:10467000019708F401968093500C9093510C9F91F0
:104680008F91089500E440E050E060E070E088C061
:1046900008E44AEA51E0F9CF09E482C00AE480C0A4
:1046A00000E540E052E0F1CF01E57AC008E578C0CE
:1046B0000AE7E9CF0DECE7CF09EEE5CF09EE40E0E0
:1046C00050E060E070E46CC0C0D0702FBED0602FAE
:1046D000BCD0502FBAD0402FB8C00E94AA200024CE
:1046E0000ED100270093BB03AED088EE93E0A6DF87
:1046F00011F499EE16C10197D1F70AE00F93A5D0F6
:104700000F910A95D9F7BEDF013069F000E4A0D01F
:1047100000279ED000279CD000279AD0002798D051
:1047200005E996D0DECFB4DF013009F01FC0CCDF41
:10473000513011F44A3A11F09AEEF3C0BFDF003065
:1047400021F07CDFD9F79BEEECC0B2DF003021F026
:1047500075DFD9F79CEEE5C0B7DF84E08093BB033B
:1047600076FF1DC08CE08093BB0319C0A5DF02302B
:1047700028F081E08093BB0301E404C082E08093D1
:10478000BB0309EE0F937FDF00230F9121F056DF6B
:10479000C9F79DEEC6C084DF002309F0A2CFBAC0DE
:1047A00011E0003409F415E9083409F417E807FFAB
:1047B00014C00F931F934F935F936F937F9307E7FB
:1047C00062DF7F916F915F914F911F91802F0F91C9
:1047D0000F77823010F0082F1EC035D02FDF31D078
:1047E0001DD011F008EE17C033D0072F31D0062F9F
:1047F0002FD0052F2DD0042F2BD0012F29D02F9370
:1048000024E623D0189407FF05C018DF11F02A957D
:10481000C1F798942F910093BD0308950F938F9340
:104820009F9380E197E28093520C9093530C0DD0AC
:104830000F3F19F001DFD9F798949F918F910F9155
:104840000895C0980895C09A08950FEF01C00027F9
:104850000FB90EB1001FE8F70FB1089568D031F01D
:104860004ED03CD021DF002311F091EF5AC0EDDF94
:104870000E3F21F0E3DED9F792EF53C092E0882794
:10488000E4DF01930197E1F7E0DFDFDF43C04FD0C2
:1048900031F035D023D00ADF002311F095EF41C06D
:1048A000BDDF11F096EF3DC00EEFD2DF0D3F11F4EA
:1048B00097EF37C092E088270191CADF0197E1F7AF
:1048C000C4DFC3DFC2DF0F710093BE03053029F0E0
:1048D0000093BD030695086F24C01CC04091BB0324
:1048E00043FD08C044275D916D917D91550F661F72
:1048F000771F08954D915D916D917D9108958F93EE
:104900009F9380E29EE48093500C9093510C9F9172
:104910008F91089598DF99DF992788949093BC032D
:1049200008959F9390DF91DF9F910894F7CF909126
:10493000BB03992392EE0895EDCF91EEF2CF91EE65
:10494000F0CFF5DF29F0DBDFA7DE002319F096EECC
:104950000C949124E0E0F0E178DF0E3F29F06EDE68
:10496000C9F797EE0C94912490E080E16EDF0193FB
:104970000197E1F76ADF69DFCDDFE0E0F0E19091D8
:10498000BB03913081F08081807C803461F4378179
:104990003F732085118500271F5F2F4F3F4F110F59
:1049A000221F331F1AC033272681237017810085E9
:1049B000007C005C1F4F2F4F818583709285990F7B
:1049C000881F11F011D0F1F785818F7086500CD0BF
:1049D000F1F7012F122F232F3327E881F98101935B
:1049E0001193219331930895000F111F221F331F3C
:1049F0008A9508959CDF29F082DF4EDE002319F0AE
:104A000096EE0C949124E881F9811FDF0E3F29F086
:104A100015DEC9F797EE0C94912490E080E115DF44
:104A200001930197E1F711DF10DF74CF80DF29F0E8
:104A300066DF34DE002319F096EE0C949124E881B1
:104A4000F98103DF0E3F29F0F9DDC9F797EE0C94E9
:104A5000912490E080E1F9DE01930197E1F7F5DE22
:104A6000F4DE58CF64DF29F04ADF22DE002319F09C
:104A700096EE0C94912428DEE881F981719361937C
:104A80005193419347CF53DF29F039DF13DE0023E1
:104A900019F096EE0C949124E881F981D6DED5DEEA
:104AA0000E3F29F0CBDDC1F797EE0C94912490E0F6
:104AB00080E4CBDE01930197E1F7C7DEC6DE2ACFA3
:104AC000E3ECF3E0ABE8B8E0992791931197E9F7AD
:104AD0000895E894843059F0863049F08E3039F0EA
:104AE00068948B3021F08C3011F093E19EC30090DC
:104AF000C50300F80092C50388940895E3E1F6E049
:104B000018D345555A4A09F408958FC38A93D8DFBC
:104B1000C9D3C0F091E1F2DFA8F088818823F9F0D1
:104B2000E3EDF5E08A9511F07096FCCF80818F77E8
:104B300021F434968081CDDF38F48881823078F09A
:104B400093E173C3219671C38093C4033496A0E1AB
:104B5000B4E00CD3A7D388F392E1D0DF98F3899126
:104B6000E0E2F4E0E6D24050524094E1F9F4A3E2EE
:104B7000B4E0DCD2A0E1B4E0AFD2A5D2A6ECB3E0C1
:104B8000BFD2ABE2B4E0D0D24050504019F4A9E318
:104B9000B4E0ACD2EBECF3E0BDD28091250480937D
:104BA000CA0396E1882311F0833008F03EC38DD20A
:104BB00081FD8BD2AFECB3E0A3D2A6E2B4E0B6D2D3
:104BC000A3EDB3E0B9D284E0C7D27DD2A5EDB3E0C6
:104BD00097D2A0E1B4E08AD20E940030B3D2E8E2DA
:104BE000F4E09DD20050104019F4E5E3F4E079D2EE
:104BF0000E940030809122048093D90395E188239C
:104C0000A9F28695F0F791F6A3D157D2AAEDB3E0B9
:104C100077D20090C50300FA8091C403882379F409
:104C2000E89486E00F5F164F2040304010F0689403
:104C30008BE88093C403992790F99093C5033EF4C1
:104C4000A1E4B4E049D299D1AFECB3E059D282E00B
:104C50008093DE03AFECB3E03FD2A6EEB3E050D2D8
:104C6000ACEEB3E04DD2E9C22497088319832A83BE
:104C70003B830895088119812A813B81089580E151
:104C8000FF93EF9380628F93A4D58F918387028FD8
:104C9000138F248B358BAE2FBF2FE2E0F4E08BE037
:104CA00066D213960E94552E14960E94552EEAD273
:104CB000EF91FF91089535D409F0BBC256D310F09F
:104CC00092E3B3C2ABD150F18AD2CEDFAED318F1AA
:104CD000D1DFD5DFCFDF0E94E92CA2E0B4E08EE285
:104CE0008D9380E29AE08D939A95E9F7C3DFC7DF51
:104CF000FF93EF9314D011F02BD101C0D9D18EE2E4
:104D000080930304EF91FF91B096B9DF0E94102DBC
:104D100010F00E94212D8FB724968FBF0895A6EE24
:104D2000B3E0DAD1AFECB3E0E1D10C9405308C9173
:104D30008E32D1F4A6EEB3E0CFD1BDD2B096808151
:104D40008E3209F037C00090C50300FA22273327BE
:104D5000028D138D16F424893589F9D119F4AFEC3D
:104D6000B3E01BC00AD11AC08C35C9F3DAD309F0FD
:104D700060C2FBD2F0F083858F7CF1F40090C50314
:104D800022273327028D138D00FE02C02489358926
:104D9000F4D091D270F0A0E1B4E09ED1A6EEB3E0E1
:104DA000AFD1ACEEB3E0ACD1AAEEB3E081D1C7D1C4
:104DB00044C2089595E339C296E337C264D448F0FB
:104DC000B0D331F48F9391E070D48F9110F035C24D
:104DD00030C28827089557D4D8F0A3D3D1F48F9345
:104DE00098E063D48F9120F4923481F498E01FC04E
:104DF000FA93EA93908D95FD07C0D5D18F9398943F
:104E00000E94812D8F9108F017C22296882708945E
:104E100008950FC238D448F084D331F48F9392E0D0
:104E2000A3D48F9110F009C204C2882708958F93EC
:104E300096D48F9108F001C28827089512D450F0BB
:104E4000FA93EA930E94DA2D20F00E94E72D08F0F1
:104E5000F3C1F9C108959F9304D49F91D0F0FA93C0
:104E6000EA939F93BF93AF9349D4AF91BF919F9122
:104E700058F08D30B1F38A3029F0992391F38D9356
:104E80009A95EFCF8894992780E08C938FB72296DC
:104E90008FBF0895E6D330F0FA93EA93FDD308F07C
:104EA000CBC1D1C10895DDD328F0808D827009F087
:104EB0008FEFC3C18FEF0895D4D340F0FA93EA93F4
:104EC00081E0C7D15ED508F0B7C1BDC10895FF9399
:104ED000EF9327D34AD258F0FF93EF93E2E0F4E048
:104EE000A0EFB3E08CE043D1EF91FF918894AF91B4
:104EF000BF9130F488278C93923409F49EC10895B1
:104F000040D30E94AC3011978EE28D9340D30E9423
:104F1000AC30EEE0F4E0ACEFB3E086E028C1FF9304
:104F2000EF93E6D2E4CF802FC8D09091D503891BB0
:104F3000982F839589279091D903892311F4889418
:104F40000895C5D005D02ED008F4089516D0F7CF17
:104F5000E5EDF3E0D0D00E94003072F08091D903EB
:104F600080FD06C036952795179507958695F8CF4D
:104F70000E5F1F4F2F4F3F4F08958091D90302506E
:104F800010402040304080FD06C0000F111F221F3E
:104F9000331F8695F8CFE5EDF3E0ADD00C94FB2FF1
:104FA0000ED1D6DFA6ECB3E0A1D00090C50300FE81
:104FB00004C0000F111F221F331F0F93012F122F48
:104FC000232F33270E94FB2F72D18F91E8F000909E
:104FD000C50300FA9927880F991FE80FF91F2227A8
:104FE00033270191119136F4219131913F7032971D
:104FF0006FEF7FE0329748EF5FEF0417150716F465
:105000002607370710F091E210C117C151D002E016
:10501000A02E442755276627772704C0AEEDB3E0BE
:105020005BD0AA243F932F931F930F937F936F938B
:105030005F934F93AF92B6DFAF904F915F916F91B7
:105040007F910F911F912F913F91AAEDB3E0CD90E9
:10505000DD90ED90FD9010F4913249F5C016D10627
:10506000E206F30618F199278191982B8191982BEC
:105070002EF48191982B81918F70982B31F4A1FEA1
:105080000EC04F5F5F4F6F4F7F4F802F912F15D016
:105090009127969516F48027880F00F7C3CF329793
:1050A0000EF43297AEEDB3E02BD0C7C092E2BDC094
:1050B000002711272227332708950F5F1F4F2F4FF7
:1050C0003F4F08955527662777270C94FB2F0150F3
:1050D00010402040304008950D911D912D913D913B
:1050E0000895019111912191319108954D915D9112
:1050F0006D917D91089541915191619171910895C2
:105100000D931D932D933D93089501931193219336
:105110003193089541935193619371930895222798
:105120003327019111910895662777274D915D915D
:1051300008954191519108954D935D9308950D9374
:105140001D930895402F512F622F732F0895005003
:105150001040204030400895569547958A95E1F7D4
:105160000895440F551F8A95E1F7089584E09F93B1
:1051700091919D938A95E1F79F910895E881F98136
:105180000895A881B98118960895E881F9813C961F
:105190000895E881F9813896B8CFE881F981389689
:1051A000A0CFF3DFB2CFF1DF9CCFEFDFA4CFA88198
:1051B000B9811C960895E881F98174960895FBDF02
:1051C00090CFE881F981808D0895E881F98170960A
:1051D0000895FBDF86CFF9DF8ECFF7DF96CF009003
:1051E000C50300FA8FEF819381931EF481938FE0C2
:1051F000819342C00090C50300FA0193119316F405
:105200002193319339C0E881F98179960895D3DFEC
:105210007CCFA881B981549608950F900F900F907C
:105220000F900F900F900895229608949093C303C7
:105230000895882799E4F9CF2296889490E0F6CFD4
:1052400022968894089522960894089580EA01C0D1
:1052500084E8E881F9819F93908D892B808F9F91BD
:105260000895E881F9819F93908D80958923808F9F
:105270009F91089588E0EDCF809119068860809312
:105280001906089580911404886080931404089589
:105290000E942E2408F0D1CFC8CF0E94472408F0E6
:1052A000CCCFC3CFA0E1B4E0E5E1F4E0F1CF80E101
:1052B000A5E1B6E006C080E0A0E1B4E002C0A9DF4D
:1052C00080E814DF0E94053031F4E8941196EA2F4B
:1052D000FB2F1597B6CF9D91EA2FFB2F792F777E65
:1052E000872B8E93149793FF18C00F931F932F93C0
:1052F0003F939F93AF93BF93D0DFBF91AF919F91A7
:10530000A8F094FF06C0AF93BF93A5D3BF91AF9110
:1053100068F03F912F911F910F91F2DED7DFEF934D
:10532000FF93B6DFFF91EF916894089578CF49DF3E
:105330008670B1F44EDF00271E7F442752E0C3DEA3
:105340004CDF3FDF867061F43ADFEDDD20F061DF96
:10535000B6DF38F088C2913221F47ADF91E265CF6E
:1053600091E063CFDED009F065CFFA93EA93A5D040
:1053700008F469CF83858F3099F0827C89F480812D
:105380008E3271F0853E61F08030D1F0A881B98114
:105390009C919F3311F0981303C07BE0B5D0A1F02E
:1053A000B09681E0480F25F78827581F5F934F93E9
:1053B0000FD008F080DF4F915F91D0F6903C08F459
:1053C00092E4E991F99131CFAEE0B4E0B5DE34CFAB
:1053D0000090C50300FC19C0A6EEB3E07DDEAFEC83
:1053E000B3E05F934F9382DE0E9405304F915F914F
:1053F00061F4A3EDB3E06D917D914617570710F06E
:1054000091E313CF0FD059DE18CF0CD03F932F93D9
:105410001F930F9388DD08F002CF0F911F912F91FA
:105420003F910895A0E1B4E057CE4FD008F43CC0BE
:105430008081853E81F1803071F1B09681E0480F26
:10544000BDF78827581F5F934F93C2DF08F033DF03
:105450004F915F9168F7913239F55F934F9378DD03
:105460003F932F931F930F93D9DDF8F0B8DE6ADED8
:105470000F911F912F913F917F936F935F934F9364
:1054800091DD0F911F912F913F9180F4913281F422
:10549000B1DE9FD2DDCFAEE0B4E04EDE1DDEAAEE7F
:1054A000B3E04ADE2DDEC9CEC0CEB7CE93E2BDDE7C
:1054B000B8CEA881B98112960AC044275527A6EE16
:1054C000B3E006C0ACEFB3E002C0AAEEB3E02EDE5C
:1054D00003DE5A934A93EFDE50F048814F70552710
:1054E00085E03FDEE40FF51F49915991A6CEABCE82
:1054F000ACEFB3E0ECDFFF93EF93E0EFF3E0FA9370
:10550000EA93EF91FF914CCFFF93EF9381919D919F
:105510009F3311F0891711F47A95C1F7EF91FF913C
:105520000895E2E0F4E08F93E89499277BE0AEF0F1
:105530008D918A3219F48FE368940FC08E3239F45A
:10554000733011F4E894F3CF80E2689406C08030A1
:1055500011F480E20CC00E94DF2E81938F3309F496
:105560009395743009F4E8947A9509F704C080E2C1
:1055700081937A95E9F780E081933C9799238F9105
:10558000089588E0F4DD389788278D93089538963C
:1055900083E0EDDD3B9788278D930895928D9D9351
:1055A000938D9D930090C50300FE05C094899D9343
:1055B00095899D93089599279D939D9308957C9631
:1055C000D5DDB0970895882311F49AE42ECE32E009
:1055D000EAE1F8E0E8942081222329F4D6F0EE2EC7
:1055E000FF2E689416C0281771F1EF93FF938F93E5
:1055F00080F98F9386E03296AEE0B4E09ED38F912F
:1056000080FB8F91FF91EF9121F41181192310FFFD
:105610001CC03A9519F0E65EFD4FDDCFC6F4EE2DC5
:10562000FF2D18D080839183EF93FF938F9386E0B3
:105630003296AE2FBF2FEEE0F4E086E098DD8F913A
:10564000FF91EF91FACD95E4F0CD96E4EECD94E4A0
:10565000ECCD94DD09E1002401920A95E9F77997F0
:105660000895882369F072E0EAE1F8E090819817E4
:1056700049F07A9519F0E65EFD4FF8CF93E4D5CD69
:105680009AE4D3CD089580E8ECDF28F08395E1F724
:1056900091E48827CACDD1CD71DD02C0E2DF20F0D0
:1056A00081E0D7DD6ED1D5CF08958F939F935DDED6
:1056B0007F918F91E8F0972F6385692760FF03C082
:1056C000692760FD18C0FF93EF937DDFFA93EA939B
:1056D000EF91FF9168F06BDD72DF53DD5FDF5DDD21
:1056E00036DD39F04ADCEBDD40F0BDD06ADDA8CD17
:1056F0000895ACDDFBCF98E498CDA5CDE881F98184
:105700009181917251F1E881F981808D81FD23C0F1
:105710007096E7DC912F802FD0DC3497F6DCE8819F
:10572000F9813C96E8DC0E94053030F038967081B3
:1057300072607193112704C0E881F9817996192765
:105740009170E80FF91F8081169521F08F93F9DD94
:105750008F91089572CD91E068CD92E666CDFF936A
:10576000EF938F939F9311C0FF93EF938F939F932A
:1057700039D058F4923451F508C0FF93EF938F93CA
:105780009F93F3DD08F5923409F54FDE00F121D047
:105790009F918F91FF93EF9316DFAF91BF91C0F070
:1057A000FA93EA93EF91FF919F938BE0E0DC9F9156
:1057B000917090629D93129678D2149676D262DDA3
:1057C00045DDE991F99139CD92E32FDD089427CD9C
:1057D00028CD85EE819388279FE181939A95E9F7FB
:1057E000B097089509F025CDC0DD80F183858F7DC8
:1057F00011F093E31ACDFF93EF9358D0EF91FF91FF
:1058000028F1FF93EF9323D0EF91FF9185EE8083F2
:1058100039DD22273327028D138D0090C50300FE4A
:1058200002C02489358993DC79F017D0BBDB80E096
:105830008193819316F4819381931EDDB0F79132A9
:1058400021F4EED018F0FDC0FCC008940895EEE0FD
:10585000F4E0AAEEB3E086E06EC2E0E1FF27AEED31
:10586000B3E084E068C29FDCB6DC0E940530C2F081
:10587000C9F02DDC732761F4622751F45127569546
:1058800039F491DCA8DC0E94003084E0E2DCD5CC65
:1058900000E012E086E0E5DCD0CC84E0DADCCDCCC0
:1058A00091E601C091E086E0D4DCBFCC72E0EAE191
:1058B000F8E08081882351F0FF93EF933296AEE0B9
:1058C000B4E086E03AD2EF91FF9129F07A9529F081
:1058D000E65EFD4FEECF97E4A8CCAFCC70DC23DBC7
:1058E00028F06FDC81FFEBCC92DC91C09132F9F4AF
:1058F00095DBE8F08FEF819381930090C50300FE64
:1059000003C081938FE08193B7DC0F931F932F9394
:105910003F9346DB3F912F911F910F9130F49132CD
:1059200021F48BDC67DC29DBDCCF93E27ECC0895AD
:1059300075DB30F18FEF819381930090C50300FEFA
:1059400003C081938FE0819397DC3F932F931F9344
:105950000F931FDCAEDD0F911F912F913F9180F0CF
:10596000028F138F0090C50300FE02C0248B358B7D
:1059700089DC03DB4CDC9CDB30DC80E272DC88946D
:1059800008951FDC83FF09C016DCAE2FBF2F3496AD
:105990008081877F819381DCD0F013DC86FF18C083
:1059A00087FF02C080FF14C084DD88F0AE2FBF2FB8
:1059B0001B968C9180628C93519681E452DCF3DBD0
:1059C0009FDB1A9772D15EDC3CD008F029C00895A5
:1059D00034CCD3DA8091D9038F936DDC18F018D0D2
:1059E00051DC88948F9190F08A9529F0E0E1F4E001
:1059F00078DB63DBF1CF4091D9034A9531F0E0E1E8
:105A0000F4E06FDB041B64DB56CC17CC0895FBDBA2
:105A1000772792E080E071930197E9F7F2500DCC7F
:105A200080E1A5E1B6E0E9E1F6E0908193FF089519
:105A30008193BF93AF9331DCAF91BF9108F4089588
:105A40000AC080E0A0E1B4E0E4E1F4E0908193FFDB
:105A50000895819322CCEAECF3E0819181FF0895CF
:105A60004ADB3ADBEA2FFB2F31960E94FB2FA2EE96
:105A7000B3E046DB149711CCE881F981092E9181BE
:105A8000902111F08894089592E6CFCBE881F981B6
:105A900091819A7279F1E881F9818F93908D95FFC8
:105AA00006C046DF48F1B3DFE881F981908D70963A
:105AB00018DBF12EE02E01DB349727DBE881F9813A
:105AC0003C9619DB401751076207730718F43497A7
:105AD0001CDB92641F259860E881F9817896919388
