:100000000C94460018950000189500001895000003
:10001000189500001895000018950000189500002C
:10002000189500001895000018950000189500001C
:10003000189500001895000018950000189500000C
:100040000C94231E189500000C94A82D1895000000
:1000500018950000189500001895000018950000EC
:1000600018950000189500001895000018950000DC
:1000700018950000189500000C94DA2D18950000D2
:100080001895000018950000189500008FEF8DBF9F
:10009000C0E8E8E14E2E80E18EBFD0E1F0E15F2EB6
:1000A000A89584B7082E877F84BF88E1992781BDF2
:1000B00091BDEEEFFFE0A0E0B1E088278D9331978E
:1000C000E9F787E489B980E08093900088E18AB9F4
:1000D000662485E089B980E080939000599888E192
:1000E0008AB986E080939500579A8BE080939900B7
:1000F00080E08093980070919B007D7F70939B00BF
:1001000086E080939D0088E180939A0070919A0028
:10011000706870939A00BD9ABE9ABF9A89EA8FBDA3
:1001200082E08EBD82E08EBD80E090E09BBD8ABD06
:1001300080E090E099BD88BD80E090E090937900E8
:100140008093780087E083BF84E982BF77B77160CE
:1001500077BF87E083BF86E886B980E487B9139AC2
:10016000149A159AD198D99AD298DA9A8C981798A5
:100170001F9AA798A29AA39AA19AA09AA49AA59A1C
:1001800070E0709371007AE0709370000E94E51E39
:10019000A1E4B3E0ECE5F4E60E94F32C82E090E009
:1001A000ADE1B3E08D939C9384EF91E0A3E1B3E0E4
:1001B0008D939C9381E08093150380E080931603D8
:1001C00078940E9446058CE291E0A1E1B3E08D9322
:1001D0009C9383E18093EA0282E380930C03A1E87D
:1001E000B3E08C9199279BBD8ABDA8E9B3E08C91BF
:1001F000992799BD88BDAFEAB3E08C919927909378
:100200007900809378000E94B20C0E940C0F0E942B
:100210004D0F0E9498100E94B9110E9470010E9417
:10022000DF010E94C3030E9429040E94E104ADEB98
:10023000B1E00D911C91043650E0150718F011F053
:100240000C9424010C945F0180E090E0ADEBB1E0F0
:100250008D939C93A0ECB1E08C918F5F8C930E9466
:100260003F08ACE0B3E08C918F5F8C93AAEEB2E0D4
:100270008C918F5F8C93A8EEB2E00E94601EA9E182
:10028000B3E00D911C91003050E0150718F011F00B
:100290000C944C010C945001A9E1B3E00E94671E3C
:1002A000A8EEB2E00D911C910C3350E0150718F048
:1002B00011F00C945D010C945F010E9404130091F5
:1002C000C001033018F011F00C9468010C946D011A
:1002D00080E08093C0010E947D0A1B980C9403016A
:1002E000A9E1B3E00D911C91003050E0150781E0C9
:1002F00009F080E08F93A5E3B0E00C9102FB81E070
:100300000EF080E09F918923882311F40C949201D0
:10031000A6E3B2E0E8EAF4E60E94DC2C0E94841234
:10032000AA98AB98A9E1B3E00D911C91003050E080
:10033000150780E010F009F081E08F93A5E3B0E0AD
:100340000C9102FB81E00EF480E09F9189238F9352
:10035000A5E3B0E00C9103FB81E00EF480E09F91F7
:100360008923882311F40C94DE010091B00300303E
:1003700011F00C94BD010C94DE010091B00301302A
:1003800011F00C94CE01A6E3B2E0E8EBF4E60E9493
:10039000DC2C0E948412AA9A0C94DE010091B00316
:1003A000023011F00C94DE01A6E3B2E0E8ECF4E6D2
:1003B0000E94DC2C0E948412AA9AAB9A0895EEE661
:1003C000F3E0A4EBB1E00E94192F11F00C94EB01C3
:1003D00081E080936B03E7E7F3E0A4EBB1E00E94D8
:1003E000192F11F00C94F70180E080936B03E5E87E
:1003F000F3E0A4EBB1E00E94192F11F00C9403027A
:1004000081E080938203EEE8F3E0A4EBB1E00E9488
:10041000192F11F00C940F0280E080938203ECE915
:10042000F3E0A4EBB1E00E94192F11F00C941B0231
:1004300081E080939903E5EAF3E0A4EBB1E00E9448
:10044000192F11F00C94270280E0809399030091FA
:100450006B03013081E009F080E08F93A0E8B3E006
:100460004D915527AAE4B0E00D911C910417150792
:1004700081E008F080E09F918923882311F40C9497
:100480006B02A9E6B3E04D915C91ACE6B3E00D914F
:100490001C910417150710F00C945402ACE6B3E05D
:1004A0000E94601E0C946B02A9E6B3E04D915C9132
:1004B000ACE6B3E00D911C910417150710F40C94F1
:1004C0006B02AAE4B0E00E94601E80E090E0ACE61F
:1004D000B3E08D939C9300916B03003081E009F0B1
:1004E00080E08F93A1E8B3E04D915527AAE4B0E0F6
:1004F0000D911C910417150780E010F009F081E0C0
:100500009F918923882311F40C94B002A9E6B3E0EB
:100510004D915C91ACE6B3E00D911C910417150769
:1005200010F00C949902ACE6B3E00E94601E0C94AB
:10053000B002A9E6B3E04D915C91ACE6B3E00D9159
:100540001C910417150710F40C94B002AAE4B0E053
:100550000E94671E80E090E0ACE6B3E08D939C9330
:1005600000918203013081E009F080E08F93A7E9D8
:10057000B3E04D915527A8E4B0E00D911C9104170C
:10058000150781E008F080E09F918923882311F40A
:100590000C94F402A9E6B3E04D915C91A3E8B3E0BA
:1005A0000D911C910417150710F00C94DD02A3E8BF
:1005B000B3E00E94601E0C94F402A9E6B3E04D91F2
:1005C0005C91A3E8B3E00D911C910417150710F49A
:1005D0000C94F402A8E4B0E00E94601E80E090E079
:1005E000A3E8B3E08D939C9300918203003081E0F7
:1005F00009F080E08F93A8E9B3E04D915527A8E476
:10060000B0E00D911C910417150780E010F009F07F
:1006100081E09F918923882311F40C943903A9E682
:10062000B3E04D915C91A3E8B3E00D911C910417E8
:10063000150710F00C942203A3E8B3E00E94601E9B
:100640000C943903A9E6B3E04D915C91A3E8B3E0C3
:100650000D911C910417150710F40C943903A8E4AC
:10066000B0E00E94671E80E090E0A3E8B3E08D93C5
:100670009C9300919903013081E009F080E08F9311
:10068000AEEAB3E04D915527A8E7B0E00D911C917B
:100690000417150781E008F080E09F9189238823E3
:1006A00011F40C947D03A9E6B3E04D915C91AAE9A5
:1006B000B3E00D911C910417150710F00C9466031C
:1006C000AAE9B3E00E94601E0C947D03A9E6B3E0A2
:1006D0004D915C91AAE9B3E00D911C9104171507A7
:1006E00010F40C947D03A8E7B0E00E94601E80E047
:1006F00090E0AAE9B3E08D939C93009199030030B8
:1007000081E009F080E08F93AFEAB3E04D91552787
:10071000A8E7B0E00D911C910417150780E010F0D8
:1007200009F081E09F918923882311F40C94C2037E
:10073000A9E6B3E04D915C91AAE9B3E00D911C915B
:100740000417150710F00C94AB03AAE9B3E00E945C
:10075000601E0C94C203A9E6B3E04D915C91AAE936
:10076000B3E00D911C910417150710F40C94C2030B
:10077000A8E7B0E00E94671E80E090E0AAE9B3E03D
:100780008D939C930895ABE1B3E00D911C91ADE185
:10079000B3E04D915C91041B150BAFE1B3E00D93F9
:1007A0001C93ABE1B3E00D911C91ADE1B3E04D9131
:1007B0005C91040F151FA1E2B3E00D931C93AFE110
:1007C000B3E04D915C91A1E1B3E00D911C91041750
:1007D000150781E014F009F080E08F93A5E3B0E005
:1007E0000C9101FB81E00EF480E09F918923882326
:1007F00011F40C940404A99AA6E3B2E0ECEDF4E63B
:100800000E94DC2C0E948412A1E2B3E04D915C9125
:10081000A1E1B3E00D911C910417150780E00CF0E5
:1008200081E08F93A5E3B0E00C9101FB81E00EF035
:1008300080E09F918923882311F40C942804A998BF
:10084000A6E3B2E0ECEEF4E60E94DC2C0E948412F7
:100850000895E1E4F3E00E94672FE5E3F3E00E94EE
:10086000622F0E94C130EDE0F0E0A9E3B3E00E9406
:10087000C12EE1E4F3E00E94672FE5E3F3E00E947C
:10088000622F0E94B230EDE0F0E0ADE3B3E00E94F1
:10089000C12EE3E2F3E00E94622FE9E3F3E00E945D
:1008A000672F0E94492F80E010F009F081E08F93BC
:1008B000A5E3B0E00C9104FB81E00EF480E09F9191
:1008C00089238F93E3E2F3E00E94622FE0E6F4E6EF
:1008D0000E940F310E94492F80E010F009F081E062
:1008E0009F9189238F93E3E2F3E00E94622FE4E675
:1008F000F4E60E940F310E94492F81E008F080E069
:100900009F918923882311F40C948F04AC9AA6E359
:10091000B2E0EEEFF4E60E94DC2C0E948412E3E2E7
:10092000F3E00E94622FEDE3F3E00E94672F0E9444
:10093000492F81E008F080E08F93A5E3B0E00C91AF
:1009400004FB81E00EF080E09F918923882311F45D
:100950000C94B304AC98A6E3B2E0ECE0F5E60E9498
:10096000DC2C0E948412E3E2F3E00E94622FE0E6B6
:10097000F4E60E940F310E94492F81E008F080E0E8
:100980008F93E3E2F3E00E94622FE4E6F4E60E9434
:100990000F310E94492F80E010F009F081E09F9113
:1009A000892B8F93A5E3B0E00C9104FB81E00EF05E
:1009B00080E09F918923882311F40C94E004AC9883
:1009C0000895E5E4F3E0A4EBB1E00E94192F81E083
:1009D00009F080E08F93A5E3B0E00C9100FB81E08B
:1009E0000EF480E09F918923882311F40C94010573
:1009F000A89AA6E3B2E0EAE1F5E60E94DC2C0E94A8
:100A00008412EEE4F3E0A4EBB1E00E94192F81E040
:100A100009F080E08F93A5E3B0E00C9100FB81E04A
:100A20000EF080E09F918923882311F40C94210516
:100A3000A898A6E3B2E0ECE2F5E60E94DC2C0E9466
:100A40008412E7E5F3E0A4EBB1E00E94192F11F066
:100A50000C943305A89AA6E3B2E0EAE1F5E60E9419
:100A6000DC2C0E948412E0E6F3E0A4EBB1E00E94EB
:100A7000192F11F00C944505A898A6E3B2E0ECE21A
:100A8000F5E60E94DC2C0E94841208951C9AA3E1D2
:100A9000B3E08D919C910E94D61E1C981B9AA3E1F5
:100AA000B3E08D919C910E94D61E1B981D9AA3E1E4
:100AB000B3E08D919C910E94D61E1D9880E090E03D
:100AC0009BBD8ABD80E090E099BD88BD80E090E04C
:100AD00090937900809378008CE10E949D1E0E9483
:100AE0009A1E84E690E00E94D61EEEE3F5E60E9490
:100AF000931EA0E0B0E1E4E5F5E60E94DC2C0E9444
:100B00008B1E0E949A1EE0E0F0E0AFEBB1E00E9485
:100B1000ED2E0091BF01013081E009F480E08F9358
:100B200000911503003081E009F080E09F91892356
:100B3000882311F40C94F805F8941D9AECE5F5E679
:100B40000E94931E0E949A1E84E20E94871E84E2E5
:100B50000E94871E84E20E94871EE1E0F0E00E946E
:100B6000A41EE6E6F5E60E94931E0E949A1EECE69D
:100B7000F5E60E947D1E0E94841EE1E0F0E00E94E6
:100B8000A41EE2E7F5E60E94931E0E949A1EE2E789
:100B9000F5E60E947D1E0E94841EE1E0F0E00E94C6
:100BA000A41EEEE7F5E60E94931E0E949A1EE6E858
:100BB000F5E60E947D1E8AE00E94871EE1E0F0E0DB
:100BC0000E94A41E1D987894A2E3B1E00E940E2E0C
:100BD000A3E5B1E00E940E2E81E08093BF01E0E02A
:100BE000F0E0AFEBB1E07BE70E94DC2E0C94FE0559
:100BF0000091BF01013011F00C94FE050E94B91163
:100C000000911603003011F00C940A060E944F1256
:100C10000E947A1400911603013011F00C943D08E3
:100C2000E3E0F0E0ABE1B3E00E94EF2EABE1B3E034
:100C30000D911C91003951E0150780E014F009F086
:100C400081E08F93ABE1B3E00D911C91043650E04D
:100C5000150780E00CF481E09F91892B882311F423
:100C60000C943F068AEF90E0ABE1B3E08D939C9348
:100C7000E3E0F0E0ABE1B3E07BE70E94DE2EE6E1EB
:100C8000F0E0A5E4B3E098E00E94F72EEFE1F0E099
:100C9000AEE4B3E098E00E94F72EE8E2F0E0A7E5CA
:100CA000B3E098E00E94F72EE1E3F0E0A0E6B3E0C5
:100CB00098E00E94F72EE1E0F0E0A7E1B3E00E94A7
:100CC000EF2EA7E1B3E00D911C91043853E0150716
:100CD00018F011F00C946E060C947B068CE291E0F7
:100CE000A7E1B3E08D939C93E1E0F0E0A7E1B3E0EE
:100CF0007BE70E94DE2EEAE3F0E0A9E6B3E00E9483
:100D0000EF2EA9E6B3E00D911C91043C59E01507C4
:100D100080E010F009F081E08F93A9E6B3E00D9137
:100D20001C91043650E0150781E008F080E09F91A7
:100D3000892B882311F40C94AA0688EE93E0A9E687
:100D4000B3E08D939C93EAE3F0E0A9E6B3E07BE7A0
:100D50000E94DE2EECE3F0E0AEE6B3E098E00E9405
:100D6000F72EE5E4F0E0A7E7B3E098E00E94F72E65
:100D7000EEE4F0E0A0E8B3E00E94ED2EEFE4F0E056
:100D8000A1E8B3E00E94ED2E00918103043618F033
:100D900011F00C94CD060C94D70680E0809381036B
:100DA000EFE4F0E0A1E8B3E07BE70E94DC2EE0E5B1
:100DB000F0E0A5E8B3E098E00E94F72EE9E5F0E066
:100DC000AEE8B3E098E00E94F72EE2E6F0E0A7E993
:100DD000B3E00E94ED2EE3E6F0E0A8E9B3E00E9464
:100DE000ED2E00919803043618F011F00C94FA06D9
:100DF0000C94040780E080939803E3E6F0E0A8E910
:100E0000B3E07BE70E94DC2EE4E6F0E0ACE9B3E07F
:100E100098E00E94F72EEDE6F0E0A5EAB3E098E056
:100E20000E94F72EE6E7F0E0AEEAB3E00E94ED2E76
:100E3000E7E7F0E0AFEAB3E00E94ED2E0091AF03E8
:100E4000043618F011F00C9427070C94310780E059
:100E50008093AF03E7E7F0E0AFEAB3E07BE70E94FF
:100E6000DC2EABE2B3E0E9E0F0E094E00E94F02E8B
:100E7000EBE2F3E00E94622FE8E6F4E60E940F3115
:100E80000E94492F81E008F080E08F93EBE2F3E0CD
:100E90000E94622FECE6F4E60E940F310E94492F77
:100EA00080E010F009F081E09F91892B8F93EBE2B5
:100EB000F3E00E94622FE0E7F4E60E940F310E9407
:100EC000492F81E009F080E09F91892B882311F45C
:100ED0000C947807ABE2B3E0E4E7F4E60E94F32C6D
:100EE000E9E0F0E0ABE2B3E094E07BE70E94DF2EC4
:100EF000A7E2B3E0E5E0F0E094E00E94F02EE7E244
:100F0000F3E00E94622FE8E6F4E60E940F310E94AF
:100F1000492F81E008F080E08F93E7E2F3E00E9440
:100F2000622FECE6F4E60E940F310E94492F80E028
:100F300010F009F081E09F91892B8F93E7E2F3E0B5
:100F40000E94622FE0E7F4E60E940F310E94492FD1
:100F500081E009F080E09F91892B882311F40C94A3
:100F6000BF07A7E2B3E0E8E7F4E60E94F32CE5E070
:100F7000F0E0A7E2B3E094E07BE70E94DF2EAFE26F
:100F8000B3E0EDE0F0E094E00E94F02EEFE2F3E059
:100F90000E94622FECE7F4E60E940F310E94492F75
:100FA00081E008F080E08F93EFE2F3E00E94622F8F
:100FB000E0E8F4E60E940F310E94492F80E010F033
:100FC00009F081E09F91892B8F93EFE2F3E00E947B
:100FD000622FE0E7F4E60E940F310E94492F81E082
:100FE00009F080E09F91892B882311F40C94060866
:100FF000AFE2B3E0E4E8F4E60E94F32CEDE0F0E0C9
:10100000AFE2B3E094E07BE70E94DF2EA5E3B3E01C
:10101000E2E1F0E094E00E94F02EE5E3F3E00E94CC
:10102000622FE8E8F4E60E940F310E94492F80E029
:1010300010F009F081E08F93E5E3F3E00E94622F66
:10104000ECE8F4E60E940F310E94492F81E008F09D
:1010500080E09F91892B882311F40C943D08A5E32F
:10106000B3E0E0E9F4E60E94F32CE2E1F0E0A5E36E
:10107000B3E094E07BE70E94DF2E089508958CE1B1
:101080000E949D1E0E949A1E84E690E00E94D61E39
:101090000E94381FACE5B1E00E948D1EEAE8F5E63B
:1010A0000E94931E0E94381FA5E6B1E00E948D1E8B
:1010B0000E949A1EECE8F5E60E94931E0E949A1E7A
:1010C000EEE8F5E60E94931EA5E3B0E08C9182FB6A
:1010D000A0E0B0E10E940B2D8D9388278C930E9495
:1010E0008B1EEAE9F5E60E94931EA0E0B0E1E9E17B
:1010F000F3E00E94342E0E948B1EEEE9F5E60E947A
:10110000931E0E949A1EE0EAF5E60E94931EA5E354
:10111000B0E08C9183FBA0E0B0E10E940B2D8D9399
:1011200088278C930E948B1EEAE9F5E60E94931EA5
:10113000A0E0B0E1E9E1F3E00E94342E0E948B1EB2
:10114000EEE9F5E60E94931E0E949A1EECEAF5E68F
:101150000E94931EA5E3B0E08C9181FBA0E0B0E17A
:101160000E940B2D8D9388278C930E948B1EE4EB9D
:10117000F5E60E94931EA0E0B0E1EFE1F3E00E94EB
:101180003D2E0E948B1EE6EBF5E60E94931EA0E02A
:10119000B0E1E1E2F3E00E943D2E0E948B1EEEE9F9
:1011A000F5E60E94931E0E949A1EE8EBF5E60E9467
:1011B000931EA5E3B0E08C9180FBA0E0B0E10E941B
:1011C0000B2D8D9388278C930E948B1EEAE8F5E601
:1011D0000E94931EA5E4B3E00E948D1EE6EBF5E6A7
:1011E0000E94931EAEE4B3E00E948D1EE2ECF5E691
:1011F0000E94931EA7E5B3E00E948D1EE6EBF5E684
:101200000E94931EA0E6B3E00E948D1E0E949A1ECB
:10121000E6ECF5E60E94931EA5E3B0E08C9184FB1A
:10122000A0E0B0E10E940B2D8D9388278C930E9443
:101230008B1EE4EBF5E60E94931EA0E0B0E1E5E32F
:10124000F3E0552744E00E949B1F0E948B1EEEE9AD
:10125000F5E60E94931E0E949A1EE2EDF5E60E94BA
:10126000931EA5E3B0E08C9185FBA0E0B0E10E9465
:101270000B2D8D9388278C930E948B1E0E949A1EA3
:10128000E8EDF5E60E94931EA0E0B0E1EAE4F0E0AC
:101290000E94342E0E948B1EEEEDF5E60E94931EF6
:1012A000A0E0B0E1E0E8F3E00E94442E0E948B1E33
:1012B000E6EEF5E60E94931EAEE6B3E00E948D1EB8
:1012C000E6EBF5E60E94931EA0E0B0E1E1E8F3E072
:1012D0000E94442E0E948B1EE6EEF5E60E94931EAD
:1012E000A7E7B3E00E948D1E0E949A1EE8EEF5E685
:1012F0000E94931EA0E0B0E1E8E4F0E00E94342EEA
:101300000E948B1EEEEDF5E60E94931EA0E0B0E178
:10131000E7E9F3E00E94442E0E948B1EE6EEF5E61C
:101320000E94931EA5E8B3E00E948D1EE6EBF5E651
:101330000E94931EA0E0B0E1E8E9F3E00E94442E91
:101340000E948B1EE6EEF5E60E94931EAEE8B3E027
:101350000E948D1E0E949A1EEEEEF5E60E94931EDC
:10136000A0E0B0E1E8E7F0E00E94342E0E948B1E7E
:10137000EEEDF5E60E94931EA0E0B0E1EEEAF3E0A8
:101380000E94442E0E948B1EE6EEF5E60E94931EFC
:10139000ACE9B3E00E948D1EE6EBF5E60E94931ED9
:1013A000A0E0B0E1EFEAF3E00E94442E0E948B1E21
:1013B000E6EEF5E60E94931EA5EAB3E00E948D1EBC
:1013C0000E949A1EECE8F5E60E94931E0E949A1E67
:1013D000E4EFF5E60E94931EA0E0B0E1E3E2F3E063
:1013E000552744E00E949B1F0E948B1EEAEFF5E602
:1013F0000E94931EA0E0B0E1EBEEF2E0552744E03E
:101400000E949B1F0E948B1EEEEFF5E60E94931E2A
:101410000E949A1EE2E0F6E60E94931EA0E0B0E170
:10142000E1E1F3E00E943D2E0E948B1EEAE0F6E629
:101430000E94931E0E949A1EEEE0F6E60E94931E02
:10144000A0E0B0E1E2E0F3E00E94442E0E948B1E97
:1014500000910203003011F00C94340AE6E1F6E644
:101460000E94931E0E949A1E00910203013011F007
:101470000C94400AECE8F5E60E94931E0E949A1E26
:10148000EAE1F6E60E94931EA0E0B0E1E0E0F3E0BE
:101490000E94442E0E948B1EE4EBF5E60E94931EF0
:1014A000A0E0B0E1E7E1F3E00E94342E0E948B1E41
:1014B000E4E2F6E60E94931E0E949A1EE8E2F6E637
:1014C0000E94931EA0E0B0E1E1E0F3E00E94442E10
:1014D0000E948B1EE4E3F6E60E94931EA0E0B0E1BA
:1014E000E9E6F3E00E94342E0E948B1EEEE9F5E659
:1014F0000E94931E0E949A1E0895ECE8F5E60E9451
:101500007D1E0E94841E0E94381FACE5B1E00E943F
:10151000771EEAE8F5E60E947D1E0E94381FA5E6C8
:10152000B1E00E94771E0E94841EEEE8F5E60E945C
:101530007D1EA5E3B0E08C9182FBA0E0B0E10E94AB
:101540000B2D8D9388278C930E94751EEAE9F5E692
:101550000E947D1EA0E0B0E1E9E1F3E00E94342E9C
:101560000E94751EEEE9F5E60E947D1E0E94841E13
:10157000E0EAF5E60E947D1EA5E3B0E08C9183FBD6
:10158000A0E0B0E10E940B2D8D9388278C930E94E0
:10159000751EEAE9F5E60E947D1EA0E0B0E1E9E1F2
:1015A000F3E00E94342E0E94751EEEE9F5E60E94DB
:1015B0007D1E0E94841EECEAF5E60E947D1EA5E3D6
:1015C000B0E08C9181FBA0E0B0E10E940B2D8D93E7
:1015D00088278C930E94751EE4EBF5E60E947D1E21
:1015E000A0E0B0E1EFE1F3E00E943D2E0E94751E05
:1015F000E6EBF5E60E947D1EA0E0B0E1E1E2F3E05B
:101600000E943D2E0E94751EEEE9F5E60E947D1EA9
:101610000E94841EE8EBF5E60E947D1EA5E3B0E083
:101620008C9180FBA0E0B0E10E940B2D8D93882768
:101630008C930E94751EEAE8F5E60E947D1EA5E4E3
:10164000B3E00E94771EE6EBF5E60E947D1EAEE455
:10165000B3E00E94771EE2ECF5E60E947D1EA7E54E
:10166000B3E00E94771EE6EBF5E60E947D1EA0E641
:10167000B3E00E94771E0E94841EE6ECF5E60E940D
:101680007D1EA5E3B0E08C9184FBA0E0B0E10E9458
:101690000B2D8D9388278C930E94751EE4EBF5E645
:1016A0000E947D1EA0E0B0E1E5E3F3E0552744E0B1
:1016B0000E949B1F0E94751EEEE9F5E60E947D1EAA
:1016C0000E94841EE2EDF5E60E947D1EA5E3B0E0D7
:1016D0008C9185FBA0E0B0E10E940B2D8D938827B3
:1016E0008C930E94751E0E94841EE8EDF5E60E9410
:1016F0007D1EA0E0B0E1EAE4F0E00E94342E0E94FA
:10170000751EEEEDF5E60E947D1EA0E0B0E1E0E87A
:10171000F3E00E94442E0E94751EE6EEF5E60E945C
:101720007D1EAEE6B3E00E94771EE6EBF5E60E9472
:101730007D1EA0E0B0E1E1E8F3E00E94442E0E94AB
:10174000751EE6EEF5E60E947D1EA7E7B3E00E9457
:10175000771E0E94841EE8EEF5E60E947D1EA0E042
:10176000B0E1E8E4F0E00E94342E0E94751EEEED38
:10177000F5E60E947D1EA0E0B0E1E7E9F3E00E94FB
:10178000442E0E94751EE6EEF5E60E947D1EA5E839
:10179000B3E00E94771EE6EBF5E60E947D1EA0E016
:1017A000B0E1E8E9F3E00E94442E0E94751EE6EEE7
:1017B000F5E60E947D1EAEE8B3E00E94771E0E940F
:1017C000841EEEEEF5E60E947D1EA0E0B0E1E8E7A3
:1017D000F0E00E94342E0E94751EEEEDF5E60E94A8
:1017E0007D1EA0E0B0E1EEEAF3E00E94442E0E94EC
:1017F000751EE6EEF5E60E947D1EACE9B3E00E94A0
:10180000771EE6EBF5E60E947D1EA0E0B0E1EFEA70
:10181000F3E00E94442E0E94751EE6EEF5E60E945B
:101820007D1EA5EAB3E00E94771E0E94841EECE8AC
:10183000F5E60E947D1E0E94841EE4EFF5E60E94FC
:101840007D1EA0E0B0E1E3E2F3E0552744E00E9412
:101850009B1F0E94751EEAEFF5E60E947D1EA0E028
:10186000B0E1EBEEF2E0552744E00E949B1F0E949E
:10187000751EEEEFF5E60E947D1E0E94841EE2E0DA
:10188000F6E60E947D1EA0E0B0E1E1E1F3E00E94F7
:101890003D2E0E94751EEAE0F6E60E947D1E0E9423
:1018A000841EEEE0F6E60E947D1EA0E0B0E1E2E0DC
:1018B000F3E00E94442E0E94751E00910203003046
:1018C00011F00C94690CE6E1F6E60E947D1E0E9480
:1018D000841E00910203013011F00C94750CECE8A9
:1018E000F5E60E947D1E0E94841EEAE1F6E60E9453
:1018F0007D1EA0E0B0E1E0E0F3E00E94442E0E94F3
:10190000751EE4EBF5E60E947D1EA0E0B0E1E7E184
:10191000F3E00E94342E0E94751EE4E2F6E60E9477
:101920007D1E0E94841EE8E2F6E60E947D1EA0E075
:10193000B0E1E1E0F3E00E94442E0E94751EE4E372
:10194000F6E60E947D1EA0E0B0E1E9E6F3E00E9429
:10195000342E0E94751EEEE9F5E60E947D1E0E945F
:10196000841E08950091EA02053018F011F00C94DD
:10197000BB0C0C945F0D80E08093F50280E08093B7
:10198000EA02F8940E94ED1E10E90E94031F1CE970
:101990000E94031F0E94FD1E81E08093F4020091CB
:1019A000F4020A3F18F011F00C94010D0E94ED1E94
:1019B00011E90E94031F0E94201FA1EFB2E01C93B7
:1019C0000E94201FA2EFB2E01C930E94201FA3EFF1
:1019D000B2E01C930E94FD1EA3EFB2E00C9107FB46
:1019E00016F40C94F50C0C94010D81E090E00E942B
:1019F000D61EA4EFB2E08C918F5F8C9310F40C9400
:101A0000CF0C0E94ED1E11E90E94031F0E94201FAF
:101A1000A1EFB2E01C930E94201FA2EFB2E01C9342
:101A20000E94201FA3EFB2E01C930E94FD1E789439
:101A30009091F1028091F202AFEEB2E08D939C930F
:101A4000E4E9F4E60E940F31EFEEF2E0D190E0809D
:101A5000FF2400270E94CA2F0E941A30EDE0F0E018
:101A6000ABEEB2E00E94C12EE8E9F4E60E940F312D
:101A7000EBEEF2E00E94622F0E947330EDE0F0E0A6
:101A8000ABEEB2E00E94C12EA5EFB2E08C918F5F69
:101A90008C930091F5020A3011F00C94BE0CE8E82A
:101AA000F4E60E940F31EBEEF2E00E94622F0E94FA
:101AB0001A30EDE0F0E0ABEEB2E00E94C12E0895E6
:101AC0001C9A1D9A1B98ECE3F6E60E94931E0E9456
:101AD0009A1E8CE3809333038CE10E949D1E0E942A
:101AE0009A1E84E690E00E94D61EECE6F6E60E947E
:101AF000931EA0E0B0E1E3E3F3E00E94442E0E94D5
:101B00008B1EE4E9F6E60E94931E0E949A1E8091C5
:101B10003303815080933303E1E0F0E00E94A41E80
:101B200000913303003011F00C946C0DA7E2B3E088
:101B3000E0E7F4E60E94F32C80E08093330384E135
:101B40008093EA020E94B20C8AE090E00E94D61EC6
:101B5000EBEEF2E00E94672FE7E2F3E00E94622FD3
:101B60000E94C130EDE0F0E0A7E2B3E00E94C12E98
:101B7000A3E3B3E08C918F5F8C93009133030A3021
:101B800011F00C94A20DE8E8F4E60E940F31E7E2B0
:101B9000F3E00E94622F0E941A30EDE0F0E0A7E22D
:101BA000B3E00E94C12EE5E0F0E0A7E2B3E094E0EC
:101BB0007BE70E94DF2EEAE9F6E60E94931EA0E092
:101BC000B0E1E7E2F3E0552744E00E949B1F0E944A
:101BD0008B1EECEAF6E60E94931E0E949A1EE5E038
:101BE000F0E00E94A41EEEEAF6E60E94931E0E9418
:101BF0009A1E84E1809333038CE10E949D1E0E9413
:101C00009A1E84E690E00E94D61EECECF6E60E9456
:101C1000931EA0E0B0E1E3E3F3E00E94442E0E94B3
:101C20008B1EE4E9F6E60E94931E0E949A1E8091A4
:101C30003303815080933303E1E0F0E00E94A41E5F
:101C400000913303003011F00C94FC0DEAEEF6E63F
:101C50000E94931E0E949A1E8CE3809333038CE1B2
:101C60000E949D1E0E949A1E84E690E00E94D61E4D
:101C7000EAE1F7E60E94931EA0E0B0E1E3E3F3E0BF
:101C80000E94442E0E948B1EE4E9F6E60E94931EF9
:101C90000E949A1E80913303815080933303E1E0C8
:101CA000F0E00E94A41E00913303003011F00C9468
:101CB0002F0EABE2B3E0E0E7F4E60E94F32C80E005
:101CC0008093330384E18093EA020E94B20C8AE09D
:101CD00090E00E94D61EEBEEF2E00E94672FEBE24E
:101CE000F3E00E94622F0E94C130EDE0F0E0ABE231
:101CF000B3E00E94C12EA3E3B3E08C918F5F8C937D
:101D0000009133030A3011F00C94650EE8E8F4E614
:101D10000E940F31EBE2F3E00E94622F0E941A3022
:101D2000EDE0F0E0ABE2B3E00E94C12EE9E0F0E0CC
:101D3000ABE2B3E094E07BE70E94DF2EE7E2F3E062
:101D40000E94672FEBE2F3E00E94622F0E94B23004
:101D5000EDE0F0E0AFE2B3E00E94C12EECE9F4E682
:101D60000E940F31EFE2F3E00E94622F0E941A30CE
:101D7000EDE0F0E0AFE2B3E00E94C12EE2E4F7E66E
:101D80000E94931EA0E0B0E1EBE2F3E0552744E0AF
:101D90000E949B1F0E948B1EECEAF6E60E94931E97
:101DA0000E949A1EE4E5F7E60E94931EA0E0B0E1CF
:101DB000EFE2F3E0552744E00E949B1F0E948B1E38
:101DC000ECEAF6E60E94931E0E949A1E81E0809340
:101DD0003403E1E1F0E0A4E3B3E07BE70E94DC2E12
:101DE000E5E0F0E00E94A41E8CE10E949D1E0E948E
:101DF0009A1E84E690E00E94D61EE8E6F7E60E946E
:101E0000931E0E949A1EE5E0F0E00E94A41E1C981A
:101E10001D981B980C94E300E7E2F3E00E94672F03
:101E2000EBEEF2E00E94622F0E94B230EDE0F0E0B3
:101E3000A3E2B3E00E94C12EEFE2F3E00E94672F1D
:101E4000E3E2F3E00E94622F0E941A30EDE0F0E03E
:101E5000A3E2B3E00E94C12EECE7F4E60E940F314A
:101E6000E3E2F3E00E94622F0E947330EDE0F0E0C5
:101E7000A3E2B3E00E94C12EE0EAF4E60E940F3133
:101E8000E3E2F3E00E94622F0E94C130EDE0F0E057
:101E9000A3E2B3E00E94C12E089507B1007E07B906
:101EA0000E94E22CA6EFB2E08D939C9307B1007ED6
:101EB000016007B90E94E22CA8EFB2E08D939C93D9
:101EC00007B1007E026007B90E94E22CAAEFB2E0DF
:101ED0008D939C9307B1007E036007B90E94E22CAA
:101EE000ACEFB2E08D939C9307B1007E046007B91C
:101EF0000E94E22CAEEFB2E08D939C93CA990C94B1
:101F0000840F81E080930003CA9B0C948A0F80E0C9
:101F10008093000300910003013011F00C949C0F9A
:101F2000A7E1B3E08D919C91A9E1B3E08D939C93DF
:101F30008AEF90E00E94D61EC9990C94A20F81E00E
:101F400080930103C99B0C94A80F80E08093010348
:101F500000910103013011F00C948B1000916B0380
:101F6000003011F00C94171081E080936B03A0E80F
:101F7000B3E04D915527AAE4B0E00D911C910417F0
:101F8000150710F00C94C80FAAE4B0E00E94601E80
:101F900081E080938203A7E9B3E04D915527A8E43F
:101FA000B0E00D911C910417150710F00C94DC0F94
:101FB000A8E4B0E00E94601E81E080939903AEEA3D
:101FC000B3E04D915527A8E7B0E00D911C9104179F
:101FD000150710F00C94F00FA8E7B0E00E94601E07
:101FE00082E390E00E94D61EA0E8B3E04D91552711
:101FF000AAE4B0E00D911C910417150711F00C94A0
:10200000B40FA0E8B3E08C9199279BBD8ABDA7E9E6
:10201000B3E08C91992799BD88BDAEEAB3E08C916D
:10202000992790937900809378000C948710009101
:102030006B03013011F00C94871080E080936B03E8
:10204000A1E8B3E04D915527AAE4B0E00D911C91B1
:102050000417150718F011F00C9430100C9434107C
:10206000AAE4B0E00E94671E80E080938203A8E9A2
:10207000B3E04D915527A8E4B0E00D911C910417F1
:10208000150718F011F00C9447100C944B10A8E4AD
:10209000B0E00E94671E80E080939903AFEAB3E04E
:1020A0004D915527A8E7B0E00D911C910417150735
:1020B00018F011F00C945E100C946210A8E7B0E0D8
:1020C0000E94671E82E390E00E94D61EA1E8B3E062
:1020D0004D915527AAE4B0E00D911C910417150706
:1020E00011F00C941D10A1E8B3E08C9199279BBDD1
:1020F0008ABDA8E9B3E08C91992799BD88BDAFEA64
:10210000B3E08C91992790937900809378008AEFBF
:1021100090E00E94D61E9F9B0C94911080E08093CB
:1021200002039F990C94971081E080930203089515
:1021300000910C030A3018F011F00C94A1100C94CB
:10214000321180E080930C03A3EBB1E08C9185FB0E
:1021500016F40C94BF101D9AF89482E0E1E20E94FC
:102160001E2D5CEC82E0E1E20E94462D54E482E008
:10217000E1E20E94462D78941D980C9425111D9A39
:10218000F894ADE0B3E0E0E7F4E60E94F32C82E0DF
:10219000E1E20E941E2D5CEC82E0E1E20E94462D0D
:1021A0005EEB82E0E1E20E94462D82E0A3E0B3E034
:1021B000E1E229E02A930E946E2D82E0E1E20E9492
:1021C0001E2D789488E0E3E0F3E00E942B2F402F4F
:1021D00000910B03041711F00C942411E4EAF4E6C7
:1021E0000E940F31E3E0F3E0D190E0808FEFE7FE53
:1021F0008827F82E082F0E94E22F0E941A30EDE067
:10220000F0E0ADE0B3E00E94C12EE8E8F4E60E9401
:102210000F31EDE0F3E00E94622F0E947330EDE099
:10222000F0E0ADE0B3E00E94C12EEDE0F3E00E94EB
:10223000EE31EDE0F0E00E94722FA1E1B3E0EE0C90
:10224000000FE794DD92EC921D98A3EBB1E08C9126
:1022500085FB882780F9809580FBA3EBB1E08C910A
:1022600085F98C930895809156010E94B51EAEEABF
:10227000B1E08C93809157010E94B51EADEAB1E0A8
:102280008C93809158010E94B51EACEAB1E08C930A
:10229000809159010E94B51EAFEAB1E08C93809104
:1022A0005A010E94B51EA0EBB1E08C9380915B01B6
:1022B0000E94B51EA1EBB1E08C93AEEAB1E08C9127
:1022C00080688C930E94ED1E1EED0E94031F10E09B
:1022D0000E94031F1091AE010E94031F1091AD01D7
:1022E0000E94031F1091AC010E94031F0E94FD1E5B
:1022F0000E94ED1E1EED0E94031F13E00E94031FAB
:1023000019E00E94031F1091AF010E94031F10915A
:10231000B0010E94031F1091B1010E94031F0E948F
:10232000FD1E0E94ED1E1EED0E94031F17E00E947D
:10233000031F10E40E94031F0E94FD1EE2E9F7E65E
:102340000E94931E0E94381FA5E6B1E00E948D1ED8
:10235000EAE8F5E60E94931E0E94381FACE5B1E062
:102360000E948D1E0E949A1EE1E0F0E00E94A41ED1
:1023700008950E94ED1E1EED0E94031F10E00E94B2
:10238000031F0E94FD1E0E94ED1E1FED0E94031FF1
:102390000E94201FAEEAB1E01C930E94201FADEA0C
:1023A000B1E01C930E941E1FACEAB1E01C930E9496
:1023B000FD1E0E94ED1E1EED0E94031F13E00E94F1
:1023C000031F0E94FD1E0E94ED1E1FED0E94031FB1
:1023D0000E94201FA2EBB1E01C930E94201FAFEAD5
:1023E000B1E01C930E94201FA0EBB1E01C930E945F
:1023F0001E1FA1EBB1E01C930E94FD1E7091B30162
:102400007F777093B301A2EBB1E00C9105FB16F05E
:102410000C9443127091B30170687093B301AEEAEB
:10242000B1E08C918F778C93A0EBB1E08C918F7D94
:102430008C939091AE010E94BC1EA6E5B1E08C93F6
:102440009091AD010E94BC1EA7E5B1E08C939091E4
:10245000AC010E94BC1EA8E5B1E08C939091AF0145
:102460000E94BC1EA9E5B1E08C939091B0010E943E
:10247000BC1EAAE5B1E08C939091B1010E94BC1EF4
:10248000ABE5B1E08C930E94381FE5E6F1E0A4EBE8
:10249000B1E00E94BC2E08950895089508951C9AF5
:1024A000A1E2B0E00C9107FB81E00EF480E08F9395
:1024B00000911603003081E009F080E09F918923AC
:1024C000882311F40C948212F894B89AC09AB89A9E
:1024D000C09AC39A0E94C61E0E948921A2EBB3E053
:1024E0009C9381E00E94A223A1ECB1E09C9378949C
:1024F000ECE9F7E60E94931E0E949A1E84EF91E099
:102500000E94D61E1C980895A1E2B0E00C9107FB32
:1025100081E00EF480E08F9300911603003081E09B
:1025200009F080E09F918923882311F40C94031310
:102530001C9AA0E0B0E1E4EAF7E60E94DC2CA0E0FF
:10254000B0E10E94B3240E945F29AEECB1E08C930D
:10255000AFECB1E0E8EAF7E60E94DC2C8091CE0116
:10256000AFECB1E00E940925A2E8B2E088278C9385
:102570000E94381FECE5F1E0A2E8B2E00E94BC2E18
:10258000A2E8B2E00E946E1EE2EBF7E60E94DC2CAD
:102590000E94381FE5E6F1E0A2E8B2E00E946E1E5C
:1025A0000E94BC2EA2E8B2E00E946E1EE2EBF7E6AB
:1025B0000E94DC2CE6E3F2E0A2E8B2E00E946E1E8C
:1025C0000E94BC2E8091CE01A2E8B2E00E943A2582
:1025D000A6E3B2E088278C93A2E8B2E088278C9328
:1025E000A0E0B0E1E4EBF7E60E94DC2CA0E0B0E173
:1025F0000E94B3248091CE010E9478258091CE0163
:102600000E9466251C98089580E090E0A8EEB2E054
:102610008D939C93A1E2B0E00C9107FB81E00EF456
:1026200080E08F9300911603003081E009F080E094
:102630009F918923882311F40C9479141C9AA0E0AB
:10264000B0E1E4EAF7E60E94DC2CA0E0B0E10E94F1
:10265000B3240E945F29AEECB1E08C93AFECB1E003
:10266000E6EBF7E60E94DC2C8091CE01AFECB1E006
:102670000E940925A2E8B2E088278C930E94381FA7
:10268000ECE5F1E0A2E8B2E00E94BC2EA2E8B2E0E4
:102690000E946E1EE2EBF7E60E94DC2C0E94381FBF
:1026A000E5E6F1E0A2E8B2E00E946E1E0E94BC2EB8
:1026B000A2E8B2E00E946E1EE2EBF7E60E94DC2C7C
:1026C000A5E3B0E08C9182FBA2E8B2E00E946E1E0E
:1026D0000E940B2D8D9388278C93A2E8B2E00E9474
:1026E0006E1EE2EBF7E60E94DC2CA5E3B0E08C91D5
:1026F00083FBA2E8B2E00E946E1E0E940B2D8D9318
:1027000088278C93A2E8B2E00E946E1EE2EBF7E607
:102710000E94DC2CA5E3B0E08C9181FBA2E8B2E042
:102720000E946E1E0E940B2D8D9388278C93A2E829
:10273000B2E00E946E1EE2EBF7E60E94DC2CA5E3FD
:10274000B0E08C9180FBA2E8B2E00E946E1E0E9475
:102750000B2D8D9388278C93A2E8B2E00E946E1E09
:10276000E2EBF7E60E94DC2CA5E3B0E08C9184FB61
:10277000A2E8B2E00E946E1E0E940B2D8D93882766
:102780008C93A2E8B2E00E946E1EE2EBF7E60E9494
:10279000DC2CA5E3B0E08C9185FBA2E8B2E00E94BE
:1027A0006E1E0E940B2D8D9388278C93A2E8B2E0B9
:1027B0000E946E1EE2EBF7E60E94DC2CA2E8B2E07B
:1027C0000E946E1EEAE4F0E00E94342EA2E8B2E01D
:1027D0000E946E1EE2EBF7E60E94DC2CA2E8B2E05B
:1027E0000E946E1EE8E4F0E00E94342EA2E8B2E0FF
:1027F0000E946E1EE2EBF7E60E94DC2CA2E8B2E03B
:102800000E946E1EE8E4F0E00E94342EA2E8B2E0DE
:102810000E946E1EE2EBF7E60E94DC2CA2E8B2E01A
:102820000E946E1EE3E2F3E0552744E00E949B1FE6
:10283000A2E8B2E00E946E1EE2EBF7E60E94DC2CFA
:10284000A2E8B2E00E946E1EE1E1F3E00E943D2E9C
:10285000A2E8B2E00E946E1EE2EBF7E60E94DC2CDA
:10286000A2E8B2E00E946E1EE2E0F3E00E94442E75
:10287000A2E8B2E00E946E1EE2EBF7E60E94DC2CBA
:10288000A2E8B2E00E946E1EE0E0F3E00E94442E57
:10289000A2E8B2E00E946E1EE2EBF7E60E94DC2C9A
:1028A000A2E8B2E00E946E1EE1E0F3E00E94442E36
:1028B0008091CE01A2E8B2E00E943A25A6E3B2E000
:1028C00088278C93A2E8B2E088278C93A0E0B0E13F
:1028D000E4EBF7E60E94DC2CA0E0B0E10E94B32418
:1028E0008091CE010E9478258091CE010E946625BC
:1028F0001C980895F894A1E2B0E00C9107FB81E0E8
:102900000EF480E08F9300911603003081E009F00F
:1029100080E09F918923882311F40C94C61C1C9A93
:10292000EEEBF7E60E94931E0E949A1E84EF91E060
:102930000E94D61EA0E0B0E1E4EAF7E60E94DC2C9B
:10294000A0E0B0E10E947724A0E0B0E1E8ECF7E677
:102950000E94DC2CA0E0B0E10E947724A0E0B0E16E
:10296000E0EDF7E60E94DC2CA0E0B0E1EAEDF1E05A
:102970000E948325AAEDB1E08C91803011F40C9473
:102980002E15EAEDF7E60E94931E0E949A1E0E9401
:102990005F29AEECB1E08C93A0E0B0E1E0EDF7E6AA
:1029A0000E94DC2C8091CE01A0E0B0E10E94FC24CA
:1029B0008091CE0194E1A2E8B1E00E944725809188
:1029C000CE0194E1A7E9B1E00E9447258091CE01B4
:1029D0000E946625A2E8B1E00E94112F082F08305E
:1029E00081E009F080E08F93A7E9B1E00E94112F08
:1029F000082F083081E009F080E09F918923882327
:102A000011F40C942E15E2E8F1E0A5E6B1E00E9485
:102A1000BC2E0E944B1FE7E9F1E0ACE5B1E00E945B
:102A2000BC2E0E94431F0E94331184E690E00E9456
:102A3000D61E0E94B911A3EBB1E08C9187FB16F072
:102A40000C942E15A0E0B0E1E0EDF7E60E94DC2C3E
:102A5000A0E0B0E10E94AD280E940E2AA0E0B0E103
:102A6000E4EBF7E60E94DC2CA0E0B0E10E94B32486
:102A70000E945F29AEECB1E08C93AFECB1E0E6EEE2
:102A8000F7E60E94DC2C8091CE01AFECB1E00E9411
:102A900028258091CE010E944D2908F409C0FA939F
:102AA000EA93E0EFF7E60E94092C0E94032C22969D
:102AB0008091CE010E946625A0E0B0E1E4EAF7E64D
:102AC0000E94DC2CA0E0B0E10E94B3240E945F29A8
:102AD000AEECB1E08C93AFECB1E0E8EAF7E60E942F
:102AE000DC2C8091CE01AFECB1E00E940925A6E379
:102AF000B2E088278C93A6E3B2E0E4E5F5E60E9415
:102B0000DC2CA6E3B2E00E946E1EE2ECF5E60E9429
:102B1000DC2C0E94381FECE5F1E0A6E3B2E00E9455
:102B20006E1E0E94BC2EA6E3B2E00E946E1EE2EC76
:102B3000F5E60E94DC2C0E94381FE5E6F1E0A6E3F2
:102B4000B2E00E946E1E0E94BC2E8091CE010E94B7
:102B50004D2908F409C0FA93EA93ECE8F5E60E94DF
:102B6000092C0E94032C22968091CE010E944D29AF
:102B700008F40DC0FA93EA93EEE3F5E60E94092CFF
:102B8000A6E3B2E00E94F62B0E94032C2296A6E355
:102B9000B2E088278C938091CE010E946625A0E048
:102BA000B0E1E4EBF7E60E94DC2CA0E0B0E10E948B
:102BB000B324A0E0B0E1E8ECF7E60E94DC2CA0E052
:102BC000B0E10E94B324A0E0B0E1E0E0F8E60E94AA
:102BD000DC2CA0E0B0E1EAEDF1E00E948325AAED53
:102BE000B1E00E94112FA7EEB2E08C930091E702B2
:102BF000003011F00C9479180E945F29AEECB1E01E
:102C00008C93AFECB1E0ECE0F8E60E94DC2C809114
:102C1000CE01AFECB1E00E9428258091CE010E9448
:102C20004D2908F409C0FA93EA93E8E1F8E60E9416
:102C3000092C0E94032C22968091CE010E944D29DE
:102C400008F409C0FA93EA93E0E3F8E60E94092C3D
:102C50000E94032C22968091CE010E944D2908F4F7
:102C600009C0FA93EA93ECE8F5E60E94092C0E9469
:102C7000032C22968091CE010E944D2908F409C0B0
:102C8000FA93EA93E8E5F8E60E94092C0E94032CE7
:102C900022968091CE010E944D2908F409C0FA9332
:102CA000EA93E2E7F8E60E94092C0E94032C2296A0
:102CB0008091CE010E944D2908F409C0FA93EA934D
:102CC000ECE8F8E60E94092C0E94032C22968091E1
:102CD000CE010E944D2908F409C0FA93EA93E6EA6E
:102CE000F8E60E94092C0E94032C22968091CE01C6
:102CF0000E944D2908F409C0FA93EA93EAEBF8E63A
:102D00000E94092C0E94032C22968091CE010E94E1
:102D10004D2908F409C0FA93EA93EEECF8E60E9414
:102D2000092C0E94032C22968091CE010E944D29ED
:102D300008F409C0FA93EA93E6EFF8E60E94092C3A
:102D40000E94032C22968091CE010E944D2908F406
:102D500009C0FA93EA93E2E7F8E60E94092C0E9480
:102D6000032C22968091CE010E944D2908F409C0BF
:102D7000FA93EA93ECE8F8E60E94092C0E94032CEF
:102D800022968091CE010E944D2908F409C0FA9341
:102D9000EA93E0E1F9E60E94092C0E94032C2296B6
:102DA0008091CE010E944D2908F409C0FA93EA935C
:102DB000E4E2F9E60E94092C0E94032C22968091FD
:102DC000CE010E944D2908F409C0FA93EA93E8E382
:102DD000F9E60E94092C0E94032C22968091CE01D4
:102DE0000E944D2908F409C0FA93EA93E2E7F8E655
:102DF0000E94092C0E94032C22968091CE010E94F1
:102E00004D2908F409C0FA93EA93ECE8F8E60E9429
:102E1000092C0E94032C22968091CE010E944D29FC
:102E200008F409C0FA93EA93E2E5F9E60E94092C56
:102E30000E94032C22968091CE010E944D2908F415
:102E400009C0FA93EA93E6E6F9E60E94092C0E948B
:102E5000032C22968091CE010E944D2908F409C0CE
:102E6000FA93EA93ECE8F5E60E94092C0E94032C01
:102E700022968091CE010E944D2908F409C0FA9350
:102E8000EA93EAE7F9E60E94092C0E94032C2296B5
:102E90008091CE010E944D2908F409C0FA93EA936B
:102EA000E4E9F9E60E94092C0E94032C2296809105
:102EB000CE010E944D2908F409C0FA93EA93ECE888
:102EC000F5E60E94092C0E94032C22968091CE01E7
:102ED0000E944D2908F409C0FA93EA93E8EBF9E659
:102EE0000E94092C0E94032C22968091CE010E9400
:102EF0004D2908F409C0FA93EA93E2EDF9E60E943D
:102F0000092C0E94032C22968091CE010E944D290B
:102F100008F409C0FA93EA93E8EEF9E60E94092C56
:102F20000E94032C22968091CE010E944D2908F424
:102F300009C0FA93EA93EEEFF9E60E94092C0E9489
:102F4000032C22968091CE010E944D2908F409C0DD
:102F5000FA93EA93E4E1FAE60E94092C0E94032C1A
:102F600022968091CE010E944D2908F409C0FA935F
:102F7000EA93ECE8F5E60E94092C0E94032C2296C5
:102F80008091CE010E944D2908F409C0FA93EA937A
:102F9000EAE2FAE60E94092C0E94032C2296809114
:102FA000CE010E944D2908F409C0FA93EA93E4E4A3
:102FB000FAE60E94092C0E94032C22968091CE01F1
:102FC0000E944D2908F409C0FA93EA93ECE8F5E66B
:102FD0000E94092C0E94032C22968091CE010E940F
:102FE0004D2908F409C0FA93EA93ECE5FAE60E9449
:102FF000092C0E94032C22968091CE010E944D291B
:1030000008F409C0FA93EA93E6E7FAE60E94092C6D
:103010000E94032C22968091CE010E944D2908F433
:1030200009C0FA93EA93E2E9FAE60E94092C0E94A9
:10303000032C22968091CE010E944D2908F409C0EC
:10304000FA93EA93ECE8F5E60E94092C0E94032C1F
:1030500022968091CE010E944D2908F409C0FA936E
:10306000EA93EEEAFAE60E94092C0E94032C2296CB
:103070008091CE010E944D2908F409C0FA93EA9389
:10308000EAECFAE60E94092C0E94032C2296809119
:10309000CE010E944D2908F409C0FA93EA93E0EEAC
:1030A000FAE60E94092C0E94032C22968091CE0100
:1030B0000E944D2908F409C0FA93EA93E6EFFAE674
:1030C0000E94092C0E94032C2296A0E0B0E1E4EBC0
:1030D000F7E60E94DC2CA0E0B0E10E94B3248091CE
:1030E000CE010E9478258091CE010E9466250C9425
:1030F000891C0091E702003011F40C94891C0E9495
:103100005F29AEECB1E08C93AFECB1E0ECE0F8E617
:103110000E94DC2C8091CE01AFECB1E00E94FC2437
:103120008091CE0198E2AFEEB1E00E9447258091F8
:10313000CE0198E2AFEEB1E00E9447258091CE012A
:1031400098E2AFEEB1E00E9447258091CE0198E26F
:10315000AFEEB1E00E944725AFEEB1E088278C9337
:103160008091CE0198E2AFEEB1E00E944725EFEEEC
:10317000F1E003E0AFEEB1E00E94CE2EAFEEB1E0A1
:103180000E948A2EA0E8B3E00C938091CE0198E2D1
:10319000AFEEB1E00E944725EFEEF1E003E0AFEEC5
:1031A000B1E00E94CE2EAFEEB1E00E948A2EA1E8DF
:1031B000B3E00C938091CE0198E2AFEEB1E00E94B3
:1031C0004725EFEEF1E008E0AFEEB1E00E94CE2E31
:1031D000EFEEF1E0AEE6B3E00E94BC2E8091CE01AE
:1031E00098E2AFEEB1E00E944725EFEEF1E008E093
:1031F000AFEEB1E00E94CE2EEFEEF1E0A7E7B3E034
:103200000E94BC2E8091CE0198E2AFEEB1E00E9408
:103210004725EFEEF1E004E0AFEEB1E00E94CE2EE4
:10322000AFEEB1E00E948A2EA9E6B3E00D931C93A5
:103230008091CE0198E2AFEEB1E00E944725AFEE5B
:10324000B1E088278C938091CE0198E2AFEEB1E097
:103250000E944725EFEEF1E003E0AFEEB1E00E94FF
:10326000CE2EAFEEB1E00E948A2EA7E9B3E00C9318
:103270008091CE0198E2AFEEB1E00E944725EFEEDB
:10328000F1E003E0AFEEB1E00E94CE2EAFEEB1E090
:103290000E948A2EA8E9B3E00C938091CE0198E2B7
:1032A000AFEEB1E00E944725EFEEF1E008E0AFEEAF
:1032B000B1E00E94CE2EEFEEF1E0A5E8B3E00E946F
:1032C000BC2E8091CE0198E2AFEEB1E00E9447257E
:1032D000EFEEF1E008E0AFEEB1E00E94CE2EEFEEAF
:1032E000F1E0AEE8B3E00E94BC2E8091CE0198E2FE
:1032F000AFEEB1E00E944725AFEEB1E088278C9396
:103300008091CE0198E2AFEEB1E00E944725EFEE4A
:10331000F1E003E0AFEEB1E00E94CE2EAFEEB1E0FF
:103320000E948A2EAEEAB3E00C938091CE0198E21F
:10333000AFEEB1E00E944725EFEEF1E003E0AFEE23
:10334000B1E00E94CE2EAFEEB1E00E948A2EAFEA2D
:10335000B3E00C938091CE0198E2AFEEB1E00E9411
:103360004725EFEEF1E008E0AFEEB1E00E94CE2E8F
:10337000EFEEF1E0ACE9B3E00E94BC2E8091CE010B
:1033800098E2AFEEB1E00E944725EFEEF1E008E0F1
:10339000AFEEB1E00E94CE2EEFEEF1E0A5EAB3E091
:1033A0000E94BC2E8091CE0198E2AFEEB1E00E9467
:1033B00047258091CE0198E2AFEEB1E00E9447250B
:1033C000AFEEB1E088278C938091CE0198E2AFEE0A
:1033D000B1E00E944725EFEEF1E003E0AFEEB1E08F
:1033E0000E94CE2EAFEEB1E00E948A2EABE1B3E098
:1033F0000D931C938091CE0198E2AFEEB1E00E9454
:1034000047258091CE0198E2AFEEB1E00E944725BA
:10341000AFEEB1E088278C938091CE0198E2AFEEB9
:10342000B1E00E944725EFEEF1E008E0AFEEB1E039
:103430000E94CE2EEFEEF1E0A5E4B3E00E94BC2E98
:103440008091CE0198E2AFEEB1E00E944725EFEE09
:10345000F1E008E0AFEEB1E00E94CE2EEFEEF1E039
:10346000AEE4B3E00E94BC2E8091CE0198E2AFEEB4
:10347000B1E00E944725EFEEF1E008E0AFEEB1E0E9
:103480000E94CE2EEFEEF1E0A7E5B3E00E94BC2E45
:103490008091CE0198E2AFEEB1E00E944725EFEEB9
:1034A000F1E008E0AFEEB1E00E94CE2EEFEEF1E0E9
:1034B000A0E6B3E00E94BC2E8091CE0198E2AFEE70
:1034C000B1E00E9447258091CE0198E2AFEEB1E0D5
:1034D0000E944725AFEEB1E088278C938091CE0102
:1034E00098E2AFEEB1E00E944725EFEEF1E004E094
:1034F000AFEEB1E00E94CE2EAFEEB1E00E941C31E3
:10350000EDE0F0E0A5E3B3E00E94C12E8091CE0192
:1035100098E2AFEEB1E00E9447258091CE0198E29B
:10352000AFEEB1E00E944725AFEEB1E088278C9363
:103530008091CE0198E2AFEEB1E00E944725EFEE18
:10354000F1E003E0AFEEB1E00E94CE2EAFEEB1E0CD
:103550000E948A2EA7E1B3E00D931C938091CE01C7
:1035600098E2AFEEB1E00E944725EFEEF1E001E016
:10357000AFEEB1E00E94CE2EAFEEB1E00E948A2EF7
:10358000A0EBB3E00C938091CE0198E2AFEEB1E0F6
:103590000E9447258091CE0198E2AFEEB1E00E94F3
:1035A0004725AFEEB1E088278C938091CE0198E259
:1035B000AFEEB1E00E944725EFEEF1E006E0AFEE9E
:1035C000B1E00E94CE2EAFEEB1E00E941C31EDE0E2
:1035D000F0E0ABE2B3E00E94C12E8091CE0198E210
:1035E000AFEEB1E00E944725EFEEF1E006E0AFEE6E
:1035F000B1E00E94CE2EAFEEB1E00E941C31EDE0B2
:10360000F0E0A7E2B3E00E94C12E8091CE0198E2E3
:10361000AFEEB1E00E944725EFEEF1E006E0AFEE3D
:10362000B1E00E94CE2EAFEEB1E00E941C31EDE081
:10363000F0E0AFE2B3E00E94C12EE8E0FBE60E94BA
:10364000931E0E949A1EE6E1FBE60E94931EA0E0F4
:10365000B0E1E0E8F3E00E94442E0E948B1E0E943D
:103660009A1EEEE1FBE60E94931EA0E0B0E1E1E8C5
:10367000F3E00E94442E0E948B1E0E949A1EE8E2F4
:10368000FBE60E94931EAEE6B3E00E948D1E0E94F0
:103690009A1EE0E3FBE60E94931EA7E7B3E00E94B8
:1036A0008D1E0E949A1EE8E3FBE60E94931EA0E096
:1036B000B0E1E9E6F3E00E94342E0E948B1E0E94E6
:1036C0009A1EECE8F5E60E94931E0E949A1EE6E41C
:1036D000FBE60E94931EA0E0B0E1E7E9F3E00E9460
:1036E000442E0E948B1E0E949A1EEEE4FBE60E946E
:1036F000931EA0E0B0E1E8E9F3E00E94442E0E94AE
:103700008B1E0E949A1EE8E5FBE60E94931EA5E828
:10371000B3E00E948D1E0E949A1EE0E6FBE60E9426
:10372000931EAEE8B3E00E948D1E0E949A1EECE844
:10373000F5E60E94931E0E949A1EE8E6FBE60E94B0
:10374000931EA0E0B0E1EEEAF3E00E94442E0E9456
:103750008B1E0E949A1EE0E7FBE60E94931EA0E0EB
:10376000B0E1EFEAF3E00E94442E0E948B1E0E941B
:103770009A1EEAE7FBE60E94931EACE9B3E00E94C2
:103780008D1E0E949A1EE2E8FBE60E94931EA5EAA7
:10379000B3E00E948D1E0E949A1EECE8F5E60E949E
:1037A000931E0E949A1EEAE8FBE60E94931EA0E088
:1037B000B0E1EBE1F3E00E943D2E0E948B1E0E94DF
:1037C0009A1EECE8F5E60E94931E0E949A1EE4E918
:1037D000FBE60E94931EA5E4B3E00E948D1EE6EB7B
:1037E000F5E60E94931EAEE4B3E00E948D1E0E9497
:1037F0009A1EEEE9FBE60E94931EA7E5B3E00E9445
:103800008D1EE6EBF5E60E94931EA0E6B3E00E9453
:103810008D1E0E949A1EECE8F5E60E94931E0E94FF
:103820009A1EE8EAFBE60E94931EA0E0B0E1E5E301
:10383000F3E0552744E00E949B1F0E948B1E0E94CC
:103840009A1EECE8F5E60E94931E0E949A1EEEEA8C
:10385000FBE60E94931EA0E0B0E1E7E1F3E00E94E6
:10386000342E0E948B1EE2EBF7E60E94931EA0E02E
:10387000B0E1E0EBF3E00E94442E0E948B1E0E9418
:103880009A1E0E949A1EE4EBFBE60E94931EA0E0A3
:10389000B0E1EBE2F3E0552744E00E949B1F0E9459
:1038A0008B1E0E949A1EE4ECFBE60E94931EA0E091
:1038B000B0E1E7E2F3E0552744E00E949B1F0E943D
:1038C0008B1E0E949A1EE4EDFBE60E94931EA0E070
:1038D000B0E1EFE2F3E0552744E00E949B1F0E9415
:1038E0008B1E0E949A1EEAE0F0E00E94A41E8091C6
:1038F000CE010E9478258091CE010E946625A0E02D
:10390000B0E1E4EBF7E60E94DC2CA0E0B0E10E941D
:10391000B3240E949F2CA6ECB1E00D931D932D9330
:103920003D930E94962CAAECB1E00D931D932D932C
:103930003D93A6ECB1E00D911D912D913C91AAEC27
:10394000B1E04D915D916D917C910E941C2EA2EC95
:10395000B1E00D931D932D933D93EEEDFBE60E9498
:10396000931EA0E0B0E1E2ECF1E00E943A2E0E944A
:103970008B1EE4EEFBE60E94931E0E949A1E84EFCB
:1039800091E00E94D61E1C980C94CF1C0F9B0C94A7
:10399000CF1CE8EEFBE60E94931E0E949A1E7894CC
:1039A0000895A1E2B0E00C9107FB81E00EF480E005
:1039B0008F9300911603003081E009F080E09F9121
:1039C0008923882311F40C943A1D1C9AA0E0B0E1DD
:1039D000E4EAF7E60E94DC2CA0E0B0E10E94B32408
:1039E0000E945F29AEECB1E08C93AFECB1E0E2EF66
:1039F000FBE60E94DC2C8091CE01AFECB1E00E948E
:103A0000FC248091CE0198E2AFEEB1E00E94472500
:103A1000AFEEB1E00E94771E0E94841EAFEEB1E0CF
:103A200088278C938091CE010E946F25AAE2B2E094
:103A30008C9300912A02003011F40C94011DECEFDC
:103A4000FBE60E947D1E0E94841E8091CE010E9492
:103A500078258091CE010E946625A0E0B0E1E4EBDC
:103A6000F7E60E94DC2CA0E0B0E10E94B3241C9891
:103A70000C94431D0F9B0C94431DE8EEFBE60E9443
:103A8000931E0E949A1E0895A1E2B0E00C9107FBDC
:103A900081E00EF480E08F9300911603003081E006
:103AA00009F080E09F918923882311F40C948F1DE5
:103AB0001C9AA0E0B0E1E4EAF7E60E94DC2CA0E06A
:103AC000B0E10E94B3240E945F29AEECB1E08C9378
:103AD000A0E0B0E1E2EFFBE60E94DC2CA0E0B0E168
:103AE0000E94AD280E940E2A8091CE010E94782566
:103AF0008091CE010E946625A0E0B0E1E4EBF7E6FC
:103B00000E94DC2CA0E0B0E10E94B324E2E0FCE6DD
:103B10000E947D1E0E94841E1C980C94981D0F9B71
:103B20000C94981DE8EEFBE60E94931E0E949A1EDC
:103B300008950F921F922F923F924F925F927F9221
:103B4000AF92BF920F931F932F933F934F935F9327
:103B50006F937F938F939F93AF93BF93CF93DF9395
:103B6000EF93FF938FB78F9383B190E1892783B948
:103B70008F918FBFFF91EF91DF91CF91BF91AF9167
:103B80009F918F917F916F915F914F913F912F9175
:103B90001F910F91BF90AF907F905F904F903F909B
:103BA0002F901F900F90A2E3B1E00E940E2E089577
:103BB000F8940F921F922F923F924F925F927F92B2
:103BC000AF92BF920F931F932F933F934F935F93A7
:103BD0006F937F938F939F93AF93BF93CF93DF9315
:103BE000EF93FF938FB78F93A5E5B1E0AD90BB2422
:103BF000A3E3B1E0AA0DBB1D0C910D3011F00C94A4
:103C0000021E1B9AA3E5B1E00E940E2E8F918FBF7A
:103C1000FF91EF91DF91CF91BF91AF919F918F91E4
:103C20007F916F915F914F913F912F911F910F91D4
:103C3000BF90AF907F905F904F903F902F901F90DC
:103C40000F90789408950F921F922F923F924F9267
:103C50005F927F92AF92BF920F931F932F933F93E8
:103C60004F935F936F937F938F939F93AF93BF9384
:103C7000CF93DF93EF93FF938FB78F9384E982BF46
:103C8000ADEBB1E00E94601E8F918FBFFF91EF916D
:103C9000DF91CF91BF91AF919F918F917F916F9164
:103CA0005F914F913F912F911F910F91BF90AF90D6
:103CB0007F905F904F903F902F901F900F9018959E
:103CC000ED91FC91EF5FFF4FFC93EE930895ED9122
:103CD000FC91E150F040FC93EE9308958F938D9109
:103CE0008823E9F711978F910895A0E0B0E18D91B5
:103CF000882311F00CD0FBCF08950E94EB2C802D6F
:103D000011F005D0FACF08958DE001D08AE05D9BD7
:103D1000FECF8CB90895A0E0B0E18D91882311F019
:103D20000CD0FBCF08950E94EB2C802D11F005D014
:103D3000FACF08958DE001D08AE000909B0005FE47
:103D4000FCCF80939C00089588EE93E02FD03197AC
:103D5000D9F70895982F82958F70805D8D939F700D
:103D6000905D9D9388278C9308954AE0082F0E94C8
:103D7000012F0295802B0895892F8F70905110F09C
:103D8000865FFCCF08953197F1F70895B99ABB98F3
:103D9000C39ABA9AB89A8CE58DB908950895089592
:103DA000689462F80895E89462F80895EF93FF9399
:103DB000EE27E82BE92B31F0EDECFAE03197F1F743
:103DC0000197D1F7FF91EF9108958998889891987C
:103DD000909808958998889803D0899A01D0889AF4
:103DE000EF93FF93EAE0F0E00E94C31EFF91EF9192
:103DF00008958898809BFECF0895899AF1DFF9DFB6
:103E0000EFDF8998EDCF0894111F01C0110F61F009
:103E100018F40000899802C0899A00C0E1DFE9DF48
:103E2000DFDF889ADDDFF2CF8998DADFE2DFD8DFE3
:103E3000E8948199689462F8889AD2CF089401C076
:103E40008894331F11E08998D4DF8894819908946D
:103E5000111F0FB6C5DF889AC3DF0FBEA8F73795CD
:103E600010F4899801C0899AC4DFBADF889AB8CF64
:103E70000E944C12ACE5B1E0E9E5F1E00E948B1F35
:103E800033970C94671FECE5F1E0A9E5B1E00E94DF
:103E9000791F0C944D12E5E6F1E0A6E5B1E00E9431
:103EA000551F0C944E12ADE0BB27868197810E946E
:103EB0009E2D0D93838194810E949E2D0D93808170
:103EC00091810E949E2D0D930895EDE0FF27828140
:103ED0000E94932D8AE38D9381810E94932D8AE322
:103EE0008D9380810E94932D88278C930895ADE057
:103EF000BB27808191810E949E2D0D9383819481A7
:103F00000E949E2D0D93868197810E949E2D0D9378
:103F10000895EDE0FF2780810E94932D8FE28D931D
:103F200081810E94932D8FE28D9382810E94932D37
:103F300088278D9308950E94622F0E94B82F17FF43
:103F400003C08DE28D931127003821F4E4E1F2E4FF
:103F50000C94DC2C0F3741F4FF2019F4EAE0F2E472
:103F6000F7CFE6E0F2E4F4CF4A934A934A935A93A8
:103F7000BA93AA93BB270F5F02F5BB27802F0A9540
:103F80000E94C22F8D3E90F4E4E6F2E4A3E00E948A
:103F90000F310E94492FBB1FB0FF06C070970E94CF
:103FA0000F310E9473303C96AA9589F7E0E6F2E45F
:103FB0000E940F310E94733022C0093058F1033142
:103FC00078F10A3130F418E08BE192E9E8E1F2E4AB
:103FD0002EC00A950E94C22FE8E5F2E4BFEFA3E0ED
:103FE0000E940F310E94492FBB1FB0FD06C03896BA
:103FF0000E940F310E9473303C97AA9589F7B095C3
:10400000BB0F0E94B82F039513E08AEF99E0F816D2
:10401000090740F413E08BE094E0ECE2F2E407C01F
:1040200016E001C0B39583E194E2E0E2F2E46A8134
:10403000BF3F19F4BB2711276260BD836A831C83CD
:10404000A881B98160E36D93A883B9836D93081B40
:104050000195AA24BB246A816A7F002339F0F69473
:10406000E794D794B794A7940A95F7CF19E000275F
:104070000E940F31CC248FEF74E0AC14B206D3064B
:10408000E406F50630F0AC18B20AD30AE40AF50AE1
:1040900021F1881F7A9531F05695479537952795E8
:1040A000C794EBCF809522D041F0969508F7FE2C6F
:1040B000ED2CDB2CBA2CAA24DBCF25D05D813C81F2
:1040C0002B8170D0277021F02BD06CD0E8F301C089
:1040D0003CD04CD078D0269608958894881F7A9545
:1040E000E9F7809503D049F38827FCCF806360FD12
:1040F00006C0803311F0616002C0039561FD8D93AD
:1041000060FD1A95089599278E919C9385338E9121
:1041100008F083958A3308F080E38C93C0F7089504
:10412000732F720F61FF701B0AD01296785019F02E
:1041300050F38E9380E38E937150EAF70895A8812F
:10414000B981A70F8827B81F089579E061FD700F26
:10415000F6DF48E0431B400F8AF381F399274A9525
:1041600069F38E91803351F79C93F9CF732F61FFE0
:10417000701B7395A881B981EA2FFB2F119781914C
:10418000803361FF09F08D937A9511F48EE28D935F
:1041900081918823C1F7772311F480E38D938827D9
:1041A0008C930895889462FD0895002359F4A881A2
:1041B000B9818C91803331F0552321F053953350E0
:1041C0006460089408955523E9F085E48D931AF40A
:1041D0008DE28D935195652F660F560F5A3010F072
:1041E00060E503D068E001D0DACF8FEF74E05617B6
:1041F00008F0561B881F7A9511F06695F8CF8095C8
:1042000080638D9308954E414E00496E66696E69D4
:1042100074790000302E300000404B4C0020A10784
:10422000000050C3000088130000F40100000032B9
:104230000000000500008000CCCCCC0C14AE47017F
:104240009CC42000DC460300E35300006308000028
:10425000D7000000150000001CC25367A5D46853A6
:104260000024744915BE9A17CCBC8C2BBD378635FB
:10427000689401C0E8948F939F9396E60000000035
:104280009A95E1F798948091480C9091490C1EF40E
:10429000019708F401968093480C9093490C59F0CB
:1042A0008091460C9091470C019708F401968093F9
:1042B000460C9093470C9F918F91089500E440E045
:1042C00050E060E070E088C008E44AEA51E0F9CFCD
:1042D00009E482C00AE480C000E540E052E0F1CF8A
:1042E00001E57AC008E578C00AE7E9CF0DECE7CF31
:1042F00009EEE5CF09EE40E050E060E070E46CC00C
:10430000C0D0702FBED0602FBCD0502FBAD0402F5D
:10431000B8C00E94C61E00240ED100270093B1032E
:10432000AED088EE93E0A6DF11F499EE16C10197A6
:10433000D1F70AE00F93A5D00F910A95D9F7BEDF08
:10434000013069F000E4A0D000279ED000279CD067
:1043500000279AD0002798D005E996D0DECFB4DFA9
:10436000013009F01FC0CCDF513011F44A3A11F08E
:104370009AEEF3C0BFDF003021F07CDFD9F79BEE6F
:10438000ECC0B2DF003021F075DFD9F79CEEE5C05C
:10439000B7DF84E08093B10376FF1DC08CE080938B
:1043A000B10319C0A5DF023028F081E08093B1038A
:1043B00001E404C082E08093B10309EE0F937FDF34
:1043C00000230F9121F056DFC9F79DEEC6C084DFB0
:1043D000002309F0A2CFBAC011E0003409F415E9B6
:1043E000083409F417E807FF14C00F931F934F9385
:1043F0005F936F937F9307E762DF7F916F915F9188
:104400004F911F91802F0F910F77823010F0082F5E
:104410001EC035D02FDF31D01DD011F008EE17C0EF
:1044200033D0072F31D0062F2FD0052F2DD0042FBA
:104430002BD0012F29D02F9324E623D0189407FFE7
:1044400005C018DF11F02A95C1F798942F910093B9
:10445000B30308950F938F939F9380E197E2809326
:10446000480C9093490C0DD00F3F19F001DFD9F79C
:1044700098949F918F910F910895C0980895C09A34
:1044800008950FEF01C000270FB90EB1001FE8F724
:104490000FB1089568D031F04ED03CD021DF002319
:1044A00011F091EF5AC0EDDF0E3F21F0E3DED9F7B6
:1044B00092EF53C092E08827E4DF01930197E1F780
:1044C000E0DFDFDF43C04FD031F035D023D00ADF4B
:1044D000002311F095EF41C0BDDF11F096EF3DC014
:1044E0000EEFD2DF0D3F11F497EF37C092E088272F
:1044F0000191CADF0197E1F7C4DFC3DFC2DF0F71AB
:104500000093B403053029F00093B3030695086FB8
:1045100024C01CC04091B10343FD08C044275D91F5
:104520006D917D91550F661F771F08954D915D9197
:104530006D917D9108958F939F9380E29EE4809387
:10454000460C9093470C9F918F91089598DF99DFC7
:10455000992788949093B20308959F9390DF91DFF9
:104560009F910894F7CF9091B103992392EE08950B
:10457000EDCF91EEF2CF91EEF0CFF5DF29F0DBDF5A
:10458000A7DE002319F096EE0C94AD22E0E0F0E1F6
:1045900078DF0E3F29F06EDEC9F797EE0C94AD225E
:1045A00090E080E16EDF01930197E1F76ADF69DF58
:1045B000CDDFE0E0F0E19091B103913081F08081B6
:1045C000807C803461F437813F732085118500271A
:1045D0001F5F2F4F3F4F110F221F331F1AC033276A
:1045E0002681237017810085007C005C1F4F2F4FB0
:1045F000818583709285990F881F11F011D0F1F792
:1046000085818F7086500CD0F1F7012F122F232F48
:104610003327E881F9810193119321933193089510
:10462000000F111F221F331F8A9508959CDF29F068
:1046300082DF4EDE002319F096EE0C94AD22E88165
:10464000F9811FDF0E3F29F015DEC9F797EE0C94B4
:10465000AD2290E080E115DF01930197E1F711DFD2
:1046600010DF74CF80DF29F066DF34DE002319F01D
:1046700096EE0C94AD22E881F98103DF0E3F29F01C
:10468000F9DDC9F797EE0C94AD2290E080E1F9DEF8
:1046900001930197E1F7F5DEF4DE58CF64DF29F0EE
:1046A0004ADF22DE002319F096EE0C94AD2228DEBC
:1046B000E881F981719361935193419347CF53DF1F
:1046C00029F039DF13DE002319F096EE0C94AD22A9
:1046D000E881F981D6DED5DE0E3F29F0CBDDC1F7CA
:1046E00097EE0C94AD2290E080E4CBDE019301972D
:1046F000E1F7C7DEC6DE2ACFE9EBF3E0ABE8B8E0CE
:10470000992791931197E9F70895E894843059F027
:10471000863049F08E3039F068948B3021F08C303F
:1047200011F093E19EC30090BB0300F80092BB031D
:1047300088940895E9E0F6E018D345555A4A09F4FB
:1047400008958FC38A93D8DFC9D3C0F091E1F2DF17
:10475000A8F088818823F9F0E9ECF5E08A9511F05A
:104760007096FCCF80818F7721F434968081CDDFE5
:1047700038F48881823078F093E173C3219671C355
:104780008093BA033496A6E0B4E00CD3A7D388F3A1
:1047900092E1D0DF98F38991E6E1F4E0E6D240506F
:1047A000524094E1F9F4A9E1B4E0DCD2A6E0B4E02F
:1047B000AFD2A5D2ACEBB3E0BFD2A1E2B4E0D0D28D
:1047C0004050504019F4AFE2B4E0ACD2E1ECF3E079
:1047D000BDD280911B048093C00396E1882311F021
:1047E000833008F03EC38DD281FD8BD2A5ECB3E0BF
:1047F000A3D2ACE1B4E0B6D2A9ECB3E0B9D284E084
:10480000C7D27DD2ABECB3E097D2A6E0B4E08AD2B7
:104810000E941C2EB3D2EEE1F4E09DD20050104075
:1048200019F4EBE2F4E079D20E941C2E8091180476
:104830008093CF0395E18823A9F28695F0F791F64E
:10484000A3D157D2A0EDB3E077D20090BB0300FA1A
:104850008091BA03882379F4E89486E00F5F164FBD
:104860002040304010F068948BE88093BA03992779
:1048700090F99093BB033EF4A7E3B4E049D299D1F9
:10488000A5ECB3E059D282E08093D403A5ECB3E069
:104890003FD2ACEDB3E050D2A2EEB3E04DD2E9C2CC
:1048A0002497088319832A833B83089508811981FB
:1048B0002A813B81089580E1FF93EF9380628F937B
:1048C000A4D58F918387028F138F248B358BAE2FC6
:1048D000BF2FE8EFF3E08BE066D213960E94712CB5
:1048E00014960E94712CEAD2EF91FF91089535D46D
:1048F00009F0BBC256D310F092E3B3C2ABD150F172
:104900008AD2CEDFAED318F1D1DFD5DFCFDF0E9460
:10491000052BA8EFB3E08EE28D9380E29AE08D93B1
:104920009A95E9F7C3DFC7DFFF93EF9314D011F037
:104930002BD101C0D9D18EE28093F903EF91FF9181
:10494000B096B9DF0E942C2B10F00E943D2B8FB740
:1049500024968FBF0895ACEDB3E0DAD1A5ECB3E0B7
:10496000E1D10C94212E8C918E32D1F4ACEDB3E0D8
:10497000CFD1BDD2B09680818E3209F037C0009081
:10498000BB0300FA22273327028D138D16F42489E6
:104990003589F9D119F4A5ECB3E01BC00AD11AC0CE
:1049A0008C35C9F3DAD309F060C2FBD2F0F083850D
:1049B0008F7CF1F40090BB0322273327028D138DE7
:1049C00000FE02C024893589F4D091D270F0A6E0AF
:1049D000B4E09ED1ACEDB3E0AFD1A2EEB3E0ACD188
:1049E000A0EEB3E081D1C7D144C2089595E339C2A6
:1049F00096E337C264D448F0B0D331F48F9391E09A
:104A000070D48F9110F035C230C28827089557D4E2
:104A1000D8F0A3D3D1F48F9398E063D48F9120F48E
:104A2000923481F498E01FC0FA93EA93908D95FD3B
:104A300007C0D5D18F9398940E949D2B8F9108F039
:104A400017C222968827089408950FC238D448F0D8
:104A500084D331F48F9392E0A3D48F9110F009C2E4
:104A600004C2882708958F9396D48F9108F001C2CD
:104A70008827089512D450F0FA93EA930E94F62BF7
:104A800020F00E94032C08F0F3C1F9C108959F9310
:104A900004D49F91D0F0FA93EA939F93BF93AF937E
:104AA00049D4AF91BF919F9158F08D30B1F38A30C6
:104AB00029F0992391F38D939A95EFCF88949927B4
:104AC00080E08C938FB722968FBF0895E6D330F0A5
:104AD000FA93EA93FDD308F0CBC1D1C10895DDD399
:104AE00028F0808D827009F08FEFC3C18FEF089599
:104AF000D4D340F0FA93EA9381E0C7D15ED508F0B1
:104B0000B7C1BDC10895FF93EF9327D34AD258F0A0
:104B1000FF93EF93E8EFF3E0A6EEB3E08CE043D130
:104B2000EF91FF918894AF91BF9130F488278C93D7
:104B3000923409F49EC1089540D30E94C82E119763
:104B40008EE28D9340D30E94C82EE4E0F4E0A2EF01
:104B5000B3E086E028C1FF93EF93E6D2E4CF802F45
:104B6000C8D09091CB03891B982F8395892790916A
:104B7000CF03892311F488940895C5D005D02ED091
:104B800008F4089516D0F7CFEBECF3E0D0D00E94F4
:104B90001C2E72F08091CF0380FD06C036952795BC
:104BA000179507958695F8CF0E5F1F4F2F4F3F4FF4
:104BB00008958091CF03025010402040304080FD86
:104BC00006C0000F111F221F331F8695F8CFEBEC94
:104BD000F3E0ADD00C94172E0ED1D6DFACEBB3E0E2
:104BE000A1D00090BB0300FE04C0000F111F221FC4
:104BF000331F0F93012F122F232F33270E94172EBD
:104C000072D18F91E8F00090BB0300FA9927880FCA
:104C1000991FE80FF91F222733270191119136F4CC
:104C2000219131913F7032976FEF7FE0329748EFDB
:104C30005FEF0417150716F42607370710F091E207
:104C400010C117C151D002E0A02E44275527662776
:104C5000772704C0A4EDB3E05BD0AA243F932F9341
:104C60001F930F937F936F935F934F93AF92B6DF32
:104C7000AF904F915F916F917F910F911F912F9105
:104C80003F91A0EDB3E0CD90DD90ED90FD9010F45C
:104C9000913249F5C016D106E206F30618F19927BC
:104CA0008191982B8191982B2EF48191982B819151
:104CB0008F70982B31F4A1FE0EC04F5F5F4F6F4F86
:104CC0007F4F802F912F15D09127969516F480272E
:104CD000880F00F7C3CF32970EF43297A4EDB3E0FC
:104CE0002BD0C7C092E2BDC000271127222733274F
:104CF00008950F5F1F4F2F4F3F4F08955527662789
:104D000077270C94172E0150104020403040089512
:104D10000D911D912D913D91089501911191219138
:104D2000319108954D915D916D917D9108954191DD
:104D300051916191719108950D931D932D933D9320
:104D400008950193119321933193089541935193C1
:104D5000619371930895222733270191119108954A
:104D6000662777274D915D9108954191519108955E
:104D70004D935D9308950D931D930895402F512FEA
:104D8000622F732F08950050104020403040089546
:104D9000569547958A95E1F70895440F551F8A95D2
:104DA000E1F7089584E09F9391919D938A95E1F7AF
:104DB0009F910895E881F9810895A881B981189695
:104DC0000895E881F9813C960895E881F981389643
:104DD000B8CFE881F9813896A0CFF3DFB2CFF1DF09
:104DE0009CCFEFDFA4CFA881B9811C960895E881FC
:104DF000F98174960895FBDF90CFE881F981808D69
:104E00000895E881F98170960895FBDF86CFF9DF78
:104E10008ECFF7DF96CF0090BB0300FA8FEF819320
:104E200081931EF481938FE0819342C00090BB0375
:104E300000FA0193119316F42193319339C0E8815C
:104E4000F98179960895D3DF7CCFA881B9815496F2
:104E500008950F900F900F900F900F900F9008955E
:104E6000229608949093B9030895882799E4F9CF7E
:104E70002296889490E0F6CF229688940895229600
:104E80000894089580EA01C084E8E881F9819F933D
:104E9000908D892B808F9F910895E881F9819F9350
:104EA000908D80958923808F9F91089588E0EDCF24
:104EB00080910F06886080930F06089580910A0400
:104EC000886080930A0408950E944A2208F0D1CF96
:104ED000C8CF0E94632208F0CCCFC3CFA6E0B4E0D5
:104EE000EBE0F4E0F1CF80E1ABE0B6E006C080E0BB
:104EF000A6E0B4E002C0A9DF80E814DF0E94212E02
:104F000031F4E8941196EA2FFB2F1597B6CF9D91B7
:104F1000EA2FFB2F792F777E872B8E93149793FFA1
:104F200018C00F931F932F933F939F93AF93BF93FB
:104F3000D0DFBF91AF919F91A8F094FF06C0AF93CF
:104F4000BF93A5D3BF91AF9168F03F912F911F916F
:104F50000F91F2DED7DFEF93FF93B6DFFF91EF9172
:104F60006894089578CF49DF8670B1F44EDF00274A
:104F70001E7F442752E0C3DE4CDF3FDF867061F4C2
:104F80003ADFEDDD20F061DFB6DF38F088C2913224
:104F900021F47ADF91E265CF91E063CFDED009F0B2
:104FA00065CFFA93EA93A5D008F469CF83858F3053
:104FB00099F0827C89F480818E3271F0853E61F0B7
:104FC0008030D1F0A881B9819C919F3311F0981362
:104FD00003C07BE0B5D0A1F0B09681E0480F25F783
:104FE0008827581F5F934F930FD008F080DF4F91B1
:104FF0005F91D0F6903C08F492E4E991F99131CFB9
:10500000A4E0B4E0B5DE34CF0090BB0300FC19C0CF
:10501000ACEDB3E07DDEA5ECB3E05F934F9382DEB1
:105020000E94212E4F915F9161F4A9ECB3E06D9144
:105030007D914617570710F091E313CF0FD059DE3B
:1050400018CF0CD03F932F931F930F9388DD08F058
:1050500002CF0F911F912F913F910895A6E0B4E0E8
:1050600057CE4FD008F43CC08081853E81F180301E
:1050700071F1B09681E0480FBDF78827581F5F9304
:105080004F93C2DF08F033DF4F915F9168F79132A1
:1050900039F55F934F9378DD3F932F931F930F93D1
:1050A000D9DDF8F0B8DE6ADE0F911F912F913F91A4
:1050B0007F936F935F934F9391DD0F911F912F918A
:1050C0003F9180F4913281F4B1DE9FD2DDCFA4E034
:1050D000B4E04EDE1DDEA0EEB3E04ADE2DDEC9CE2A
:1050E000C0CEB7CE93E2BDDEB8CEA881B98112960C
:1050F0000AC044275527ACEDB3E006C0A2EFB3E0E9
:1051000002C0A0EEB3E02EDE03DE5A934A93EFDE38
:1051100050F048814F70552785E03FDEE40FF51FC2
:1051200049915991A6CEABCEA2EFB3E0ECDFFF934D
:10513000EF93E6EEF3E0FA93EA93EF91FF914CCF11
:10514000FF93EF9381919D919F3311F0891711F493
:105150007A95C1F7EF91FF910895E8EFF3E08F930F
:10516000E89499277BE0AEF08D918A3219F48FE3B1
:1051700068940FC08E3239F4733011F4E894F3CF91
:1051800080E2689406C0803011F480E20CC00E9476
:10519000FB2C81938F3309F49395743009F4E894D0
:1051A0007A9509F704C080E281937A95E9F780E067
:1051B00081933C9799238F91089588E0F4DD389787
:1051C00088278D930895389683E0EDDD3B978827F7
:1051D0008D930895928D9D93938D9D930090BB0325
:1051E00000FE05C094899D9395899D930895992704
:1051F0009D939D9308957C96D5DDB097089588235F
:1052000011F49AE42ECE32E0E0E1F8E0E894208157
:10521000222329F4D6F0EE2EFF2E689416C028170C
:1052200071F1EF93FF938F9380F98F9386E032961D
:10523000A4E0B4E09ED38F9180FB8F91FF91EF911A
:1052400021F41181192310FF1CC03A9519F0E65E74
:10525000FD4FDDCFC6F4EE2DFF2D18D08083918356
:10526000EF93FF938F9386E03296AE2FBF2FE4E04B
:10527000F4E086E098DD8F91FF91EF91FACD95E40F
:10528000F0CD96E4EECD94E4ECCD94DD09E100247C
:1052900001920A95E9F779970895882369F072E0F9
:1052A000E0E1F8E09081981749F07A9519F0E65E10
:1052B000FD4FF8CF93E4D5CD9AE4D3CD089580E89F
:1052C000ECDF28F08395E1F791E48827CACDD1CDB2
:1052D00071DD02C0E2DF20F081E0D7DD6ED1D5CFF5
:1052E00008958F939F935DDE7F918F91E8F0972FC4
:1052F0006385692760FF03C0692760FD18C0FF93BD
:10530000EF937DDFFA93EA93EF91FF9168F06BDD05
:1053100072DF53DD5FDF5DDD36DD39F04ADCEBDD6A
:1053200040F0BDD06ADDA8CD0895ACDDFBCF98E498
:1053300098CDA5CDE881F9819181917251F1E881F3
:10534000F981808D81FD23C07096E7DC912F802F3D
:10535000D0DC3497F6DCE881F9813C96E8DC0E94E9
:10536000212E30F03896708172607193112704C03D
:10537000E881F981799619279170E80FF91F8081EA
:10538000169521F08F93F9DD8F91089572CD91E0FC
:1053900068CD92E666CDFF93EF938F939F9311C0F4
:1053A000FF93EF938F939F9339D058F4923451F534
:1053B00008C0FF93EF938F939F93F3DD08F592342A
:1053C00009F54FDE00F121D09F918F91FF93EF936C
:1053D00016DFAF91BF91C0F0FA93EA93EF91FF917E
:1053E0009F938BE0E0DC9F91917090629D93129669
:1053F00078D2149676D262DD45DDE991F99139CD06
:1054000092E32FDD089427CD28CD85EE8193882760
:105410009FE181939A95E9F7B097089509F025CD1A
:10542000C0DD80F183858F7D11F093E31ACDFF936A
:10543000EF9358D0EF91FF9128F1FF93EF9323D092
:10544000EF91FF9185EE808339DD22273327028D8E
:10545000138D0090BB0300FE02C02489358993DCC4
:1054600079F017D0BBDB80E08193819316F48193B0
:1054700081931EDDB0F7913221F4EED018F0FDC01B
:10548000FCC008940895E4E0F4E0A0EEB3E086E008
:105490006EC2E0E1FF27A4EDB3E084E068C29FDCC8
:1054A000B6DC0E94212EC2F0C9F02DDC732761F416
:1054B000622751F45127569539F491DCA8DC0E94FB
:1054C0001C2E84E0E2DCD5CC00E012E086E0E5DCD6
:1054D000D0CC84E0DADCCDCC91E601C091E086E06E
:1054E000D4DCBFCC72E0E0E1F8E08081882351F0A9
:1054F000FF93EF933296A4E0B4E086E03AD2EF91C6
:10550000FF9129F07A9529F0E65EFD4FEECF97E402
:10551000A8CCAFCC70DC23DB28F06FDC81FFEBCCB8
:1055200092DC91C09132F9F495DBE8F08FEF819332
:1055300081930090BB0300FE03C081938FE08193B1
:10554000B7DC0F931F932F933F9346DB3F912F912F
:105550001F910F9130F4913221F48BDC67DC29DB51
:10556000DCCF93E27ECC089575DB30F18FEF819331
:1055700081930090BB0300FE03C081938FE0819371
:1055800097DC3F932F931F930F931FDCAEDD0F919A
:105590001F912F913F9180F0028F138F0090BB03DA
:1055A00000FE02C0248B358B89DC03DB4CDC9CDBEA
:1055B00030DC80E272DC889408951FDC83FF09C030
:1055C00016DCAE2FBF2F34968081877F819381DCDC
:1055D000D0F013DC86FF18C087FF02C080FF14C024
:1055E00084DD88F0AE2FBF2F1B968C9180628C9348
:1055F000519681E452DCF3DB9FDB1A9772D15EDCBB
:105600003CD008F029C0089534CCD3DA8091CF0380
:105610008F936DDC18F018D051DC88948F9190F046
:105620008A9529F0E6E0F4E078DB63DBF1CF409186
:10563000CF034A9531F0E6E0F4E06FDB041B64DB56
:1056400056CC17CC0895FBDB772792E080E071936E
:105650000197E9F7F2500DCC80E1ABE0B6E0EFE066
:10566000F6E0908193FF08958193BF93AF9331DC6F
:10567000AF91BF9108F408950AC080E0A6E0B4E0BD
:10568000EAE0F4E0908193FF0895819322CCE0EC6E
:10569000F3E0819181FF08954ADB3ADBEA2FFB2F8B
:1056A00031960E94172EA8EDB3E046DB149711CC7B
:1056B000E881F981092E9181902111F08894089553
:1056C00092E6CFCBE881F98191819A7279F1E881F4
:1056D000F9818F93908D95FF06C046DF48F1B3DFC7
:1056E000E881F981908D709618DBF12EE02E01DBB8
:1056F000349727DBE881F9813C9619DB4017510785
:105700006207730718F434971CDB92641F259860B6
:10571000E881F981789691939F2D9170EE0DF91F94
:105720008F918193169531F048DFF4CE92E699CBB4
:105730008F91089588940895E6DA332312F493E65E
:1057400090CB19F45ADB85FD94CB4BDB0E94212EC4
:10575000C1F1A8F53F932F931F930F9367D05C2D52
:105760006D2D7E2D4F9351DB61D045DB7F936F9381
:105770005F930ADA5F916F917F915C156D057E05ED
:1057800028F089F05C196D097E0901C022DB5150B7
:105790006040704040F07F936F935F931FDA5F919A
:1057A0006F917F91A0F705DA4F91A8DAA4DBC8F0DA
:1057B0000F911F912F913F912CDB71DE5ACB91E617
:1057C00050CB002339F6812F817021F69CDAB5DFAA
:1057D00040F01BDB8EDA1DDB9DDE20F4913011F0F2
:1057E000089408950ADB81FD2ECF43CBBF93AF937E
:1057F000442755278D91882319F04F5F5F4FD1F7CC
:10580000AF91BF9127C08DE05DDF10F08AE05ACFE5
:1058100008950E94EB2C41F0802DFF93EF9352DF0F
:10582000EF91FF9110F0F5CF889408958091CF0308
:10583000369527951795412F90E0869530F036954F
:10584000279517950894991FF8CFC12ED22EE32ED5
:10585000492308959AE22CDF40F128D0415050406E
:10586000B8F08D9195FD04C00F3F71F410FF0CC08E
:10587000D0DABF93AF935F934F9329DF4F915F913E
:10588000AF91BF9190F0E9CF81930F5F1F4FE6CFAB
:105890000DDBA7DA401751076207730718F49DDA8A
:1058A00080E4F3DAB6DA0BD0E4CA089583DA908D97
:1058B000ACDAC5DA712F7170E00FF71F0895E88137
:1058C000F981808D8CDAA3DA75DA0E941C2E28F01B
:1058D00021F08D7F808F889408958660808F089452
:1058E0000895BF93AF930E944C12AF91BF91E6E52C
:1058F000F1E0A190B190C190D190E190F190CC0CE9
:10590000CC0CCC0C8827B6948795B69487958A29B9
:10591000B6948795BC288D93BD9284E18F0DE29457
:10592000EE0C881FED28ED928D9308958BD992325D
:1059300029F4042F152F262F372F08C00895A0ED26
:10594000B3E0E6D901501040204030408091CF03B1
:1059500080FD08C081FD0AC0000F111F221F331FE8
:105960008695F8CF369527951795079582CA68943E
:1059700001C0E894FA93EA93BA93AA93082E881781
:10598000CFB6A190BD90CFBEAB04CFB68A95C9F774
:10599000CFBE46F438F4802DA881B981EA81FB811D
:1059A00002DACFBEA991B991E991F99108950191D7
:1059B00011912191308108950E94EB2C0D920020CD
:1059C000D9F70895369A3699FECF369A3699FECF92
:1059D00084B195B10895C89531960020089591E05D
:1059E00005C092E003C094E001C098E0F4DF0D929E
:1059F0009A95E1F70895813618F08B3708F48F7D7A
:105A0000089591E0882321F08894991F8A95E9F7F9
:105A1000892F9095089580E30EF483950895018170
:105A2000082B0183128119231283EF93FF93EDE07A
:105A3000F0E00E94C31EFF91EF9108950E94D31ED3
:105A4000FF270E94012DEBDFEF93FF93EBE2F5E0E0
:105A50000E94C31EFF91EF91182B1283092301832B
:105A6000EF93FF93EEEBF0E00E94C31EFF91EF91E6
:105A70001081182311F00E94D01EEF93FF93EAE6E5
:105A8000F4E00E94C31EFF91EF9108950E94012D42
:105A9000FF2721E048E006C00E94012DFF27299141
:105AA0005D9148E0BCDF579510F4182B1283EF93FB
:105AB000FF93E2E9F0E00E94C31EFF91EF91182BE3
:105AC0001283EF93FF93E8E1F0E00E94C31EFF9181
:105AD000EF914A9539F72A9519F708950E94012DFB
