:100000000C94460018950000189500001895000003
:10001000189500001895000018950000189500002C
:10002000189500001895000018950000189500001C
:10003000189500001895000018950000189500000C
:100040000C941323189500000C9498321895000016
:1000500018950000189500001895000018950000EC
:1000600018950000189500001895000018950000DC
:1000700018950000189500000C94CA3218950000DD
:100080001895000018950000189500008FEF8DBF9F
:10009000C0E8E8E14E2E80E18EBFD0E1F0E15F2EB6
:1000A000A89584B7082E877F84BF88E1992781BDF2
:1000B00091BDEEEFFFE0A0E0B1E088278D9331978E
:1000C000E9F787E489B980E08093900088E18AB9F4
:1000D000662485E089B980E080939000599888E192
:1000E0008AB986E080939500579A8BE080939900B7
:1000F00080E08093980070919B007D7F70939B00BF
:1001000086E080939D0088E180939A0070919A0028
:10011000706870939A00BD9ABE9ABF9A89EA8FBDA3
:1001200082E08EBD82E08EBD80E090E09BBD8ABD06
:1001300080E090E099BD88BD80E090E090937900E8
:100140008093780087E083BF84E982BF77B77160CE
:1001500077BF87E083BF86E886B980E487B9139AC2
:10016000149A159AD198D99AD298DA9A8C981798A5
:100170001F9AA798A29AA39AA19AA09AA49AA59A1C
:1001800070E0709371007AE0709370000E94D52344
:10019000A3E4B3E0E2E5FEE60E94E33182E090E012
:1001A000AFE1B3E08D939C9384EF91E0A5E1B3E0E0
:1001B0008D939C9380E08093170380E080931803D5
:1001C00078940E94C30682E593E0A3E1B3E08D93A7
:1001D0009C9383E18093E70282E380930E03A8E877
:1001E000B3E08C9199279BBD8ABDAFE9B3E08C91B8
:1001F000992799BD88BDA6EBB3E08C919927909380
:100200007900809378000E9482010E945C0F0E9416
:10021000C6110E942F120E9494140E94B5150E94CC
:10022000ED020E945C030E9440050E94A6050E9408
:100230005E06ADEBB1E00D911C91043650E0150760
:1002400018F011F00C9426010C94610180E090E00C
:10025000ADEBB1E08D939C93A0ECB1E08C918F5FFE
:100260008C930E94B30AAEE0B3E08C918F5F8C93C5
:10027000A7EEB2E08C918F5F8C93A5EEB2E00E9466
:100280005023ABE1B3E00D911C91003050E0150715
:1002900018F011F00C944E010C945201ABE1B3E054
:1002A0000E945723A5EEB2E00D911C910C3350E053
:1002B000150718F011F00C945F010C9461010E9475
:1002C00000170091C001033018F011F00C946A017E
:1002D0000C946F0180E08093C0010E94F30C0091A8
:1002E0004703013011F00C9477010C942010009119
:1002F000B703013011F00C947F010E94A8131B98E2
:100300000C9403010091C101013011F00C94D10251
:1003100080E08093C101E4ECF1E004E0A9EBB3E0FC
:100320000E94BE33A4ECB1E00E940C34EA2FFB2FF4
:1003300037970FEFA2ECB3E00E94BE33A9EBB3E016
:10034000EAEAFEE60E94123411F00C94B501E0EBEB
:10035000FEE60E946D230E947423E1E0F0E00E941B
:1003600094230E94A8130C94AD02A9EBB3E0E6EC31
:10037000FEE60E94123411F00C94EA01A2ECB3E004
:100380000E941736EDE0F0E0A9E2B3E00E94B1333D
:10039000E5E0F0E0A9E2B3E094E07BE70E94CF3330
:1003A000ECECFEE60E946D23A0E0B0E1E9E2F3E0B0
:1003B000552744E00E948B240E946523E0EEFEE670
:1003C0000E946D230E947423E3E0F0E00E949423D6
:1003D0000C94AD02A9EBB3E0E4EEFEE60E94123409
:1003E00011F00C941F02A2ECB3E00E941736EDE06E
:1003F000F0E0A1E3B3E00E94B133EDE0F0E0A1E36F
:10040000B3E094E07BE70E94CF33EAEEFEE60E9481
:100410006D23A0E0B0E1E1E3F3E0552744E00E9462
:100420008B240E946523E0EEFEE60E946D230E946D
:100430007423E3E0F0E00E9494230C94AD02A9EB56
:10044000B3E0E8EFFEE60E94123411F00C942C02A7
:100450000E9420100C94AD02A9EBB3E0EEEFFEE693
:100460000E94123411F00C9437020C94AD02A9EBE7
:10047000B3E0E4E0FFE60E94123411F00C949E0217
:10048000EAE0FFE60E946D23A0E0B0E1E4E1FFE6D0
:100490000E94CC310E9465230E9474230E94742321
:1004A000ECE1FFE60E946D230E947423E0E3FFE687
:1004B0000E946D230E9474230E947423EEE4FFE6E1
:1004C0000E946D230E947423EAE5FFE60E946D23DB
:1004D0000E9474230E947423E0E8FFE60E946D23CB
:1004E0000E947423E0E9FFE60E946D230E947423BA
:1004F000E2ECFFE60E946D230E947423EAEFFFE620
:100500000E946D230E9474230E947423E0E2F0E7AE
:100510000E946D230E947423E0E3F0E70E946D23A4
:100520000E947423E8E4F0E70E946D230E94742384
:10053000E5E0F0E00E9494230C94AD02A9EBB3E057
:10054000E0E6F0E70E94123411F00C94AD020E9434
:10055000F30CE5E0F0E00E949423A4ECB1E08827DE
:100560008C9381E08093DA010091DA01043118F074
:1005700011F00C94D10280E0AAEDB1E0AD90BB2463
:10058000A3ECB1E0AA0DBB1D8C93A2E3B1E00E94E5
:10059000FE32AAEDB1E08C918F5F8C9310F40C9435
:1005A000B402A2ECB1E00E945023A2ECB1E00D91A4
:1005B0001C91023350E0150718F011F00C94E20280
:1005C0000C94EC0280E090E0A2ECB1E08D939C935F
:1005D000A2E3B1E00E94FE320895ABE1B3E00D91D9
:1005E0001C91003050E0150781E009F080E08F9306
:1005F000A5E3B0E00C9102FB81E00EF080E09F915A
:100600008923882311F40C940F03A3E3B2E0E6E6F8
:10061000F0E70E94CC310E948016AA98AB98ABE11B
:10062000B3E00D911C91003050E0150780E010F010
:1006300009F081E08F93A5E3B0E00C9102FB81E02B
:100640000EF480E09F9189238F93A5E3B0E00C9195
:1006500003FB81E00EF480E09F918923882311F44D
:100660000C945B030091B803003011F00C943A0332
:100670000C945B030091B803013011F00C944B0310
:10068000A3E3B2E0E6E7F0E70E94CC310E948016D7
:10069000AA9A0C945B030091B803023011F00C94F9
:1006A0005B03A3E3B2E0E6E8F0E70E94CC310E94EE
:1006B0008016AA9AAB9A0895E5E7F3E0A4EBB1E0BF
:1006C0000E94143411F00C94680381E0809372034B
:1006D000EEE7F3E0A4EBB1E00E94143411F00C94C7
:1006E000740380E080937203ECE8F3E0A4EBB1E0E4
:1006F0000E94143411F00C94800381E080938903EC
:10070000E5E9F3E0A4EBB1E00E94143411F00C949D
:100710008C0380E080938903E3EAF3E0A4EBB1E08B
:100720000E94143411F00C94980381E08093A0038C
:10073000ECEAF3E0A4EBB1E00E94143411F00C9465
:10074000A40380E08093A00300917203013081E054
:1007500009F080E08F93A7E8B3E04D915527AAE414
:10076000B0E00D911C910417150781E008F080E0BE
:100770009F918923882311F40C94E803ACE6B3E03D
:100780004D915C91A3E7B3E00D911C9104171507FF
:1007900010F00C94D103A3E7B3E00E9450230C9413
:1007A000E803ACE6B3E04D915C91A3E7B3E00D91B3
:1007B0001C910417150710F40C94E803AAE4B0E0A8
:1007C0000E94502380E090E0A3E7B3E08D939C93D8
:1007D00000917203003081E009F080E08F93A8E877
:1007E000B3E04D915527AAE4B0E00D911C91041798
:1007F000150780E010F009F081E09F91892388239C
:1008000011F40C942D04ACE6B3E04D915C91A3E798
:10081000B3E00D911C910417150710F00C94160409
:10082000A3E7B3E00E9450230C942D04ACE6B3E0A0
:100830004D915C91A3E7B3E00D911C91041715074E
:1008400010F40C942D04AAE4B0E00E94572380E039
:1008500090E0A3E7B3E08D939C930091890301306E
:1008600081E009F080E08F93AEE9B3E04D91552728
:10087000A8E4B0E00D911C910417150781E008F081
:1008800080E09F918923882311F40C947104AEE6D3
:10089000B3E04D915C91AAE8B3E00D911C9104176F
:1008A000150710F00C945A04AAE8B3E00E945023F4
:1008B0000C947104AEE6B3E04D915C91AAE8B3E00C
:1008C0000D911C910417150710F40C947104A8E401
:1008D000B0E00E94502380E090E0AAE8B3E08D935E
:1008E0009C9300918903003081E009F080E08F93B0
:1008F000AFE9B3E04D915527A8E4B0E00D911C910C
:100900000417150780E010F009F081E09F9189231A
:10091000882311F40C94B604AEE6B3E04D915C91DB
:10092000AAE8B3E00D911C910417150710F00C9480
:100930009F04AAE8B3E00E9450230C94B604AEE6EC
:10094000B3E04D915C91AAE8B3E00D911C910417BE
:10095000150710F40C94B604A8E4B0E00E945723E5
:1009600080E090E0AAE8B3E08D939C930091A0030F
:10097000013081E009F080E08F93A5EBB3E04D9169
:100980005527A8E7B0E00D911C910417150781E0E9
:1009900008F080E09F918923882311F40C94FA04D5
:1009A000A0E7B3E04D915C91A1EAB3E00D911C91F9
:1009B0000417150710F00C94E304A1EAB3E00E94B9
:1009C00050230C94FA04A0E7B3E04D915C91A1EAA6
:1009D000B3E00D911C910417150710F40C94FA0460
:1009E000A8E7B0E00E94502380E090E0A1EAB3E0E5
:1009F0008D939C930091A003003081E009F080E08A
:100A00008F93A6EBB3E04D915527A8E7B0E00D9189
:100A10001C910417150780E010F009F081E09F9108
:100A20008923882311F40C943F05A0E7B3E04D918E
:100A30005C91A1EAB3E00D911C910417150710F029
:100A40000C942805A1EAB3E00E9450230C943F05C2
:100A5000A0E7B3E04D915C91A1EAB3E00D911C9148
:100A60000417150710F40C943F05A8E7B0E00E94A6
:100A7000572380E090E0A1EAB3E08D939C93089522
:100A8000ADE1B3E00D911C91AFE1B3E04D915C910C
:100A9000041B150BA1E2B3E00D931C93ADE1B3E091
:100AA0000D911C91AFE1B3E04D915C91040F151FC6
:100AB000A3E2B3E00D931C93A1E2B3E04D915C91EE
:100AC000A3E1B3E00D911C910417150781E014F028
:100AD00009F080E08F93A5E3B0E00C9101FB81E089
:100AE0000EF480E09F918923882311F40C948105F2
:100AF000A99AA3E3B2E0EAE9F0E70E94CC310E94B0
:100B00008016A3E2B3E04D915C91A3E1B3E00D91B7
:100B10001C910417150780E00CF081E08F93A5E38A
:100B2000B0E00C9101FB81E00EF080E09F91892301
:100B3000882311F40C94A505A998A3E3B2E0EAEA8E
:100B4000F0E70E94CC310E9480160895E3E4F3E0C0
:100B50000E946234E7E3F3E00E945D340E94BC35FA
:100B6000EDE0F0E0ABE3B3E00E94B133E3E4F3E0A7
:100B70000E946234E7E3F3E00E945D340E94AD35E9
:100B8000EDE0F0E0AFE3B3E00E94B133E5E2F3E083
:100B90000E945D34EBE3F3E00E9462340E9444342F
:100BA00080E010F009F081E08F93A5E3B0E00C91B4
:100BB00004FB81E00EF480E09F9189238F93E5E2AE
:100BC000F3E00E945D34E6E5FEE60E940A360E94EC
:100BD000443480E010F009F081E09F9189238F93E5
:100BE000E5E2F3E00E945D34EAE5FEE60E940A36A3
:100BF0000E94443481E008F080E09F91892388239B
:100C000011F40C940C06AC9AA3E3B2E0ECEBF0E721
:100C10000E94CC310E948016E5E2F3E00E945D3430
:100C2000EFE3F3E00E9462340E94443481E008F074
:100C300080E08F93A5E3B0E00C9104FB81E00EF01F
:100C400080E09F918923882311F40C943006AC989E
:100C5000A3E3B2E0EAECF0E70E94CC310E948016F8
:100C6000E5E2F3E00E945D34E6E5FEE60E940A3626
:100C70000E94443481E008F080E08F93E5E2F3E0E5
:100C80000E945D34EAE5FEE60E940A360E94443482
:100C900080E010F009F081E09F91892B8F93A5E30C
:100CA000B0E00C9104FB81E00EF080E09F9189237D
:100CB000882311F40C945D06AC980895E8E4F3E001
:100CC000A4EBB1E00E94143481E009F080E08F933E
:100CD000A5E3B0E00C9100FB81E00EF480E09F9171
:100CE0008923882311F40C947E06A89AA3E3B2E02A
:100CF000E8EDF0E70E94CC310E948016E1E5F3E0D8
:100D0000A4EBB1E00E94143481E009F080E08F93FD
:100D1000A5E3B0E00C9100FB81E00EF080E09F9134
:100D20008923882311F40C949E06A898A3E3B2E0CB
:100D3000EAEEF0E70E94CC310E948016EAE5F3E08B
:100D4000A4EBB1E00E94143411F00C94B006A89A00
:100D5000A3E3B2E0E8EDF0E70E94CC310E948016F8
:100D6000E3E6F3E0A4EBB1E00E94143411F00C943C
:100D7000C206A898A3E3B2E0EAEEF0E70E94CC3105
:100D80000E94801608951C9AA5E1B3E08D919C9174
:100D90000E94C6231C981B9AA5E1B3E08D919C91FB
:100DA0000E94C6231B981D9AA5E1B3E08D919C91EA
:100DB0000E94C6231D9880E090E09BBD8ABD80E024
:100DC00090E099BD88BD80E090E090937900809399
:100DD00078008CE10E948D230E948A2384E690E0B3
:100DE0000E94C623ECEFF0E70E948323A0E0B0E16D
:100DF000E4E1FFE60E94CC310E947B230E948A231B
:100E0000ECEFF0E70E946D23A0E0B0E1E4E1FFE643
:100E10000E94CC310E9465230E947423E0E0F0E040
:100E2000AFEBB1E00E94E8330091BF01013081E0F7
:100E300009F480E08F9300911703003081E009F0FE
:100E400080E09F918923882311F40C948307F89400
:100E50001D9AE2E1F1E70E9483230E948A2384E243
:100E60000E94772384E20E94772384E20E94772302
:100E7000E1E0F0E00E949423ECE1F1E70E9483239B
:100E80000E948A23E2E2F1E70E946D230E9474230C
:100E9000E1E0F0E00E949423E8E2F1E70E9483237E
:100EA0000E948A23E8E2F1E70E946D230E947423E6
:100EB000E1E0F0E00E949423E4E3F1E70E94832361
:100EC0000E948A23ECE3F1E70E946D238AE00E94EE
:100ED0007723E1E0F0E00E9494231D987894A2E348
:100EE000B1E00E94FE32A3E5B1E00E94FE3281E053
:100EF0008093BF01E0E0F0E0AFEBB1E07BE70E9460
:100F0000CC330C9489070091BF01013011F00C948F
:100F100089070E94B515ADE2B3E0E9E0F0E094E0A6
:100F20000E94EB33EDE2F3E00E945D34EEE5FEE675
:100F30000E940A360E94443481E008F080E08F93DA
:100F4000EDE2F3E00E945D34E2E6FEE60E940A363E
:100F50000E94443480E010F009F081E09F91892BD9
:100F60008F93EDE2F3E00E945D34E6E6FEE60E9438
:100F70000A360E94443481E009F080E09F91892B79
:100F8000882311F40C94D207ADE2B3E0EAE6FEE662
:100F90000E94E331E9E0F0E0ADE2B3E094E07BE70A
:100FA0000E94CF33A9E2B3E0E5E0F0E094E00E94D4
:100FB000EB33E9E2F3E00E945D34EEE5FEE60E94E9
:100FC0000A360E94443481E008F080E08F93E9E221
:100FD000F3E00E945D34E2E6FEE60E940A360E94DB
:100FE000443480E010F009F081E09F91892B8F93C9
:100FF000E9E2F3E00E945D34E6E6FEE60E940A368E
:101000000E94443481E009F080E09F91892B88237D
:1010100011F40C941908A9E2B3E0EEE6FEE60E9492
:10102000E331E5E0F0E0A9E2B3E094E07BE70E9481
:10103000CF33A1E3B3E0EDE0F0E094E00E94EB33C6
:10104000E1E3F3E00E945D34E2E7FEE60E940A3647
:101050000E94443481E008F080E08F93E1E3F3E004
:101060000E945D34E6E7FEE60E940A360E944434A0
:1010700080E010F009F081E09F91892B8F93E1E3EC
:10108000F3E00E945D34E6E6FEE60E940A360E9426
:10109000443481E009F080E09F91892B882311F48A
:1010A0000C946008A1E3B3E0EAE7FEE60E94E331B6
:1010B000EDE0F0E0A1E3B3E094E07BE70E94CF3302
:1010C000A7E3B3E0E2E1F0E094E00E94EB33E7E372
:1010D000F3E00E945D34EEE7FEE60E940A360E94CD
:1010E000443480E010F009F081E08F93E7E3F3E00F
:1010F0000E945D34E2E8FEE60E940A360E94443413
:1011000081E008F080E09F91892B882311F40C94F2
:101110009708A7E3B3E0E6E8FEE60E94E331E2E1E8
:10112000F0E0A7E3B3E094E07BE70E94CF330091C7
:101130001803003081E009F080E08F93A1E2B0E075
:101140000C9107FB81E00EF480E09F9189238823B6
:1011500011F40C94AF080E944B160E947618EDE72C
:10116000F0E0ABECB3E00E94E8330091CB030F3F1B
:1011700011F00C94C50880E08093CB03EDE7F0E01C
:10118000ABECB3E07BE70E94CC3300911803013055
:1011900081E009F080E08F93A1E2B0E00C9107FBC1
:1011A00081E00EF080E09F91892B8F930091CB031B
:1011B000013081E009F080E09F91892B882311F4B0
:1011C0000C94B10AE3E0F0E0ADE1B3E00E94EA3351
:1011D000ADE1B3E00D911C91003951E0150780E0BD
:1011E00014F009F081E08F93ADE1B3E00D911C9113
:1011F000043650E0150780E00CF481E09F91892BC4
:10120000882311F40C9411098AEF90E0ADE1B3E06A
:101210008D939C93E3E0F0E0ADE1B3E07BE70E94C7
:10122000CE33E6E1F0E0A8E4B3E098E00E94F233C8
:10123000EFE1F0E0A1E5B3E098E00E94F233E8E2EC
:10124000F0E0AAE5B3E098E00E94F233E1E3F0E0D9
:10125000A3E6B3E098E00E94F233E1E0F0E0A9E118
:10126000B3E00E94EA33A9E1B3E00D911C91043888
:1012700053E0150718F011F00C9440090C944D0937
:101280008CE291E0A9E1B3E08D939C93E1E0F0E082
:10129000A9E1B3E07BE70E94CE33ECE7F0E0A8EBF6
:1012A000B3E00E94E8330091B803023018F011F067
:1012B0000C945C090C94660980E08093B803ECE719
:1012C000F0E0A8EBB3E07BE70E94CC33EAE3F0E088
:1012D000ACE6B3E00E94EA33ACE6B3E00D911C91BA
:1012E000043C59E0150780E010F009F081E08F938D
:1012F000ACE6B3E00D911C91043650E0150781E097
:1013000008F080E09F91892B882311F40C949509B3
:1013100088EE93E0ACE6B3E08D939C93EAE3F0E0D3
:10132000ACE6B3E07BE70E94CE33ECE3F0E0AEE660
:10133000B3E00E94EA33AEE6B3E00D911C91043CA9
:1013400059E0150780E010F009F081E08F93AEE6D8
:10135000B3E00D911C91043650E0150781E008F0D0
:1013600080E09F91892B882311F40C94C40988EEA6
:1013700093E0AEE6B3E08D939C93ECE3F0E0AEE651
:10138000B3E07BE70E94CE33EEE3F0E0A0E7B3E00A
:101390000E94EA33A0E7B3E00D911C91043C59E0B0
:1013A000150780E010F009F081E08F93A0E7B3E02B
:1013B0000D911C91043650E0150781E008F080E0A3
:1013C0009F91892B882311F40C94F30988EE93E004
:1013D000A0E7B3E08D939C93EEE3F0E0A0E7B3E0E9
:1013E0007BE70E94CE33E0E4F0E0A5E7B3E098E0CD
:1013F0000E94F233E9E4F0E0AEE7B3E098E00E9447
:10140000F233E2E5F0E0A7E8B3E00E94E833E3E579
:10141000F0E0A8E8B3E00E94E833009188030436C6
:1014200018F011F00C94160A0C94200A80E08093B6
:101430008803E3E5F0E0A8E8B3E07BE70E94CC3363
:10144000E4E5F0E0ACE8B3E098E00E94F233EDE5CB
:10145000F0E0A5E9B3E098E00E94F233E6E6F0E0C0
:10146000AEE9B3E00E94E833E7E6F0E0AFE9B3E0CD
:101470000E94E83300919F03043618F011F00C9499
:10148000430A0C944D0A80E080939F03E7E6F0E066
:10149000AFE9B3E07BE70E94CC33E8E6F0E0A3EAF3
:1014A000B3E098E00E94F233E1E7F0E0ACEAB3E0A9
:1014B00098E00E94F233EAE7F0E0A5EBB3E00E9487
:1014C000E833EBE7F0E0A6EBB3E00E94E8330091ED
:1014D000B603043618F011F00C94700A0C947A0AD2
:1014E00080E08093B603EBE7F0E0A6EBB3E07BE7A8
:1014F0000E94CC33A7E3B3E0E2E1F0E094E00E9485
:10150000EB33E7E3F3E00E945D34E6E5FEE60E949C
:101510000A360E94443481E008F080E08F93E7E3CC
:10152000F3E00E945D34EEE7FEE60E940A360E9478
:10153000443480E010F009F081E09F91892B8823EA
:1015400011F40C94B10AA7E3B3E0E6E8FEE60E94CA
:10155000E331E2E1F0E0A7E3B3E094E07BE70E944F
:10156000CF33089508958CE10E948D230E948A2331
:1015700084E690E00E94C6230E942824ACE5B1E0F6
:101580000E947D23E0E4F1E70E9483230E94282447
:10159000A5E6B1E00E947D23A0E0B0E1E4E1FFE632
:1015A0000E94CC310E947B230E948A23E2E4F1E76F
:1015B0000E948323A5E3B0E08C9182FBA0E0B0E120
:1015C0000E94FB318D9388278C930E947B23EEE44D
:1015D000F1E70E948323A0E0B0E1EBE1F3E00E9499
:1015E00024330E947B23E2E5F1E70E9483230E94DB
:1015F0008A23E4E5F1E70E948323A5E3B0E08C9120
:1016000083FBA0E0B0E10E94FB318D9388278C938F
:101610000E947B23EEE4F1E70E948323A0E0B0E187
:10162000EBE1F3E00E9424330E947B23E2E5F1E743
:101630000E9483230E948A23E0E6F1E70E9483232D
:10164000A5E3B0E08C9181FBA0E0B0E10E94FB310A
:101650008D9388278C930E947B23E8E6F1E70E9414
:101660008323A0E0B0E1E1E2F3E00E942D330E9489
:101670007B23EAE6F1E70E948323A0E0B0E1E3E206
:10168000F3E00E942D330E947B23E2E5F1E70E9404
:1016900083230E948A23ECE6F1E70E948323A5E3DB
:1016A000B0E08C9180FBA0E0B0E10E94FB318D9313
:1016B00088278C930E947B23E0E4F1E70E94832338
:1016C000A8E4B3E00E947D23EAE6F1E70E948323C9
:1016D000A1E5B3E00E947D23E6E7F1E70E948323C2
:1016E000AAE5B3E00E947D23EAE6F1E70E948323A6
:1016F000A3E6B3E00E947D230E948A23EAE7F1E794
:101700000E948323A5E3B0E08C9184FBA0E0B0E1CC
:101710000E94FB318D9388278C930E947B23E8E6FF
:10172000F1E70E948323A0E0B0E1E7E3F3E055276F
:1017300044E00E948B240E947B23E2E5F1E70E94B3
:1017400083230E948A23E6E8F1E70E948323A5E32E
:10175000B0E08C9185FBA0E0B0E10E94FB318D935D
:1017600088278C930E947B230E948A23ECE8F1E770
:101770000E948323A0E0B0E1EAE4F0E00E94243379
:101780000E947B23E2E9F1E70E948323A0E0B0E11D
:10179000E7E8F3E00E9434330E947B23EAE9F1E7B3
:1017A0000E948323A5E7B3E00E947D23EAE6F1E7E8
:1017B0000E948323A0E0B0E1E8E8F3E00E94343324
:1017C0000E947B23EAE9F1E70E948323AEE7B3E0BE
:1017D0000E947D230E948A23ECE9F1E70E94832383
:1017E000A0E0B0E1E8E4F0E00E9424330E947B2313
:1017F000E2E9F1E70E948323A0E0B0E1EEE9F3E043
:101800000E9434330E947B23EAE9F1E70E9483239C
:10181000ACE8B3E00E947D23EAE6F1E70E9483236F
:10182000A0E0B0E1EFE9F3E00E9434330E947B23B3
:10183000EAE9F1E70E948323A5E9B3E00E947D2352
:101840000E948A23E2EAF1E70E948323A0E0B0E14C
:10185000E8E7F0E00E9424330E947B23E2E9F1E70D
:101860000E948323A0E0B0E1E5EBF3E00E94343373
:101870000E947B23EAE9F1E70E948323A3EAB3E015
:101880000E947D23EAE6F1E70E948323A0E0B0E115
:10189000E6EBF3E00E9434330E947B23EAE9F1E7B0
:1018A0000E948323ACEAB3E00E947D230E948A2336
:1018B000E8EAF1E70E9483230E948A23EAEAF1E73B
:1018C0000E948323A0E0B0E1E5E2F3E0552744E085
:1018D0000E948B240E947B23E0EBF1E70E9483238C
:1018E000A0E0B0E1E8EEF2E0552744E00E948B244E
:1018F0000E947B23E4EBF1E70E9483230E948A236A
:10190000E8EBF1E70E948323A0E0B0E1E3E1F3E03C
:101910000E942D330E947B23E0ECF1E70E94832399
:101920000E948A23E4ECF1E70E948323A0E0B0E167
:10193000E3E0F3E00E9434330E947B230091030331
:10194000003011F00C94AA0CECECF1E70E94832318
:101950000E948A2300910303013011F00C94B60C0D
:10196000E8EAF1E70E946D230E947423E0EDF1E7BD
:101970000E948323A0E0B0E1E1E0F3E00E94343371
:101980000E947B23E8E6F1E70E948323A0E0B0E118
:10199000E9E1F3E00E9424330E947B23EAEDF1E7C2
:1019A0000E9483230E948A23EEEDF1E70E948323A5
:1019B000A0E0B0E1E2E0F3E00E9434330E947B2338
:1019C000EAEEF1E70E948323A0E0B0E1ECE6F3E069
:1019D0000E9424330E947B23E2E5F1E70E948323E7
:1019E0000E948A230895E8EAF1E70E946D230E948D
:1019F00074230E942824ACE5B1E00E946723E0E450
:101A0000F1E70E946D230E942824A5E6B1E00E9420
:101A10006723E2EFF1E70E946D23A0E0B0E1E4E18B
:101A2000FFE60E94CC310E9465230E947423E2E409
:101A3000F1E70E946D23A5E3B0E08C9182FBA0E06A
:101A4000B0E10E94FB318D9388278C930E9465231F
:101A5000EEE4F1E70E946D23A0E0B0E1EBE1F3E0FA
:101A60000E9424330E946523E2E5F1E70E946D2382
:101A70000E947423E4E5F1E70E946D23A5E3B0E042
:101A80008C9183FBA0E0B0E10E94FB318D9388270D
:101A90008C930E946523EEE4F1E70E946D23A0E0A1
:101AA000B0E1EBE1F3E00E9424330E946523E2E51C
:101AB000F1E70E946D230E947423E0E6F1E70E94A3
:101AC0006D23A5E3B0E08C9181FBA0E0B0E10E9422
:101AD000FB318D9388278C930E946523E8E6F1E71C
:101AE0000E946D23A0E0B0E1E1E2F3E00E942D331B
:101AF0000E946523EAE6F1E70E946D23A0E0B0E1D1
:101B0000E3E2F3E00E942D330E946523E2E5F1E772
:101B10000E946D230E947423ECE6F1E70E946D237E
:101B2000A5E3B0E08C9180FBA0E0B0E10E94FB3126
:101B30008D9388278C930E946523E0E4F1E70E944F
:101B40006D23A8E4B3E00E946723EAE6F1E70E9470
:101B50006D23A1E5B3E00E946723E6E7F1E70E9469
:101B60006D23AAE5B3E00E946723EAE6F1E70E944D
:101B70006D23A3E6B3E00E9467230E947423EAE783
:101B8000F1E70E946D23A5E3B0E08C9184FBA0E017
:101B9000B0E10E94FB318D9388278C930E946523CE
:101BA000E8E6F1E70E946D23A0E0B0E1E7E3F3E0AF
:101BB000552744E00E948B240E946523E2E5F1E76B
:101BC0000E946D230E947423E6E8F1E70E946D23D2
:101BD000A5E3B0E08C9185FBA0E0B0E10E94FB3171
:101BE0008D9388278C930E9465230E947423ECE8D0
:101BF000F1E70E946D23A0E0B0E1EAE4F0E00E948A
:101C000024330E946523E2E9F1E70E946D23A0E0FE
:101C1000B0E1E7E8F3E00E9434330E946523EAE98B
:101C2000F1E70E946D23A5E7B3E00E946723EAE68F
:101C3000F1E70E946D23A0E0B0E1E8E8F3E00E9444
:101C400034330E946523EAE9F1E70E946D23AEE791
:101C5000B3E00E9467230E947423ECE9F1E70E943D
:101C60006D23A0E0B0E1E8E4F0E00E9424330E949C
:101C70006523E2E9F1E70E946D23A0E0B0E1EEE91F
:101C8000F3E00E9434330E946523EAE9F1E70E9401
:101C90006D23ACE8B3E00E946723EAE6F1E70E9417
:101CA0006D23A0E0B0E1EFE9F3E00E9434330E943D
:101CB0006523EAE9F1E70E946D23A5E9B3E00E94FC
:101CC00067230E947423E2EAF1E70E946D23A0E0FB
:101CD000B0E1E8E7F0E00E9424330E946523E2E9E6
:101CE000F1E70E946D23A0E0B0E1E5EBF3E00E9494
:101CF00034330E946523EAE9F1E70E946D23A3EAE9
:101D0000B3E00E946723EAE6F1E70E946D23A0E0BA
:101D1000B0E1E6EBF3E00E9434330E946523EAE988
:101D2000F1E70E946D23ACEAB3E00E9467230E94B2
:101D30007423E8EAF1E70E946D230E947423EAEA23
:101D4000F1E70E946D23A0E0B0E1E5E2F3E0552762
:101D500044E00E948B240E946523E0EBF1E70E949F
:101D60006D23A0E0B0E1E8EEF2E0552744E00E94E8
:101D70008B240E946523E4EBF1E70E946D230E940F
:101D80007423E8EBF1E70E946D23A0E0B0E1E3E10A
:101D9000F3E00E942D330E946523E0ECF1E70E94FE
:101DA0006D230E947423E4ECF1E70E946D23A0E010
:101DB000B0E1E3E0F3E00E9434330E946523009138
:101DC0000303003011F00C94EB0EECECF1E70E94F1
:101DD0006D230E94742300910303013011F00C94D1
:101DE000F70EE8EAF1E70E946D230E947423E0ED0C
:101DF000F1E70E946D23A0E0B0E1E1E0F3E00E9492
:101E000034330E946523E8E6F1E70E946D23A0E0E9
:101E1000B0E1E9E1F3E00E9424330E946523EAED9A
:101E2000F1E70E946D230E947423EEEDF1E70E941A
:101E30006D23A0E0B0E1E2E0F3E00E9434330E94C1
:101E40006523EAEEF1E70E946D23A0E0B0E1ECE645
:101E5000F3E00E9424330E946523E2E5F1E70E944B
:101E60006D230E947423EAEFF1E70E946D23A0E046
:101E7000B0E1E9E2F3E0552744E00E948B240E94A0
:101E80006523E2E0F2E70E946D230E947423E6E0FE
:101E9000F2E70E946D23A0E0B0E1E1E3F3E0552713
:101EA00044E00E948B240E946523E2E0F2E70E9456
:101EB0006D230E94742308950091E7020A3018F000
:101EC00011F00C94650F0C941F1080E08093F602C3
:101ED000A8EEB2E0E6E6FEE60E94E33180E0809301
:101EE000E702F8940E94DD2310E90E94F3231CE925
:101EF0000E94F3230E94ED2381E08093F50200917C
:101F0000F5020A3F18F011F00C94B10F0E94DD2386
:101F100011E90E94F3230E941024A2EFB2E01C9367
:101F20000E941024A3EFB2E01C930E941024A4EF9F
:101F3000B2E01C930E94ED23A4EFB2E00C9107FBEA
:101F400016F40C94A50F0C94B10F81E090E00E9460
:101F5000C623A5EFB2E08C918F5F8C9310F40C94A4
:101F60007F0F0E94DD2311E90E94F3230E941024B9
:101F7000A2EFB2E01C930E941024A3EFB2E01C93E6
:101F80000E941024A4EFB2E01C930E94ED237894E9
:101F90009091F2028091F302A0EFB2E08D939C93B6
:101FA000EAE8FEE60E940A36E0EFF2E0D190E08037
:101FB000FF2400270E94C5340E941535EDE0F0E0B3
:101FC000ACEEB2E00E94B133EEE8FEE60E940A36C3
:101FD000ECEEF2E00E945D340E946E35EDE0F0E040
:101FE000ACEEB2E00E94B133ECEEF2E00E9462345B
:101FF000E8EEF2E00E945D340E94BC35EDE0F0E0D6
:10200000A8EEB2E00E94B133A6EFB2E08C918F5FF0
:102010008C930091F602053011F00C946E0FE2E9FA
:10202000FEE60E940A36E8EEF2E00E945D340E946D
:102030001535EDE0F0E0A8EEB2E00E94B13308956E
:102040001C9A1D9A1B98E0E1F2E70E946D230E9402
:1020500074238CE380933503E0E4F2E70E946D2360
:10206000A0E0B0E1E5E3F3E00E9434330E94652391
:10207000E8E6F2E70E946D230E9474238091350305
:10208000815080933503E1E0F0E00E9494230091B9
:102090003503003011F00C942C10A9E2B3E0E6E611
:1020A000FEE60E94E33180E08093350384E1809373
:1020B000E7020E945C0F8AE090E00E94C623E8EEEF
:1020C000F2E00E946234E9E2F3E00E945D340E9493
:1020D000BC35EDE0F0E0A9E2B3E00E94B133A5E346
:1020E000B3E08C918F5F8C93009135030A3011F02F
:1020F0000C945910EEE7FEE60E940A36E9E2F3E09E
:102100000E945D340E941535EDE0F0E0A9E2B3E0F5
:102110000E94B133E5E0F0E0A9E2B3E094E07BE7B0
:102120000E94CF33EEE6F2E70E946D23A0E0B0E11B
:10213000E9E2F3E0552744E00E948B240E946523E6
:10214000E0E8F2E70E946D230E947423E5E0F0E0EE
:102150000E949423E2E8F2E70E946D230E94742318
:1021600084E1809335038CE10E9477230E947423DD
:1021700084E690E00E94C623E0EAF2E70E946D2325
:10218000A0E0B0E1E5E3F3E00E9434330E94652370
:10219000E8E6F2E70E946D230E94742380913503E4
:1021A000815080933503E1E0F0E00E949423009198
:1021B0003503003011F00C94B310EEEBF2E70E94FF
:1021C0006D230E9474238CE3809335038CE10E947D
:1021D00077230E94742384E690E00E94C623EEEEEB
:1021E000F2E70E946D23A0E0B0E1E5E3F3E00E9496
:1021F00034330E946523E8E6F2E70E946D230E94D3
:10220000742380913503815080933503E1E0F0E041
:102210000E94942300913503003011F00C94E610D5
:10222000ADE2B3E0E6E6FEE60E94E33180E08093B3
:10223000350384E18093E7020E945C0F8AE090E01E
:102240000E94C623E8EEF2E00E946234EDE2F3E081
:102250000E945D340E94BC35EDE0F0E0ADE2B3E0F9
:102260000E94B133A5E3B3E08C918F5F8C93009112
:1022700035030A3011F00C941C11EEE7FEE60E94C3
:102280000A36EDE2F3E00E945D340E941535EDE080
:10229000F0E0ADE2B3E00E94B133E9E0F0E0ADE29E
:1022A000B3E094E07BE70E94CF33E9E2F3E00E94E1
:1022B0006234EDE2F3E00E945D340E94AD35EDE062
:1022C000F0E0A1E3B3E00E94B133E6E5FEE60E9450
:1022D0000A36E1E3F3E00E945D340E941535EDE03B
:1022E000F0E0A1E3B3E00E94B133E6E1F3E70E943E
:1022F0006D23A0E0B0E1EDE2F3E0552744E00E9459
:102300008B240E946523E0E8F2E70E946D230E947F
:102310007423E8E2F3E70E946D23A0E0B0E1E1E37B
:10232000F3E0552744E00E948B240E946523E0E8F7
:10233000F2E70E946D230E94742381E080933603AC
:10234000E1E1F0E0A6E3B3E07BE70E94CC33E5E017
:10235000F0E00E9494238CE10E9477230E94742372
:1023600084E690E00E94C623ECE3F3E70E946D232D
:102370000E947423E5E0F0E00E94942380E08093C3
:1023800047031C981D981B980C94E300E9E2F3E0C6
:102390000E946234E8EEF2E00E945D340E94AD35A6
:1023A000EDE0F0E0A5E2B3E00E94B133E1E3F3E059
:1023B0000E946234E5E2F3E00E945D340E9415352C
:1023C000EDE0F0E0A5E2B3E00E94B133E2E7FEE623
:1023D0000E940A36E5E2F3E00E945D340E946E3509
:1023E000EDE0F0E0A5E2B3E00E94B133E6E9FEE6FD
:1023F0000E940A36E5E2F3E00E945D340E94BC359B
:10240000EDE0F0E0A5E2B3E00E94B133E5E2F3E0F5
:102410000E945D34EAE9FEE60E940A360E944434D6
:1024200081E008F080E08F93E5E2F3E00E945D3404
:10243000EEE9FEE60E940A360E94443480E010F085
:1024400009F081E09F91892B882311F40C942E12BE
:10245000A5E2B3E0E2EAFEE60E94E331089507B1A7
:10246000007E07B90E94D231A7EFB2E08D939C9312
:1024700007B1007E016007B90E94D231A9EFB2E036
:102480008D939C9307B1007E026007B90E94D23100
:10249000ABEFB2E08D939C9307B1007E036007B968
:1024A0000E94D231ADEFB2E08D939C9307B1007ED4
:1024B000046007B90E94D231AFEFB2E08D939C93D4
:1024C000CA990C94661281E080930103CA9B0C9414
:1024D0006C1280E08093010300910103013011F040
:1024E0000C948212A9E1B3E08D919C91ABE1B3E031
:1024F0008D939C931C9A1D9AE2E0F0E00E94942335
:102500001C981D98C9990C94881281E0809302034D
:10251000C99B0C948E1280E0809302030091020309
:10252000013011F00C94801300917203003011F00F
:102530000C94021381E080937203A7E8B3E04D91FD
:102540005527AAE4B0E00D911C910417150710F06F
:102550000C94AE12AAE4B0E00E94502381E0809374
:102560008903AEE9B3E04D915527A8E4B0E00D91A1
:102570001C910417150710F00C94C212A8E4B0E0E7
:102580000E94502381E08093A003A5EBB3E04D911E
:102590005527A8E7B0E00D911C910417150710F01E
:1025A0000C94D612A8E7B0E00E94502382E390E09A
:1025B0000E94C62383B198E0892783B9A7E8B3E0D6
:1025C0004D915527AAE4B0E00D911C910417150711
:1025D00011F00C949A12A7E8B3E08C9199279BBD57
:1025E0008ABDAEE9B3E08C91992799BD88BDA5EB72
:1025F000B3E08C91992790937900809378001B9891
:102600000C947C1300917203013011F00C947C1334
:1026100080E080937203A8E8B3E04D915527AAE4C7
:10262000B0E00D911C910417150718F011F00C94EF
:102630001B130C941F13AAE4B0E00E94572380E000
:1026400080938903AFE9B3E04D915527A8E4B0E04A
:102650000D911C910417150718F011F00C9432130A
:102660000C943613A8E4B0E00E94572380E08093D6
:10267000A003A6EBB3E04D915527A8E7B0E00D917C
:102680001C910417150718F011F00C9449130C94C1
:102690004D13A8E7B0E00E94572383B198E0892743
:1026A00083B983B190E1892783B982E390E00E94E6
:1026B000C623A8E8B3E04D915527AAE4B0E00D91F8
:1026C0001C910417150711F00C9408131B981C9803
:1026D000A8E8B3E08C9199279BBD8ABDAFE9B3E030
:1026E0008C91992799BD88BDA6EBB3E08C91992771
:1026F00090937900809378008AEF90E00E94C6233F
:102700009F9B0C949013009104030A3F10F00C94CB
:102710008E13A4E0B3E08C918F5F8C930C9496138E
:102720009F990C94961380E0809304030091040316
:102730000A3018F011F00C949F130C94A41380E04D
:10274000809303030C94A71381E0809303030895FF
:1027500000917203003011F00C94161481E0809304
:102760007203A7E8B3E04D915527AAE4B0E00D91BC
:102770001C910417150710F00C94C213AAE4B0E0E2
:102780000E94502381E080938903AEE9B3E04D912C
:102790005527A8E4B0E00D911C910417150710F01F
:1027A0000C94D613A8E4B0E00E94502381E08093FB
:1027B000A003A5EBB3E04D915527A8E7B0E00D913C
:1027C0001C910417150710F00C94EA13A8E7B0E069
:1027D0000E94502382E390E00E94C62383B198E0D8
:1027E000892783B9A7E8B3E04D915527AAE4B0E063
:1027F0000D911C910417150711F00C94AE13A7E866
:10280000B3E08C9199279BBD8ABDAEE9B3E08C9172
:10281000992799BD88BDA5EBB3E08C91992790933A
:102820007900809378001B980C94901400917203A7
:10283000013011F00C94901480E080937203A8E8AA
:10284000B3E04D915527AAE4B0E00D911C91041717
:10285000150718F011F00C942F140C943314AAE4FB
:10286000B0E00E94572380E080938903AFE9B3E092
:102870004D915527A8E4B0E00D911C910417150760
:1028800018F011F00C9446140C944A14A8E4B0E02B
:102890000E94572380E08093A003A6EBB3E04D9104
:1028A0005527A8E7B0E00D911C910417150718F003
:1028B00011F00C945D140C946114A8E7B0E00E9430
:1028C000572383B198E0892783B983B190E18927A1
:1028D00083B982E390E00E94C623A8E8B3E04D915B
:1028E0005527AAE4B0E00D911C910417150711F0CB
:1028F0000C941C141B981C98A8E8B3E08C919927A1
:102900009BBD8ABDAFE9B3E08C91992799BD88BD85
:10291000A6EBB3E08C91992790937900809378008F
:1029200080E08093B703089500910E030A3018F0F9
:1029300011F00C949D140C942E1580E080930E03DE
:10294000A3EBB1E08C9186FB16F40C94BB141D9A9A
:10295000F89482E0E1E20E940E325CEC82E0E1E277
:102960000E94363254E482E0E1E20E9436327894EA
:102970001D980C9421151D9AF894AFE0B3E0E6E69B
:10298000FEE60E94E33182E0E1E20E940E325CEC5E
:1029900082E0E1E20E9436325EEB82E0E1E20E94F8
:1029A000363282E0A5E0B3E0E1E229E02A930E941A
:1029B0005E3282E0E1E20E940E32789488E0E5E047
:1029C000F3E00E942634402F00910D03041711F00C
:1029D0000C942015E6EAFEE60E940A36E5E0F3E0F4
:1029E000D190E0808FEFE7FE8827F82E082F0E9415
:1029F000DD340E941535EDE0F0E0AFE0B3E00E9479
:102A0000B133EEE7FEE60E940A36EFE0F3E00E9403
:102A10005D340E946E35EDE0F0E0AFE0B3E00E947F
:102A2000B133EFE0F3E00E94E936EDE0F0E00E9420
:102A30006D34A3E1B3E0EE0C000FE794DD92EC926D
:102A40001D98A3EBB1E08C9186FB882780F98095D7
:102A500080FBA3EBB1E08C9186F98C930895809173
:102A600056010E94A523AEEAB1E08C9380915701F4
:102A70000E94A523ADEAB1E08C93809158010E9499
:102A8000A523ACEAB1E08C93809159010E94A52363
:102A9000AFEAB1E08C9380915A010E94A523A0EB8C
:102AA000B1E08C9380915B010E94A523A1EBB1E082
:102AB0008C93AEEAB1E08C9180688C930E94DD2308
:102AC0001EED0E94F32310E00E94F3231091AE014B
:102AD0000E94F3231091AD010E94F3231091AC01E9
:102AE0000E94F3230E94ED230E94DD231EED0E942D
:102AF000F32313E00E94F32319E00E94F3231091C3
:102B0000AF010E94F3231091B0010E94F3231091B2
:102B1000B1010E94F3230E94ED230E94DD231EEDEC
:102B20000E94F32317E00E94F32310E40E94F32392
:102B30000E94ED23E6E6F3E70E9483230E94282407
:102B4000A5E6B1E00E947D23E0E4F1E70E94832343
:102B50000E942824ACE5B1E00E947D230E948A23D4
:102B6000E1E0F0E00E94942308950E94DD231EED31
:102B70000E94F32310E00E94F3230E94ED230E94A1
:102B8000DD231FED0E94F3230E941024AEEAB1E082
:102B90001C930E941024ADEAB1E01C930E940E2405
:102BA000ACEAB1E01C930E94ED230E94DD231EEDF0
:102BB0000E94F32313E00E94F3230E94ED230E945E
:102BC000DD231FED0E94F3230E941024A2EBB1E04D
:102BD0001C930E941024AFEAB1E01C930E941024C1
:102BE000A0EBB1E01C930E940E24A1EBB1E01C937A
:102BF0000E94ED237091B3017F777093B301A2EB34
:102C0000B1E00C9105FB16F00C943F167091B301E6
:102C100070687093B301AEEAB1E08C918F778C93BA
:102C2000A0EBB1E08C918F7D8C939091AE010E94CE
:102C3000AC23A6E5B1E08C939091AD010E94AC234A
:102C4000A7E5B1E08C939091AC010E94AC23A8E57C
:102C5000B1E08C939091AF010E94AC23A9E5B1E063
:102C60008C939091B0010E94AC23AAE5B1E08C93C3
:102C70009091B1010E94AC23ABE5B1E08C930E942E
:102C80002824E5E6F1E0A4EBB1E00E94AC3308951E
:102C90000895089508951C9AA1E2B0E00C9107FBF5
:102CA00081E00EF480E08F9300911803003081E002
:102CB00009F080E09F918923882311F40C947E16FB
:102CC000F894B89AC09AB89AC09AC39A0E94B62348
:102CD0000E947926ADECB3E09C9381E00E9492289B
:102CE000ABEDB1E09C937894E0E7F3E70E94832397
:102CF0000E948A2384EF91E00E94C6231C980895C5
:102D0000A1E2B0E00C9107FB81E00EF480E08F932C
:102D100000911803003081E009F080E09F91892341
:102D2000882311F40C94FF161C9AA0E0B0E1E8E7A8
:102D3000F3E70E94CC31A0E0B0E10E94A3290E94F9
:102D40004F2EA8EEB1E08C93A9EEB1E0ECE7F3E7EB
:102D50000E94CC318091E801A9EEB1E00E94F929EE
:102D6000AFE7B2E088278C930E942824ECE5F1E0DD
:102D7000AFE7B2E00E94AC33AFE7B2E00E945E235F
:102D8000E6E8F3E70E94CC310E942824E5E6F1E072
:102D9000AFE7B2E00E945E230E94AC33AFE7B2E03F
:102DA0000E945E23E6E8F3E70E94CC31E3E3F2E021
:102DB000AFE7B2E00E945E230E94AC338091E8014D
:102DC000AFE7B2E00E942A2AA3E3B2E088278C93FF
:102DD000AFE7B2E088278C93A0E0B0E1E8E8F3E742
:102DE0000E94CC31A0E0B0E10E94A3298091E801CB
:102DF0000E94682A8091E8010E94562A1C98089532
:102E000080E090E0A5EEB2E08D939C93A1E2B0E06B
:102E10000C9107FB81E00EF480E08F930091180382
:102E2000003081E009F080E09F918923882311F42C
:102E30000C9475181C9AA0E0B0E1E8E7F3E70E9453
:102E4000CC31A0E0B0E10E94A3290E944F2EA8EE51
:102E5000B1E08C93A9EEB1E0EAE8F3E70E94CC314F
:102E60008091E801A9EEB1E00E94F929AFE7B2E054
:102E700088278C930E942824ECE5F1E0AFE7B2E0CC
:102E80000E94AC33AFE7B2E00E945E23E6E8F3E7CE
:102E90000E94CC310E942824E5E6F1E0AFE7B2E0E1
:102EA0000E945E230E94AC33AFE7B2E00E945E2333
:102EB000E6E8F3E70E94CC31A5E3B0E08C9182FB19
:102EC000AFE7B2E00E945E230E94FB318D9388271A
:102ED0008C93AFE7B2E00E945E23E6E8F3E70E943E
:102EE000CC31A5E3B0E08C9183FBAFE7B2E00E9468
:102EF0005E230E94FB318D9388278C93AFE7B2E06D
:102F00000E945E23E6E8F3E70E94CC31A5E3B0E03F
:102F10008C9181FBAFE7B2E00E945E230E94FB31FF
:102F20008D9388278C93AFE7B2E00E945E23E6E89A
:102F3000F3E70E94CC31A5E3B0E08C9180FBAFE7D2
:102F4000B2E00E945E230E94FB318D9388278C9310
:102F5000AFE7B2E00E945E23E6E8F3E70E94CC31DF
:102F6000A5E3B0E08C9184FBAFE7B2E00E945E2362
:102F70000E94FB318D9388278C93AFE7B2E00E94CB
:102F80005E23E6E8F3E70E94CC31A5E3B0E08C9144
:102F900085FBAFE7B2E00E945E230E94FB318D9378
:102FA00088278C93AFE7B2E00E945E23E6E8F3E760
:102FB0000E94CC31AFE7B2E00E945E23EAE4F0E089
:102FC0000E942433AFE7B2E00E945E23E6E8F3E715
:102FD0000E94CC31AFE7B2E00E945E23E8E4F0E06B
:102FE0000E942433AFE7B2E00E945E23E6E8F3E7F5
:102FF0000E94CC31AFE7B2E00E945E23E8E4F0E04B
:103000000E942433AFE7B2E00E945E23E6E8F3E7D4
:103010000E94CC31AFE7B2E00E945E23E5E2F3E02C
:10302000552744E00E948B24AFE7B2E00E945E2364
:10303000E6E8F3E70E94CC31AFE7B2E00E945E23FE
:10304000E3E1F3E00E942D33AFE7B2E00E945E239C
:10305000E6E8F3E70E94CC31AFE7B2E00E945E23DE
:10306000E3E0F3E00E943433AFE7B2E00E945E2376
:10307000E6E8F3E70E94CC31AFE7B2E00E945E23BE
:10308000E1E0F3E00E943433AFE7B2E00E945E2358
:10309000E6E8F3E70E94CC31AFE7B2E00E945E239E
:1030A000E2E0F3E00E9434338091E801AFE7B2E060
:1030B0000E942A2AA3E3B2E088278C93AFE7B2E00C
:1030C00088278C93A0E0B0E1E8E8F3E70E94CC31D8
:1030D000A0E0B0E10E94A3298091E8010E94682A43
:1030E0008091E8010E94562A1C980895F894A1E264
:1030F000B0E00C9107FB81E00EF480E08F9300912B
:103100001803003081E009F080E09F918923882333
:1031100011F40C94FA1F1C9AE2E9F3E70E9483234E
:103120000E948A2384EF91E00E94C623A0E0B0E1D0
:10313000E8E7F3E70E94CC31A0E0B0E10E94672904
:10314000A0E0B0E1ECE9F3E70E94CC31A0E0B0E10F
:103150000E946729A0E0B0E1E4EAF3E70E94CC31E5
:10316000A0E0B0E1E4EFF1E00E94732AA4EFB1E047
:103170008C91803011F40C942A19EEEAF3E70E9446
:1031800083230E948A230E944F2EA8EEB1E08C93E5
:10319000A0E0B0E1E4EAF3E70E94CC318091E801DD
:1031A000A0E0B0E10E94EC298091E80194E1A2E85E
:1031B000B1E00E94372A8091E80194E1A7E9B1E0EB
:1031C0000E94372A8091E8010E94562AA2E8B1E0C5
:1031D0000E940C34082F083081E009F080E08F93C2
:1031E000A7E9B1E00E940C34082F083081E009F013
:1031F00080E09F918923882311F40C942A19E2E836
:10320000F1E0A5E6B1E00E94AC330E943B24E7E97F
:10321000F1E0ACE5B1E00E94AC330E9433240E949F
:103220002F1584E690E00E94C6230E94B515A3EBFB
:10323000B1E08C9187FB16F00C942A19A0E0B0E164
:10324000E4EAF3E70E94CC31A0E0B0E10E949D2DBA
:103250000E94FE2EA0E0B0E1E8E8F3E70E94CC3146
:10326000A0E0B0E10E94A3290E944F2EA8EEB1E099
:103270008C93A9EEB1E0EAEBF3E70E94CC318091A8
:10328000E801A9EEB1E00E94182A8091E8010E94AD
:103290003D2E08F409C0FA93EA93E4ECF3E70E94A8
:1032A000F9300E94F33022968091E8010E94562A5C
:1032B000A0E0B0E1E8E7F3E70E94CC31A0E0B0E1A4
:1032C0000E94A3290E944F2EA8EEB1E08C93A9EE94
:1032D000B1E0ECE7F3E70E94CC318091E801A9EE80
:1032E000B1E00E94F929A3E3B2E088278C93A3E31D
:1032F000B2E0E4E1FFE60E94CC31A3E3B2E00E9439
:103300005E23E6E7F1E70E94CC310E942824ECE539
:10331000F1E0A3E3B2E00E945E230E94AC33A3E39A
:10332000B2E00E945E23E6E7F1E70E94CC310E9402
:103330002824E5E6F1E0A3E3B2E00E945E230E94C8
:10334000AC338091E8010E943D2E08F409C0FA9345
:10335000EA93E8EAF1E70E94F9300E94F3302296FE
:103360008091E8010E943D2E08F40DC0FA93EA9383
:10337000ECEFF0E70E94F930A3E3B2E00E94E63000
:103380000E94F3302296A3E3B2E088278C938091C9
:10339000E8010E94562AA0E0B0E1E8E8F3E70E94C5
:1033A000CC31A0E0B0E10E94A329A0E0B0E1ECE9BB
:1033B000F3E70E94CC31A0E0B0E10E94A329A0E095
:1033C000B0E1E4EDF3E70E94CC31A0E0B0E1E4EF3E
:1033D000F1E00E94732AA4EFB1E00E940C34A4EE45
:1033E000B2E08C930091E402003011F00C94931C35
:1033F0000E944F2EA8EEB1E08C93A9EEB1E0E0EE72
:10340000F3E70E94CC318091E801A9EEB1E00E947F
:10341000182A8091E8010E943D2E08F409C0FA9311
:10342000EA93ECEEF3E70E94F9300E94F330229623
:103430008091E8010E943D2E08F409C0FA93EA93B6
:10344000E4E0F4E70E94F9300E94F3302296809184
:10345000E8010E943D2E08F409C0FA93EA93E8EAD5
:10346000F1E70E94F9300E94F33022968091E80142
:103470000E943D2E08F409C0FA93EA93ECE2F4E7C7
:103480000E94F9300E94F33022968091E8010E9458
:103490003D2E08F409C0FA93EA93E6E4F4E70E94AB
:1034A000F9300E94F33022968091E8010E943D2E6F
:1034B00008F409C0FA93EA93E0E6F4E70E94F930D1
:1034C0000E94F33022968091E8010E943D2E08F47C
:1034D00009C0FA93EA93EAE7F4E70E94F9300E9400
:1034E000F33022968091E8010E943D2E08F409C035
:1034F000FA93EA93EEE8F4E70E94F9300E94F33081
:1035000022968091E8010E943D2E08F409C0FA93AA
:10351000EA93E2EAF4E70E94F9300E94F33022963F
:103520008091E8010E943D2E08F409C0FA93EA93C5
:10353000E4ECF4E70E94F9300E94F3302296809187
:10354000E8010E943D2E08F409C0FA93EA93E6E4EC
:10355000F4E70E94F9300E94F33022968091E8014E
:103560000E943D2E08F409C0FA93EA93E0E6F4E7DE
:103570000E94F9300E94F33022968091E8010E9467
:103580003D2E08F409C0FA93EA93EEEDF4E70E94A9
:10359000F9300E94F33022968091E8010E943D2E7E
:1035A00008F409C0FA93EA93E2EFF4E70E94F930D5
:1035B0000E94F33022968091E8010E943D2E08F48B
:1035C00009C0FA93EA93E6E0F5E70E94F9300E9419
:1035D000F33022968091E8010E943D2E08F409C044
:1035E000FA93EA93E8E2F5E70E94F9300E94F3309B
:1035F00022968091E8010E943D2E08F409C0FA93BA
:10360000EA93E6E4F4E70E94F9300E94F330229650
:103610008091E8010E943D2E08F409C0FA93EA93D4
:10362000E0E6F4E70E94F9300E94F33022968091A0
:10363000E8010E943D2E08F409C0FA93EA93E2E4FF
:10364000F5E70E94F9300E94F33022968091E8015C
:103650000E943D2E08F409C0FA93EA93E6E5F5E7E7
:103660000E94F9300E94F33022968091E8010E9476
:103670003D2E08F409C0FA93EA93EAE6F5E70E94C2
:10368000F9300E94F33022968091E8010E943D2E8D
:1036900008F409C0FA93EA93E8EAF1E70E94F930E6
:1036A0000E94F33022968091E8010E943D2E08F49A
:1036B00009C0FA93EA93ECE8F5E70E94F9300E941A
:1036C000F33022968091E8010E943D2E08F409C053
:1036D000FA93EA93E6EAF5E70E94F9300E94F330A4
:1036E00022968091E8010E943D2E08F409C0FA93C9
:1036F000EA93E8EAF1E70E94F9300E94F33022965B
:103700008091E8010E943D2E08F409C0FA93EA93E3
:10371000EAECF5E70E94F9300E94F330229680919E
:10372000E8010E943D2E08F409C0FA93EA93E4EE02
:10373000F5E70E94F9300E94F33022968091E8016B
:103740000E943D2E08F409C0FA93EA93EAEFF5E7E8
:103750000E94F9300E94F33022968091E8010E9485
:103760003D2E08F409C0FA93EA93E0E1F6E70E94DF
:10377000F9300E94F33022968091E8010E943D2E9C
:1037800008F409C0FA93EA93E6E2F6E70E94F930FA
:103790000E94F33022968091E8010E943D2E08F4A9
:1037A00009C0FA93EA93E8EAF1E70E94F9300E942F
:1037B000F33022968091E8010E943D2E08F409C062
:1037C000FA93EA93ECE3F6E70E94F9300E94F330B3
:1037D00022968091E8010E943D2E08F409C0FA93D8
:1037E000EA93E6E5F6E70E94F9300E94F33022966C
:1037F0008091E8010E943D2E08F409C0FA93EA93F3
:10380000E8EAF1E70E94F9300E94F33022968091B5
:10381000E8010E943D2E08F409C0FA93EA93EEE60F
:10382000F6E70E94F9300E94F33022968091E80179
:103830000E943D2E08F409C0FA93EA93E8E8F6E7FF
:103840000E94F9300E94F33022968091E8010E9494
:103850003D2E08F409C0FA93EA93E4EAF6E70E94E1
:10386000F9300E94F33022968091E8010E943D2EAB
:1038700008F409C0FA93EA93E8EAF1E70E94F93004
:103880000E94F33022968091E8010E943D2E08F4B8
:1038900009C0FA93EA93E0ECF6E70E94F9300E943F
:1038A000F33022968091E8010E943D2E08F409C071
:1038B000FA93EA93ECEDF6E70E94F9300E94F330B8
:1038C00022968091E8010E943D2E08F409C0FA93E7
:1038D000EA93E2EFF6E70E94F9300E94F330229675
:1038E0008091E8010E943D2E08F409C0FA93EA9302
:1038F000E8E0F7E70E94F9300E94F3302296A0E05A
:10390000B0E1E8E8F3E70E94CC31A0E0B0E10E942A
:10391000A3298091E8010E94682A8091E8010E9411
:10392000562A0C94BD1F0091E402003011F40C944F
:10393000BD1F0E944F2EA8EEB1E08C93A9EEB1E01E
:10394000E0EEF3E70E94CC318091E801A9EEB1E00E
:103950000E94EC298091E80198E2A9E0B2E00E947F
:10396000372A8091E80198E2A9E0B2E00E94372A64
:103970008091E80198E2A9E0B2E00E94372A8091A4
:10398000E80198E2A9E0B2E00E94372AA9E0B2E09B
:1039900088278C938091E80198E2A9E0B2E00E9428
:1039A000372AE9E0F2E003E0A9E0B2E00E94BE338A
:1039B000A9E0B2E00E947A33A7E8B3E00C93E2E515
:1039C000F0E0A7E8B3E07BE70E94CC338091E80108
:1039D00098E2A9E0B2E00E94372AE9E0F2E003E0D1
:1039E000A9E0B2E00E94BE33A9E0B2E00E947A33BF
:1039F000A8E8B3E00C93E3E5F0E0A8E8B3E07BE7E8
:103A00000E94CC338091E80198E2A9E0B2E00E94E4
:103A1000372AE9E0F2E008E0A9E0B2E00E94BE3314
:103A2000E9E0F2E0A5E7B3E00E94AC33E0E4F0E0C7
:103A3000A5E7B3E07BE70E94DD338091E80198E2DF
:103A4000A9E0B2E00E94372AE9E0F2E008E0A9E04C
:103A5000B2E00E94BE33E9E0F2E0AEE7B3E00E94DC
:103A6000AC33E9E4F0E0AEE7B3E07BE70E94DD339E
:103A70008091E80198E2A9E0B2E00E94372AE9E0EB
:103A8000F2E004E0A9E0B2E00E94BE33A9E0B2E0B7
:103A90000E947A33ACE6B3E00D931C93EAE3F0E0C6
:103AA000ACE6B3E07BE70E94CE338091E80198E278
:103AB000A9E0B2E00E94372AA9E0B2E088278C93FF
:103AC0008091E80198E2A9E0B2E00E94372AE9E09B
:103AD000F2E003E0A9E0B2E00E94BE33A9E0B2E068
:103AE0000E947A33AEE9B3E00C93E6E6F0E0AEE98B
:103AF000B3E07BE70E94CC338091E80198E2A9E033
:103B0000B2E00E94372AE9E0F2E003E0A9E0B2E087
:103B10000E94BE33A9E0B2E00E947A33AFE9B3E07D
:103B20000C93E7E6F0E0AFE9B3E07BE70E94CC332B
:103B30008091E80198E2A9E0B2E00E94372AE9E02A
:103B4000F2E008E0A9E0B2E00E94BE33E9E0F2E072
:103B5000ACE8B3E00E94AC33E4E5F0E0ACE8B3E0FD
:103B60007BE70E94DD338091E80198E2A9E0B2E0B2
:103B70000E94372AE9E0F2E008E0A9E0B2E00E9402
:103B8000BE33E9E0F2E0A5E9B3E00E94AC33EDE535
:103B9000F0E0A5E9B3E07BE70E94DD338091E80126
:103BA00098E2A9E0B2E00E94372AE9E0F2E004E0FE
:103BB000A9E0B2E00E94BE33A9E0B2E00E947A33ED
:103BC000AEE6B3E00D931C93ECE3F0E0AEE6B3E0B9
:103BD0007BE70E94CE338091E80198E2A9E0B2E051
:103BE0000E94372AA9E0B2E088278C938091E801EF
:103BF00098E2A9E0B2E00E94372AE9E0F2E003E0AF
:103C0000A9E0B2E00E94BE33A9E0B2E00E947A339C
:103C1000A5EBB3E00C93EAE7F0E0A5EBB3E07BE7BC
:103C20000E94CC338091E80198E2A9E0B2E00E94C2
:103C3000372AE9E0F2E003E0A9E0B2E00E94BE33F7
:103C4000A9E0B2E00E947A33A6EBB3E00C93EBE775
:103C5000F0E0A6EBB3E07BE70E94CC338091E80173
:103C600098E2A9E0B2E00E94372AE9E0F2E008E039
:103C7000A9E0B2E00E94BE33E9E0F2E0A3EAB3E0DB
:103C80000E94AC33E8E6F0E0A3EAB3E07BE70E94F1
:103C9000DD338091E80198E2A9E0B2E00E94372A82
:103CA000E9E0F2E008E0A9E0B2E00E94BE33E9E01A
:103CB000F2E0ACEAB3E00E94AC33E1E7F0E0ACEA5A
:103CC000B3E07BE70E94DD338091E80198E2A9E050
:103CD000B2E00E94372AE9E0F2E004E0A9E0B2E0B5
:103CE0000E94BE33A9E0B2E00E947A33A0E7B3E0BD
:103CF0000D931C93EEE3F0E0A0E7B3E07BE70E94B6
:103D0000CE338091E80198E2A9E0B2E00E94372A20
:103D10008091E80198E2A9E0B2E00E94372AA9E088
:103D2000B2E088278C938091E80198E2A9E0B2E0A4
:103D30000E94372AE9E0F2E003E0A9E0B2E00E9445
:103D4000BE33A9E0B2E00E947A33ADE1B3E00D9357
:103D50001C93E3E0F0E0ADE1B3E07BE70E94CE33FB
:103D60008091E80198E2A9E0B2E00E94372A8091B0
:103D7000E80198E2A9E0B2E00E94372AA9E0B2E0A7
:103D800088278C938091E80198E2A9E0B2E00E9434
:103D9000372AE9E0F2E008E0A9E0B2E00E94BE3391
:103DA000E9E0F2E0A8E4B3E00E94AC33E6E1F0E041
:103DB000A8E4B3E07BE70E94DD338091E80198E25C
:103DC000A9E0B2E00E94372AE9E0F2E008E0A9E0C9
:103DD000B2E00E94BE33E9E0F2E0A1E5B3E00E9468
:103DE000AC33EFE1F0E0A1E5B3E07BE70E94DD3327
:103DF0008091E80198E2A9E0B2E00E94372AE9E068
:103E0000F2E008E0A9E0B2E00E94BE33E9E0F2E0AF
:103E1000AAE5B3E00E94AC33E8E2F0E0AAE5B3E043
:103E20007BE70E94DD338091E80198E2A9E0B2E0EF
:103E30000E94372AE9E0F2E008E0A9E0B2E00E943F
:103E4000BE33E9E0F2E0A3E6B3E00E94AC33E1E385
:103E5000F0E0A3E6B3E07BE70E94DD338091E80168
:103E600098E2A9E0B2E00E94372A8091E80198E246
:103E7000A9E0B2E00E94372AA9E0B2E088278C933B
:103E80008091E80198E2A9E0B2E00E94372AE9E0D7
:103E9000F2E004E0A9E0B2E00E94BE33A9E0B2E0A3
:103EA0000E941736EDE0F0E0A7E3B3E00E94B133E3
:103EB000E2E1F0E0A7E3B3E094E07BE70E94CF33D8
:103EC0008091E80198E2A9E0B2E00E94372A80914F
:103ED000E80198E2A9E0B2E00E94372AA9E0B2E046
:103EE00088278C938091E80198E2A9E0B2E00E94D3
:103EF000372AE9E0F2E003E0A9E0B2E00E94BE3335
:103F0000A9E0B2E00E947A33A9E1B3E00D931C93DB
:103F1000E1E0F0E0A9E1B3E07BE70E94CE338091DD
:103F2000E80198E2A9E0B2E00E94372AE9E0F2E075
:103F300001E0A9E0B2E00E94BE33A9E0B2E00E9435
:103F40007A33A8EBB3E00C93ECE7F0E0A8EBB3E036
:103F50007BE70E94CC338091E8010E94682A80911F
:103F6000E8010E94562AA0E0B0E1E8E8F3E70E94E9
:103F7000CC31A0E0B0E10E94A3290E948F31A0EED5
:103F8000B1E00D931D932D933D930E948631A4EED5
:103F9000B1E00D931D932D933D93A0EEB1E00D91F3
:103FA0001D912D913C91A4EEB1E04D915D916D91EB
:103FB0007C910E940C33ACEDB1E00D931D932D93D9
:103FC0003D93EAE1F7E70E948323A0E0B0E1ECED46
:103FD000F1E00E942A330E947B23E0E2F7E70E948F
:103FE00083230E948A2384EF91E00E94C6231C98B9
:103FF0000C9403200F9B0C940320E4E2F7E70E944B
:1040000083230E948A23EEE2F7E70E9483230E9423
:104010008A23ECE3F7E70E948323A0E0B0E1E7E81E
:10402000F3E00E9434330E947B230E948A23E4E45D
:10403000F7E70E948323A0E0B0E1E8E8F3E00E9404
:1040400034330E947B230E948A23EEE4F7E70E9428
:104050008323A5E7B3E00E947D230E948A23E6E53F
:10406000F7E70E948323AEE7B3E00E947D230E941E
:104070008A23EEE5F7E70E948323A0E0B0E1ECE6B7
:10408000F3E00E9424330E947B230E948A23E8EA03
:10409000F1E70E9483230E948A23EEE6F7E70E945D
:1040A0008323A0E0B0E1EEE9F3E00E9434330E9404
:1040B0007B230E948A23E6E7F7E70E948323A0E0A0
:1040C000B0E1EFE9F3E00E9434330E947B230E94C9
:1040D0008A23E0E8F7E70E948323ACE8B3E00E947C
:1040E0007D230E948A23E8E8F7E70E948323A5E95D
:1040F000B3E00E947D230E948A23E0E9F7E70E9453
:104100008323A0E0B0E1EEE6F3E00E9424330E94B6
:104110007B230E948A23E8EAF1E70E9483230E941E
:104120008A23E0EAF7E70E948323A0E0B0E1E5EB11
:10413000F3E00E9434330E947B230E948A23E8EA42
:10414000F7E70E948323A0E0B0E1E6EBF3E00E94F2
:1041500034330E947B230E948A23E2EBF7E70E941C
:104160008323A3EAB3E00E947D230E948A23EAEB23
:10417000F7E70E948323ACEAB3E00E947D230E940C
:104180008A23E2ECF7E70E948323A0E0B0E1E0E7B6
:10419000F3E00E9424330E947B230E948A23E8EAF2
:1041A000F1E70E9483230E948A23E2EDF7E70E9451
:1041B0008323A0E0B0E1EDE1F3E00E942D330E9403
:1041C0007B230E948A23E8EAF1E70E9483230E946E
:1041D0008A23ECEDF7E70E948323A8E4B3E00E9472
:1041E0007D23EAE6F1E70E948323A1E5B3E00E9484
:1041F0007D230E948A23E6EEF7E70E948323AAE547
:10420000B3E00E947D23EAE6F1E70E948323A3E660
:10421000B3E00E947D230E948A23E8EAF1E70E942E
:1042200083230E948A23E0EFF7E70E948323A0E024
:10423000B0E1E7E3F3E0552744E00E948B240E94BD
:104240007B230E948A23E8EAF1E70E9483230E94ED
:104250008A23E6EFF7E70E948323A0E0B0E1E9E1DB
:10426000F3E00E9424330E947B23E6E8F3E70E94F8
:104270008323A0E0B0E1E8EBF3E00E9434330E9436
:104280007B230E948A230E948A23ECEFF7E70E9497
:104290008323A0E0B0E1EDE2F3E0552744E00E9483
:1042A0008B240E947B230E948A23ECE0F8E70E9483
:1042B0008323A0E0B0E1E9E2F3E0552744E00E9467
:1042C0008B240E947B230E948A23ECE1F8E70E9462
:1042D0008323A0E0B0E1E1E3F3E0552744E00E944E
:1042E0008B240E947B230E948A230E94F30CE5E02A
:1042F000F0E00E94942378940895A1E2B0E00C913C
:1043000007FB81E00EF480E08F93009118030030EA
:1043100081E009F080E09F918923882311F40C94B7
:10432000E6211C9AA0E0B0E1E8E7F3E70E94CC3177
:10433000A0E0B0E10E94A3290E944F2EA8EEB1E0B8
:104340008C93A9EEB1E0E6E2F8E70E94CC318091CF
:10435000E801A9EEB1E00E94EC298091E80198E221
:10436000A9E0B2E00E94372AA9E0B2E00E946723E8
:104370000E947423A9E0B2E088278C938091E80121
:104380000E945F2AA2E3B2E08C93009132020030D7
:1043900011F40C94AD21E0E3F8E70E946D230E9434
:1043A00074238091E8010E94682A8091E8010E94AC
:1043B000562AA0E0B0E1E8E8F3E70E94CC31A0E0A3
:1043C000B0E10E94A3291C980C94EF210F9B0C9440
:1043D000EF21E4E2F7E70E9483230E948A230895F5
:1043E000A1E2B0E00C9107FB81E00EF480E08F9336
:1043F00000911803003081E009F080E09F9189234B
:10440000882311F40C943B221C9AA0E0B0E1E8E769
:10441000F3E70E94CC31A0E0B0E10E94A3290E9402
:104420004F2EA8EEB1E08C93A0E0B0E1E6E2F8E711
:104430000E94CC31A0E0B0E10E949D2D0E94FE2E92
:104440008091E8010E94682A8091E8010E94562A22
:10445000A0E0B0E1E8E8F3E70E94CC31A0E0B0E1F1
:104460000E94A329E6E3F8E70E946D230E947423CB
:104470001C980C9444220F9B0C944422E4E2F7E72E
:104480000E9483230E948A2308950F921F922F92E5
:104490003F924F925F927F92AF92BF920F931F9382
:1044A0002F933F934F935F936F937F938F939F933C
:1044B000AF93BF93CF93DF93EF93FF938FB78F9318
:1044C0001B9AA4E3B1E0AD90BB24AEEFB0E0AA0D1F
:1044D000BB1D0C910D3081E009F080E08F930091BD
:1044E0003401023080E010F009F081E09F918923CF
:1044F000882311F40C94B6220091340142E0041B8D
:10450000A9EDB1E00C9381E08093DA014091D901EB
:104510000091DA01041718F011F00C94A922AAED09
:10452000B1E0AD90BB24AFEFB0E0AA0DBB1D8C9104
:10453000AAEDB1E0AD90BB24A3ECB1E0AA0DBB1D88
:104540008C93AAEDB1E08C918F5F8C9310F40C9456
:10455000862281E08093C10180E090E0A2ECB1E08E
:104560008D939C93A2E3B1E00E94FE328F918FBFA6
:10457000FF91EF91DF91CF91BF91AF919F918F917B
:104580007F916F915F914F913F912F911F910F916B
:10459000BF90AF907F905F904F903F902F901F9073
:1045A0000F90A2E3B1E00E94FE320895F8940F92BA
:1045B0001F922F923F924F925F927F92AF92BF9243
:1045C0000F931F932F933F934F935F936F937F931B
:1045D0008F939F93AF93BF93CF93DF93EF93FF930B
:1045E0008FB78F93A3E5B1E00E94FE328F918FBF0A
:1045F000FF91EF91DF91CF91BF91AF919F918F91FB
:104600007F916F915F914F913F912F911F910F91EA
:10461000BF90AF907F905F904F903F902F901F90F2
:104620000F90789408950F921F922F923F924F927D
:104630005F927F92AF92BF920F931F932F933F93FE
:104640004F935F936F937F938F939F93AF93BF939A
:10465000CF93DF93EF93FF938FB78F9384E982BF5C
:10466000ADEBB1E00E9450238F918FBFFF91EF918E
:10467000DF91CF91BF91AF919F918F917F916F917A
:104680005F914F913F912F911F910F91BF90AF90EC
:104690007F905F904F903F902F901F900F901895B4
:1046A000ED91FC91EF5FFF4FFC93EE930895ED9138
:1046B000FC91E150F040FC93EE9308958F938D911F
:1046C0008823E9F711978F910895A0E0B0E18D91CB
:1046D000882311F00CD0FBCF08950E94DB31802D90
:1046E00011F005D0FACF08958DE001D08AE05D9BEE
:1046F000FECF8CB90895A0E0B0E18D91882311F030
:104700000CD0FBCF08950E94DB31802D11F005D035
:10471000FACF08958DE001D08AE000909B0005FE5D
:10472000FCCF80939C00089588EE93E02FD03197C2
:10473000D9F70895982F82958F70805D8D939F7023
:10474000905D9D9388278C9308954AE0082F0E94DE
:10475000FC330295802B0895892F8F70905110F0B3
:10476000865FFCCF08953197F1F70895B99ABB9809
:10477000C39ABA9AB89A8CE58DB9089508950895A8
:10478000689462F80895E89462F80895EF93FF93AF
:10479000EE27E82BE92B31F0EDECFAE03197F1F759
:1047A0000197D1F7FF91EF91089589988898919892
:1047B000909808958998889803D0899A01D0889A0A
:1047C000EF93FF93EAE0F0E00E94B323FF91EF91B3
:1047D00008958898809BFECF0895899AF1DFF9DFCC
:1047E000EFDF8998EDCF0894111F01C0110F61F020
:1047F00018F40000899802C0899A00C0E1DFE9DF5F
:10480000DFDF889ADDDFF2CF8998DADFE2DFD8DFF9
:10481000E8948199689462F8889AD2CF089401C08C
:104820008894331F11E08998D4DF88948199089483
:10483000111F0FB6C5DF889AC3DF0FBEA8F73795E3
:1048400010F4899801C0899AC4DFBADF889AB8CF7A
:104850000E944816ACE5B1E0E9E5F1E00E947B2456
:1048600033970C945724ECE5F1E0A9E5B1E00E9400
:1048700069240C944916E5E6F1E0A6E5B1E00E9452
:1048800045240C944A16ADE0BB27868197810E948F
:104890008E320D93838194810E948E320D9380819C
:1048A00091810E948E320D930895EDE0FF27828161
:1048B0000E9483328AE38D9381810E9483328AE34E
:1048C0008D9380810E94833288278C930895ADE078
:1048D000BB27808191810E948E320D9383819481C8
:1048E0000E948E320D93868197810E948E320D93A5
:1048F0000895EDE0FF2780810E9483328FE28D933F
:1049000081810E9483328FE28D9382810E94833263
:1049100088278D9308950E945D340E94B33417FF59
:1049200003C08DE28D931127003821F4E4EFFBE4FE
:104930000C94CC310F3741F4FF2019F4EAEEFBE47C
:10494000F7CFE6EEFBE4F4CF4A934A934A935A93A7
:10495000BA93AA93BB270F5F02F5BB27802F0A9556
:104960000E94BD348D3E90F4E4E4FCE4A3E00E9498
:104970000A360E944434BB1FB0FF06C070970E94E5
:104980000A360E946E353C96AA9589F7E0E4FCE46D
:104990000E940A360E946E3522C0093058F1033158
:1049A00078F10A3130F418E08BE192E9E8EFFBE4AA
:1049B0002EC00A950E94BD34E8E3FCE4BFEFA3E0FB
:1049C0000E940A360E944434BB1FB0FD06C03896D0
:1049D0000E940A360E946E353C97AA9589F7B095D9
:1049E000BB0F0E94B334039513E08AEF99E0F816E9
:1049F000090740F413E08BE094E0ECE0FCE407C02E
:104A000016E001C0B39583E194E2E0E0FCE46A8142
:104A1000BF3F19F4BB2711276260BD836A831C83E3
:104A2000A881B98160E36D93A883B9836D93081B56
:104A30000195AA24BB246A816A7F002339F0F69489
:104A4000E794D794B794A7940A95F7CF19E0002775
:104A50000E940A36CC248FEF74E0AC14B206D30661
:104A6000E406F50630F0AC18B20AD30AE40AF50AF7
:104A700021F1881F7A9531F05695479537952795FE
:104A8000C794EBCF809522D041F0969508F7FE2C85
:104A9000ED2CDB2CBA2CAA24DBCF25D05D813C8108
:104AA0002B8170D0277021F02BD06CD0E8F301C09F
:104AB0003CD04CD078D0269608958894881F7A955B
:104AC000E9F7809503D049F38827FCCF806360FD28
:104AD00006C0803311F0616002C0039561FD8D93C3
:104AE00060FD1A95089599278E919C9385338E9138
:104AF00008F083958A3308F080E38C93C0F708951B
:104B0000732F720F61FF701B0AD01296785019F044
:104B100050F38E9380E38E937150EAF70895A88145
:104B2000B981A70F8827B81F089579E061FD700F3C
:104B3000F6DF48E0431B400F8AF381F399274A953B
:104B400069F38E91803351F79C93F9CF732F61FFF6
:104B5000701B7395A881B981EA2FFB2F1197819162
:104B6000803361FF09F08D937A9511F48EE28D9375
:104B700081918823C1F7772311F480E38D938827EF
:104B80008C930895889462FD0895002359F4A881B8
:104B9000B9818C91803331F0552321F053953350F6
:104BA0006460089408955523E9F085E48D931AF420
:104BB0008DE28D935195652F660F560F5A3010F088
:104BC00060E503D068E001D0DACF8FEF74E05617CC
:104BD00008F0561B881F7A9511F06695F8CF8095DE
:104BE00080638D9308954E414E00496E66696E69EB
:104BF00074790000302E300000404B4C0020A1079B
:104C0000000050C3000088130000F40100000032CF
:104C10000000000500008000CCCCCC0C14AE470195
:104C20009CC42000DC460300E3530000630800003E
:104C3000D7000000150000001CC25367A5D46853BC
:104C40000024744915BE9A17CCBC8C2BBD37863511
:104C5000689401C0E8948F939F9396E6000000004B
:104C60009A95E1F798948091630C9091640C1EF4EE
:104C7000019708F401968093630C9093640C59F0AB
:104C80008091610C9091620C019708F401968093D9
:104C9000610C9093620C9F918F91089500E440E025
:104CA00050E060E070E088C008E44AEA51E0F9CFE3
:104CB00009E482C00AE480C000E540E052E0F1CFA0
:104CC00001E57AC008E578C00AE7E9CF0DECE7CF47
:104CD00009EEE5CF09EE40E050E060E070E46CC022
:104CE000C0D0702FBED0602FBCD0502FBAD0402F74
:104CF000B8C00E94B62300240ED100270093CC0335
:104D0000AED088EE93E0A6DF11F499EE16C10197BC
:104D1000D1F70AE00F93A5D00F910A95D9F7BEDF1E
:104D2000013069F000E4A0D000279ED000279CD07D
:104D300000279AD0002798D005E996D0DECFB4DFBF
:104D4000013009F01FC0CCDF513011F44A3A11F0A4
:104D50009AEEF3C0BFDF003021F07CDFD9F79BEE85
:104D6000ECC0B2DF003021F075DFD9F79CEEE5C072
:104D7000B7DF84E08093CC0376FF1DC08CE0809386
:104D8000CC0319C0A5DF023028F081E08093CC036A
:104D900001E404C082E08093CC0309EE0F937FDF2F
:104DA00000230F9121F056DFC9F79DEEC6C084DFC6
:104DB000002309F0A2CFBAC011E0003409F415E9CC
:104DC000083409F417E807FF14C00F931F934F939B
:104DD0005F936F937F9307E762DF7F916F915F919E
:104DE0004F911F91802F0F910F77823010F0082F75
:104DF0001EC035D02FDF31D01DD011F008EE17C006
:104E000033D0072F31D0062F2FD0052F2DD0042FD0
:104E10002BD0012F29D02F9324E623D0189407FFFD
:104E200005C018DF11F02A95C1F798942F910093CF
:104E3000CE0308950F938F939F9380E197E2809321
:104E4000630C9093640C0DD00F3F19F001DFD9F77C
:104E500098949F918F910F910895C0980895C09A4A
:104E600008950FEF01C000270FB90EB1001FE8F73A
:104E70000FB1089568D031F04ED03CD021DF00232F
:104E800011F091EF5AC0EDDF0E3F21F0E3DED9F7CC
:104E900092EF53C092E08827E4DF01930197E1F796
:104EA000E0DFDFDF43C04FD031F035D023D00ADF61
:104EB000002311F095EF41C0BDDF11F096EF3DC02A
:104EC0000EEFD2DF0D3F11F497EF37C092E0882745
:104ED0000191CADF0197E1F7C4DFC3DFC2DF0F71C1
:104EE0000093CF03053029F00093CE030695086F99
:104EF00024C01CC04091CC0343FD08C044275D91F1
:104F00006D917D91550F661F771F08954D915D91AD
:104F10006D917D9108958F939F9380E29EE480939D
:104F2000610C9093620C9F918F91089598DF99DFA7
:104F3000992788949093CD0308959F9390DF91DFF4
:104F40009F910894F7CF9091CC03992392EE089506
:104F5000EDCF91EEF2CF91EEF0CFF5DF29F0DBDF70
:104F6000A7DE002319F096EE0C949D27E0E0F0E117
:104F700078DF0E3F29F06EDEC9F797EE0C949D277F
:104F800090E080E16EDF01930197E1F76ADF69DF6E
:104F9000CDDFE0E0F0E19091CC03913081F08081B1
:104FA000807C803461F437813F7320851185002730
:104FB0001F5F2F4F3F4F110F221F331F1AC0332780
:104FC0002681237017810085007C005C1F4F2F4FC6
:104FD000818583709285990F881F11F011D0F1F7A8
:104FE00085818F7086500CD0F1F7012F122F232F5F
:104FF0003327E881F9810193119321933193089527
:10500000000F111F221F331F8A9508959CDF29F07E
:1050100082DF4EDE002319F096EE0C949D27E88186
:10502000F9811FDF0E3F29F015DEC9F797EE0C94CA
:105030009D2790E080E115DF01930197E1F711DFF3
:1050400010DF74CF80DF29F066DF34DE002319F033
:1050500096EE0C949D27E881F98103DF0E3F29F03D
:10506000F9DDC9F797EE0C949D2790E080E1F9DE19
:1050700001930197E1F7F5DEF4DE58CF64DF29F004
:105080004ADF22DE002319F096EE0C949D2728DEDD
:10509000E881F981719361935193419347CF53DF35
:1050A00029F039DF13DE002319F096EE0C949D27CA
:1050B000E881F981D6DED5DE0E3F29F0CBDDC1F7E0
:1050C00097EE0C949D2790E080E4CBDE019301974E
:1050D000E1F7C7DEC6DE2ACFE4EDF3E0ABE8B8E0E7
:1050E000992791931197E9F70895E894843059F03E
:1050F000863049F08E3039F068948B3021F08C3056
:1051000011F093E19EC30090D60300F80092D603FD
:1051100088940895E4E2F6E018D345555A4A09F414
:1051200008958FC38A93D8DFC9D3C0F091E1F2DF2D
:10513000A8F088818823F9F0E4EEF5E08A9511F073
:105140007096FCCF80818F7721F434968081CDDFFB
:1051500038F48881823078F093E173C3219671C36B
:105160008093D5033496A1E2B4E00CD3A7D388F39F
:1051700092E1D0DF98F38991E1E3F4E0E6D2405088
:10518000524094E1F9F4A4E3B4E0DCD2A1E2B4E04B
:10519000AFD2A5D2A7EDB3E0BFD2ACE3B4E0D0D29A
:1051A0004050504019F4AAE4B4E0ACD2ECEDF3E086
:1051B000BDD2809136048093DB0396E1882311F001
:1051C000833008F03EC38DD281FD8BD2A0EEB3E0D8
:1051D000A3D2A7E3B4E0B6D2A4EEB3E0B9D284E0A0
:1051E000C7D27DD2A6EEB3E097D2A1E2B4E08AD2D4
:1051F0000E940C33B3D2E9E3F4E09DD2005010409A
:1052000019F4E6E4F4E079D20E940C33809133047F
:105210008093EA0395E18823A9F28695F0F791F649
:10522000A3D157D2ABEEB3E077D20090D60300FA09
:105230008091D503882379F4E89486E00F5F164FB8
:105240002040304010F068948BE88093D503992774
:1052500090F99093D6033EF4A2E5B4E049D299D1F7
:10526000A0EEB3E059D282E08093EF03A0EEB3E06A
:105270003FD2A7EFB3E050D2ADEFB3E04DD2E9C2D9
:105280002497088319832A833B8308950881198111
:105290002A813B81089580E1FF93EF9380628F9391
:1052A000A4D58F918387028F138F248B358BAE2FDC
:1052B000BF2FE3E1F4E08BE066D213960E946131E8
:1052C00014960E946131EAD2EF91FF91089535D48E
:1052D00009F0BBC256D310F092E3B3C2ABD150F188
:1052E0008AD2CEDFAED318F1D1DFD5DFCFDF0E9477
:1052F000F52FA3E1B4E08EE28D9380E29AE08D93E6
:105300009A95E9F7C3DFC7DFFF93EF9314D011F04D
:105310002BD101C0D9D18EE280931404EF91FF917B
:10532000B096B9DF0E941C3010F00E942D308FB76C
:1053300024968FBF0895A7EFB3E0DAD1A0EEB3E0D3
:10534000E1D10C9411338C918E32D1F4A7EFB3E0FC
:10535000CFD1BDD2B09680818E3209F037C0009097
:10536000D60300FA22273327028D138D16F42489E1
:105370003589F9D119F4A0EEB3E01BC00AD11AC0E7
:105380008C35C9F3DAD309F060C2FBD2F0F0838523
:105390008F7CF1F40090D60322273327028D138DE2
:1053A00000FE02C024893589F4D091D270F0A1E2C8
:1053B000B4E09ED1A7EFB3E0AFD1ADEFB3E0ACD195
:1053C000ABEFB3E081D1C7D144C2089595E339C2B0
:1053D00096E337C264D448F0B0D331F48F9391E0B0
:1053E00070D48F9110F035C230C28827089557D4F9
:1053F000D8F0A3D3D1F48F9398E063D48F9120F4A5
:10540000923481F498E01FC0FA93EA93908D95FD51
:1054100007C0D5D18F9398940E948D308F9108F05A
:1054200017C222968827089408950FC238D448F0EE
:1054300084D331F48F9392E0A3D48F9110F009C2FA
:1054400004C2882708958F9396D48F9108F001C2E3
:105450008827089512D450F0FA93EA930E94E63018
:1054600020F00E94F33008F0F3C1F9C108959F9332
:1054700004D49F91D0F0FA93EA939F93BF93AF9394
:1054800049D4AF91BF919F9158F08D30B1F38A30DC
:1054900029F0992391F38D939A95EFCF88949927CA
:1054A00080E08C938FB722968FBF0895E6D330F0BB
:1054B000FA93EA93FDD308F0CBC1D1C10895DDD3AF
:1054C00028F0808D827009F08FEFC3C18FEF0895AF
:1054D000D4D340F0FA93EA9381E0C7D15ED508F0C7
:1054E000B7C1BDC10895FF93EF9327D34AD258F0B7
:1054F000FF93EF93E3E1F4E0A1E0B4E08CE043D16B
:10550000EF91FF918894AF91BF9130F488278C93ED
:10551000923409F49EC1089540D30E94B833119784
:105520008EE28D9340D30E94B833EFE1F4E0ADE01A
:10553000B4E086E028C1FF93EF93E6D2E4CF802F5A
:10554000C8D09091E603891B982F83958927909165
:10555000EA03892311F488940895C5D005D02ED08C
:1055600008F4089516D0F7CFE6EEF3E0D0D00E940D
:105570000C3372F08091EA0380FD06C036952795C2
:10558000179507958695F8CF0E5F1F4F2F4F3F4F0A
:1055900008958091EA03025010402040304080FD81
:1055A00006C0000F111F221F331F8695F8CFE6EEAD
:1055B000F3E0ADD00C9407330ED1D6DFA7EDB3E006
:1055C000A1D00090D60300FE04C0000F111F221FBF
:1055D000331F0F93012F122F232F33270E940733DE
:1055E00072D18F91E8F00090D60300FA9927880FC6
:1055F000991FE80FF91F222733270191119136F4E3
:10560000219131913F7032976FEF7FE0329748EFF1
:105610005FEF0417150716F42607370710F091E21D
:1056200010C117C151D002E0A02E4427552766278C
:10563000772704C0AFEEB3E05BD0AA243F932F934B
:105640001F930F937F936F935F934F93AF92B6DF48
:10565000AF904F915F916F917F910F911F912F911B
:105660003F91ABEEB3E0CD90DD90ED90FD9010F466
:10567000913249F5C016D106E206F30618F19927D2
:105680008191982B8191982B2EF48191982B819167
:105690008F70982B31F4A1FE0EC04F5F5F4F6F4F9C
:1056A0007F4F802F912F15D09127969516F4802744
:1056B000880F00F7C3CF32970EF43297AFEEB3E006
:1056C0002BD0C7C092E2BDC0002711272227332765
:1056D00008950F5F1F4F2F4F3F4F0895552766279F
:1056E00077270C9407330150104020403040089534
:1056F0000D911D912D913D9108950191119121914F
:10570000319108954D915D916D917D9108954191F3
:1057100051916191719108950D931D932D933D9336
:1057200008950193119321933193089541935193D7
:105730006193719308952227332701911191089560
:10574000662777274D915D91089541915191089574
:105750004D935D9308950D931D930895402F512F00
:10576000622F732F0895005010402040304008955C
:10577000569547958A95E1F70895440F551F8A95E8
:10578000E1F7089584E09F9391919D938A95E1F7C5
:105790009F910895E881F9810895A881B9811896AB
:1057A0000895E881F9813C960895E881F981389659
:1057B000B8CFE881F9813896A0CFF3DFB2CFF1DF1F
:1057C0009CCFEFDFA4CFA881B9811C960895E88112
:1057D000F98174960895FBDF90CFE881F981808D7F
:1057E0000895E881F98170960895FBDF86CFF9DF8F
:1057F0008ECFF7DF96CF0090D60300FA8FEF81931C
:1058000081931EF481938FE0819342C00090D60370
:1058100000FA0193119316F42193319339C0E88172
:10582000F98179960895D3DF7CCFA881B981549608
:1058300008950F900F900F900F900F900F90089574
:10584000229608949093D4030895882799E4F9CF79
:105850002296889490E0F6CF229688940895229616
:105860000894089580EA01C084E8E881F9819F9353
:10587000908D892B808F9F910895E881F9819F9366
:10588000908D80958923808F9F91089588E0EDCF3A
:1058900080912A06886080932A06089580912504C5
:1058A00088608093250408950E943A2708F0D1CF9C
:1058B000C8CF0E94532708F0CCCFC3CFA1E2B4E0F9
:1058C000E6E2F4E0F1CF80E1A6E2B6E006C080E0D7
:1058D000A1E2B4E002C0A9DF80E814DF0E94113326
:1058E00031F4E8941196EA2FFB2F1597B6CF9D91CE
:1058F000EA2FFB2F792F777E872B8E93149793FFB8
:1059000018C00F931F932F933F939F93AF93BF9311
:10591000D0DFBF91AF919F91A8F094FF06C0AF93E5
:10592000BF93A5D3BF91AF9168F03F912F911F9185
:105930000F91F2DED7DFEF93FF93B6DFFF91EF9188
:105940006894089578CF49DF8670B1F44EDF002760
:105950001E7F442752E0C3DE4CDF3FDF867061F4D8
:105960003ADFEDDD20F061DFB6DF38F088C291323A
:1059700021F47ADF91E265CF91E063CFDED009F0C8
:1059800065CFFA93EA93A5D008F469CF83858F3069
:1059900099F0827C89F480818E3271F0853E61F0CD
:1059A0008030D1F0A881B9819C919F3311F0981378
:1059B00003C07BE0B5D0A1F0B09681E0480F25F799
:1059C0008827581F5F934F930FD008F080DF4F91C7
:1059D0005F91D0F6903C08F492E4E991F99131CFCF
:1059E000AFE1B4E0B5DE34CF0090D60300FC19C0BF
:1059F000A7EFB3E07DDEA0EEB3E05F934F9382DECE
:105A00000E9411334F915F9161F4A4EEB3E06D9168
:105A10007D914617570710F091E313CF0FD059DE51
:105A200018CF0CD03F932F931F930F9388DD08F06E
:105A300002CF0F911F912F913F910895A1E2B4E001
:105A400057CE4FD008F43CC08081853E81F1803034
:105A500071F1B09681E0480FBDF78827581F5F931A
:105A60004F93C2DF08F033DF4F915F9168F79132B7
:105A700039F55F934F9378DD3F932F931F930F93E7
:105A8000D9DDF8F0B8DE6ADE0F911F912F913F91BA
:105A90007F936F935F934F9391DD0F911F912F91A0
:105AA0003F9180F4913281F4B1DE9FD2DDCFAFE13E
:105AB000B4E04EDE1DDEABEFB3E04ADE2DDEC9CE34
:105AC000C0CEB7CE93E2BDDEB8CEA881B981129622
:105AD0000AC044275527A7EFB3E006C0ADE0B4E005
